{
  "contracts/RandomNumberConsumer.sol": {
    "GrabARedEnvelope": {
      "abi": [
        {
          "inputs": [
            {
              "internalType": "contract ERC20",
              "name": "_tokenAddress",
              "type": "address"
            },
            {
              "internalType": "uint256",
              "name": "_x",
              "type": "uint256"
            },
            {
              "internalType": "uint256",
              "name": "_y",
              "type": "uint256"
            }
          ],
          "stateMutability": "nonpayable",
          "type": "constructor"
        },
        {
          "anonymous": false,
          "inputs": [
            {
              "indexed": true,
              "internalType": "address",
              "name": "previousOwner",
              "type": "address"
            },
            {
              "indexed": true,
              "internalType": "address",
              "name": "newOwner",
              "type": "address"
            }
          ],
          "name": "OwnershipTransferred",
          "type": "event"
        },
        {
          "inputs": [
            {
              "internalType": "contract ERC20",
              "name": "_tokenAddress",
              "type": "address"
            },
            {
              "internalType": "address",
              "name": "_userAddress",
              "type": "address"
            },
            {
              "internalType": "uint256",
              "name": "_count",
              "type": "uint256"
            }
          ],
          "name": "borrowMoney",
          "outputs": [],
          "stateMutability": "nonpayable",
          "type": "function"
        },
        {
          "inputs": [],
          "name": "getReceivingUsers",
          "outputs": [
            {
              "internalType": "uint256",
              "name": "",
              "type": "uint256"
            }
          ],
          "stateMutability": "view",
          "type": "function"
        },
        {
          "inputs": [
            {
              "internalType": "address",
              "name": "_userAddress",
              "type": "address"
            }
          ],
          "name": "getUser",
          "outputs": [
            {
              "internalType": "uint256",
              "name": "",
              "type": "uint256"
            }
          ],
          "stateMutability": "view",
          "type": "function"
        },
        {
          "inputs": [],
          "name": "obtainBonus",
          "outputs": [],
          "stateMutability": "nonpayable",
          "type": "function"
        },
        {
          "inputs": [],
          "name": "owner",
          "outputs": [
            {
              "internalType": "address",
              "name": "",
              "type": "address"
            }
          ],
          "stateMutability": "view",
          "type": "function"
        },
        {
          "inputs": [],
          "name": "randomNumberConsumer",
          "outputs": [
            {
              "internalType": "contract RandomNumberConsumer",
              "name": "",
              "type": "address"
            }
          ],
          "stateMutability": "view",
          "type": "function"
        },
        {
          "inputs": [],
          "name": "renounceOwnership",
          "outputs": [],
          "stateMutability": "nonpayable",
          "type": "function"
        },
        {
          "inputs": [
            {
              "internalType": "contract RandomNumberConsumer",
              "name": "_randomNumberAddress",
              "type": "address"
            }
          ],
          "name": "setRandomNumberAddress",
          "outputs": [],
          "stateMutability": "nonpayable",
          "type": "function"
        },
        {
          "inputs": [
            {
              "internalType": "contract ERC20",
              "name": "_tokenAddress",
              "type": "address"
            }
          ],
          "name": "setTokenAddress",
          "outputs": [],
          "stateMutability": "nonpayable",
          "type": "function"
        },
        {
          "inputs": [
            {
              "internalType": "uint256",
              "name": "_x",
              "type": "uint256"
            },
            {
              "internalType": "uint256",
              "name": "_y",
              "type": "uint256"
            }
          ],
          "name": "setXAndY",
          "outputs": [],
          "stateMutability": "nonpayable",
          "type": "function"
        },
        {
          "inputs": [],
          "name": "tokenAddress",
          "outputs": [
            {
              "internalType": "contract ERC20",
              "name": "",
              "type": "address"
            }
          ],
          "stateMutability": "view",
          "type": "function"
        },
        {
          "inputs": [
            {
              "internalType": "address",
              "name": "newOwner",
              "type": "address"
            }
          ],
          "name": "transferOwnership",
          "outputs": [],
          "stateMutability": "nonpayable",
          "type": "function"
        },
        {
          "inputs": [],
          "name": "userReceive",
          "outputs": [],
          "stateMutability": "nonpayable",
          "type": "function"
        }
      ],
      "evm": {
        "bytecode": {
          "linkReferences": {},
          "object": "60806040523480156200001157600080fd5b50604051620036a6380380620036a6833981810160405281019062000037919062000224565b620000576200004b6200011c60201b60201c565b6200012460201b60201c565b81816040516200006790620001e8565b620000749291906200028b565b604051809103906000f08015801562000091573d6000803e3d6000fd5b50600260006101000a81548173ffffffffffffffffffffffffffffffffffffffff021916908373ffffffffffffffffffffffffffffffffffffffff16021790555082600160006101000a81548173ffffffffffffffffffffffffffffffffffffffff021916908373ffffffffffffffffffffffffffffffffffffffff1602179055505050506200033e565b600033905090565b60008060009054906101000a900473ffffffffffffffffffffffffffffffffffffffff169050816000806101000a81548173ffffffffffffffffffffffffffffffffffffffff021916908373ffffffffffffffffffffffffffffffffffffffff1602179055508173ffffffffffffffffffffffffffffffffffffffff168173ffffffffffffffffffffffffffffffffffffffff167f8be0079c531659141344cd1fd0a4f28419497f9722a3daafe3b4186f6b6457e060405160405180910390a35050565b6118d38062001dd383390190565b60008151905062000207816200030a565b92915050565b6000815190506200021e8162000324565b92915050565b6000806000606084860312156200023a57600080fd5b60006200024a86828701620001f6565b93505060206200025d868287016200020d565b925050604062000270868287016200020d565b9150509250925092565b620002858162000300565b82525050565b6000604082019050620002a260008301856200027a565b620002b160208301846200027a565b9392505050565b6000620002c582620002e0565b9050919050565b6000620002d982620002b8565b9050919050565b600073ffffffffffffffffffffffffffffffffffffffff82169050919050565b6000819050919050565b6200031581620002cc565b81146200032157600080fd5b50565b6200032f8162000300565b81146200033b57600080fd5b50565b611a85806200034e6000396000f3fe608060405234801561001057600080fd5b50600436106100cf5760003560e01c80636f77926b1161008c5780639d76ea58116100665780639d76ea58146101c6578063dd301b0b146101e4578063e9f5b9e2146101ee578063f2fde38b1461020a576100cf565b80636f77926b1461016e578063715018a61461019e5780638da5cb5b146101a8576100cf565b806326a4e8d2146100d45780632fae4793146100f057806341e2e1111461010c57806346df22da146101285780634b6c62d91461014657806353a5971414610150575b600080fd5b6100ee60048036038101906100e99190611057565b610226565b005b61010a60048036038101906101059190611121565b6102e6565b005b61012660048036038101906101219190611080565b6103f5565b005b610130610557565b60405161013d9190611374565b60405180910390f35b61014e61057d565b005b610158610760565b6040516101659190611471565b60405180910390f35b61018860048036038101906101839190610fdc565b61076a565b6040516101959190611471565b60405180910390f35b6101a661081e565b005b6101b06108a6565b6040516101bd9190611315565b60405180910390f35b6101ce6108cf565b6040516101db9190611359565b60405180910390f35b6101ec6108f5565b005b610208600480360381019061020391906110cf565b6109bd565b005b610224600480360381019061021f9190610fdc565b610a7d565b005b61022e610b75565b73ffffffffffffffffffffffffffffffffffffffff1661024c6108a6565b73ffffffffffffffffffffffffffffffffffffffff16146102a2576040517f08c379a000000000000000000000000000000000000000000000000000000000815260040161029990611411565b60405180910390fd5b80600160006101000a81548173ffffffffffffffffffffffffffffffffffffffff021916908373ffffffffffffffffffffffffffffffffffffffff16021790555050565b6102ee610b75565b73ffffffffffffffffffffffffffffffffffffffff1661030c6108a6565b73ffffffffffffffffffffffffffffffffffffffff1614610362576040517f08c379a000000000000000000000000000000000000000000000000000000000815260040161035990611411565b60405180910390fd5b600260009054906101000a900473ffffffffffffffffffffffffffffffffffffffff1673ffffffffffffffffffffffffffffffffffffffff16632fae479383836040518363ffffffff1660e01b81526004016103bf92919061148c565b600060405180830381600087803b1580156103d957600080fd5b505af11580156103ed573d6000803e3d6000fd5b505050505050565b6103fd610b75565b73ffffffffffffffffffffffffffffffffffffffff1661041b6108a6565b73ffffffffffffffffffffffffffffffffffffffff1614610471576040517f08c379a000000000000000000000000000000000000000000000000000000000815260040161046890611411565b60405180910390fd5b61055282600160009054906101000a900473ffffffffffffffffffffffffffffffffffffffff1673ffffffffffffffffffffffffffffffffffffffff1663313ce5676040518163ffffffff1660e01b815260040160206040518083038186803b1580156104dd57600080fd5b505afa1580156104f1573d6000803e3d6000fd5b505050506040513d601f19601f82011682018060405250810190610515919061115d565b600a610521919061153a565b8361052c9190611658565b8573ffffffffffffffffffffffffffffffffffffffff16610b7d9092919063ffffffff16565b505050565b600260009054906101000a900473ffffffffffffffffffffffffffffffffffffffff1681565b60006105883361076a565b9050600081116105cd576040517f08c379a00000000000000000000000000000000000000000000000000000000081526004016105c4906113d1565b60405180910390fd5b6106d033600160009054906101000a900473ffffffffffffffffffffffffffffffffffffffff1673ffffffffffffffffffffffffffffffffffffffff1663313ce5676040518163ffffffff1660e01b815260040160206040518083038186803b15801561063957600080fd5b505afa15801561064d573d6000803e3d6000fd5b505050506040513d601f19601f82011682018060405250810190610671919061115d565b600a61067d919061153a565b836106889190611658565b600160009054906101000a900473ffffffffffffffffffffffffffffffffffffffff1673ffffffffffffffffffffffffffffffffffffffff16610b7d9092919063ffffffff16565b600260009054906101000a900473ffffffffffffffffffffffffffffffffffffffff1673ffffffffffffffffffffffffffffffffffffffff166346903137336040518263ffffffff1660e01b815260040161072b9190611315565b600060405180830381600087803b15801561074557600080fd5b505af1158015610759573d6000803e3d6000fd5b5050505050565b6000600354905090565b6000600260009054906101000a900473ffffffffffffffffffffffffffffffffffffffff1673ffffffffffffffffffffffffffffffffffffffff1663bc173cd9836040518263ffffffff1660e01b81526004016107c79190611315565b60206040518083038186803b1580156107df57600080fd5b505afa1580156107f3573d6000803e3d6000fd5b505050506040513d601f19601f8201168201806040525081019061081791906110f8565b9050919050565b610826610b75565b73ffffffffffffffffffffffffffffffffffffffff166108446108a6565b73ffffffffffffffffffffffffffffffffffffffff161461089a576040517f08c379a000000000000000000000000000000000000000000000000000000000815260040161089190611411565b60405180910390fd5b6108a46000610c03565b565b60008060009054906101000a900473ffffffffffffffffffffffffffffffffffffffff16905090565b600160009054906101000a900473ffffffffffffffffffffffffffffffffffffffff1681565b600260009054906101000a900473ffffffffffffffffffffffffffffffffffffffff1673ffffffffffffffffffffffffffffffffffffffff16633b6dde13336040518263ffffffff1660e01b81526004016109509190611315565b602060405180830381600087803b15801561096a57600080fd5b505af115801561097e573d6000803e3d6000fd5b505050506040513d601f19601f820116820180604052508101906109a2919061102e565b50600360008154809291906109b6906117b0565b9190505550565b6109c5610b75565b73ffffffffffffffffffffffffffffffffffffffff166109e36108a6565b73ffffffffffffffffffffffffffffffffffffffff1614610a39576040517f08c379a0000000000000000000000000000000000000000000000000000000008152600401610a3090611411565b60405180910390fd5b80600260006101000a81548173ffffffffffffffffffffffffffffffffffffffff021916908373ffffffffffffffffffffffffffffffffffffffff16021790555050565b610a85610b75565b73ffffffffffffffffffffffffffffffffffffffff16610aa36108a6565b73ffffffffffffffffffffffffffffffffffffffff1614610af9576040517f08c379a0000000000000000000000000000000000000000000000000000000008152600401610af090611411565b60405180910390fd5b600073ffffffffffffffffffffffffffffffffffffffff168173ffffffffffffffffffffffffffffffffffffffff161415610b69576040517f08c379a0000000000000000000000000000000000000000000000000000000008152600401610b60906113b1565b60405180910390fd5b610b7281610c03565b50565b600033905090565b610bfe8363a9059cbb60e01b8484604051602401610b9c929190611330565b604051602081830303815290604052907bffffffffffffffffffffffffffffffffffffffffffffffffffffffff19166020820180517bffffffffffffffffffffffffffffffffffffffffffffffffffffffff8381831617835250505050610cc7565b505050565b60008060009054906101000a900473ffffffffffffffffffffffffffffffffffffffff169050816000806101000a81548173ffffffffffffffffffffffffffffffffffffffff021916908373ffffffffffffffffffffffffffffffffffffffff1602179055508173ffffffffffffffffffffffffffffffffffffffff168173ffffffffffffffffffffffffffffffffffffffff167f8be0079c531659141344cd1fd0a4f28419497f9722a3daafe3b4186f6b6457e060405160405180910390a35050565b6000610d29826040518060400160405280602081526020017f5361666545524332303a206c6f772d6c6576656c2063616c6c206661696c65648152508573ffffffffffffffffffffffffffffffffffffffff16610d8e9092919063ffffffff16565b9050600081511115610d895780806020019051810190610d499190611005565b610d88576040517f08c379a0000000000000000000000000000000000000000000000000000000008152600401610d7f90611451565b60405180910390fd5b5b505050565b6060610d9d8484600085610da6565b90509392505050565b606082471015610deb576040517f08c379a0000000000000000000000000000000000000000000000000000000008152600401610de2906113f1565b60405180910390fd5b610df485610eba565b610e33576040517f08c379a0000000000000000000000000000000000000000000000000000000008152600401610e2a90611431565b60405180910390fd5b6000808673ffffffffffffffffffffffffffffffffffffffff168587604051610e5c91906112fe565b60006040518083038185875af1925050503d8060008114610e99576040519150601f19603f3d011682016040523d82523d6000602084013e610e9e565b606091505b5091509150610eae828286610ecd565b92505050949350505050565b600080823b905060008111915050919050565b60608315610edd57829050610f2d565b600083511115610ef05782518084602001fd5b816040517f08c379a0000000000000000000000000000000000000000000000000000000008152600401610f24919061138f565b60405180910390fd5b9392505050565b600081359050610f43816119ae565b92915050565b600081519050610f58816119c5565b92915050565b600081519050610f6d816119dc565b92915050565b600081359050610f82816119f3565b92915050565b600081359050610f9781611a0a565b92915050565b600081359050610fac81611a21565b92915050565b600081519050610fc181611a21565b92915050565b600081519050610fd681611a38565b92915050565b600060208284031215610fee57600080fd5b6000610ffc84828501610f34565b91505092915050565b60006020828403121561101757600080fd5b600061102584828501610f49565b91505092915050565b60006020828403121561104057600080fd5b600061104e84828501610f5e565b91505092915050565b60006020828403121561106957600080fd5b600061107784828501610f73565b91505092915050565b60008060006060848603121561109557600080fd5b60006110a386828701610f73565b93505060206110b486828701610f34565b92505060406110c586828701610f9d565b9150509250925092565b6000602082840312156110e157600080fd5b60006110ef84828501610f88565b91505092915050565b60006020828403121561110a57600080fd5b600061111884828501610fb2565b91505092915050565b6000806040838503121561113457600080fd5b600061114285828601610f9d565b925050602061115385828601610f9d565b9150509250929050565b60006020828403121561116f57600080fd5b600061117d84828501610fc7565b91505092915050565b61118f816116b2565b82525050565b60006111a0826114b5565b6111aa81856114cb565b93506111ba81856020860161177d565b80840191505092915050565b6111cf81611735565b82525050565b6111de81611759565b82525050565b60006111ef826114c0565b6111f981856114d6565b935061120981856020860161177d565b61121281611828565b840191505092915050565b600061122a6026836114d6565b915061123582611846565b604082019050919050565b600061124d601e836114d6565b915061125882611895565b602082019050919050565b60006112706026836114d6565b915061127b826118be565b604082019050919050565b60006112936020836114d6565b915061129e8261190d565b602082019050919050565b60006112b6601d836114d6565b91506112c182611936565b602082019050919050565b60006112d9602a836114d6565b91506112e48261195f565b604082019050919050565b6112f88161171e565b82525050565b600061130a8284611195565b915081905092915050565b600060208201905061132a6000830184611186565b92915050565b60006040820190506113456000830185611186565b61135260208301846112ef565b9392505050565b600060208201905061136e60008301846111c6565b92915050565b600060208201905061138960008301846111d5565b92915050565b600060208201905081810360008301526113a981846111e4565b905092915050565b600060208201905081810360008301526113ca8161121d565b9050919050565b600060208201905081810360008301526113ea81611240565b9050919050565b6000602082019050818103600083015261140a81611263565b9050919050565b6000602082019050818103600083015261142a81611286565b9050919050565b6000602082019050818103600083015261144a816112a9565b9050919050565b6000602082019050818103600083015261146a816112cc565b9050919050565b600060208201905061148660008301846112ef565b92915050565b60006040820190506114a160008301856112ef565b6114ae60208301846112ef565b9392505050565b600081519050919050565b600081519050919050565b600081905092915050565b600082825260208201905092915050565b6000808291508390505b60018511156115315780860481111561150d5761150c6117f9565b5b600185161561151c5780820291505b808102905061152a85611839565b94506114f1565b94509492505050565b60006115458261171e565b915061155083611728565b925061157d7fffffffffffffffffffffffffffffffffffffffffffffffffffffffffffffffff8484611585565b905092915050565b6000826115955760019050611651565b816115a35760009050611651565b81600181146115b957600281146115c3576115f2565b6001915050611651565b60ff8411156115d5576115d46117f9565b5b8360020a9150848211156115ec576115eb6117f9565b5b50611651565b5060208310610133831016604e8410600b84101617156116275782820a905083811115611622576116216117f9565b5b611651565b61163484848460016114e7565b9250905081840481111561164b5761164a6117f9565b5b81810290505b9392505050565b60006116638261171e565b915061166e8361171e565b9250817fffffffffffffffffffffffffffffffffffffffffffffffffffffffffffffffff04831182151516156116a7576116a66117f9565b5b828202905092915050565b60006116bd826116fe565b9050919050565b60008115159050919050565b6000819050919050565b60006116e5826116b2565b9050919050565b60006116f7826116b2565b9050919050565b600073ffffffffffffffffffffffffffffffffffffffff82169050919050565b6000819050919050565b600060ff82169050919050565b600061174082611747565b9050919050565b6000611752826116fe565b9050919050565b60006117648261176b565b9050919050565b6000611776826116fe565b9050919050565b60005b8381101561179b578082015181840152602081019050611780565b838111156117aa576000848401525b50505050565b60006117bb8261171e565b91507fffffffffffffffffffffffffffffffffffffffffffffffffffffffffffffffff8214156117ee576117ed6117f9565b5b600182019050919050565b7f4e487b7100000000000000000000000000000000000000000000000000000000600052601160045260246000fd5b6000601f19601f8301169050919050565b60008160011c9050919050565b7f4f776e61626c653a206e6577206f776e657220697320746865207a65726f206160008201527f6464726573730000000000000000000000000000000000000000000000000000602082015250565b7f5468657265206172652063757272656e746c79206e6f20726577617264730000600082015250565b7f416464726573733a20696e73756666696369656e742062616c616e636520666f60008201527f722063616c6c0000000000000000000000000000000000000000000000000000602082015250565b7f4f776e61626c653a2063616c6c6572206973206e6f7420746865206f776e6572600082015250565b7f416464726573733a2063616c6c20746f206e6f6e2d636f6e7472616374000000600082015250565b7f5361666545524332303a204552433230206f7065726174696f6e20646964206e60008201527f6f74207375636365656400000000000000000000000000000000000000000000602082015250565b6119b7816116b2565b81146119c257600080fd5b50565b6119ce816116c4565b81146119d957600080fd5b50565b6119e5816116d0565b81146119f057600080fd5b50565b6119fc816116da565b8114611a0757600080fd5b50565b611a13816116ec565b8114611a1e57600080fd5b50565b611a2a8161171e565b8114611a3557600080fd5b50565b611a4181611728565b8114611a4c57600080fd5b5056fea26469706673582212206d952875dc2ccc61087724772db9058d858b9e3ccfc689d3ab7762819e8b7f6d64736f6c6343000804003360c06040523480156200001157600080fd5b50604051620018d3380380620018d3833981810160405281019062000037919062000225565b73dd3782915140c8f3b190b5d67eac6dc5760c46e973a36085f69e2889c224210f603d836748e7dc00888173ffffffffffffffffffffffffffffffffffffffff1660a08173ffffffffffffffffffffffffffffffffffffffff1660601b815250508073ffffffffffffffffffffffffffffffffffffffff1660808173ffffffffffffffffffffffffffffffffffffffff1660601b815250505050620000f1620000e56200014060201b60201c565b6200014860201b60201c565b81600781905550806008819055507f6c3699283bda56ad74f6b855546325b68d482e983852a7a82979cc4807b641f460001b60028190555067016345785d8a000060038190555050506200028a565b600033905090565b6000600160009054906101000a900473ffffffffffffffffffffffffffffffffffffffff16905081600160006101000a81548173ffffffffffffffffffffffffffffffffffffffff021916908373ffffffffffffffffffffffffffffffffffffffff1602179055508173ffffffffffffffffffffffffffffffffffffffff168173ffffffffffffffffffffffffffffffffffffffff167f8be0079c531659141344cd1fd0a4f28419497f9722a3daafe3b4186f6b6457e060405160405180910390a35050565b6000815190506200021f8162000270565b92915050565b600080604083850312156200023957600080fd5b600062000249858286016200020e565b92505060206200025c858286016200020e565b9150509250929050565b6000819050919050565b6200027b8162000266565b81146200028757600080fd5b50565b60805160601c60a05160601c61160f620002c46000396000818161073601526109d50152600081816102d10152610999015261160f6000f3fe608060405234801561001057600080fd5b50600436106100935760003560e01c8063715018a611610066578063715018a6146101305780638da5cb5b1461013a57806394985ddd14610158578063bc173cd914610174578063f2fde38b146101a457610093565b80632fae4793146100985780633b6dde13146100b457806346903137146100e4578063682904a514610100575b600080fd5b6100b260048036038101906100ad9190610ea0565b6101c0565b005b6100ce60048036038101906100c99190610dc0565b61024e565b6040516100db9190611128565b60405180910390f35b6100fe60048036038101906100f99190610dc0565b610420565b005b61011a60048036038101906101159190610e4e565b6104e4565b6040516101279190611106565b60405180910390f35b610138610682565b005b61014261070a565b60405161014f91906110ad565b60405180910390f35b610172600480360381019061016d9190610e12565b610734565b005b61018e60048036038101906101899190610dc0565b6107d0565b60405161019b9190611231565b60405180910390f35b6101be60048036038101906101b99190610dc0565b610895565b005b6101c861098d565b73ffffffffffffffffffffffffffffffffffffffff166101e661070a565b73ffffffffffffffffffffffffffffffffffffffff161461023c576040517f08c379a0000000000000000000000000000000000000000000000000000000008152600401610233906111f1565b60405180910390fd5b81600781905550806008819055505050565b600061025861098d565b73ffffffffffffffffffffffffffffffffffffffff1661027661070a565b73ffffffffffffffffffffffffffffffffffffffff16146102cc576040517f08c379a00000000000000000000000000000000000000000000000000000000081526004016102c3906111f1565b60405180910390fd5b6003547f000000000000000000000000000000000000000000000000000000000000000073ffffffffffffffffffffffffffffffffffffffff166370a08231306040518263ffffffff1660e01b815260040161032891906110ad565b60206040518083038186803b15801561034057600080fd5b505afa158015610354573d6000803e3d6000fd5b505050506040513d601f19601f820116820180604052508101906103789190610e77565b10156103b9576040517f08c379a00000000000000000000000000000000000000000000000000000000081526004016103b0906111d1565b60405180910390fd5b6103c7600254600354610995565b9050816006600083815260200190815260200160002060006101000a81548173ffffffffffffffffffffffffffffffffffffffff021916908373ffffffffffffffffffffffffffffffffffffffff160217905550919050565b61042861098d565b73ffffffffffffffffffffffffffffffffffffffff1661044661070a565b73ffffffffffffffffffffffffffffffffffffffff161461049c576040517f08c379a0000000000000000000000000000000000000000000000000000000008152600401610493906111f1565b60405180910390fd5b6000600560008373ffffffffffffffffffffffffffffffffffffffff1673ffffffffffffffffffffffffffffffffffffffff1681526020019081526020016000208190555050565b60606104ee61098d565b73ffffffffffffffffffffffffffffffffffffffff1661050c61070a565b73ffffffffffffffffffffffffffffffffffffffff1614610562576040517f08c379a0000000000000000000000000000000000000000000000000000000008152600401610559906111f1565b60405180910390fd5b8167ffffffffffffffff8111156105a2577f4e487b7100000000000000000000000000000000000000000000000000000000600052604160045260246000fd5b6040519080825280602002602001820160405280156105d05781602001602082028036833780820191505090505b50905060005b8281101561067c5760016032600454836040516020016105f792919061124c565b6040516020818303038152906040528051906020012060001c61061a9190611413565b61062491906112db565b82828151811061065d577f4e487b7100000000000000000000000000000000000000000000000000000000600052603260045260246000fd5b6020026020010181815250508080610674906113b6565b9150506105d6565b50919050565b61068a61098d565b73ffffffffffffffffffffffffffffffffffffffff166106a861070a565b73ffffffffffffffffffffffffffffffffffffffff16146106fe576040517f08c379a00000000000000000000000000000000000000000000000000000000081526004016106f5906111f1565b60405180910390fd5b6107086000610af4565b565b6000600160009054906101000a900473ffffffffffffffffffffffffffffffffffffffff16905090565b7f000000000000000000000000000000000000000000000000000000000000000073ffffffffffffffffffffffffffffffffffffffff163373ffffffffffffffffffffffffffffffffffffffff16146107c2576040517f08c379a00000000000000000000000000000000000000000000000000000000081526004016107b990611211565b60405180910390fd5b6107cc8282610bba565b5050565b60006107da61098d565b73ffffffffffffffffffffffffffffffffffffffff166107f861070a565b73ffffffffffffffffffffffffffffffffffffffff161461084e576040517f08c379a0000000000000000000000000000000000000000000000000000000008152600401610845906111f1565b60405180910390fd5b600560008373ffffffffffffffffffffffffffffffffffffffff1673ffffffffffffffffffffffffffffffffffffffff168152602001908152602001600020549050919050565b61089d61098d565b73ffffffffffffffffffffffffffffffffffffffff166108bb61070a565b73ffffffffffffffffffffffffffffffffffffffff1614610911576040517f08c379a0000000000000000000000000000000000000000000000000000000008152600401610908906111f1565b60405180910390fd5b600073ffffffffffffffffffffffffffffffffffffffff168173ffffffffffffffffffffffffffffffffffffffff161415610981576040517f08c379a0000000000000000000000000000000000000000000000000000000008152600401610978906111b1565b60405180910390fd5b61098a81610af4565b50565b600033905090565b60007f000000000000000000000000000000000000000000000000000000000000000073ffffffffffffffffffffffffffffffffffffffff16634000aea07f000000000000000000000000000000000000000000000000000000000000000084866000604051602001610a09929190611143565b6040516020818303038152906040526040518463ffffffff1660e01b8152600401610a36939291906110c8565b602060405180830381600087803b158015610a5057600080fd5b505af1158015610a64573d6000803e3d6000fd5b505050506040513d601f19601f82011682018060405250810190610a889190610de9565b506000610aaa8460003060008089815260200190815260200160002054610c62565b9050600160008086815260200190815260200160002054610acb91906112db565b60008086815260200190815260200160002081905550610aeb8482610c9e565b91505092915050565b6000600160009054906101000a900473ffffffffffffffffffffffffffffffffffffffff16905081600160006101000a81548173ffffffffffffffffffffffffffffffffffffffff021916908373ffffffffffffffffffffffffffffffffffffffff1602179055508173ffffffffffffffffffffffffffffffffffffffff168173ffffffffffffffffffffffffffffffffffffffff167f8be0079c531659141344cd1fd0a4f28419497f9722a3daafe3b4186f6b6457e060405160405180910390a35050565b6000610bc4610cd1565b905060018183610bd49190611413565b610bde91906112db565b600481905550600454600560006006600087815260200190815260200160002060009054906101000a900473ffffffffffffffffffffffffffffffffffffffff1673ffffffffffffffffffffffffffffffffffffffff1673ffffffffffffffffffffffffffffffffffffffff16815260200190815260200160002081905550505050565b600084848484604051602001610c7b949392919061116c565b6040516020818303038152906040528051906020012060001c9050949350505050565b60008282604051602001610cb3929190611081565b60405160208183030381529060405280519060200120905092915050565b6000610cdb61098d565b73ffffffffffffffffffffffffffffffffffffffff16610cf961070a565b73ffffffffffffffffffffffffffffffffffffffff1614610d4f576040517f08c379a0000000000000000000000000000000000000000000000000000000008152600401610d46906111f1565b60405180910390fd5b600754905090565b600081359050610d668161157d565b92915050565b600081519050610d7b81611594565b92915050565b600081359050610d90816115ab565b92915050565b600081359050610da5816115c2565b92915050565b600081519050610dba816115c2565b92915050565b600060208284031215610dd257600080fd5b6000610de084828501610d57565b91505092915050565b600060208284031215610dfb57600080fd5b6000610e0984828501610d6c565b91505092915050565b60008060408385031215610e2557600080fd5b6000610e3385828601610d81565b9250506020610e4485828601610d96565b9150509250929050565b600060208284031215610e6057600080fd5b6000610e6e84828501610d96565b91505092915050565b600060208284031215610e8957600080fd5b6000610e9784828501610dab565b91505092915050565b60008060408385031215610eb357600080fd5b6000610ec185828601610d96565b9250506020610ed285828601610d96565b9150509250929050565b6000610ee8838361104c565b60208301905092915050565b610efd81611331565b82525050565b6000610f0e82611285565b610f1881856112a8565b9350610f2383611275565b8060005b83811015610f54578151610f3b8882610edc565b9750610f468361129b565b925050600181019050610f27565b5085935050505092915050565b610f6a8161134f565b82525050565b610f81610f7c8261134f565b6113ff565b82525050565b6000610f9282611290565b610f9c81856112b9565b9350610fac818560208601611383565b610fb5816114a2565b840191505092915050565b6000610fcd6026836112ca565b9150610fd8826114b3565b604082019050919050565b6000610ff0600f836112ca565b9150610ffb82611502565b602082019050919050565b60006110136020836112ca565b915061101e8261152b565b602082019050919050565b6000611036601f836112ca565b915061104182611554565b602082019050919050565b61105581611379565b82525050565b61106481611379565b82525050565b61107b61107682611379565b611409565b82525050565b600061108d8285610f70565b60208201915061109d828461106a565b6020820191508190509392505050565b60006020820190506110c26000830184610ef4565b92915050565b60006060820190506110dd6000830186610ef4565b6110ea602083018561105b565b81810360408301526110fc8184610f87565b9050949350505050565b600060208201905081810360008301526111208184610f03565b905092915050565b600060208201905061113d6000830184610f61565b92915050565b60006040820190506111586000830185610f61565b611165602083018461105b565b9392505050565b60006080820190506111816000830187610f61565b61118e602083018661105b565b61119b6040830185610ef4565b6111a8606083018461105b565b95945050505050565b600060208201905081810360008301526111ca81610fc0565b9050919050565b600060208201905081810360008301526111ea81610fe3565b9050919050565b6000602082019050818103600083015261120a81611006565b9050919050565b6000602082019050818103600083015261122a81611029565b9050919050565b6000602082019050611246600083018461105b565b92915050565b6000604082019050611261600083018561105b565b61126e602083018461105b565b9392505050565b6000819050602082019050919050565b600081519050919050565b600081519050919050565b6000602082019050919050565b600082825260208201905092915050565b600082825260208201905092915050565b600082825260208201905092915050565b60006112e682611379565b91506112f183611379565b9250827fffffffffffffffffffffffffffffffffffffffffffffffffffffffffffffffff0382111561132657611325611444565b5b828201905092915050565b600061133c82611359565b9050919050565b60008115159050919050565b6000819050919050565b600073ffffffffffffffffffffffffffffffffffffffff82169050919050565b6000819050919050565b60005b838110156113a1578082015181840152602081019050611386565b838111156113b0576000848401525b50505050565b60006113c182611379565b91507fffffffffffffffffffffffffffffffffffffffffffffffffffffffffffffffff8214156113f4576113f3611444565b5b600182019050919050565b6000819050919050565b6000819050919050565b600061141e82611379565b915061142983611379565b92508261143957611438611473565b5b828206905092915050565b7f4e487b7100000000000000000000000000000000000000000000000000000000600052601160045260246000fd5b7f4e487b7100000000000000000000000000000000000000000000000000000000600052601260045260246000fd5b6000601f19601f8301169050919050565b7f4f776e61626c653a206e6577206f776e657220697320746865207a65726f206160008201527f6464726573730000000000000000000000000000000000000000000000000000602082015250565b7f4e6f7420656e6f756768204c494e4b0000000000000000000000000000000000600082015250565b7f4f776e61626c653a2063616c6c6572206973206e6f7420746865206f776e6572600082015250565b7f4f6e6c7920565246436f6f7264696e61746f722063616e2066756c66696c6c00600082015250565b61158681611331565b811461159157600080fd5b50565b61159d81611343565b81146115a857600080fd5b50565b6115b48161134f565b81146115bf57600080fd5b50565b6115cb81611379565b81146115d657600080fd5b5056fea264697066735822122061e3566f61c52b6cddad741e47f71ad428d37c82281d4ad3cd6d9bc8b481f9e164736f6c63430008040033",
          "opcodes": "PUSH1 0x80 PUSH1 0x40 MSTORE CALLVALUE DUP1 ISZERO PUSH3 0x11 JUMPI PUSH1 0x0 DUP1 REVERT JUMPDEST POP PUSH1 0x40 MLOAD PUSH3 0x36A6 CODESIZE SUB DUP1 PUSH3 0x36A6 DUP4 CODECOPY DUP2 DUP2 ADD PUSH1 0x40 MSTORE DUP2 ADD SWAP1 PUSH3 0x37 SWAP2 SWAP1 PUSH3 0x224 JUMP JUMPDEST PUSH3 0x57 PUSH3 0x4B PUSH3 0x11C PUSH1 0x20 SHL PUSH1 0x20 SHR JUMP JUMPDEST PUSH3 0x124 PUSH1 0x20 SHL PUSH1 0x20 SHR JUMP JUMPDEST DUP2 DUP2 PUSH1 0x40 MLOAD PUSH3 0x67 SWAP1 PUSH3 0x1E8 JUMP JUMPDEST PUSH3 0x74 SWAP3 SWAP2 SWAP1 PUSH3 0x28B JUMP JUMPDEST PUSH1 0x40 MLOAD DUP1 SWAP2 SUB SWAP1 PUSH1 0x0 CREATE DUP1 ISZERO DUP1 ISZERO PUSH3 0x91 JUMPI RETURNDATASIZE PUSH1 0x0 DUP1 RETURNDATACOPY RETURNDATASIZE PUSH1 0x0 REVERT JUMPDEST POP PUSH1 0x2 PUSH1 0x0 PUSH2 0x100 EXP DUP2 SLOAD DUP2 PUSH20 0xFFFFFFFFFFFFFFFFFFFFFFFFFFFFFFFFFFFFFFFF MUL NOT AND SWAP1 DUP4 PUSH20 0xFFFFFFFFFFFFFFFFFFFFFFFFFFFFFFFFFFFFFFFF AND MUL OR SWAP1 SSTORE POP DUP3 PUSH1 0x1 PUSH1 0x0 PUSH2 0x100 EXP DUP2 SLOAD DUP2 PUSH20 0xFFFFFFFFFFFFFFFFFFFFFFFFFFFFFFFFFFFFFFFF MUL NOT AND SWAP1 DUP4 PUSH20 0xFFFFFFFFFFFFFFFFFFFFFFFFFFFFFFFFFFFFFFFF AND MUL OR SWAP1 SSTORE POP POP POP POP PUSH3 0x33E JUMP JUMPDEST PUSH1 0x0 CALLER SWAP1 POP SWAP1 JUMP JUMPDEST PUSH1 0x0 DUP1 PUSH1 0x0 SWAP1 SLOAD SWAP1 PUSH2 0x100 EXP SWAP1 DIV PUSH20 0xFFFFFFFFFFFFFFFFFFFFFFFFFFFFFFFFFFFFFFFF AND SWAP1 POP DUP2 PUSH1 0x0 DUP1 PUSH2 0x100 EXP DUP2 SLOAD DUP2 PUSH20 0xFFFFFFFFFFFFFFFFFFFFFFFFFFFFFFFFFFFFFFFF MUL NOT AND SWAP1 DUP4 PUSH20 0xFFFFFFFFFFFFFFFFFFFFFFFFFFFFFFFFFFFFFFFF AND MUL OR SWAP1 SSTORE POP DUP2 PUSH20 0xFFFFFFFFFFFFFFFFFFFFFFFFFFFFFFFFFFFFFFFF AND DUP2 PUSH20 0xFFFFFFFFFFFFFFFFFFFFFFFFFFFFFFFFFFFFFFFF AND PUSH32 0x8BE0079C531659141344CD1FD0A4F28419497F9722A3DAAFE3B4186F6B6457E0 PUSH1 0x40 MLOAD PUSH1 0x40 MLOAD DUP1 SWAP2 SUB SWAP1 LOG3 POP POP JUMP JUMPDEST PUSH2 0x18D3 DUP1 PUSH3 0x1DD3 DUP4 CODECOPY ADD SWAP1 JUMP JUMPDEST PUSH1 0x0 DUP2 MLOAD SWAP1 POP PUSH3 0x207 DUP2 PUSH3 0x30A JUMP JUMPDEST SWAP3 SWAP2 POP POP JUMP JUMPDEST PUSH1 0x0 DUP2 MLOAD SWAP1 POP PUSH3 0x21E DUP2 PUSH3 0x324 JUMP JUMPDEST SWAP3 SWAP2 POP POP JUMP JUMPDEST PUSH1 0x0 DUP1 PUSH1 0x0 PUSH1 0x60 DUP5 DUP7 SUB SLT ISZERO PUSH3 0x23A JUMPI PUSH1 0x0 DUP1 REVERT JUMPDEST PUSH1 0x0 PUSH3 0x24A DUP7 DUP3 DUP8 ADD PUSH3 0x1F6 JUMP JUMPDEST SWAP4 POP POP PUSH1 0x20 PUSH3 0x25D DUP7 DUP3 DUP8 ADD PUSH3 0x20D JUMP JUMPDEST SWAP3 POP POP PUSH1 0x40 PUSH3 0x270 DUP7 DUP3 DUP8 ADD PUSH3 0x20D JUMP JUMPDEST SWAP2 POP POP SWAP3 POP SWAP3 POP SWAP3 JUMP JUMPDEST PUSH3 0x285 DUP2 PUSH3 0x300 JUMP JUMPDEST DUP3 MSTORE POP POP JUMP JUMPDEST PUSH1 0x0 PUSH1 0x40 DUP3 ADD SWAP1 POP PUSH3 0x2A2 PUSH1 0x0 DUP4 ADD DUP6 PUSH3 0x27A JUMP JUMPDEST PUSH3 0x2B1 PUSH1 0x20 DUP4 ADD DUP5 PUSH3 0x27A JUMP JUMPDEST SWAP4 SWAP3 POP POP POP JUMP JUMPDEST PUSH1 0x0 PUSH3 0x2C5 DUP3 PUSH3 0x2E0 JUMP JUMPDEST SWAP1 POP SWAP2 SWAP1 POP JUMP JUMPDEST PUSH1 0x0 PUSH3 0x2D9 DUP3 PUSH3 0x2B8 JUMP JUMPDEST SWAP1 POP SWAP2 SWAP1 POP JUMP JUMPDEST PUSH1 0x0 PUSH20 0xFFFFFFFFFFFFFFFFFFFFFFFFFFFFFFFFFFFFFFFF DUP3 AND SWAP1 POP SWAP2 SWAP1 POP JUMP JUMPDEST PUSH1 0x0 DUP2 SWAP1 POP SWAP2 SWAP1 POP JUMP JUMPDEST PUSH3 0x315 DUP2 PUSH3 0x2CC JUMP JUMPDEST DUP2 EQ PUSH3 0x321 JUMPI PUSH1 0x0 DUP1 REVERT JUMPDEST POP JUMP JUMPDEST PUSH3 0x32F DUP2 PUSH3 0x300 JUMP JUMPDEST DUP2 EQ PUSH3 0x33B JUMPI PUSH1 0x0 DUP1 REVERT JUMPDEST POP JUMP JUMPDEST PUSH2 0x1A85 DUP1 PUSH3 0x34E PUSH1 0x0 CODECOPY PUSH1 0x0 RETURN INVALID PUSH1 0x80 PUSH1 0x40 MSTORE CALLVALUE DUP1 ISZERO PUSH2 0x10 JUMPI PUSH1 0x0 DUP1 REVERT JUMPDEST POP PUSH1 0x4 CALLDATASIZE LT PUSH2 0xCF JUMPI PUSH1 0x0 CALLDATALOAD PUSH1 0xE0 SHR DUP1 PUSH4 0x6F77926B GT PUSH2 0x8C JUMPI DUP1 PUSH4 0x9D76EA58 GT PUSH2 0x66 JUMPI DUP1 PUSH4 0x9D76EA58 EQ PUSH2 0x1C6 JUMPI DUP1 PUSH4 0xDD301B0B EQ PUSH2 0x1E4 JUMPI DUP1 PUSH4 0xE9F5B9E2 EQ PUSH2 0x1EE JUMPI DUP1 PUSH4 0xF2FDE38B EQ PUSH2 0x20A JUMPI PUSH2 0xCF JUMP JUMPDEST DUP1 PUSH4 0x6F77926B EQ PUSH2 0x16E JUMPI DUP1 PUSH4 0x715018A6 EQ PUSH2 0x19E JUMPI DUP1 PUSH4 0x8DA5CB5B EQ PUSH2 0x1A8 JUMPI PUSH2 0xCF JUMP JUMPDEST DUP1 PUSH4 0x26A4E8D2 EQ PUSH2 0xD4 JUMPI DUP1 PUSH4 0x2FAE4793 EQ PUSH2 0xF0 JUMPI DUP1 PUSH4 0x41E2E111 EQ PUSH2 0x10C JUMPI DUP1 PUSH4 0x46DF22DA EQ PUSH2 0x128 JUMPI DUP1 PUSH4 0x4B6C62D9 EQ PUSH2 0x146 JUMPI DUP1 PUSH4 0x53A59714 EQ PUSH2 0x150 JUMPI JUMPDEST PUSH1 0x0 DUP1 REVERT JUMPDEST PUSH2 0xEE PUSH1 0x4 DUP1 CALLDATASIZE SUB DUP2 ADD SWAP1 PUSH2 0xE9 SWAP2 SWAP1 PUSH2 0x1057 JUMP JUMPDEST PUSH2 0x226 JUMP JUMPDEST STOP JUMPDEST PUSH2 0x10A PUSH1 0x4 DUP1 CALLDATASIZE SUB DUP2 ADD SWAP1 PUSH2 0x105 SWAP2 SWAP1 PUSH2 0x1121 JUMP JUMPDEST PUSH2 0x2E6 JUMP JUMPDEST STOP JUMPDEST PUSH2 0x126 PUSH1 0x4 DUP1 CALLDATASIZE SUB DUP2 ADD SWAP1 PUSH2 0x121 SWAP2 SWAP1 PUSH2 0x1080 JUMP JUMPDEST PUSH2 0x3F5 JUMP JUMPDEST STOP JUMPDEST PUSH2 0x130 PUSH2 0x557 JUMP JUMPDEST PUSH1 0x40 MLOAD PUSH2 0x13D SWAP2 SWAP1 PUSH2 0x1374 JUMP JUMPDEST PUSH1 0x40 MLOAD DUP1 SWAP2 SUB SWAP1 RETURN JUMPDEST PUSH2 0x14E PUSH2 0x57D JUMP JUMPDEST STOP JUMPDEST PUSH2 0x158 PUSH2 0x760 JUMP JUMPDEST PUSH1 0x40 MLOAD PUSH2 0x165 SWAP2 SWAP1 PUSH2 0x1471 JUMP JUMPDEST PUSH1 0x40 MLOAD DUP1 SWAP2 SUB SWAP1 RETURN JUMPDEST PUSH2 0x188 PUSH1 0x4 DUP1 CALLDATASIZE SUB DUP2 ADD SWAP1 PUSH2 0x183 SWAP2 SWAP1 PUSH2 0xFDC JUMP JUMPDEST PUSH2 0x76A JUMP JUMPDEST PUSH1 0x40 MLOAD PUSH2 0x195 SWAP2 SWAP1 PUSH2 0x1471 JUMP JUMPDEST PUSH1 0x40 MLOAD DUP1 SWAP2 SUB SWAP1 RETURN JUMPDEST PUSH2 0x1A6 PUSH2 0x81E JUMP JUMPDEST STOP JUMPDEST PUSH2 0x1B0 PUSH2 0x8A6 JUMP JUMPDEST PUSH1 0x40 MLOAD PUSH2 0x1BD SWAP2 SWAP1 PUSH2 0x1315 JUMP JUMPDEST PUSH1 0x40 MLOAD DUP1 SWAP2 SUB SWAP1 RETURN JUMPDEST PUSH2 0x1CE PUSH2 0x8CF JUMP JUMPDEST PUSH1 0x40 MLOAD PUSH2 0x1DB SWAP2 SWAP1 PUSH2 0x1359 JUMP JUMPDEST PUSH1 0x40 MLOAD DUP1 SWAP2 SUB SWAP1 RETURN JUMPDEST PUSH2 0x1EC PUSH2 0x8F5 JUMP JUMPDEST STOP JUMPDEST PUSH2 0x208 PUSH1 0x4 DUP1 CALLDATASIZE SUB DUP2 ADD SWAP1 PUSH2 0x203 SWAP2 SWAP1 PUSH2 0x10CF JUMP JUMPDEST PUSH2 0x9BD JUMP JUMPDEST STOP JUMPDEST PUSH2 0x224 PUSH1 0x4 DUP1 CALLDATASIZE SUB DUP2 ADD SWAP1 PUSH2 0x21F SWAP2 SWAP1 PUSH2 0xFDC JUMP JUMPDEST PUSH2 0xA7D JUMP JUMPDEST STOP JUMPDEST PUSH2 0x22E PUSH2 0xB75 JUMP JUMPDEST PUSH20 0xFFFFFFFFFFFFFFFFFFFFFFFFFFFFFFFFFFFFFFFF AND PUSH2 0x24C PUSH2 0x8A6 JUMP JUMPDEST PUSH20 0xFFFFFFFFFFFFFFFFFFFFFFFFFFFFFFFFFFFFFFFF AND EQ PUSH2 0x2A2 JUMPI PUSH1 0x40 MLOAD PUSH32 0x8C379A000000000000000000000000000000000000000000000000000000000 DUP2 MSTORE PUSH1 0x4 ADD PUSH2 0x299 SWAP1 PUSH2 0x1411 JUMP JUMPDEST PUSH1 0x40 MLOAD DUP1 SWAP2 SUB SWAP1 REVERT JUMPDEST DUP1 PUSH1 0x1 PUSH1 0x0 PUSH2 0x100 EXP DUP2 SLOAD DUP2 PUSH20 0xFFFFFFFFFFFFFFFFFFFFFFFFFFFFFFFFFFFFFFFF MUL NOT AND SWAP1 DUP4 PUSH20 0xFFFFFFFFFFFFFFFFFFFFFFFFFFFFFFFFFFFFFFFF AND MUL OR SWAP1 SSTORE POP POP JUMP JUMPDEST PUSH2 0x2EE PUSH2 0xB75 JUMP JUMPDEST PUSH20 0xFFFFFFFFFFFFFFFFFFFFFFFFFFFFFFFFFFFFFFFF AND PUSH2 0x30C PUSH2 0x8A6 JUMP JUMPDEST PUSH20 0xFFFFFFFFFFFFFFFFFFFFFFFFFFFFFFFFFFFFFFFF AND EQ PUSH2 0x362 JUMPI PUSH1 0x40 MLOAD PUSH32 0x8C379A000000000000000000000000000000000000000000000000000000000 DUP2 MSTORE PUSH1 0x4 ADD PUSH2 0x359 SWAP1 PUSH2 0x1411 JUMP JUMPDEST PUSH1 0x40 MLOAD DUP1 SWAP2 SUB SWAP1 REVERT JUMPDEST PUSH1 0x2 PUSH1 0x0 SWAP1 SLOAD SWAP1 PUSH2 0x100 EXP SWAP1 DIV PUSH20 0xFFFFFFFFFFFFFFFFFFFFFFFFFFFFFFFFFFFFFFFF AND PUSH20 0xFFFFFFFFFFFFFFFFFFFFFFFFFFFFFFFFFFFFFFFF AND PUSH4 0x2FAE4793 DUP4 DUP4 PUSH1 0x40 MLOAD DUP4 PUSH4 0xFFFFFFFF AND PUSH1 0xE0 SHL DUP2 MSTORE PUSH1 0x4 ADD PUSH2 0x3BF SWAP3 SWAP2 SWAP1 PUSH2 0x148C JUMP JUMPDEST PUSH1 0x0 PUSH1 0x40 MLOAD DUP1 DUP4 SUB DUP2 PUSH1 0x0 DUP8 DUP1 EXTCODESIZE ISZERO DUP1 ISZERO PUSH2 0x3D9 JUMPI PUSH1 0x0 DUP1 REVERT JUMPDEST POP GAS CALL ISZERO DUP1 ISZERO PUSH2 0x3ED JUMPI RETURNDATASIZE PUSH1 0x0 DUP1 RETURNDATACOPY RETURNDATASIZE PUSH1 0x0 REVERT JUMPDEST POP POP POP POP POP POP JUMP JUMPDEST PUSH2 0x3FD PUSH2 0xB75 JUMP JUMPDEST PUSH20 0xFFFFFFFFFFFFFFFFFFFFFFFFFFFFFFFFFFFFFFFF AND PUSH2 0x41B PUSH2 0x8A6 JUMP JUMPDEST PUSH20 0xFFFFFFFFFFFFFFFFFFFFFFFFFFFFFFFFFFFFFFFF AND EQ PUSH2 0x471 JUMPI PUSH1 0x40 MLOAD PUSH32 0x8C379A000000000000000000000000000000000000000000000000000000000 DUP2 MSTORE PUSH1 0x4 ADD PUSH2 0x468 SWAP1 PUSH2 0x1411 JUMP JUMPDEST PUSH1 0x40 MLOAD DUP1 SWAP2 SUB SWAP1 REVERT JUMPDEST PUSH2 0x552 DUP3 PUSH1 0x1 PUSH1 0x0 SWAP1 SLOAD SWAP1 PUSH2 0x100 EXP SWAP1 DIV PUSH20 0xFFFFFFFFFFFFFFFFFFFFFFFFFFFFFFFFFFFFFFFF AND PUSH20 0xFFFFFFFFFFFFFFFFFFFFFFFFFFFFFFFFFFFFFFFF AND PUSH4 0x313CE567 PUSH1 0x40 MLOAD DUP2 PUSH4 0xFFFFFFFF AND PUSH1 0xE0 SHL DUP2 MSTORE PUSH1 0x4 ADD PUSH1 0x20 PUSH1 0x40 MLOAD DUP1 DUP4 SUB DUP2 DUP7 DUP1 EXTCODESIZE ISZERO DUP1 ISZERO PUSH2 0x4DD JUMPI PUSH1 0x0 DUP1 REVERT JUMPDEST POP GAS STATICCALL ISZERO DUP1 ISZERO PUSH2 0x4F1 JUMPI RETURNDATASIZE PUSH1 0x0 DUP1 RETURNDATACOPY RETURNDATASIZE PUSH1 0x0 REVERT JUMPDEST POP POP POP POP PUSH1 0x40 MLOAD RETURNDATASIZE PUSH1 0x1F NOT PUSH1 0x1F DUP3 ADD AND DUP3 ADD DUP1 PUSH1 0x40 MSTORE POP DUP2 ADD SWAP1 PUSH2 0x515 SWAP2 SWAP1 PUSH2 0x115D JUMP JUMPDEST PUSH1 0xA PUSH2 0x521 SWAP2 SWAP1 PUSH2 0x153A JUMP JUMPDEST DUP4 PUSH2 0x52C SWAP2 SWAP1 PUSH2 0x1658 JUMP JUMPDEST DUP6 PUSH20 0xFFFFFFFFFFFFFFFFFFFFFFFFFFFFFFFFFFFFFFFF AND PUSH2 0xB7D SWAP1 SWAP3 SWAP2 SWAP1 PUSH4 0xFFFFFFFF AND JUMP JUMPDEST POP POP POP JUMP JUMPDEST PUSH1 0x2 PUSH1 0x0 SWAP1 SLOAD SWAP1 PUSH2 0x100 EXP SWAP1 DIV PUSH20 0xFFFFFFFFFFFFFFFFFFFFFFFFFFFFFFFFFFFFFFFF AND DUP2 JUMP JUMPDEST PUSH1 0x0 PUSH2 0x588 CALLER PUSH2 0x76A JUMP JUMPDEST SWAP1 POP PUSH1 0x0 DUP2 GT PUSH2 0x5CD JUMPI PUSH1 0x40 MLOAD PUSH32 0x8C379A000000000000000000000000000000000000000000000000000000000 DUP2 MSTORE PUSH1 0x4 ADD PUSH2 0x5C4 SWAP1 PUSH2 0x13D1 JUMP JUMPDEST PUSH1 0x40 MLOAD DUP1 SWAP2 SUB SWAP1 REVERT JUMPDEST PUSH2 0x6D0 CALLER PUSH1 0x1 PUSH1 0x0 SWAP1 SLOAD SWAP1 PUSH2 0x100 EXP SWAP1 DIV PUSH20 0xFFFFFFFFFFFFFFFFFFFFFFFFFFFFFFFFFFFFFFFF AND PUSH20 0xFFFFFFFFFFFFFFFFFFFFFFFFFFFFFFFFFFFFFFFF AND PUSH4 0x313CE567 PUSH1 0x40 MLOAD DUP2 PUSH4 0xFFFFFFFF AND PUSH1 0xE0 SHL DUP2 MSTORE PUSH1 0x4 ADD PUSH1 0x20 PUSH1 0x40 MLOAD DUP1 DUP4 SUB DUP2 DUP7 DUP1 EXTCODESIZE ISZERO DUP1 ISZERO PUSH2 0x639 JUMPI PUSH1 0x0 DUP1 REVERT JUMPDEST POP GAS STATICCALL ISZERO DUP1 ISZERO PUSH2 0x64D JUMPI RETURNDATASIZE PUSH1 0x0 DUP1 RETURNDATACOPY RETURNDATASIZE PUSH1 0x0 REVERT JUMPDEST POP POP POP POP PUSH1 0x40 MLOAD RETURNDATASIZE PUSH1 0x1F NOT PUSH1 0x1F DUP3 ADD AND DUP3 ADD DUP1 PUSH1 0x40 MSTORE POP DUP2 ADD SWAP1 PUSH2 0x671 SWAP2 SWAP1 PUSH2 0x115D JUMP JUMPDEST PUSH1 0xA PUSH2 0x67D SWAP2 SWAP1 PUSH2 0x153A JUMP JUMPDEST DUP4 PUSH2 0x688 SWAP2 SWAP1 PUSH2 0x1658 JUMP JUMPDEST PUSH1 0x1 PUSH1 0x0 SWAP1 SLOAD SWAP1 PUSH2 0x100 EXP SWAP1 DIV PUSH20 0xFFFFFFFFFFFFFFFFFFFFFFFFFFFFFFFFFFFFFFFF AND PUSH20 0xFFFFFFFFFFFFFFFFFFFFFFFFFFFFFFFFFFFFFFFF AND PUSH2 0xB7D SWAP1 SWAP3 SWAP2 SWAP1 PUSH4 0xFFFFFFFF AND JUMP JUMPDEST PUSH1 0x2 PUSH1 0x0 SWAP1 SLOAD SWAP1 PUSH2 0x100 EXP SWAP1 DIV PUSH20 0xFFFFFFFFFFFFFFFFFFFFFFFFFFFFFFFFFFFFFFFF AND PUSH20 0xFFFFFFFFFFFFFFFFFFFFFFFFFFFFFFFFFFFFFFFF AND PUSH4 0x46903137 CALLER PUSH1 0x40 MLOAD DUP3 PUSH4 0xFFFFFFFF AND PUSH1 0xE0 SHL DUP2 MSTORE PUSH1 0x4 ADD PUSH2 0x72B SWAP2 SWAP1 PUSH2 0x1315 JUMP JUMPDEST PUSH1 0x0 PUSH1 0x40 MLOAD DUP1 DUP4 SUB DUP2 PUSH1 0x0 DUP8 DUP1 EXTCODESIZE ISZERO DUP1 ISZERO PUSH2 0x745 JUMPI PUSH1 0x0 DUP1 REVERT JUMPDEST POP GAS CALL ISZERO DUP1 ISZERO PUSH2 0x759 JUMPI RETURNDATASIZE PUSH1 0x0 DUP1 RETURNDATACOPY RETURNDATASIZE PUSH1 0x0 REVERT JUMPDEST POP POP POP POP POP JUMP JUMPDEST PUSH1 0x0 PUSH1 0x3 SLOAD SWAP1 POP SWAP1 JUMP JUMPDEST PUSH1 0x0 PUSH1 0x2 PUSH1 0x0 SWAP1 SLOAD SWAP1 PUSH2 0x100 EXP SWAP1 DIV PUSH20 0xFFFFFFFFFFFFFFFFFFFFFFFFFFFFFFFFFFFFFFFF AND PUSH20 0xFFFFFFFFFFFFFFFFFFFFFFFFFFFFFFFFFFFFFFFF AND PUSH4 0xBC173CD9 DUP4 PUSH1 0x40 MLOAD DUP3 PUSH4 0xFFFFFFFF AND PUSH1 0xE0 SHL DUP2 MSTORE PUSH1 0x4 ADD PUSH2 0x7C7 SWAP2 SWAP1 PUSH2 0x1315 JUMP JUMPDEST PUSH1 0x20 PUSH1 0x40 MLOAD DUP1 DUP4 SUB DUP2 DUP7 DUP1 EXTCODESIZE ISZERO DUP1 ISZERO PUSH2 0x7DF JUMPI PUSH1 0x0 DUP1 REVERT JUMPDEST POP GAS STATICCALL ISZERO DUP1 ISZERO PUSH2 0x7F3 JUMPI RETURNDATASIZE PUSH1 0x0 DUP1 RETURNDATACOPY RETURNDATASIZE PUSH1 0x0 REVERT JUMPDEST POP POP POP POP PUSH1 0x40 MLOAD RETURNDATASIZE PUSH1 0x1F NOT PUSH1 0x1F DUP3 ADD AND DUP3 ADD DUP1 PUSH1 0x40 MSTORE POP DUP2 ADD SWAP1 PUSH2 0x817 SWAP2 SWAP1 PUSH2 0x10F8 JUMP JUMPDEST SWAP1 POP SWAP2 SWAP1 POP JUMP JUMPDEST PUSH2 0x826 PUSH2 0xB75 JUMP JUMPDEST PUSH20 0xFFFFFFFFFFFFFFFFFFFFFFFFFFFFFFFFFFFFFFFF AND PUSH2 0x844 PUSH2 0x8A6 JUMP JUMPDEST PUSH20 0xFFFFFFFFFFFFFFFFFFFFFFFFFFFFFFFFFFFFFFFF AND EQ PUSH2 0x89A JUMPI PUSH1 0x40 MLOAD PUSH32 0x8C379A000000000000000000000000000000000000000000000000000000000 DUP2 MSTORE PUSH1 0x4 ADD PUSH2 0x891 SWAP1 PUSH2 0x1411 JUMP JUMPDEST PUSH1 0x40 MLOAD DUP1 SWAP2 SUB SWAP1 REVERT JUMPDEST PUSH2 0x8A4 PUSH1 0x0 PUSH2 0xC03 JUMP JUMPDEST JUMP JUMPDEST PUSH1 0x0 DUP1 PUSH1 0x0 SWAP1 SLOAD SWAP1 PUSH2 0x100 EXP SWAP1 DIV PUSH20 0xFFFFFFFFFFFFFFFFFFFFFFFFFFFFFFFFFFFFFFFF AND SWAP1 POP SWAP1 JUMP JUMPDEST PUSH1 0x1 PUSH1 0x0 SWAP1 SLOAD SWAP1 PUSH2 0x100 EXP SWAP1 DIV PUSH20 0xFFFFFFFFFFFFFFFFFFFFFFFFFFFFFFFFFFFFFFFF AND DUP2 JUMP JUMPDEST PUSH1 0x2 PUSH1 0x0 SWAP1 SLOAD SWAP1 PUSH2 0x100 EXP SWAP1 DIV PUSH20 0xFFFFFFFFFFFFFFFFFFFFFFFFFFFFFFFFFFFFFFFF AND PUSH20 0xFFFFFFFFFFFFFFFFFFFFFFFFFFFFFFFFFFFFFFFF AND PUSH4 0x3B6DDE13 CALLER PUSH1 0x40 MLOAD DUP3 PUSH4 0xFFFFFFFF AND PUSH1 0xE0 SHL DUP2 MSTORE PUSH1 0x4 ADD PUSH2 0x950 SWAP2 SWAP1 PUSH2 0x1315 JUMP JUMPDEST PUSH1 0x20 PUSH1 0x40 MLOAD DUP1 DUP4 SUB DUP2 PUSH1 0x0 DUP8 DUP1 EXTCODESIZE ISZERO DUP1 ISZERO PUSH2 0x96A JUMPI PUSH1 0x0 DUP1 REVERT JUMPDEST POP GAS CALL ISZERO DUP1 ISZERO PUSH2 0x97E JUMPI RETURNDATASIZE PUSH1 0x0 DUP1 RETURNDATACOPY RETURNDATASIZE PUSH1 0x0 REVERT JUMPDEST POP POP POP POP PUSH1 0x40 MLOAD RETURNDATASIZE PUSH1 0x1F NOT PUSH1 0x1F DUP3 ADD AND DUP3 ADD DUP1 PUSH1 0x40 MSTORE POP DUP2 ADD SWAP1 PUSH2 0x9A2 SWAP2 SWAP1 PUSH2 0x102E JUMP JUMPDEST POP PUSH1 0x3 PUSH1 0x0 DUP2 SLOAD DUP1 SWAP3 SWAP2 SWAP1 PUSH2 0x9B6 SWAP1 PUSH2 0x17B0 JUMP JUMPDEST SWAP2 SWAP1 POP SSTORE POP JUMP JUMPDEST PUSH2 0x9C5 PUSH2 0xB75 JUMP JUMPDEST PUSH20 0xFFFFFFFFFFFFFFFFFFFFFFFFFFFFFFFFFFFFFFFF AND PUSH2 0x9E3 PUSH2 0x8A6 JUMP JUMPDEST PUSH20 0xFFFFFFFFFFFFFFFFFFFFFFFFFFFFFFFFFFFFFFFF AND EQ PUSH2 0xA39 JUMPI PUSH1 0x40 MLOAD PUSH32 0x8C379A000000000000000000000000000000000000000000000000000000000 DUP2 MSTORE PUSH1 0x4 ADD PUSH2 0xA30 SWAP1 PUSH2 0x1411 JUMP JUMPDEST PUSH1 0x40 MLOAD DUP1 SWAP2 SUB SWAP1 REVERT JUMPDEST DUP1 PUSH1 0x2 PUSH1 0x0 PUSH2 0x100 EXP DUP2 SLOAD DUP2 PUSH20 0xFFFFFFFFFFFFFFFFFFFFFFFFFFFFFFFFFFFFFFFF MUL NOT AND SWAP1 DUP4 PUSH20 0xFFFFFFFFFFFFFFFFFFFFFFFFFFFFFFFFFFFFFFFF AND MUL OR SWAP1 SSTORE POP POP JUMP JUMPDEST PUSH2 0xA85 PUSH2 0xB75 JUMP JUMPDEST PUSH20 0xFFFFFFFFFFFFFFFFFFFFFFFFFFFFFFFFFFFFFFFF AND PUSH2 0xAA3 PUSH2 0x8A6 JUMP JUMPDEST PUSH20 0xFFFFFFFFFFFFFFFFFFFFFFFFFFFFFFFFFFFFFFFF AND EQ PUSH2 0xAF9 JUMPI PUSH1 0x40 MLOAD PUSH32 0x8C379A000000000000000000000000000000000000000000000000000000000 DUP2 MSTORE PUSH1 0x4 ADD PUSH2 0xAF0 SWAP1 PUSH2 0x1411 JUMP JUMPDEST PUSH1 0x40 MLOAD DUP1 SWAP2 SUB SWAP1 REVERT JUMPDEST PUSH1 0x0 PUSH20 0xFFFFFFFFFFFFFFFFFFFFFFFFFFFFFFFFFFFFFFFF AND DUP2 PUSH20 0xFFFFFFFFFFFFFFFFFFFFFFFFFFFFFFFFFFFFFFFF AND EQ ISZERO PUSH2 0xB69 JUMPI PUSH1 0x40 MLOAD PUSH32 0x8C379A000000000000000000000000000000000000000000000000000000000 DUP2 MSTORE PUSH1 0x4 ADD PUSH2 0xB60 SWAP1 PUSH2 0x13B1 JUMP JUMPDEST PUSH1 0x40 MLOAD DUP1 SWAP2 SUB SWAP1 REVERT JUMPDEST PUSH2 0xB72 DUP2 PUSH2 0xC03 JUMP JUMPDEST POP JUMP JUMPDEST PUSH1 0x0 CALLER SWAP1 POP SWAP1 JUMP JUMPDEST PUSH2 0xBFE DUP4 PUSH4 0xA9059CBB PUSH1 0xE0 SHL DUP5 DUP5 PUSH1 0x40 MLOAD PUSH1 0x24 ADD PUSH2 0xB9C SWAP3 SWAP2 SWAP1 PUSH2 0x1330 JUMP JUMPDEST PUSH1 0x40 MLOAD PUSH1 0x20 DUP2 DUP4 SUB SUB DUP2 MSTORE SWAP1 PUSH1 0x40 MSTORE SWAP1 PUSH28 0xFFFFFFFFFFFFFFFFFFFFFFFFFFFFFFFFFFFFFFFFFFFFFFFFFFFFFFFF NOT AND PUSH1 0x20 DUP3 ADD DUP1 MLOAD PUSH28 0xFFFFFFFFFFFFFFFFFFFFFFFFFFFFFFFFFFFFFFFFFFFFFFFFFFFFFFFF DUP4 DUP2 DUP4 AND OR DUP4 MSTORE POP POP POP POP PUSH2 0xCC7 JUMP JUMPDEST POP POP POP JUMP JUMPDEST PUSH1 0x0 DUP1 PUSH1 0x0 SWAP1 SLOAD SWAP1 PUSH2 0x100 EXP SWAP1 DIV PUSH20 0xFFFFFFFFFFFFFFFFFFFFFFFFFFFFFFFFFFFFFFFF AND SWAP1 POP DUP2 PUSH1 0x0 DUP1 PUSH2 0x100 EXP DUP2 SLOAD DUP2 PUSH20 0xFFFFFFFFFFFFFFFFFFFFFFFFFFFFFFFFFFFFFFFF MUL NOT AND SWAP1 DUP4 PUSH20 0xFFFFFFFFFFFFFFFFFFFFFFFFFFFFFFFFFFFFFFFF AND MUL OR SWAP1 SSTORE POP DUP2 PUSH20 0xFFFFFFFFFFFFFFFFFFFFFFFFFFFFFFFFFFFFFFFF AND DUP2 PUSH20 0xFFFFFFFFFFFFFFFFFFFFFFFFFFFFFFFFFFFFFFFF AND PUSH32 0x8BE0079C531659141344CD1FD0A4F28419497F9722A3DAAFE3B4186F6B6457E0 PUSH1 0x40 MLOAD PUSH1 0x40 MLOAD DUP1 SWAP2 SUB SWAP1 LOG3 POP POP JUMP JUMPDEST PUSH1 0x0 PUSH2 0xD29 DUP3 PUSH1 0x40 MLOAD DUP1 PUSH1 0x40 ADD PUSH1 0x40 MSTORE DUP1 PUSH1 0x20 DUP2 MSTORE PUSH1 0x20 ADD PUSH32 0x5361666545524332303A206C6F772D6C6576656C2063616C6C206661696C6564 DUP2 MSTORE POP DUP6 PUSH20 0xFFFFFFFFFFFFFFFFFFFFFFFFFFFFFFFFFFFFFFFF AND PUSH2 0xD8E SWAP1 SWAP3 SWAP2 SWAP1 PUSH4 0xFFFFFFFF AND JUMP JUMPDEST SWAP1 POP PUSH1 0x0 DUP2 MLOAD GT ISZERO PUSH2 0xD89 JUMPI DUP1 DUP1 PUSH1 0x20 ADD SWAP1 MLOAD DUP2 ADD SWAP1 PUSH2 0xD49 SWAP2 SWAP1 PUSH2 0x1005 JUMP JUMPDEST PUSH2 0xD88 JUMPI PUSH1 0x40 MLOAD PUSH32 0x8C379A000000000000000000000000000000000000000000000000000000000 DUP2 MSTORE PUSH1 0x4 ADD PUSH2 0xD7F SWAP1 PUSH2 0x1451 JUMP JUMPDEST PUSH1 0x40 MLOAD DUP1 SWAP2 SUB SWAP1 REVERT JUMPDEST JUMPDEST POP POP POP JUMP JUMPDEST PUSH1 0x60 PUSH2 0xD9D DUP5 DUP5 PUSH1 0x0 DUP6 PUSH2 0xDA6 JUMP JUMPDEST SWAP1 POP SWAP4 SWAP3 POP POP POP JUMP JUMPDEST PUSH1 0x60 DUP3 SELFBALANCE LT ISZERO PUSH2 0xDEB JUMPI PUSH1 0x40 MLOAD PUSH32 0x8C379A000000000000000000000000000000000000000000000000000000000 DUP2 MSTORE PUSH1 0x4 ADD PUSH2 0xDE2 SWAP1 PUSH2 0x13F1 JUMP JUMPDEST PUSH1 0x40 MLOAD DUP1 SWAP2 SUB SWAP1 REVERT JUMPDEST PUSH2 0xDF4 DUP6 PUSH2 0xEBA JUMP JUMPDEST PUSH2 0xE33 JUMPI PUSH1 0x40 MLOAD PUSH32 0x8C379A000000000000000000000000000000000000000000000000000000000 DUP2 MSTORE PUSH1 0x4 ADD PUSH2 0xE2A SWAP1 PUSH2 0x1431 JUMP JUMPDEST PUSH1 0x40 MLOAD DUP1 SWAP2 SUB SWAP1 REVERT JUMPDEST PUSH1 0x0 DUP1 DUP7 PUSH20 0xFFFFFFFFFFFFFFFFFFFFFFFFFFFFFFFFFFFFFFFF AND DUP6 DUP8 PUSH1 0x40 MLOAD PUSH2 0xE5C SWAP2 SWAP1 PUSH2 0x12FE JUMP JUMPDEST PUSH1 0x0 PUSH1 0x40 MLOAD DUP1 DUP4 SUB DUP2 DUP6 DUP8 GAS CALL SWAP3 POP POP POP RETURNDATASIZE DUP1 PUSH1 0x0 DUP2 EQ PUSH2 0xE99 JUMPI PUSH1 0x40 MLOAD SWAP2 POP PUSH1 0x1F NOT PUSH1 0x3F RETURNDATASIZE ADD AND DUP3 ADD PUSH1 0x40 MSTORE RETURNDATASIZE DUP3 MSTORE RETURNDATASIZE PUSH1 0x0 PUSH1 0x20 DUP5 ADD RETURNDATACOPY PUSH2 0xE9E JUMP JUMPDEST PUSH1 0x60 SWAP2 POP JUMPDEST POP SWAP2 POP SWAP2 POP PUSH2 0xEAE DUP3 DUP3 DUP7 PUSH2 0xECD JUMP JUMPDEST SWAP3 POP POP POP SWAP5 SWAP4 POP POP POP POP JUMP JUMPDEST PUSH1 0x0 DUP1 DUP3 EXTCODESIZE SWAP1 POP PUSH1 0x0 DUP2 GT SWAP2 POP POP SWAP2 SWAP1 POP JUMP JUMPDEST PUSH1 0x60 DUP4 ISZERO PUSH2 0xEDD JUMPI DUP3 SWAP1 POP PUSH2 0xF2D JUMP JUMPDEST PUSH1 0x0 DUP4 MLOAD GT ISZERO PUSH2 0xEF0 JUMPI DUP3 MLOAD DUP1 DUP5 PUSH1 0x20 ADD REVERT JUMPDEST DUP2 PUSH1 0x40 MLOAD PUSH32 0x8C379A000000000000000000000000000000000000000000000000000000000 DUP2 MSTORE PUSH1 0x4 ADD PUSH2 0xF24 SWAP2 SWAP1 PUSH2 0x138F JUMP JUMPDEST PUSH1 0x40 MLOAD DUP1 SWAP2 SUB SWAP1 REVERT JUMPDEST SWAP4 SWAP3 POP POP POP JUMP JUMPDEST PUSH1 0x0 DUP2 CALLDATALOAD SWAP1 POP PUSH2 0xF43 DUP2 PUSH2 0x19AE JUMP JUMPDEST SWAP3 SWAP2 POP POP JUMP JUMPDEST PUSH1 0x0 DUP2 MLOAD SWAP1 POP PUSH2 0xF58 DUP2 PUSH2 0x19C5 JUMP JUMPDEST SWAP3 SWAP2 POP POP JUMP JUMPDEST PUSH1 0x0 DUP2 MLOAD SWAP1 POP PUSH2 0xF6D DUP2 PUSH2 0x19DC JUMP JUMPDEST SWAP3 SWAP2 POP POP JUMP JUMPDEST PUSH1 0x0 DUP2 CALLDATALOAD SWAP1 POP PUSH2 0xF82 DUP2 PUSH2 0x19F3 JUMP JUMPDEST SWAP3 SWAP2 POP POP JUMP JUMPDEST PUSH1 0x0 DUP2 CALLDATALOAD SWAP1 POP PUSH2 0xF97 DUP2 PUSH2 0x1A0A JUMP JUMPDEST SWAP3 SWAP2 POP POP JUMP JUMPDEST PUSH1 0x0 DUP2 CALLDATALOAD SWAP1 POP PUSH2 0xFAC DUP2 PUSH2 0x1A21 JUMP JUMPDEST SWAP3 SWAP2 POP POP JUMP JUMPDEST PUSH1 0x0 DUP2 MLOAD SWAP1 POP PUSH2 0xFC1 DUP2 PUSH2 0x1A21 JUMP JUMPDEST SWAP3 SWAP2 POP POP JUMP JUMPDEST PUSH1 0x0 DUP2 MLOAD SWAP1 POP PUSH2 0xFD6 DUP2 PUSH2 0x1A38 JUMP JUMPDEST SWAP3 SWAP2 POP POP JUMP JUMPDEST PUSH1 0x0 PUSH1 0x20 DUP3 DUP5 SUB SLT ISZERO PUSH2 0xFEE JUMPI PUSH1 0x0 DUP1 REVERT JUMPDEST PUSH1 0x0 PUSH2 0xFFC DUP5 DUP3 DUP6 ADD PUSH2 0xF34 JUMP JUMPDEST SWAP2 POP POP SWAP3 SWAP2 POP POP JUMP JUMPDEST PUSH1 0x0 PUSH1 0x20 DUP3 DUP5 SUB SLT ISZERO PUSH2 0x1017 JUMPI PUSH1 0x0 DUP1 REVERT JUMPDEST PUSH1 0x0 PUSH2 0x1025 DUP5 DUP3 DUP6 ADD PUSH2 0xF49 JUMP JUMPDEST SWAP2 POP POP SWAP3 SWAP2 POP POP JUMP JUMPDEST PUSH1 0x0 PUSH1 0x20 DUP3 DUP5 SUB SLT ISZERO PUSH2 0x1040 JUMPI PUSH1 0x0 DUP1 REVERT JUMPDEST PUSH1 0x0 PUSH2 0x104E DUP5 DUP3 DUP6 ADD PUSH2 0xF5E JUMP JUMPDEST SWAP2 POP POP SWAP3 SWAP2 POP POP JUMP JUMPDEST PUSH1 0x0 PUSH1 0x20 DUP3 DUP5 SUB SLT ISZERO PUSH2 0x1069 JUMPI PUSH1 0x0 DUP1 REVERT JUMPDEST PUSH1 0x0 PUSH2 0x1077 DUP5 DUP3 DUP6 ADD PUSH2 0xF73 JUMP JUMPDEST SWAP2 POP POP SWAP3 SWAP2 POP POP JUMP JUMPDEST PUSH1 0x0 DUP1 PUSH1 0x0 PUSH1 0x60 DUP5 DUP7 SUB SLT ISZERO PUSH2 0x1095 JUMPI PUSH1 0x0 DUP1 REVERT JUMPDEST PUSH1 0x0 PUSH2 0x10A3 DUP7 DUP3 DUP8 ADD PUSH2 0xF73 JUMP JUMPDEST SWAP4 POP POP PUSH1 0x20 PUSH2 0x10B4 DUP7 DUP3 DUP8 ADD PUSH2 0xF34 JUMP JUMPDEST SWAP3 POP POP PUSH1 0x40 PUSH2 0x10C5 DUP7 DUP3 DUP8 ADD PUSH2 0xF9D JUMP JUMPDEST SWAP2 POP POP SWAP3 POP SWAP3 POP SWAP3 JUMP JUMPDEST PUSH1 0x0 PUSH1 0x20 DUP3 DUP5 SUB SLT ISZERO PUSH2 0x10E1 JUMPI PUSH1 0x0 DUP1 REVERT JUMPDEST PUSH1 0x0 PUSH2 0x10EF DUP5 DUP3 DUP6 ADD PUSH2 0xF88 JUMP JUMPDEST SWAP2 POP POP SWAP3 SWAP2 POP POP JUMP JUMPDEST PUSH1 0x0 PUSH1 0x20 DUP3 DUP5 SUB SLT ISZERO PUSH2 0x110A JUMPI PUSH1 0x0 DUP1 REVERT JUMPDEST PUSH1 0x0 PUSH2 0x1118 DUP5 DUP3 DUP6 ADD PUSH2 0xFB2 JUMP JUMPDEST SWAP2 POP POP SWAP3 SWAP2 POP POP JUMP JUMPDEST PUSH1 0x0 DUP1 PUSH1 0x40 DUP4 DUP6 SUB SLT ISZERO PUSH2 0x1134 JUMPI PUSH1 0x0 DUP1 REVERT JUMPDEST PUSH1 0x0 PUSH2 0x1142 DUP6 DUP3 DUP7 ADD PUSH2 0xF9D JUMP JUMPDEST SWAP3 POP POP PUSH1 0x20 PUSH2 0x1153 DUP6 DUP3 DUP7 ADD PUSH2 0xF9D JUMP JUMPDEST SWAP2 POP POP SWAP3 POP SWAP3 SWAP1 POP JUMP JUMPDEST PUSH1 0x0 PUSH1 0x20 DUP3 DUP5 SUB SLT ISZERO PUSH2 0x116F JUMPI PUSH1 0x0 DUP1 REVERT JUMPDEST PUSH1 0x0 PUSH2 0x117D DUP5 DUP3 DUP6 ADD PUSH2 0xFC7 JUMP JUMPDEST SWAP2 POP POP SWAP3 SWAP2 POP POP JUMP JUMPDEST PUSH2 0x118F DUP2 PUSH2 0x16B2 JUMP JUMPDEST DUP3 MSTORE POP POP JUMP JUMPDEST PUSH1 0x0 PUSH2 0x11A0 DUP3 PUSH2 0x14B5 JUMP JUMPDEST PUSH2 0x11AA DUP2 DUP6 PUSH2 0x14CB JUMP JUMPDEST SWAP4 POP PUSH2 0x11BA DUP2 DUP6 PUSH1 0x20 DUP7 ADD PUSH2 0x177D JUMP JUMPDEST DUP1 DUP5 ADD SWAP2 POP POP SWAP3 SWAP2 POP POP JUMP JUMPDEST PUSH2 0x11CF DUP2 PUSH2 0x1735 JUMP JUMPDEST DUP3 MSTORE POP POP JUMP JUMPDEST PUSH2 0x11DE DUP2 PUSH2 0x1759 JUMP JUMPDEST DUP3 MSTORE POP POP JUMP JUMPDEST PUSH1 0x0 PUSH2 0x11EF DUP3 PUSH2 0x14C0 JUMP JUMPDEST PUSH2 0x11F9 DUP2 DUP6 PUSH2 0x14D6 JUMP JUMPDEST SWAP4 POP PUSH2 0x1209 DUP2 DUP6 PUSH1 0x20 DUP7 ADD PUSH2 0x177D JUMP JUMPDEST PUSH2 0x1212 DUP2 PUSH2 0x1828 JUMP JUMPDEST DUP5 ADD SWAP2 POP POP SWAP3 SWAP2 POP POP JUMP JUMPDEST PUSH1 0x0 PUSH2 0x122A PUSH1 0x26 DUP4 PUSH2 0x14D6 JUMP JUMPDEST SWAP2 POP PUSH2 0x1235 DUP3 PUSH2 0x1846 JUMP JUMPDEST PUSH1 0x40 DUP3 ADD SWAP1 POP SWAP2 SWAP1 POP JUMP JUMPDEST PUSH1 0x0 PUSH2 0x124D PUSH1 0x1E DUP4 PUSH2 0x14D6 JUMP JUMPDEST SWAP2 POP PUSH2 0x1258 DUP3 PUSH2 0x1895 JUMP JUMPDEST PUSH1 0x20 DUP3 ADD SWAP1 POP SWAP2 SWAP1 POP JUMP JUMPDEST PUSH1 0x0 PUSH2 0x1270 PUSH1 0x26 DUP4 PUSH2 0x14D6 JUMP JUMPDEST SWAP2 POP PUSH2 0x127B DUP3 PUSH2 0x18BE JUMP JUMPDEST PUSH1 0x40 DUP3 ADD SWAP1 POP SWAP2 SWAP1 POP JUMP JUMPDEST PUSH1 0x0 PUSH2 0x1293 PUSH1 0x20 DUP4 PUSH2 0x14D6 JUMP JUMPDEST SWAP2 POP PUSH2 0x129E DUP3 PUSH2 0x190D JUMP JUMPDEST PUSH1 0x20 DUP3 ADD SWAP1 POP SWAP2 SWAP1 POP JUMP JUMPDEST PUSH1 0x0 PUSH2 0x12B6 PUSH1 0x1D DUP4 PUSH2 0x14D6 JUMP JUMPDEST SWAP2 POP PUSH2 0x12C1 DUP3 PUSH2 0x1936 JUMP JUMPDEST PUSH1 0x20 DUP3 ADD SWAP1 POP SWAP2 SWAP1 POP JUMP JUMPDEST PUSH1 0x0 PUSH2 0x12D9 PUSH1 0x2A DUP4 PUSH2 0x14D6 JUMP JUMPDEST SWAP2 POP PUSH2 0x12E4 DUP3 PUSH2 0x195F JUMP JUMPDEST PUSH1 0x40 DUP3 ADD SWAP1 POP SWAP2 SWAP1 POP JUMP JUMPDEST PUSH2 0x12F8 DUP2 PUSH2 0x171E JUMP JUMPDEST DUP3 MSTORE POP POP JUMP JUMPDEST PUSH1 0x0 PUSH2 0x130A DUP3 DUP5 PUSH2 0x1195 JUMP JUMPDEST SWAP2 POP DUP2 SWAP1 POP SWAP3 SWAP2 POP POP JUMP JUMPDEST PUSH1 0x0 PUSH1 0x20 DUP3 ADD SWAP1 POP PUSH2 0x132A PUSH1 0x0 DUP4 ADD DUP5 PUSH2 0x1186 JUMP JUMPDEST SWAP3 SWAP2 POP POP JUMP JUMPDEST PUSH1 0x0 PUSH1 0x40 DUP3 ADD SWAP1 POP PUSH2 0x1345 PUSH1 0x0 DUP4 ADD DUP6 PUSH2 0x1186 JUMP JUMPDEST PUSH2 0x1352 PUSH1 0x20 DUP4 ADD DUP5 PUSH2 0x12EF JUMP JUMPDEST SWAP4 SWAP3 POP POP POP JUMP JUMPDEST PUSH1 0x0 PUSH1 0x20 DUP3 ADD SWAP1 POP PUSH2 0x136E PUSH1 0x0 DUP4 ADD DUP5 PUSH2 0x11C6 JUMP JUMPDEST SWAP3 SWAP2 POP POP JUMP JUMPDEST PUSH1 0x0 PUSH1 0x20 DUP3 ADD SWAP1 POP PUSH2 0x1389 PUSH1 0x0 DUP4 ADD DUP5 PUSH2 0x11D5 JUMP JUMPDEST SWAP3 SWAP2 POP POP JUMP JUMPDEST PUSH1 0x0 PUSH1 0x20 DUP3 ADD SWAP1 POP DUP2 DUP2 SUB PUSH1 0x0 DUP4 ADD MSTORE PUSH2 0x13A9 DUP2 DUP5 PUSH2 0x11E4 JUMP JUMPDEST SWAP1 POP SWAP3 SWAP2 POP POP JUMP JUMPDEST PUSH1 0x0 PUSH1 0x20 DUP3 ADD SWAP1 POP DUP2 DUP2 SUB PUSH1 0x0 DUP4 ADD MSTORE PUSH2 0x13CA DUP2 PUSH2 0x121D JUMP JUMPDEST SWAP1 POP SWAP2 SWAP1 POP JUMP JUMPDEST PUSH1 0x0 PUSH1 0x20 DUP3 ADD SWAP1 POP DUP2 DUP2 SUB PUSH1 0x0 DUP4 ADD MSTORE PUSH2 0x13EA DUP2 PUSH2 0x1240 JUMP JUMPDEST SWAP1 POP SWAP2 SWAP1 POP JUMP JUMPDEST PUSH1 0x0 PUSH1 0x20 DUP3 ADD SWAP1 POP DUP2 DUP2 SUB PUSH1 0x0 DUP4 ADD MSTORE PUSH2 0x140A DUP2 PUSH2 0x1263 JUMP JUMPDEST SWAP1 POP SWAP2 SWAP1 POP JUMP JUMPDEST PUSH1 0x0 PUSH1 0x20 DUP3 ADD SWAP1 POP DUP2 DUP2 SUB PUSH1 0x0 DUP4 ADD MSTORE PUSH2 0x142A DUP2 PUSH2 0x1286 JUMP JUMPDEST SWAP1 POP SWAP2 SWAP1 POP JUMP JUMPDEST PUSH1 0x0 PUSH1 0x20 DUP3 ADD SWAP1 POP DUP2 DUP2 SUB PUSH1 0x0 DUP4 ADD MSTORE PUSH2 0x144A DUP2 PUSH2 0x12A9 JUMP JUMPDEST SWAP1 POP SWAP2 SWAP1 POP JUMP JUMPDEST PUSH1 0x0 PUSH1 0x20 DUP3 ADD SWAP1 POP DUP2 DUP2 SUB PUSH1 0x0 DUP4 ADD MSTORE PUSH2 0x146A DUP2 PUSH2 0x12CC JUMP JUMPDEST SWAP1 POP SWAP2 SWAP1 POP JUMP JUMPDEST PUSH1 0x0 PUSH1 0x20 DUP3 ADD SWAP1 POP PUSH2 0x1486 PUSH1 0x0 DUP4 ADD DUP5 PUSH2 0x12EF JUMP JUMPDEST SWAP3 SWAP2 POP POP JUMP JUMPDEST PUSH1 0x0 PUSH1 0x40 DUP3 ADD SWAP1 POP PUSH2 0x14A1 PUSH1 0x0 DUP4 ADD DUP6 PUSH2 0x12EF JUMP JUMPDEST PUSH2 0x14AE PUSH1 0x20 DUP4 ADD DUP5 PUSH2 0x12EF JUMP JUMPDEST SWAP4 SWAP3 POP POP POP JUMP JUMPDEST PUSH1 0x0 DUP2 MLOAD SWAP1 POP SWAP2 SWAP1 POP JUMP JUMPDEST PUSH1 0x0 DUP2 MLOAD SWAP1 POP SWAP2 SWAP1 POP JUMP JUMPDEST PUSH1 0x0 DUP2 SWAP1 POP SWAP3 SWAP2 POP POP JUMP JUMPDEST PUSH1 0x0 DUP3 DUP3 MSTORE PUSH1 0x20 DUP3 ADD SWAP1 POP SWAP3 SWAP2 POP POP JUMP JUMPDEST PUSH1 0x0 DUP1 DUP3 SWAP2 POP DUP4 SWAP1 POP JUMPDEST PUSH1 0x1 DUP6 GT ISZERO PUSH2 0x1531 JUMPI DUP1 DUP7 DIV DUP2 GT ISZERO PUSH2 0x150D JUMPI PUSH2 0x150C PUSH2 0x17F9 JUMP JUMPDEST JUMPDEST PUSH1 0x1 DUP6 AND ISZERO PUSH2 0x151C JUMPI DUP1 DUP3 MUL SWAP2 POP JUMPDEST DUP1 DUP2 MUL SWAP1 POP PUSH2 0x152A DUP6 PUSH2 0x1839 JUMP JUMPDEST SWAP5 POP PUSH2 0x14F1 JUMP JUMPDEST SWAP5 POP SWAP5 SWAP3 POP POP POP JUMP JUMPDEST PUSH1 0x0 PUSH2 0x1545 DUP3 PUSH2 0x171E JUMP JUMPDEST SWAP2 POP PUSH2 0x1550 DUP4 PUSH2 0x1728 JUMP JUMPDEST SWAP3 POP PUSH2 0x157D PUSH32 0xFFFFFFFFFFFFFFFFFFFFFFFFFFFFFFFFFFFFFFFFFFFFFFFFFFFFFFFFFFFFFFFF DUP5 DUP5 PUSH2 0x1585 JUMP JUMPDEST SWAP1 POP SWAP3 SWAP2 POP POP JUMP JUMPDEST PUSH1 0x0 DUP3 PUSH2 0x1595 JUMPI PUSH1 0x1 SWAP1 POP PUSH2 0x1651 JUMP JUMPDEST DUP2 PUSH2 0x15A3 JUMPI PUSH1 0x0 SWAP1 POP PUSH2 0x1651 JUMP JUMPDEST DUP2 PUSH1 0x1 DUP2 EQ PUSH2 0x15B9 JUMPI PUSH1 0x2 DUP2 EQ PUSH2 0x15C3 JUMPI PUSH2 0x15F2 JUMP JUMPDEST PUSH1 0x1 SWAP2 POP POP PUSH2 0x1651 JUMP JUMPDEST PUSH1 0xFF DUP5 GT ISZERO PUSH2 0x15D5 JUMPI PUSH2 0x15D4 PUSH2 0x17F9 JUMP JUMPDEST JUMPDEST DUP4 PUSH1 0x2 EXP SWAP2 POP DUP5 DUP3 GT ISZERO PUSH2 0x15EC JUMPI PUSH2 0x15EB PUSH2 0x17F9 JUMP JUMPDEST JUMPDEST POP PUSH2 0x1651 JUMP JUMPDEST POP PUSH1 0x20 DUP4 LT PUSH2 0x133 DUP4 LT AND PUSH1 0x4E DUP5 LT PUSH1 0xB DUP5 LT AND OR ISZERO PUSH2 0x1627 JUMPI DUP3 DUP3 EXP SWAP1 POP DUP4 DUP2 GT ISZERO PUSH2 0x1622 JUMPI PUSH2 0x1621 PUSH2 0x17F9 JUMP JUMPDEST JUMPDEST PUSH2 0x1651 JUMP JUMPDEST PUSH2 0x1634 DUP5 DUP5 DUP5 PUSH1 0x1 PUSH2 0x14E7 JUMP JUMPDEST SWAP3 POP SWAP1 POP DUP2 DUP5 DIV DUP2 GT ISZERO PUSH2 0x164B JUMPI PUSH2 0x164A PUSH2 0x17F9 JUMP JUMPDEST JUMPDEST DUP2 DUP2 MUL SWAP1 POP JUMPDEST SWAP4 SWAP3 POP POP POP JUMP JUMPDEST PUSH1 0x0 PUSH2 0x1663 DUP3 PUSH2 0x171E JUMP JUMPDEST SWAP2 POP PUSH2 0x166E DUP4 PUSH2 0x171E JUMP JUMPDEST SWAP3 POP DUP2 PUSH32 0xFFFFFFFFFFFFFFFFFFFFFFFFFFFFFFFFFFFFFFFFFFFFFFFFFFFFFFFFFFFFFFFF DIV DUP4 GT DUP3 ISZERO ISZERO AND ISZERO PUSH2 0x16A7 JUMPI PUSH2 0x16A6 PUSH2 0x17F9 JUMP JUMPDEST JUMPDEST DUP3 DUP3 MUL SWAP1 POP SWAP3 SWAP2 POP POP JUMP JUMPDEST PUSH1 0x0 PUSH2 0x16BD DUP3 PUSH2 0x16FE JUMP JUMPDEST SWAP1 POP SWAP2 SWAP1 POP JUMP JUMPDEST PUSH1 0x0 DUP2 ISZERO ISZERO SWAP1 POP SWAP2 SWAP1 POP JUMP JUMPDEST PUSH1 0x0 DUP2 SWAP1 POP SWAP2 SWAP1 POP JUMP JUMPDEST PUSH1 0x0 PUSH2 0x16E5 DUP3 PUSH2 0x16B2 JUMP JUMPDEST SWAP1 POP SWAP2 SWAP1 POP JUMP JUMPDEST PUSH1 0x0 PUSH2 0x16F7 DUP3 PUSH2 0x16B2 JUMP JUMPDEST SWAP1 POP SWAP2 SWAP1 POP JUMP JUMPDEST PUSH1 0x0 PUSH20 0xFFFFFFFFFFFFFFFFFFFFFFFFFFFFFFFFFFFFFFFF DUP3 AND SWAP1 POP SWAP2 SWAP1 POP JUMP JUMPDEST PUSH1 0x0 DUP2 SWAP1 POP SWAP2 SWAP1 POP JUMP JUMPDEST PUSH1 0x0 PUSH1 0xFF DUP3 AND SWAP1 POP SWAP2 SWAP1 POP JUMP JUMPDEST PUSH1 0x0 PUSH2 0x1740 DUP3 PUSH2 0x1747 JUMP JUMPDEST SWAP1 POP SWAP2 SWAP1 POP JUMP JUMPDEST PUSH1 0x0 PUSH2 0x1752 DUP3 PUSH2 0x16FE JUMP JUMPDEST SWAP1 POP SWAP2 SWAP1 POP JUMP JUMPDEST PUSH1 0x0 PUSH2 0x1764 DUP3 PUSH2 0x176B JUMP JUMPDEST SWAP1 POP SWAP2 SWAP1 POP JUMP JUMPDEST PUSH1 0x0 PUSH2 0x1776 DUP3 PUSH2 0x16FE JUMP JUMPDEST SWAP1 POP SWAP2 SWAP1 POP JUMP JUMPDEST PUSH1 0x0 JUMPDEST DUP4 DUP2 LT ISZERO PUSH2 0x179B JUMPI DUP1 DUP3 ADD MLOAD DUP2 DUP5 ADD MSTORE PUSH1 0x20 DUP2 ADD SWAP1 POP PUSH2 0x1780 JUMP JUMPDEST DUP4 DUP2 GT ISZERO PUSH2 0x17AA JUMPI PUSH1 0x0 DUP5 DUP5 ADD MSTORE JUMPDEST POP POP POP POP JUMP JUMPDEST PUSH1 0x0 PUSH2 0x17BB DUP3 PUSH2 0x171E JUMP JUMPDEST SWAP2 POP PUSH32 0xFFFFFFFFFFFFFFFFFFFFFFFFFFFFFFFFFFFFFFFFFFFFFFFFFFFFFFFFFFFFFFFF DUP3 EQ ISZERO PUSH2 0x17EE JUMPI PUSH2 0x17ED PUSH2 0x17F9 JUMP JUMPDEST JUMPDEST PUSH1 0x1 DUP3 ADD SWAP1 POP SWAP2 SWAP1 POP JUMP JUMPDEST PUSH32 0x4E487B7100000000000000000000000000000000000000000000000000000000 PUSH1 0x0 MSTORE PUSH1 0x11 PUSH1 0x4 MSTORE PUSH1 0x24 PUSH1 0x0 REVERT JUMPDEST PUSH1 0x0 PUSH1 0x1F NOT PUSH1 0x1F DUP4 ADD AND SWAP1 POP SWAP2 SWAP1 POP JUMP JUMPDEST PUSH1 0x0 DUP2 PUSH1 0x1 SHR SWAP1 POP SWAP2 SWAP1 POP JUMP JUMPDEST PUSH32 0x4F776E61626C653A206E6577206F776E657220697320746865207A65726F2061 PUSH1 0x0 DUP3 ADD MSTORE PUSH32 0x6464726573730000000000000000000000000000000000000000000000000000 PUSH1 0x20 DUP3 ADD MSTORE POP JUMP JUMPDEST PUSH32 0x5468657265206172652063757272656E746C79206E6F20726577617264730000 PUSH1 0x0 DUP3 ADD MSTORE POP JUMP JUMPDEST PUSH32 0x416464726573733A20696E73756666696369656E742062616C616E636520666F PUSH1 0x0 DUP3 ADD MSTORE PUSH32 0x722063616C6C0000000000000000000000000000000000000000000000000000 PUSH1 0x20 DUP3 ADD MSTORE POP JUMP JUMPDEST PUSH32 0x4F776E61626C653A2063616C6C6572206973206E6F7420746865206F776E6572 PUSH1 0x0 DUP3 ADD MSTORE POP JUMP JUMPDEST PUSH32 0x416464726573733A2063616C6C20746F206E6F6E2D636F6E7472616374000000 PUSH1 0x0 DUP3 ADD MSTORE POP JUMP JUMPDEST PUSH32 0x5361666545524332303A204552433230206F7065726174696F6E20646964206E PUSH1 0x0 DUP3 ADD MSTORE PUSH32 0x6F74207375636365656400000000000000000000000000000000000000000000 PUSH1 0x20 DUP3 ADD MSTORE POP JUMP JUMPDEST PUSH2 0x19B7 DUP2 PUSH2 0x16B2 JUMP JUMPDEST DUP2 EQ PUSH2 0x19C2 JUMPI PUSH1 0x0 DUP1 REVERT JUMPDEST POP JUMP JUMPDEST PUSH2 0x19CE DUP2 PUSH2 0x16C4 JUMP JUMPDEST DUP2 EQ PUSH2 0x19D9 JUMPI PUSH1 0x0 DUP1 REVERT JUMPDEST POP JUMP JUMPDEST PUSH2 0x19E5 DUP2 PUSH2 0x16D0 JUMP JUMPDEST DUP2 EQ PUSH2 0x19F0 JUMPI PUSH1 0x0 DUP1 REVERT JUMPDEST POP JUMP JUMPDEST PUSH2 0x19FC DUP2 PUSH2 0x16DA JUMP JUMPDEST DUP2 EQ PUSH2 0x1A07 JUMPI PUSH1 0x0 DUP1 REVERT JUMPDEST POP JUMP JUMPDEST PUSH2 0x1A13 DUP2 PUSH2 0x16EC JUMP JUMPDEST DUP2 EQ PUSH2 0x1A1E JUMPI PUSH1 0x0 DUP1 REVERT JUMPDEST POP JUMP JUMPDEST PUSH2 0x1A2A DUP2 PUSH2 0x171E JUMP JUMPDEST DUP2 EQ PUSH2 0x1A35 JUMPI PUSH1 0x0 DUP1 REVERT JUMPDEST POP JUMP JUMPDEST PUSH2 0x1A41 DUP2 PUSH2 0x1728 JUMP JUMPDEST DUP2 EQ PUSH2 0x1A4C JUMPI PUSH1 0x0 DUP1 REVERT JUMPDEST POP JUMP INVALID LOG2 PUSH5 0x6970667358 0x22 SLT KECCAK256 PUSH14 0x952875DC2CCC61087724772DB905 DUP14 DUP6 DUP12 SWAP15 EXTCODECOPY 0xCF 0xC6 DUP10 0xD3 0xAB PUSH24 0x62819E8B7F6D64736F6C6343000804003360C06040523480 ISZERO PUSH3 0x11 JUMPI PUSH1 0x0 DUP1 REVERT JUMPDEST POP PUSH1 0x40 MLOAD PUSH3 0x18D3 CODESIZE SUB DUP1 PUSH3 0x18D3 DUP4 CODECOPY DUP2 DUP2 ADD PUSH1 0x40 MSTORE DUP2 ADD SWAP1 PUSH3 0x37 SWAP2 SWAP1 PUSH3 0x225 JUMP JUMPDEST PUSH20 0xDD3782915140C8F3B190B5D67EAC6DC5760C46E9 PUSH20 0xA36085F69E2889C224210F603D836748E7DC0088 DUP2 PUSH20 0xFFFFFFFFFFFFFFFFFFFFFFFFFFFFFFFFFFFFFFFF AND PUSH1 0xA0 DUP2 PUSH20 0xFFFFFFFFFFFFFFFFFFFFFFFFFFFFFFFFFFFFFFFF AND PUSH1 0x60 SHL DUP2 MSTORE POP POP DUP1 PUSH20 0xFFFFFFFFFFFFFFFFFFFFFFFFFFFFFFFFFFFFFFFF AND PUSH1 0x80 DUP2 PUSH20 0xFFFFFFFFFFFFFFFFFFFFFFFFFFFFFFFFFFFFFFFF AND PUSH1 0x60 SHL DUP2 MSTORE POP POP POP POP PUSH3 0xF1 PUSH3 0xE5 PUSH3 0x140 PUSH1 0x20 SHL PUSH1 0x20 SHR JUMP JUMPDEST PUSH3 0x148 PUSH1 0x20 SHL PUSH1 0x20 SHR JUMP JUMPDEST DUP2 PUSH1 0x7 DUP2 SWAP1 SSTORE POP DUP1 PUSH1 0x8 DUP2 SWAP1 SSTORE POP PUSH32 0x6C3699283BDA56AD74F6B855546325B68D482E983852A7A82979CC4807B641F4 PUSH1 0x0 SHL PUSH1 0x2 DUP2 SWAP1 SSTORE POP PUSH8 0x16345785D8A0000 PUSH1 0x3 DUP2 SWAP1 SSTORE POP POP POP PUSH3 0x28A JUMP JUMPDEST PUSH1 0x0 CALLER SWAP1 POP SWAP1 JUMP JUMPDEST PUSH1 0x0 PUSH1 0x1 PUSH1 0x0 SWAP1 SLOAD SWAP1 PUSH2 0x100 EXP SWAP1 DIV PUSH20 0xFFFFFFFFFFFFFFFFFFFFFFFFFFFFFFFFFFFFFFFF AND SWAP1 POP DUP2 PUSH1 0x1 PUSH1 0x0 PUSH2 0x100 EXP DUP2 SLOAD DUP2 PUSH20 0xFFFFFFFFFFFFFFFFFFFFFFFFFFFFFFFFFFFFFFFF MUL NOT AND SWAP1 DUP4 PUSH20 0xFFFFFFFFFFFFFFFFFFFFFFFFFFFFFFFFFFFFFFFF AND MUL OR SWAP1 SSTORE POP DUP2 PUSH20 0xFFFFFFFFFFFFFFFFFFFFFFFFFFFFFFFFFFFFFFFF AND DUP2 PUSH20 0xFFFFFFFFFFFFFFFFFFFFFFFFFFFFFFFFFFFFFFFF AND PUSH32 0x8BE0079C531659141344CD1FD0A4F28419497F9722A3DAAFE3B4186F6B6457E0 PUSH1 0x40 MLOAD PUSH1 0x40 MLOAD DUP1 SWAP2 SUB SWAP1 LOG3 POP POP JUMP JUMPDEST PUSH1 0x0 DUP2 MLOAD SWAP1 POP PUSH3 0x21F DUP2 PUSH3 0x270 JUMP JUMPDEST SWAP3 SWAP2 POP POP JUMP JUMPDEST PUSH1 0x0 DUP1 PUSH1 0x40 DUP4 DUP6 SUB SLT ISZERO PUSH3 0x239 JUMPI PUSH1 0x0 DUP1 REVERT JUMPDEST PUSH1 0x0 PUSH3 0x249 DUP6 DUP3 DUP7 ADD PUSH3 0x20E JUMP JUMPDEST SWAP3 POP POP PUSH1 0x20 PUSH3 0x25C DUP6 DUP3 DUP7 ADD PUSH3 0x20E JUMP JUMPDEST SWAP2 POP POP SWAP3 POP SWAP3 SWAP1 POP JUMP JUMPDEST PUSH1 0x0 DUP2 SWAP1 POP SWAP2 SWAP1 POP JUMP JUMPDEST PUSH3 0x27B DUP2 PUSH3 0x266 JUMP JUMPDEST DUP2 EQ PUSH3 0x287 JUMPI PUSH1 0x0 DUP1 REVERT JUMPDEST POP JUMP JUMPDEST PUSH1 0x80 MLOAD PUSH1 0x60 SHR PUSH1 0xA0 MLOAD PUSH1 0x60 SHR PUSH2 0x160F PUSH3 0x2C4 PUSH1 0x0 CODECOPY PUSH1 0x0 DUP2 DUP2 PUSH2 0x736 ADD MSTORE PUSH2 0x9D5 ADD MSTORE PUSH1 0x0 DUP2 DUP2 PUSH2 0x2D1 ADD MSTORE PUSH2 0x999 ADD MSTORE PUSH2 0x160F PUSH1 0x0 RETURN INVALID PUSH1 0x80 PUSH1 0x40 MSTORE CALLVALUE DUP1 ISZERO PUSH2 0x10 JUMPI PUSH1 0x0 DUP1 REVERT JUMPDEST POP PUSH1 0x4 CALLDATASIZE LT PUSH2 0x93 JUMPI PUSH1 0x0 CALLDATALOAD PUSH1 0xE0 SHR DUP1 PUSH4 0x715018A6 GT PUSH2 0x66 JUMPI DUP1 PUSH4 0x715018A6 EQ PUSH2 0x130 JUMPI DUP1 PUSH4 0x8DA5CB5B EQ PUSH2 0x13A JUMPI DUP1 PUSH4 0x94985DDD EQ PUSH2 0x158 JUMPI DUP1 PUSH4 0xBC173CD9 EQ PUSH2 0x174 JUMPI DUP1 PUSH4 0xF2FDE38B EQ PUSH2 0x1A4 JUMPI PUSH2 0x93 JUMP JUMPDEST DUP1 PUSH4 0x2FAE4793 EQ PUSH2 0x98 JUMPI DUP1 PUSH4 0x3B6DDE13 EQ PUSH2 0xB4 JUMPI DUP1 PUSH4 0x46903137 EQ PUSH2 0xE4 JUMPI DUP1 PUSH4 0x682904A5 EQ PUSH2 0x100 JUMPI JUMPDEST PUSH1 0x0 DUP1 REVERT JUMPDEST PUSH2 0xB2 PUSH1 0x4 DUP1 CALLDATASIZE SUB DUP2 ADD SWAP1 PUSH2 0xAD SWAP2 SWAP1 PUSH2 0xEA0 JUMP JUMPDEST PUSH2 0x1C0 JUMP JUMPDEST STOP JUMPDEST PUSH2 0xCE PUSH1 0x4 DUP1 CALLDATASIZE SUB DUP2 ADD SWAP1 PUSH2 0xC9 SWAP2 SWAP1 PUSH2 0xDC0 JUMP JUMPDEST PUSH2 0x24E JUMP JUMPDEST PUSH1 0x40 MLOAD PUSH2 0xDB SWAP2 SWAP1 PUSH2 0x1128 JUMP JUMPDEST PUSH1 0x40 MLOAD DUP1 SWAP2 SUB SWAP1 RETURN JUMPDEST PUSH2 0xFE PUSH1 0x4 DUP1 CALLDATASIZE SUB DUP2 ADD SWAP1 PUSH2 0xF9 SWAP2 SWAP1 PUSH2 0xDC0 JUMP JUMPDEST PUSH2 0x420 JUMP JUMPDEST STOP JUMPDEST PUSH2 0x11A PUSH1 0x4 DUP1 CALLDATASIZE SUB DUP2 ADD SWAP1 PUSH2 0x115 SWAP2 SWAP1 PUSH2 0xE4E JUMP JUMPDEST PUSH2 0x4E4 JUMP JUMPDEST PUSH1 0x40 MLOAD PUSH2 0x127 SWAP2 SWAP1 PUSH2 0x1106 JUMP JUMPDEST PUSH1 0x40 MLOAD DUP1 SWAP2 SUB SWAP1 RETURN JUMPDEST PUSH2 0x138 PUSH2 0x682 JUMP JUMPDEST STOP JUMPDEST PUSH2 0x142 PUSH2 0x70A JUMP JUMPDEST PUSH1 0x40 MLOAD PUSH2 0x14F SWAP2 SWAP1 PUSH2 0x10AD JUMP JUMPDEST PUSH1 0x40 MLOAD DUP1 SWAP2 SUB SWAP1 RETURN JUMPDEST PUSH2 0x172 PUSH1 0x4 DUP1 CALLDATASIZE SUB DUP2 ADD SWAP1 PUSH2 0x16D SWAP2 SWAP1 PUSH2 0xE12 JUMP JUMPDEST PUSH2 0x734 JUMP JUMPDEST STOP JUMPDEST PUSH2 0x18E PUSH1 0x4 DUP1 CALLDATASIZE SUB DUP2 ADD SWAP1 PUSH2 0x189 SWAP2 SWAP1 PUSH2 0xDC0 JUMP JUMPDEST PUSH2 0x7D0 JUMP JUMPDEST PUSH1 0x40 MLOAD PUSH2 0x19B SWAP2 SWAP1 PUSH2 0x1231 JUMP JUMPDEST PUSH1 0x40 MLOAD DUP1 SWAP2 SUB SWAP1 RETURN JUMPDEST PUSH2 0x1BE PUSH1 0x4 DUP1 CALLDATASIZE SUB DUP2 ADD SWAP1 PUSH2 0x1B9 SWAP2 SWAP1 PUSH2 0xDC0 JUMP JUMPDEST PUSH2 0x895 JUMP JUMPDEST STOP JUMPDEST PUSH2 0x1C8 PUSH2 0x98D JUMP JUMPDEST PUSH20 0xFFFFFFFFFFFFFFFFFFFFFFFFFFFFFFFFFFFFFFFF AND PUSH2 0x1E6 PUSH2 0x70A JUMP JUMPDEST PUSH20 0xFFFFFFFFFFFFFFFFFFFFFFFFFFFFFFFFFFFFFFFF AND EQ PUSH2 0x23C JUMPI PUSH1 0x40 MLOAD PUSH32 0x8C379A000000000000000000000000000000000000000000000000000000000 DUP2 MSTORE PUSH1 0x4 ADD PUSH2 0x233 SWAP1 PUSH2 0x11F1 JUMP JUMPDEST PUSH1 0x40 MLOAD DUP1 SWAP2 SUB SWAP1 REVERT JUMPDEST DUP2 PUSH1 0x7 DUP2 SWAP1 SSTORE POP DUP1 PUSH1 0x8 DUP2 SWAP1 SSTORE POP POP POP JUMP JUMPDEST PUSH1 0x0 PUSH2 0x258 PUSH2 0x98D JUMP JUMPDEST PUSH20 0xFFFFFFFFFFFFFFFFFFFFFFFFFFFFFFFFFFFFFFFF AND PUSH2 0x276 PUSH2 0x70A JUMP JUMPDEST PUSH20 0xFFFFFFFFFFFFFFFFFFFFFFFFFFFFFFFFFFFFFFFF AND EQ PUSH2 0x2CC JUMPI PUSH1 0x40 MLOAD PUSH32 0x8C379A000000000000000000000000000000000000000000000000000000000 DUP2 MSTORE PUSH1 0x4 ADD PUSH2 0x2C3 SWAP1 PUSH2 0x11F1 JUMP JUMPDEST PUSH1 0x40 MLOAD DUP1 SWAP2 SUB SWAP1 REVERT JUMPDEST PUSH1 0x3 SLOAD PUSH32 0x0 PUSH20 0xFFFFFFFFFFFFFFFFFFFFFFFFFFFFFFFFFFFFFFFF AND PUSH4 0x70A08231 ADDRESS PUSH1 0x40 MLOAD DUP3 PUSH4 0xFFFFFFFF AND PUSH1 0xE0 SHL DUP2 MSTORE PUSH1 0x4 ADD PUSH2 0x328 SWAP2 SWAP1 PUSH2 0x10AD JUMP JUMPDEST PUSH1 0x20 PUSH1 0x40 MLOAD DUP1 DUP4 SUB DUP2 DUP7 DUP1 EXTCODESIZE ISZERO DUP1 ISZERO PUSH2 0x340 JUMPI PUSH1 0x0 DUP1 REVERT JUMPDEST POP GAS STATICCALL ISZERO DUP1 ISZERO PUSH2 0x354 JUMPI RETURNDATASIZE PUSH1 0x0 DUP1 RETURNDATACOPY RETURNDATASIZE PUSH1 0x0 REVERT JUMPDEST POP POP POP POP PUSH1 0x40 MLOAD RETURNDATASIZE PUSH1 0x1F NOT PUSH1 0x1F DUP3 ADD AND DUP3 ADD DUP1 PUSH1 0x40 MSTORE POP DUP2 ADD SWAP1 PUSH2 0x378 SWAP2 SWAP1 PUSH2 0xE77 JUMP JUMPDEST LT ISZERO PUSH2 0x3B9 JUMPI PUSH1 0x40 MLOAD PUSH32 0x8C379A000000000000000000000000000000000000000000000000000000000 DUP2 MSTORE PUSH1 0x4 ADD PUSH2 0x3B0 SWAP1 PUSH2 0x11D1 JUMP JUMPDEST PUSH1 0x40 MLOAD DUP1 SWAP2 SUB SWAP1 REVERT JUMPDEST PUSH2 0x3C7 PUSH1 0x2 SLOAD PUSH1 0x3 SLOAD PUSH2 0x995 JUMP JUMPDEST SWAP1 POP DUP2 PUSH1 0x6 PUSH1 0x0 DUP4 DUP2 MSTORE PUSH1 0x20 ADD SWAP1 DUP2 MSTORE PUSH1 0x20 ADD PUSH1 0x0 KECCAK256 PUSH1 0x0 PUSH2 0x100 EXP DUP2 SLOAD DUP2 PUSH20 0xFFFFFFFFFFFFFFFFFFFFFFFFFFFFFFFFFFFFFFFF MUL NOT AND SWAP1 DUP4 PUSH20 0xFFFFFFFFFFFFFFFFFFFFFFFFFFFFFFFFFFFFFFFF AND MUL OR SWAP1 SSTORE POP SWAP2 SWAP1 POP JUMP JUMPDEST PUSH2 0x428 PUSH2 0x98D JUMP JUMPDEST PUSH20 0xFFFFFFFFFFFFFFFFFFFFFFFFFFFFFFFFFFFFFFFF AND PUSH2 0x446 PUSH2 0x70A JUMP JUMPDEST PUSH20 0xFFFFFFFFFFFFFFFFFFFFFFFFFFFFFFFFFFFFFFFF AND EQ PUSH2 0x49C JUMPI PUSH1 0x40 MLOAD PUSH32 0x8C379A000000000000000000000000000000000000000000000000000000000 DUP2 MSTORE PUSH1 0x4 ADD PUSH2 0x493 SWAP1 PUSH2 0x11F1 JUMP JUMPDEST PUSH1 0x40 MLOAD DUP1 SWAP2 SUB SWAP1 REVERT JUMPDEST PUSH1 0x0 PUSH1 0x5 PUSH1 0x0 DUP4 PUSH20 0xFFFFFFFFFFFFFFFFFFFFFFFFFFFFFFFFFFFFFFFF AND PUSH20 0xFFFFFFFFFFFFFFFFFFFFFFFFFFFFFFFFFFFFFFFF AND DUP2 MSTORE PUSH1 0x20 ADD SWAP1 DUP2 MSTORE PUSH1 0x20 ADD PUSH1 0x0 KECCAK256 DUP2 SWAP1 SSTORE POP POP JUMP JUMPDEST PUSH1 0x60 PUSH2 0x4EE PUSH2 0x98D JUMP JUMPDEST PUSH20 0xFFFFFFFFFFFFFFFFFFFFFFFFFFFFFFFFFFFFFFFF AND PUSH2 0x50C PUSH2 0x70A JUMP JUMPDEST PUSH20 0xFFFFFFFFFFFFFFFFFFFFFFFFFFFFFFFFFFFFFFFF AND EQ PUSH2 0x562 JUMPI PUSH1 0x40 MLOAD PUSH32 0x8C379A000000000000000000000000000000000000000000000000000000000 DUP2 MSTORE PUSH1 0x4 ADD PUSH2 0x559 SWAP1 PUSH2 0x11F1 JUMP JUMPDEST PUSH1 0x40 MLOAD DUP1 SWAP2 SUB SWAP1 REVERT JUMPDEST DUP2 PUSH8 0xFFFFFFFFFFFFFFFF DUP2 GT ISZERO PUSH2 0x5A2 JUMPI PUSH32 0x4E487B7100000000000000000000000000000000000000000000000000000000 PUSH1 0x0 MSTORE PUSH1 0x41 PUSH1 0x4 MSTORE PUSH1 0x24 PUSH1 0x0 REVERT JUMPDEST PUSH1 0x40 MLOAD SWAP1 DUP1 DUP3 MSTORE DUP1 PUSH1 0x20 MUL PUSH1 0x20 ADD DUP3 ADD PUSH1 0x40 MSTORE DUP1 ISZERO PUSH2 0x5D0 JUMPI DUP2 PUSH1 0x20 ADD PUSH1 0x20 DUP3 MUL DUP1 CALLDATASIZE DUP4 CALLDATACOPY DUP1 DUP3 ADD SWAP2 POP POP SWAP1 POP JUMPDEST POP SWAP1 POP PUSH1 0x0 JUMPDEST DUP3 DUP2 LT ISZERO PUSH2 0x67C JUMPI PUSH1 0x1 PUSH1 0x32 PUSH1 0x4 SLOAD DUP4 PUSH1 0x40 MLOAD PUSH1 0x20 ADD PUSH2 0x5F7 SWAP3 SWAP2 SWAP1 PUSH2 0x124C JUMP JUMPDEST PUSH1 0x40 MLOAD PUSH1 0x20 DUP2 DUP4 SUB SUB DUP2 MSTORE SWAP1 PUSH1 0x40 MSTORE DUP1 MLOAD SWAP1 PUSH1 0x20 ADD KECCAK256 PUSH1 0x0 SHR PUSH2 0x61A SWAP2 SWAP1 PUSH2 0x1413 JUMP JUMPDEST PUSH2 0x624 SWAP2 SWAP1 PUSH2 0x12DB JUMP JUMPDEST DUP3 DUP3 DUP2 MLOAD DUP2 LT PUSH2 0x65D JUMPI PUSH32 0x4E487B7100000000000000000000000000000000000000000000000000000000 PUSH1 0x0 MSTORE PUSH1 0x32 PUSH1 0x4 MSTORE PUSH1 0x24 PUSH1 0x0 REVERT JUMPDEST PUSH1 0x20 MUL PUSH1 0x20 ADD ADD DUP2 DUP2 MSTORE POP POP DUP1 DUP1 PUSH2 0x674 SWAP1 PUSH2 0x13B6 JUMP JUMPDEST SWAP2 POP POP PUSH2 0x5D6 JUMP JUMPDEST POP SWAP2 SWAP1 POP JUMP JUMPDEST PUSH2 0x68A PUSH2 0x98D JUMP JUMPDEST PUSH20 0xFFFFFFFFFFFFFFFFFFFFFFFFFFFFFFFFFFFFFFFF AND PUSH2 0x6A8 PUSH2 0x70A JUMP JUMPDEST PUSH20 0xFFFFFFFFFFFFFFFFFFFFFFFFFFFFFFFFFFFFFFFF AND EQ PUSH2 0x6FE JUMPI PUSH1 0x40 MLOAD PUSH32 0x8C379A000000000000000000000000000000000000000000000000000000000 DUP2 MSTORE PUSH1 0x4 ADD PUSH2 0x6F5 SWAP1 PUSH2 0x11F1 JUMP JUMPDEST PUSH1 0x40 MLOAD DUP1 SWAP2 SUB SWAP1 REVERT JUMPDEST PUSH2 0x708 PUSH1 0x0 PUSH2 0xAF4 JUMP JUMPDEST JUMP JUMPDEST PUSH1 0x0 PUSH1 0x1 PUSH1 0x0 SWAP1 SLOAD SWAP1 PUSH2 0x100 EXP SWAP1 DIV PUSH20 0xFFFFFFFFFFFFFFFFFFFFFFFFFFFFFFFFFFFFFFFF AND SWAP1 POP SWAP1 JUMP JUMPDEST PUSH32 0x0 PUSH20 0xFFFFFFFFFFFFFFFFFFFFFFFFFFFFFFFFFFFFFFFF AND CALLER PUSH20 0xFFFFFFFFFFFFFFFFFFFFFFFFFFFFFFFFFFFFFFFF AND EQ PUSH2 0x7C2 JUMPI PUSH1 0x40 MLOAD PUSH32 0x8C379A000000000000000000000000000000000000000000000000000000000 DUP2 MSTORE PUSH1 0x4 ADD PUSH2 0x7B9 SWAP1 PUSH2 0x1211 JUMP JUMPDEST PUSH1 0x40 MLOAD DUP1 SWAP2 SUB SWAP1 REVERT JUMPDEST PUSH2 0x7CC DUP3 DUP3 PUSH2 0xBBA JUMP JUMPDEST POP POP JUMP JUMPDEST PUSH1 0x0 PUSH2 0x7DA PUSH2 0x98D JUMP JUMPDEST PUSH20 0xFFFFFFFFFFFFFFFFFFFFFFFFFFFFFFFFFFFFFFFF AND PUSH2 0x7F8 PUSH2 0x70A JUMP JUMPDEST PUSH20 0xFFFFFFFFFFFFFFFFFFFFFFFFFFFFFFFFFFFFFFFF AND EQ PUSH2 0x84E JUMPI PUSH1 0x40 MLOAD PUSH32 0x8C379A000000000000000000000000000000000000000000000000000000000 DUP2 MSTORE PUSH1 0x4 ADD PUSH2 0x845 SWAP1 PUSH2 0x11F1 JUMP JUMPDEST PUSH1 0x40 MLOAD DUP1 SWAP2 SUB SWAP1 REVERT JUMPDEST PUSH1 0x5 PUSH1 0x0 DUP4 PUSH20 0xFFFFFFFFFFFFFFFFFFFFFFFFFFFFFFFFFFFFFFFF AND PUSH20 0xFFFFFFFFFFFFFFFFFFFFFFFFFFFFFFFFFFFFFFFF AND DUP2 MSTORE PUSH1 0x20 ADD SWAP1 DUP2 MSTORE PUSH1 0x20 ADD PUSH1 0x0 KECCAK256 SLOAD SWAP1 POP SWAP2 SWAP1 POP JUMP JUMPDEST PUSH2 0x89D PUSH2 0x98D JUMP JUMPDEST PUSH20 0xFFFFFFFFFFFFFFFFFFFFFFFFFFFFFFFFFFFFFFFF AND PUSH2 0x8BB PUSH2 0x70A JUMP JUMPDEST PUSH20 0xFFFFFFFFFFFFFFFFFFFFFFFFFFFFFFFFFFFFFFFF AND EQ PUSH2 0x911 JUMPI PUSH1 0x40 MLOAD PUSH32 0x8C379A000000000000000000000000000000000000000000000000000000000 DUP2 MSTORE PUSH1 0x4 ADD PUSH2 0x908 SWAP1 PUSH2 0x11F1 JUMP JUMPDEST PUSH1 0x40 MLOAD DUP1 SWAP2 SUB SWAP1 REVERT JUMPDEST PUSH1 0x0 PUSH20 0xFFFFFFFFFFFFFFFFFFFFFFFFFFFFFFFFFFFFFFFF AND DUP2 PUSH20 0xFFFFFFFFFFFFFFFFFFFFFFFFFFFFFFFFFFFFFFFF AND EQ ISZERO PUSH2 0x981 JUMPI PUSH1 0x40 MLOAD PUSH32 0x8C379A000000000000000000000000000000000000000000000000000000000 DUP2 MSTORE PUSH1 0x4 ADD PUSH2 0x978 SWAP1 PUSH2 0x11B1 JUMP JUMPDEST PUSH1 0x40 MLOAD DUP1 SWAP2 SUB SWAP1 REVERT JUMPDEST PUSH2 0x98A DUP2 PUSH2 0xAF4 JUMP JUMPDEST POP JUMP JUMPDEST PUSH1 0x0 CALLER SWAP1 POP SWAP1 JUMP JUMPDEST PUSH1 0x0 PUSH32 0x0 PUSH20 0xFFFFFFFFFFFFFFFFFFFFFFFFFFFFFFFFFFFFFFFF AND PUSH4 0x4000AEA0 PUSH32 0x0 DUP5 DUP7 PUSH1 0x0 PUSH1 0x40 MLOAD PUSH1 0x20 ADD PUSH2 0xA09 SWAP3 SWAP2 SWAP1 PUSH2 0x1143 JUMP JUMPDEST PUSH1 0x40 MLOAD PUSH1 0x20 DUP2 DUP4 SUB SUB DUP2 MSTORE SWAP1 PUSH1 0x40 MSTORE PUSH1 0x40 MLOAD DUP5 PUSH4 0xFFFFFFFF AND PUSH1 0xE0 SHL DUP2 MSTORE PUSH1 0x4 ADD PUSH2 0xA36 SWAP4 SWAP3 SWAP2 SWAP1 PUSH2 0x10C8 JUMP JUMPDEST PUSH1 0x20 PUSH1 0x40 MLOAD DUP1 DUP4 SUB DUP2 PUSH1 0x0 DUP8 DUP1 EXTCODESIZE ISZERO DUP1 ISZERO PUSH2 0xA50 JUMPI PUSH1 0x0 DUP1 REVERT JUMPDEST POP GAS CALL ISZERO DUP1 ISZERO PUSH2 0xA64 JUMPI RETURNDATASIZE PUSH1 0x0 DUP1 RETURNDATACOPY RETURNDATASIZE PUSH1 0x0 REVERT JUMPDEST POP POP POP POP PUSH1 0x40 MLOAD RETURNDATASIZE PUSH1 0x1F NOT PUSH1 0x1F DUP3 ADD AND DUP3 ADD DUP1 PUSH1 0x40 MSTORE POP DUP2 ADD SWAP1 PUSH2 0xA88 SWAP2 SWAP1 PUSH2 0xDE9 JUMP JUMPDEST POP PUSH1 0x0 PUSH2 0xAAA DUP5 PUSH1 0x0 ADDRESS PUSH1 0x0 DUP1 DUP10 DUP2 MSTORE PUSH1 0x20 ADD SWAP1 DUP2 MSTORE PUSH1 0x20 ADD PUSH1 0x0 KECCAK256 SLOAD PUSH2 0xC62 JUMP JUMPDEST SWAP1 POP PUSH1 0x1 PUSH1 0x0 DUP1 DUP7 DUP2 MSTORE PUSH1 0x20 ADD SWAP1 DUP2 MSTORE PUSH1 0x20 ADD PUSH1 0x0 KECCAK256 SLOAD PUSH2 0xACB SWAP2 SWAP1 PUSH2 0x12DB JUMP JUMPDEST PUSH1 0x0 DUP1 DUP7 DUP2 MSTORE PUSH1 0x20 ADD SWAP1 DUP2 MSTORE PUSH1 0x20 ADD PUSH1 0x0 KECCAK256 DUP2 SWAP1 SSTORE POP PUSH2 0xAEB DUP5 DUP3 PUSH2 0xC9E JUMP JUMPDEST SWAP2 POP POP SWAP3 SWAP2 POP POP JUMP JUMPDEST PUSH1 0x0 PUSH1 0x1 PUSH1 0x0 SWAP1 SLOAD SWAP1 PUSH2 0x100 EXP SWAP1 DIV PUSH20 0xFFFFFFFFFFFFFFFFFFFFFFFFFFFFFFFFFFFFFFFF AND SWAP1 POP DUP2 PUSH1 0x1 PUSH1 0x0 PUSH2 0x100 EXP DUP2 SLOAD DUP2 PUSH20 0xFFFFFFFFFFFFFFFFFFFFFFFFFFFFFFFFFFFFFFFF MUL NOT AND SWAP1 DUP4 PUSH20 0xFFFFFFFFFFFFFFFFFFFFFFFFFFFFFFFFFFFFFFFF AND MUL OR SWAP1 SSTORE POP DUP2 PUSH20 0xFFFFFFFFFFFFFFFFFFFFFFFFFFFFFFFFFFFFFFFF AND DUP2 PUSH20 0xFFFFFFFFFFFFFFFFFFFFFFFFFFFFFFFFFFFFFFFF AND PUSH32 0x8BE0079C531659141344CD1FD0A4F28419497F9722A3DAAFE3B4186F6B6457E0 PUSH1 0x40 MLOAD PUSH1 0x40 MLOAD DUP1 SWAP2 SUB SWAP1 LOG3 POP POP JUMP JUMPDEST PUSH1 0x0 PUSH2 0xBC4 PUSH2 0xCD1 JUMP JUMPDEST SWAP1 POP PUSH1 0x1 DUP2 DUP4 PUSH2 0xBD4 SWAP2 SWAP1 PUSH2 0x1413 JUMP JUMPDEST PUSH2 0xBDE SWAP2 SWAP1 PUSH2 0x12DB JUMP JUMPDEST PUSH1 0x4 DUP2 SWAP1 SSTORE POP PUSH1 0x4 SLOAD PUSH1 0x5 PUSH1 0x0 PUSH1 0x6 PUSH1 0x0 DUP8 DUP2 MSTORE PUSH1 0x20 ADD SWAP1 DUP2 MSTORE PUSH1 0x20 ADD PUSH1 0x0 KECCAK256 PUSH1 0x0 SWAP1 SLOAD SWAP1 PUSH2 0x100 EXP SWAP1 DIV PUSH20 0xFFFFFFFFFFFFFFFFFFFFFFFFFFFFFFFFFFFFFFFF AND PUSH20 0xFFFFFFFFFFFFFFFFFFFFFFFFFFFFFFFFFFFFFFFF AND PUSH20 0xFFFFFFFFFFFFFFFFFFFFFFFFFFFFFFFFFFFFFFFF AND DUP2 MSTORE PUSH1 0x20 ADD SWAP1 DUP2 MSTORE PUSH1 0x20 ADD PUSH1 0x0 KECCAK256 DUP2 SWAP1 SSTORE POP POP POP POP JUMP JUMPDEST PUSH1 0x0 DUP5 DUP5 DUP5 DUP5 PUSH1 0x40 MLOAD PUSH1 0x20 ADD PUSH2 0xC7B SWAP5 SWAP4 SWAP3 SWAP2 SWAP1 PUSH2 0x116C JUMP JUMPDEST PUSH1 0x40 MLOAD PUSH1 0x20 DUP2 DUP4 SUB SUB DUP2 MSTORE SWAP1 PUSH1 0x40 MSTORE DUP1 MLOAD SWAP1 PUSH1 0x20 ADD KECCAK256 PUSH1 0x0 SHR SWAP1 POP SWAP5 SWAP4 POP POP POP POP JUMP JUMPDEST PUSH1 0x0 DUP3 DUP3 PUSH1 0x40 MLOAD PUSH1 0x20 ADD PUSH2 0xCB3 SWAP3 SWAP2 SWAP1 PUSH2 0x1081 JUMP JUMPDEST PUSH1 0x40 MLOAD PUSH1 0x20 DUP2 DUP4 SUB SUB DUP2 MSTORE SWAP1 PUSH1 0x40 MSTORE DUP1 MLOAD SWAP1 PUSH1 0x20 ADD KECCAK256 SWAP1 POP SWAP3 SWAP2 POP POP JUMP JUMPDEST PUSH1 0x0 PUSH2 0xCDB PUSH2 0x98D JUMP JUMPDEST PUSH20 0xFFFFFFFFFFFFFFFFFFFFFFFFFFFFFFFFFFFFFFFF AND PUSH2 0xCF9 PUSH2 0x70A JUMP JUMPDEST PUSH20 0xFFFFFFFFFFFFFFFFFFFFFFFFFFFFFFFFFFFFFFFF AND EQ PUSH2 0xD4F JUMPI PUSH1 0x40 MLOAD PUSH32 0x8C379A000000000000000000000000000000000000000000000000000000000 DUP2 MSTORE PUSH1 0x4 ADD PUSH2 0xD46 SWAP1 PUSH2 0x11F1 JUMP JUMPDEST PUSH1 0x40 MLOAD DUP1 SWAP2 SUB SWAP1 REVERT JUMPDEST PUSH1 0x7 SLOAD SWAP1 POP SWAP1 JUMP JUMPDEST PUSH1 0x0 DUP2 CALLDATALOAD SWAP1 POP PUSH2 0xD66 DUP2 PUSH2 0x157D JUMP JUMPDEST SWAP3 SWAP2 POP POP JUMP JUMPDEST PUSH1 0x0 DUP2 MLOAD SWAP1 POP PUSH2 0xD7B DUP2 PUSH2 0x1594 JUMP JUMPDEST SWAP3 SWAP2 POP POP JUMP JUMPDEST PUSH1 0x0 DUP2 CALLDATALOAD SWAP1 POP PUSH2 0xD90 DUP2 PUSH2 0x15AB JUMP JUMPDEST SWAP3 SWAP2 POP POP JUMP JUMPDEST PUSH1 0x0 DUP2 CALLDATALOAD SWAP1 POP PUSH2 0xDA5 DUP2 PUSH2 0x15C2 JUMP JUMPDEST SWAP3 SWAP2 POP POP JUMP JUMPDEST PUSH1 0x0 DUP2 MLOAD SWAP1 POP PUSH2 0xDBA DUP2 PUSH2 0x15C2 JUMP JUMPDEST SWAP3 SWAP2 POP POP JUMP JUMPDEST PUSH1 0x0 PUSH1 0x20 DUP3 DUP5 SUB SLT ISZERO PUSH2 0xDD2 JUMPI PUSH1 0x0 DUP1 REVERT JUMPDEST PUSH1 0x0 PUSH2 0xDE0 DUP5 DUP3 DUP6 ADD PUSH2 0xD57 JUMP JUMPDEST SWAP2 POP POP SWAP3 SWAP2 POP POP JUMP JUMPDEST PUSH1 0x0 PUSH1 0x20 DUP3 DUP5 SUB SLT ISZERO PUSH2 0xDFB JUMPI PUSH1 0x0 DUP1 REVERT JUMPDEST PUSH1 0x0 PUSH2 0xE09 DUP5 DUP3 DUP6 ADD PUSH2 0xD6C JUMP JUMPDEST SWAP2 POP POP SWAP3 SWAP2 POP POP JUMP JUMPDEST PUSH1 0x0 DUP1 PUSH1 0x40 DUP4 DUP6 SUB SLT ISZERO PUSH2 0xE25 JUMPI PUSH1 0x0 DUP1 REVERT JUMPDEST PUSH1 0x0 PUSH2 0xE33 DUP6 DUP3 DUP7 ADD PUSH2 0xD81 JUMP JUMPDEST SWAP3 POP POP PUSH1 0x20 PUSH2 0xE44 DUP6 DUP3 DUP7 ADD PUSH2 0xD96 JUMP JUMPDEST SWAP2 POP POP SWAP3 POP SWAP3 SWAP1 POP JUMP JUMPDEST PUSH1 0x0 PUSH1 0x20 DUP3 DUP5 SUB SLT ISZERO PUSH2 0xE60 JUMPI PUSH1 0x0 DUP1 REVERT JUMPDEST PUSH1 0x0 PUSH2 0xE6E DUP5 DUP3 DUP6 ADD PUSH2 0xD96 JUMP JUMPDEST SWAP2 POP POP SWAP3 SWAP2 POP POP JUMP JUMPDEST PUSH1 0x0 PUSH1 0x20 DUP3 DUP5 SUB SLT ISZERO PUSH2 0xE89 JUMPI PUSH1 0x0 DUP1 REVERT JUMPDEST PUSH1 0x0 PUSH2 0xE97 DUP5 DUP3 DUP6 ADD PUSH2 0xDAB JUMP JUMPDEST SWAP2 POP POP SWAP3 SWAP2 POP POP JUMP JUMPDEST PUSH1 0x0 DUP1 PUSH1 0x40 DUP4 DUP6 SUB SLT ISZERO PUSH2 0xEB3 JUMPI PUSH1 0x0 DUP1 REVERT JUMPDEST PUSH1 0x0 PUSH2 0xEC1 DUP6 DUP3 DUP7 ADD PUSH2 0xD96 JUMP JUMPDEST SWAP3 POP POP PUSH1 0x20 PUSH2 0xED2 DUP6 DUP3 DUP7 ADD PUSH2 0xD96 JUMP JUMPDEST SWAP2 POP POP SWAP3 POP SWAP3 SWAP1 POP JUMP JUMPDEST PUSH1 0x0 PUSH2 0xEE8 DUP4 DUP4 PUSH2 0x104C JUMP JUMPDEST PUSH1 0x20 DUP4 ADD SWAP1 POP SWAP3 SWAP2 POP POP JUMP JUMPDEST PUSH2 0xEFD DUP2 PUSH2 0x1331 JUMP JUMPDEST DUP3 MSTORE POP POP JUMP JUMPDEST PUSH1 0x0 PUSH2 0xF0E DUP3 PUSH2 0x1285 JUMP JUMPDEST PUSH2 0xF18 DUP2 DUP6 PUSH2 0x12A8 JUMP JUMPDEST SWAP4 POP PUSH2 0xF23 DUP4 PUSH2 0x1275 JUMP JUMPDEST DUP1 PUSH1 0x0 JUMPDEST DUP4 DUP2 LT ISZERO PUSH2 0xF54 JUMPI DUP2 MLOAD PUSH2 0xF3B DUP9 DUP3 PUSH2 0xEDC JUMP JUMPDEST SWAP8 POP PUSH2 0xF46 DUP4 PUSH2 0x129B JUMP JUMPDEST SWAP3 POP POP PUSH1 0x1 DUP2 ADD SWAP1 POP PUSH2 0xF27 JUMP JUMPDEST POP DUP6 SWAP4 POP POP POP POP SWAP3 SWAP2 POP POP JUMP JUMPDEST PUSH2 0xF6A DUP2 PUSH2 0x134F JUMP JUMPDEST DUP3 MSTORE POP POP JUMP JUMPDEST PUSH2 0xF81 PUSH2 0xF7C DUP3 PUSH2 0x134F JUMP JUMPDEST PUSH2 0x13FF JUMP JUMPDEST DUP3 MSTORE POP POP JUMP JUMPDEST PUSH1 0x0 PUSH2 0xF92 DUP3 PUSH2 0x1290 JUMP JUMPDEST PUSH2 0xF9C DUP2 DUP6 PUSH2 0x12B9 JUMP JUMPDEST SWAP4 POP PUSH2 0xFAC DUP2 DUP6 PUSH1 0x20 DUP7 ADD PUSH2 0x1383 JUMP JUMPDEST PUSH2 0xFB5 DUP2 PUSH2 0x14A2 JUMP JUMPDEST DUP5 ADD SWAP2 POP POP SWAP3 SWAP2 POP POP JUMP JUMPDEST PUSH1 0x0 PUSH2 0xFCD PUSH1 0x26 DUP4 PUSH2 0x12CA JUMP JUMPDEST SWAP2 POP PUSH2 0xFD8 DUP3 PUSH2 0x14B3 JUMP JUMPDEST PUSH1 0x40 DUP3 ADD SWAP1 POP SWAP2 SWAP1 POP JUMP JUMPDEST PUSH1 0x0 PUSH2 0xFF0 PUSH1 0xF DUP4 PUSH2 0x12CA JUMP JUMPDEST SWAP2 POP PUSH2 0xFFB DUP3 PUSH2 0x1502 JUMP JUMPDEST PUSH1 0x20 DUP3 ADD SWAP1 POP SWAP2 SWAP1 POP JUMP JUMPDEST PUSH1 0x0 PUSH2 0x1013 PUSH1 0x20 DUP4 PUSH2 0x12CA JUMP JUMPDEST SWAP2 POP PUSH2 0x101E DUP3 PUSH2 0x152B JUMP JUMPDEST PUSH1 0x20 DUP3 ADD SWAP1 POP SWAP2 SWAP1 POP JUMP JUMPDEST PUSH1 0x0 PUSH2 0x1036 PUSH1 0x1F DUP4 PUSH2 0x12CA JUMP JUMPDEST SWAP2 POP PUSH2 0x1041 DUP3 PUSH2 0x1554 JUMP JUMPDEST PUSH1 0x20 DUP3 ADD SWAP1 POP SWAP2 SWAP1 POP JUMP JUMPDEST PUSH2 0x1055 DUP2 PUSH2 0x1379 JUMP JUMPDEST DUP3 MSTORE POP POP JUMP JUMPDEST PUSH2 0x1064 DUP2 PUSH2 0x1379 JUMP JUMPDEST DUP3 MSTORE POP POP JUMP JUMPDEST PUSH2 0x107B PUSH2 0x1076 DUP3 PUSH2 0x1379 JUMP JUMPDEST PUSH2 0x1409 JUMP JUMPDEST DUP3 MSTORE POP POP JUMP JUMPDEST PUSH1 0x0 PUSH2 0x108D DUP3 DUP6 PUSH2 0xF70 JUMP JUMPDEST PUSH1 0x20 DUP3 ADD SWAP2 POP PUSH2 0x109D DUP3 DUP5 PUSH2 0x106A JUMP JUMPDEST PUSH1 0x20 DUP3 ADD SWAP2 POP DUP2 SWAP1 POP SWAP4 SWAP3 POP POP POP JUMP JUMPDEST PUSH1 0x0 PUSH1 0x20 DUP3 ADD SWAP1 POP PUSH2 0x10C2 PUSH1 0x0 DUP4 ADD DUP5 PUSH2 0xEF4 JUMP JUMPDEST SWAP3 SWAP2 POP POP JUMP JUMPDEST PUSH1 0x0 PUSH1 0x60 DUP3 ADD SWAP1 POP PUSH2 0x10DD PUSH1 0x0 DUP4 ADD DUP7 PUSH2 0xEF4 JUMP JUMPDEST PUSH2 0x10EA PUSH1 0x20 DUP4 ADD DUP6 PUSH2 0x105B JUMP JUMPDEST DUP2 DUP2 SUB PUSH1 0x40 DUP4 ADD MSTORE PUSH2 0x10FC DUP2 DUP5 PUSH2 0xF87 JUMP JUMPDEST SWAP1 POP SWAP5 SWAP4 POP POP POP POP JUMP JUMPDEST PUSH1 0x0 PUSH1 0x20 DUP3 ADD SWAP1 POP DUP2 DUP2 SUB PUSH1 0x0 DUP4 ADD MSTORE PUSH2 0x1120 DUP2 DUP5 PUSH2 0xF03 JUMP JUMPDEST SWAP1 POP SWAP3 SWAP2 POP POP JUMP JUMPDEST PUSH1 0x0 PUSH1 0x20 DUP3 ADD SWAP1 POP PUSH2 0x113D PUSH1 0x0 DUP4 ADD DUP5 PUSH2 0xF61 JUMP JUMPDEST SWAP3 SWAP2 POP POP JUMP JUMPDEST PUSH1 0x0 PUSH1 0x40 DUP3 ADD SWAP1 POP PUSH2 0x1158 PUSH1 0x0 DUP4 ADD DUP6 PUSH2 0xF61 JUMP JUMPDEST PUSH2 0x1165 PUSH1 0x20 DUP4 ADD DUP5 PUSH2 0x105B JUMP JUMPDEST SWAP4 SWAP3 POP POP POP JUMP JUMPDEST PUSH1 0x0 PUSH1 0x80 DUP3 ADD SWAP1 POP PUSH2 0x1181 PUSH1 0x0 DUP4 ADD DUP8 PUSH2 0xF61 JUMP JUMPDEST PUSH2 0x118E PUSH1 0x20 DUP4 ADD DUP7 PUSH2 0x105B JUMP JUMPDEST PUSH2 0x119B PUSH1 0x40 DUP4 ADD DUP6 PUSH2 0xEF4 JUMP JUMPDEST PUSH2 0x11A8 PUSH1 0x60 DUP4 ADD DUP5 PUSH2 0x105B JUMP JUMPDEST SWAP6 SWAP5 POP POP POP POP POP JUMP JUMPDEST PUSH1 0x0 PUSH1 0x20 DUP3 ADD SWAP1 POP DUP2 DUP2 SUB PUSH1 0x0 DUP4 ADD MSTORE PUSH2 0x11CA DUP2 PUSH2 0xFC0 JUMP JUMPDEST SWAP1 POP SWAP2 SWAP1 POP JUMP JUMPDEST PUSH1 0x0 PUSH1 0x20 DUP3 ADD SWAP1 POP DUP2 DUP2 SUB PUSH1 0x0 DUP4 ADD MSTORE PUSH2 0x11EA DUP2 PUSH2 0xFE3 JUMP JUMPDEST SWAP1 POP SWAP2 SWAP1 POP JUMP JUMPDEST PUSH1 0x0 PUSH1 0x20 DUP3 ADD SWAP1 POP DUP2 DUP2 SUB PUSH1 0x0 DUP4 ADD MSTORE PUSH2 0x120A DUP2 PUSH2 0x1006 JUMP JUMPDEST SWAP1 POP SWAP2 SWAP1 POP JUMP JUMPDEST PUSH1 0x0 PUSH1 0x20 DUP3 ADD SWAP1 POP DUP2 DUP2 SUB PUSH1 0x0 DUP4 ADD MSTORE PUSH2 0x122A DUP2 PUSH2 0x1029 JUMP JUMPDEST SWAP1 POP SWAP2 SWAP1 POP JUMP JUMPDEST PUSH1 0x0 PUSH1 0x20 DUP3 ADD SWAP1 POP PUSH2 0x1246 PUSH1 0x0 DUP4 ADD DUP5 PUSH2 0x105B JUMP JUMPDEST SWAP3 SWAP2 POP POP JUMP JUMPDEST PUSH1 0x0 PUSH1 0x40 DUP3 ADD SWAP1 POP PUSH2 0x1261 PUSH1 0x0 DUP4 ADD DUP6 PUSH2 0x105B JUMP JUMPDEST PUSH2 0x126E PUSH1 0x20 DUP4 ADD DUP5 PUSH2 0x105B JUMP JUMPDEST SWAP4 SWAP3 POP POP POP JUMP JUMPDEST PUSH1 0x0 DUP2 SWAP1 POP PUSH1 0x20 DUP3 ADD SWAP1 POP SWAP2 SWAP1 POP JUMP JUMPDEST PUSH1 0x0 DUP2 MLOAD SWAP1 POP SWAP2 SWAP1 POP JUMP JUMPDEST PUSH1 0x0 DUP2 MLOAD SWAP1 POP SWAP2 SWAP1 POP JUMP JUMPDEST PUSH1 0x0 PUSH1 0x20 DUP3 ADD SWAP1 POP SWAP2 SWAP1 POP JUMP JUMPDEST PUSH1 0x0 DUP3 DUP3 MSTORE PUSH1 0x20 DUP3 ADD SWAP1 POP SWAP3 SWAP2 POP POP JUMP JUMPDEST PUSH1 0x0 DUP3 DUP3 MSTORE PUSH1 0x20 DUP3 ADD SWAP1 POP SWAP3 SWAP2 POP POP JUMP JUMPDEST PUSH1 0x0 DUP3 DUP3 MSTORE PUSH1 0x20 DUP3 ADD SWAP1 POP SWAP3 SWAP2 POP POP JUMP JUMPDEST PUSH1 0x0 PUSH2 0x12E6 DUP3 PUSH2 0x1379 JUMP JUMPDEST SWAP2 POP PUSH2 0x12F1 DUP4 PUSH2 0x1379 JUMP JUMPDEST SWAP3 POP DUP3 PUSH32 0xFFFFFFFFFFFFFFFFFFFFFFFFFFFFFFFFFFFFFFFFFFFFFFFFFFFFFFFFFFFFFFFF SUB DUP3 GT ISZERO PUSH2 0x1326 JUMPI PUSH2 0x1325 PUSH2 0x1444 JUMP JUMPDEST JUMPDEST DUP3 DUP3 ADD SWAP1 POP SWAP3 SWAP2 POP POP JUMP JUMPDEST PUSH1 0x0 PUSH2 0x133C DUP3 PUSH2 0x1359 JUMP JUMPDEST SWAP1 POP SWAP2 SWAP1 POP JUMP JUMPDEST PUSH1 0x0 DUP2 ISZERO ISZERO SWAP1 POP SWAP2 SWAP1 POP JUMP JUMPDEST PUSH1 0x0 DUP2 SWAP1 POP SWAP2 SWAP1 POP JUMP JUMPDEST PUSH1 0x0 PUSH20 0xFFFFFFFFFFFFFFFFFFFFFFFFFFFFFFFFFFFFFFFF DUP3 AND SWAP1 POP SWAP2 SWAP1 POP JUMP JUMPDEST PUSH1 0x0 DUP2 SWAP1 POP SWAP2 SWAP1 POP JUMP JUMPDEST PUSH1 0x0 JUMPDEST DUP4 DUP2 LT ISZERO PUSH2 0x13A1 JUMPI DUP1 DUP3 ADD MLOAD DUP2 DUP5 ADD MSTORE PUSH1 0x20 DUP2 ADD SWAP1 POP PUSH2 0x1386 JUMP JUMPDEST DUP4 DUP2 GT ISZERO PUSH2 0x13B0 JUMPI PUSH1 0x0 DUP5 DUP5 ADD MSTORE JUMPDEST POP POP POP POP JUMP JUMPDEST PUSH1 0x0 PUSH2 0x13C1 DUP3 PUSH2 0x1379 JUMP JUMPDEST SWAP2 POP PUSH32 0xFFFFFFFFFFFFFFFFFFFFFFFFFFFFFFFFFFFFFFFFFFFFFFFFFFFFFFFFFFFFFFFF DUP3 EQ ISZERO PUSH2 0x13F4 JUMPI PUSH2 0x13F3 PUSH2 0x1444 JUMP JUMPDEST JUMPDEST PUSH1 0x1 DUP3 ADD SWAP1 POP SWAP2 SWAP1 POP JUMP JUMPDEST PUSH1 0x0 DUP2 SWAP1 POP SWAP2 SWAP1 POP JUMP JUMPDEST PUSH1 0x0 DUP2 SWAP1 POP SWAP2 SWAP1 POP JUMP JUMPDEST PUSH1 0x0 PUSH2 0x141E DUP3 PUSH2 0x1379 JUMP JUMPDEST SWAP2 POP PUSH2 0x1429 DUP4 PUSH2 0x1379 JUMP JUMPDEST SWAP3 POP DUP3 PUSH2 0x1439 JUMPI PUSH2 0x1438 PUSH2 0x1473 JUMP JUMPDEST JUMPDEST DUP3 DUP3 MOD SWAP1 POP SWAP3 SWAP2 POP POP JUMP JUMPDEST PUSH32 0x4E487B7100000000000000000000000000000000000000000000000000000000 PUSH1 0x0 MSTORE PUSH1 0x11 PUSH1 0x4 MSTORE PUSH1 0x24 PUSH1 0x0 REVERT JUMPDEST PUSH32 0x4E487B7100000000000000000000000000000000000000000000000000000000 PUSH1 0x0 MSTORE PUSH1 0x12 PUSH1 0x4 MSTORE PUSH1 0x24 PUSH1 0x0 REVERT JUMPDEST PUSH1 0x0 PUSH1 0x1F NOT PUSH1 0x1F DUP4 ADD AND SWAP1 POP SWAP2 SWAP1 POP JUMP JUMPDEST PUSH32 0x4F776E61626C653A206E6577206F776E657220697320746865207A65726F2061 PUSH1 0x0 DUP3 ADD MSTORE PUSH32 0x6464726573730000000000000000000000000000000000000000000000000000 PUSH1 0x20 DUP3 ADD MSTORE POP JUMP JUMPDEST PUSH32 0x4E6F7420656E6F756768204C494E4B0000000000000000000000000000000000 PUSH1 0x0 DUP3 ADD MSTORE POP JUMP JUMPDEST PUSH32 0x4F776E61626C653A2063616C6C6572206973206E6F7420746865206F776E6572 PUSH1 0x0 DUP3 ADD MSTORE POP JUMP JUMPDEST PUSH32 0x4F6E6C7920565246436F6F7264696E61746F722063616E2066756C66696C6C00 PUSH1 0x0 DUP3 ADD MSTORE POP JUMP JUMPDEST PUSH2 0x1586 DUP2 PUSH2 0x1331 JUMP JUMPDEST DUP2 EQ PUSH2 0x1591 JUMPI PUSH1 0x0 DUP1 REVERT JUMPDEST POP JUMP JUMPDEST PUSH2 0x159D DUP2 PUSH2 0x1343 JUMP JUMPDEST DUP2 EQ PUSH2 0x15A8 JUMPI PUSH1 0x0 DUP1 REVERT JUMPDEST POP JUMP JUMPDEST PUSH2 0x15B4 DUP2 PUSH2 0x134F JUMP JUMPDEST DUP2 EQ PUSH2 0x15BF JUMPI PUSH1 0x0 DUP1 REVERT JUMPDEST POP JUMP JUMPDEST PUSH2 0x15CB DUP2 PUSH2 0x1379 JUMP JUMPDEST DUP2 EQ PUSH2 0x15D6 JUMPI PUSH1 0x0 DUP1 REVERT JUMPDEST POP JUMP INVALID LOG2 PUSH5 0x6970667358 0x22 SLT KECCAK256 PUSH2 0xE356 PUSH16 0x61C52B6CDDAD741E47F71AD428D37C82 0x28 SAR 0x4A 0xD3 0xCD PUSH14 0x9BC8B481F9E164736F6C63430008 DIV STOP CALLER "
        },
        "methodIdentifiers": {
          "borrowMoney(address,address,uint256)": "41e2e111",
          "getReceivingUsers()": "53a59714",
          "getUser(address)": "6f77926b",
          "obtainBonus()": "4b6c62d9",
          "owner()": "8da5cb5b",
          "randomNumberConsumer()": "46df22da",
          "renounceOwnership()": "715018a6",
          "setRandomNumberAddress(address)": "e9f5b9e2",
          "setTokenAddress(address)": "26a4e8d2",
          "setXAndY(uint256,uint256)": "2fae4793",
          "tokenAddress()": "9d76ea58",
          "transferOwnership(address)": "f2fde38b",
          "userReceive()": "dd301b0b"
        }
      }
    }
  }
}