{
  "contracts/RandomNumberConsumer.sol": {
    "GrabARedEnvelope": {
      "abi": [
        {
          "inputs": [
            {
              "internalType": "contract RandomNumberConsumer",
              "name": "_randomNumberConsumer",
              "type": "address"
            },
            {
              "internalType": "contract ERC20",
              "name": "_tokenAddress",
              "type": "address"
            }
          ],
          "stateMutability": "nonpayable",
          "type": "constructor"
        },
        {
          "anonymous": false,
          "inputs": [
            {
              "indexed": true,
              "internalType": "address",
              "name": "previousOwner",
              "type": "address"
            },
            {
              "indexed": true,
              "internalType": "address",
              "name": "newOwner",
              "type": "address"
            }
          ],
          "name": "OwnershipTransferred",
          "type": "event"
        },
        {
          "inputs": [],
          "name": "getReceivingUsers",
          "outputs": [
            {
              "internalType": "uint256",
              "name": "",
              "type": "uint256"
            }
          ],
          "stateMutability": "view",
          "type": "function"
        },
        {
          "inputs": [
            {
              "internalType": "address",
              "name": "_userAddress",
              "type": "address"
            }
          ],
          "name": "getUser",
          "outputs": [
            {
              "internalType": "uint256",
              "name": "",
              "type": "uint256"
            }
          ],
          "stateMutability": "view",
          "type": "function"
        },
        {
          "inputs": [],
          "name": "obtainBonus",
          "outputs": [],
          "stateMutability": "nonpayable",
          "type": "function"
        },
        {
          "inputs": [],
          "name": "owner",
          "outputs": [
            {
              "internalType": "address",
              "name": "",
              "type": "address"
            }
          ],
          "stateMutability": "view",
          "type": "function"
        },
        {
          "inputs": [],
          "name": "renounceOwnership",
          "outputs": [],
          "stateMutability": "nonpayable",
          "type": "function"
        },
        {
          "inputs": [
            {
              "internalType": "address",
              "name": "newOwner",
              "type": "address"
            }
          ],
          "name": "transferOwnership",
          "outputs": [],
          "stateMutability": "nonpayable",
          "type": "function"
        },
        {
          "inputs": [],
          "name": "userReceive",
          "outputs": [],
          "stateMutability": "nonpayable",
          "type": "function"
        }
      ],
      "evm": {
        "bytecode": {
          "linkReferences": {},
          "object": "60806040523480156200001157600080fd5b5060405162001546380380620015468339818101604052810190620000379190620001db565b620000576200004b620000e160201b60201c565b620000e960201b60201c565b81600260006101000a81548173ffffffffffffffffffffffffffffffffffffffff021916908373ffffffffffffffffffffffffffffffffffffffff16021790555080600160006101000a81548173ffffffffffffffffffffffffffffffffffffffff021916908373ffffffffffffffffffffffffffffffffffffffff1602179055505050620002ac565b600033905090565b60008060009054906101000a900473ffffffffffffffffffffffffffffffffffffffff169050816000806101000a81548173ffffffffffffffffffffffffffffffffffffffff021916908373ffffffffffffffffffffffffffffffffffffffff1602179055508173ffffffffffffffffffffffffffffffffffffffff168173ffffffffffffffffffffffffffffffffffffffff167f8be0079c531659141344cd1fd0a4f28419497f9722a3daafe3b4186f6b6457e060405160405180910390a35050565b600081519050620001be8162000278565b92915050565b600081519050620001d58162000292565b92915050565b60008060408385031215620001ef57600080fd5b6000620001ff85828601620001c4565b92505060206200021285828601620001ad565b9150509250929050565b6000620002298262000258565b9050919050565b60006200023d826200021c565b9050919050565b600062000251826200021c565b9050919050565b600073ffffffffffffffffffffffffffffffffffffffff82169050919050565b620002838162000230565b81146200028f57600080fd5b50565b6200029d8162000244565b8114620002a957600080fd5b50565b61128a80620002bc6000396000f3fe608060405234801561001057600080fd5b506004361061007d5760003560e01c8063715018a61161005b578063715018a6146100da5780638da5cb5b146100e4578063dd301b0b14610102578063f2fde38b1461010c5761007d565b80634b6c62d91461008257806353a597141461008c5780636f77926b146100aa575b600080fd5b61008a610128565b005b61009461027e565b6040516100a19190610d39565b60405180910390f35b6100c460048036038101906100bf91906109d5565b610288565b6040516100d19190610d39565b60405180910390f35b6100e261033c565b005b6100ec6103c4565b6040516100f99190610c13565b60405180910390f35b61010a6103ed565b005b610126600480360381019061012191906109d5565b6104b5565b005b600061013333610288565b905060008111610178576040517f08c379a000000000000000000000000000000000000000000000000000000000815260040161016f90610c99565b60405180910390fd5b61027b33600160009054906101000a900473ffffffffffffffffffffffffffffffffffffffff1673ffffffffffffffffffffffffffffffffffffffff1663313ce5676040518163ffffffff1660e01b815260040160206040518083038186803b1580156101e457600080fd5b505afa1580156101f8573d6000803e3d6000fd5b505050506040513d601f19601f8201168201806040525081019061021c9190610a79565b600a6102289190610dd9565b836102339190610ef7565b600160009054906101000a900473ffffffffffffffffffffffffffffffffffffffff1673ffffffffffffffffffffffffffffffffffffffff166105ad9092919063ffffffff16565b50565b6000600354905090565b6000600260009054906101000a900473ffffffffffffffffffffffffffffffffffffffff1673ffffffffffffffffffffffffffffffffffffffff1663bc173cd9836040518263ffffffff1660e01b81526004016102e59190610c13565b60206040518083038186803b1580156102fd57600080fd5b505afa158015610311573d6000803e3d6000fd5b505050506040513d601f19601f820116820180604052508101906103359190610a50565b9050919050565b610344610633565b73ffffffffffffffffffffffffffffffffffffffff166103626103c4565b73ffffffffffffffffffffffffffffffffffffffff16146103b8576040517f08c379a00000000000000000000000000000000000000000000000000000000081526004016103af90610cd9565b60405180910390fd5b6103c2600061063b565b565b60008060009054906101000a900473ffffffffffffffffffffffffffffffffffffffff16905090565b600260009054906101000a900473ffffffffffffffffffffffffffffffffffffffff1673ffffffffffffffffffffffffffffffffffffffff16633b6dde13336040518263ffffffff1660e01b81526004016104489190610c13565b602060405180830381600087803b15801561046257600080fd5b505af1158015610476573d6000803e3d6000fd5b505050506040513d601f19601f8201168201806040525081019061049a9190610a27565b50600360008154809291906104ae90610fe3565b9190505550565b6104bd610633565b73ffffffffffffffffffffffffffffffffffffffff166104db6103c4565b73ffffffffffffffffffffffffffffffffffffffff1614610531576040517f08c379a000000000000000000000000000000000000000000000000000000000815260040161052890610cd9565b60405180910390fd5b600073ffffffffffffffffffffffffffffffffffffffff168173ffffffffffffffffffffffffffffffffffffffff1614156105a1576040517f08c379a000000000000000000000000000000000000000000000000000000000815260040161059890610c79565b60405180910390fd5b6105aa8161063b565b50565b61062e8363a9059cbb60e01b84846040516024016105cc929190610c2e565b604051602081830303815290604052907bffffffffffffffffffffffffffffffffffffffffffffffffffffffff19166020820180517bffffffffffffffffffffffffffffffffffffffffffffffffffffffff83818316178352505050506106ff565b505050565b600033905090565b60008060009054906101000a900473ffffffffffffffffffffffffffffffffffffffff169050816000806101000a81548173ffffffffffffffffffffffffffffffffffffffff021916908373ffffffffffffffffffffffffffffffffffffffff1602179055508173ffffffffffffffffffffffffffffffffffffffff168173ffffffffffffffffffffffffffffffffffffffff167f8be0079c531659141344cd1fd0a4f28419497f9722a3daafe3b4186f6b6457e060405160405180910390a35050565b6000610761826040518060400160405280602081526020017f5361666545524332303a206c6f772d6c6576656c2063616c6c206661696c65648152508573ffffffffffffffffffffffffffffffffffffffff166107c69092919063ffffffff16565b90506000815111156107c1578080602001905181019061078191906109fe565b6107c0576040517f08c379a00000000000000000000000000000000000000000000000000000000081526004016107b790610d19565b60405180910390fd5b5b505050565b60606107d584846000856107de565b90509392505050565b606082471015610823576040517f08c379a000000000000000000000000000000000000000000000000000000000815260040161081a90610cb9565b60405180910390fd5b61082c856108f2565b61086b576040517f08c379a000000000000000000000000000000000000000000000000000000000815260040161086290610cf9565b60405180910390fd5b6000808673ffffffffffffffffffffffffffffffffffffffff1685876040516108949190610bfc565b60006040518083038185875af1925050503d80600081146108d1576040519150601f19603f3d011682016040523d82523d6000602084013e6108d6565b606091505b50915091506108e6828286610905565b92505050949350505050565b600080823b905060008111915050919050565b6060831561091557829050610965565b6000835111156109285782518084602001fd5b816040517f08c379a000000000000000000000000000000000000000000000000000000000815260040161095c9190610c57565b60405180910390fd5b9392505050565b60008135905061097b816111e1565b92915050565b600081519050610990816111f8565b92915050565b6000815190506109a58161120f565b92915050565b6000815190506109ba81611226565b92915050565b6000815190506109cf8161123d565b92915050565b6000602082840312156109e757600080fd5b60006109f58482850161096c565b91505092915050565b600060208284031215610a1057600080fd5b6000610a1e84828501610981565b91505092915050565b600060208284031215610a3957600080fd5b6000610a4784828501610996565b91505092915050565b600060208284031215610a6257600080fd5b6000610a70848285016109ab565b91505092915050565b600060208284031215610a8b57600080fd5b6000610a99848285016109c0565b91505092915050565b610aab81610f51565b82525050565b6000610abc82610d54565b610ac68185610d6a565b9350610ad6818560208601610fb0565b80840191505092915050565b6000610aed82610d5f565b610af78185610d75565b9350610b07818560208601610fb0565b610b108161105b565b840191505092915050565b6000610b28602683610d75565b9150610b3382611079565b604082019050919050565b6000610b4b601e83610d75565b9150610b56826110c8565b602082019050919050565b6000610b6e602683610d75565b9150610b79826110f1565b604082019050919050565b6000610b91602083610d75565b9150610b9c82611140565b602082019050919050565b6000610bb4601d83610d75565b9150610bbf82611169565b602082019050919050565b6000610bd7602a83610d75565b9150610be282611192565b604082019050919050565b610bf681610f99565b82525050565b6000610c088284610ab1565b915081905092915050565b6000602082019050610c286000830184610aa2565b92915050565b6000604082019050610c436000830185610aa2565b610c506020830184610bed565b9392505050565b60006020820190508181036000830152610c718184610ae2565b905092915050565b60006020820190508181036000830152610c9281610b1b565b9050919050565b60006020820190508181036000830152610cb281610b3e565b9050919050565b60006020820190508181036000830152610cd281610b61565b9050919050565b60006020820190508181036000830152610cf281610b84565b9050919050565b60006020820190508181036000830152610d1281610ba7565b9050919050565b60006020820190508181036000830152610d3281610bca565b9050919050565b6000602082019050610d4e6000830184610bed565b92915050565b600081519050919050565b600081519050919050565b600081905092915050565b600082825260208201905092915050565b6000808291508390505b6001851115610dd057808604811115610dac57610dab61102c565b5b6001851615610dbb5780820291505b8081029050610dc98561106c565b9450610d90565b94509492505050565b6000610de482610f99565b9150610def83610fa3565b9250610e1c7fffffffffffffffffffffffffffffffffffffffffffffffffffffffffffffffff8484610e24565b905092915050565b600082610e345760019050610ef0565b81610e425760009050610ef0565b8160018114610e585760028114610e6257610e91565b6001915050610ef0565b60ff841115610e7457610e7361102c565b5b8360020a915084821115610e8b57610e8a61102c565b5b50610ef0565b5060208310610133831016604e8410600b8410161715610ec65782820a905083811115610ec157610ec061102c565b5b610ef0565b610ed38484846001610d86565b92509050818404811115610eea57610ee961102c565b5b81810290505b9392505050565b6000610f0282610f99565b9150610f0d83610f99565b9250817fffffffffffffffffffffffffffffffffffffffffffffffffffffffffffffffff0483118215151615610f4657610f4561102c565b5b828202905092915050565b6000610f5c82610f79565b9050919050565b60008115159050919050565b6000819050919050565b600073ffffffffffffffffffffffffffffffffffffffff82169050919050565b6000819050919050565b600060ff82169050919050565b60005b83811015610fce578082015181840152602081019050610fb3565b83811115610fdd576000848401525b50505050565b6000610fee82610f99565b91507fffffffffffffffffffffffffffffffffffffffffffffffffffffffffffffffff8214156110215761102061102c565b5b600182019050919050565b7f4e487b7100000000000000000000000000000000000000000000000000000000600052601160045260246000fd5b6000601f19601f8301169050919050565b60008160011c9050919050565b7f4f776e61626c653a206e6577206f776e657220697320746865207a65726f206160008201527f6464726573730000000000000000000000000000000000000000000000000000602082015250565b7f5468657265206172652063757272656e746c79206e6f20726577617264730000600082015250565b7f416464726573733a20696e73756666696369656e742062616c616e636520666f60008201527f722063616c6c0000000000000000000000000000000000000000000000000000602082015250565b7f4f776e61626c653a2063616c6c6572206973206e6f7420746865206f776e6572600082015250565b7f416464726573733a2063616c6c20746f206e6f6e2d636f6e7472616374000000600082015250565b7f5361666545524332303a204552433230206f7065726174696f6e20646964206e60008201527f6f74207375636365656400000000000000000000000000000000000000000000602082015250565b6111ea81610f51565b81146111f557600080fd5b50565b61120181610f63565b811461120c57600080fd5b50565b61121881610f6f565b811461122357600080fd5b50565b61122f81610f99565b811461123a57600080fd5b50565b61124681610fa3565b811461125157600080fd5b5056fea264697066735822122057e19ba456932124eff6f3789e8841b06076e6ec81556ec326611470c4b0669f64736f6c63430008040033",
          "opcodes": "PUSH1 0x80 PUSH1 0x40 MSTORE CALLVALUE DUP1 ISZERO PUSH3 0x11 JUMPI PUSH1 0x0 DUP1 REVERT JUMPDEST POP PUSH1 0x40 MLOAD PUSH3 0x1546 CODESIZE SUB DUP1 PUSH3 0x1546 DUP4 CODECOPY DUP2 DUP2 ADD PUSH1 0x40 MSTORE DUP2 ADD SWAP1 PUSH3 0x37 SWAP2 SWAP1 PUSH3 0x1DB JUMP JUMPDEST PUSH3 0x57 PUSH3 0x4B PUSH3 0xE1 PUSH1 0x20 SHL PUSH1 0x20 SHR JUMP JUMPDEST PUSH3 0xE9 PUSH1 0x20 SHL PUSH1 0x20 SHR JUMP JUMPDEST DUP2 PUSH1 0x2 PUSH1 0x0 PUSH2 0x100 EXP DUP2 SLOAD DUP2 PUSH20 0xFFFFFFFFFFFFFFFFFFFFFFFFFFFFFFFFFFFFFFFF MUL NOT AND SWAP1 DUP4 PUSH20 0xFFFFFFFFFFFFFFFFFFFFFFFFFFFFFFFFFFFFFFFF AND MUL OR SWAP1 SSTORE POP DUP1 PUSH1 0x1 PUSH1 0x0 PUSH2 0x100 EXP DUP2 SLOAD DUP2 PUSH20 0xFFFFFFFFFFFFFFFFFFFFFFFFFFFFFFFFFFFFFFFF MUL NOT AND SWAP1 DUP4 PUSH20 0xFFFFFFFFFFFFFFFFFFFFFFFFFFFFFFFFFFFFFFFF AND MUL OR SWAP1 SSTORE POP POP POP PUSH3 0x2AC JUMP JUMPDEST PUSH1 0x0 CALLER SWAP1 POP SWAP1 JUMP JUMPDEST PUSH1 0x0 DUP1 PUSH1 0x0 SWAP1 SLOAD SWAP1 PUSH2 0x100 EXP SWAP1 DIV PUSH20 0xFFFFFFFFFFFFFFFFFFFFFFFFFFFFFFFFFFFFFFFF AND SWAP1 POP DUP2 PUSH1 0x0 DUP1 PUSH2 0x100 EXP DUP2 SLOAD DUP2 PUSH20 0xFFFFFFFFFFFFFFFFFFFFFFFFFFFFFFFFFFFFFFFF MUL NOT AND SWAP1 DUP4 PUSH20 0xFFFFFFFFFFFFFFFFFFFFFFFFFFFFFFFFFFFFFFFF AND MUL OR SWAP1 SSTORE POP DUP2 PUSH20 0xFFFFFFFFFFFFFFFFFFFFFFFFFFFFFFFFFFFFFFFF AND DUP2 PUSH20 0xFFFFFFFFFFFFFFFFFFFFFFFFFFFFFFFFFFFFFFFF AND PUSH32 0x8BE0079C531659141344CD1FD0A4F28419497F9722A3DAAFE3B4186F6B6457E0 PUSH1 0x40 MLOAD PUSH1 0x40 MLOAD DUP1 SWAP2 SUB SWAP1 LOG3 POP POP JUMP JUMPDEST PUSH1 0x0 DUP2 MLOAD SWAP1 POP PUSH3 0x1BE DUP2 PUSH3 0x278 JUMP JUMPDEST SWAP3 SWAP2 POP POP JUMP JUMPDEST PUSH1 0x0 DUP2 MLOAD SWAP1 POP PUSH3 0x1D5 DUP2 PUSH3 0x292 JUMP JUMPDEST SWAP3 SWAP2 POP POP JUMP JUMPDEST PUSH1 0x0 DUP1 PUSH1 0x40 DUP4 DUP6 SUB SLT ISZERO PUSH3 0x1EF JUMPI PUSH1 0x0 DUP1 REVERT JUMPDEST PUSH1 0x0 PUSH3 0x1FF DUP6 DUP3 DUP7 ADD PUSH3 0x1C4 JUMP JUMPDEST SWAP3 POP POP PUSH1 0x20 PUSH3 0x212 DUP6 DUP3 DUP7 ADD PUSH3 0x1AD JUMP JUMPDEST SWAP2 POP POP SWAP3 POP SWAP3 SWAP1 POP JUMP JUMPDEST PUSH1 0x0 PUSH3 0x229 DUP3 PUSH3 0x258 JUMP JUMPDEST SWAP1 POP SWAP2 SWAP1 POP JUMP JUMPDEST PUSH1 0x0 PUSH3 0x23D DUP3 PUSH3 0x21C JUMP JUMPDEST SWAP1 POP SWAP2 SWAP1 POP JUMP JUMPDEST PUSH1 0x0 PUSH3 0x251 DUP3 PUSH3 0x21C JUMP JUMPDEST SWAP1 POP SWAP2 SWAP1 POP JUMP JUMPDEST PUSH1 0x0 PUSH20 0xFFFFFFFFFFFFFFFFFFFFFFFFFFFFFFFFFFFFFFFF DUP3 AND SWAP1 POP SWAP2 SWAP1 POP JUMP JUMPDEST PUSH3 0x283 DUP2 PUSH3 0x230 JUMP JUMPDEST DUP2 EQ PUSH3 0x28F JUMPI PUSH1 0x0 DUP1 REVERT JUMPDEST POP JUMP JUMPDEST PUSH3 0x29D DUP2 PUSH3 0x244 JUMP JUMPDEST DUP2 EQ PUSH3 0x2A9 JUMPI PUSH1 0x0 DUP1 REVERT JUMPDEST POP JUMP JUMPDEST PUSH2 0x128A DUP1 PUSH3 0x2BC PUSH1 0x0 CODECOPY PUSH1 0x0 RETURN INVALID PUSH1 0x80 PUSH1 0x40 MSTORE CALLVALUE DUP1 ISZERO PUSH2 0x10 JUMPI PUSH1 0x0 DUP1 REVERT JUMPDEST POP PUSH1 0x4 CALLDATASIZE LT PUSH2 0x7D JUMPI PUSH1 0x0 CALLDATALOAD PUSH1 0xE0 SHR DUP1 PUSH4 0x715018A6 GT PUSH2 0x5B JUMPI DUP1 PUSH4 0x715018A6 EQ PUSH2 0xDA JUMPI DUP1 PUSH4 0x8DA5CB5B EQ PUSH2 0xE4 JUMPI DUP1 PUSH4 0xDD301B0B EQ PUSH2 0x102 JUMPI DUP1 PUSH4 0xF2FDE38B EQ PUSH2 0x10C JUMPI PUSH2 0x7D JUMP JUMPDEST DUP1 PUSH4 0x4B6C62D9 EQ PUSH2 0x82 JUMPI DUP1 PUSH4 0x53A59714 EQ PUSH2 0x8C JUMPI DUP1 PUSH4 0x6F77926B EQ PUSH2 0xAA JUMPI JUMPDEST PUSH1 0x0 DUP1 REVERT JUMPDEST PUSH2 0x8A PUSH2 0x128 JUMP JUMPDEST STOP JUMPDEST PUSH2 0x94 PUSH2 0x27E JUMP JUMPDEST PUSH1 0x40 MLOAD PUSH2 0xA1 SWAP2 SWAP1 PUSH2 0xD39 JUMP JUMPDEST PUSH1 0x40 MLOAD DUP1 SWAP2 SUB SWAP1 RETURN JUMPDEST PUSH2 0xC4 PUSH1 0x4 DUP1 CALLDATASIZE SUB DUP2 ADD SWAP1 PUSH2 0xBF SWAP2 SWAP1 PUSH2 0x9D5 JUMP JUMPDEST PUSH2 0x288 JUMP JUMPDEST PUSH1 0x40 MLOAD PUSH2 0xD1 SWAP2 SWAP1 PUSH2 0xD39 JUMP JUMPDEST PUSH1 0x40 MLOAD DUP1 SWAP2 SUB SWAP1 RETURN JUMPDEST PUSH2 0xE2 PUSH2 0x33C JUMP JUMPDEST STOP JUMPDEST PUSH2 0xEC PUSH2 0x3C4 JUMP JUMPDEST PUSH1 0x40 MLOAD PUSH2 0xF9 SWAP2 SWAP1 PUSH2 0xC13 JUMP JUMPDEST PUSH1 0x40 MLOAD DUP1 SWAP2 SUB SWAP1 RETURN JUMPDEST PUSH2 0x10A PUSH2 0x3ED JUMP JUMPDEST STOP JUMPDEST PUSH2 0x126 PUSH1 0x4 DUP1 CALLDATASIZE SUB DUP2 ADD SWAP1 PUSH2 0x121 SWAP2 SWAP1 PUSH2 0x9D5 JUMP JUMPDEST PUSH2 0x4B5 JUMP JUMPDEST STOP JUMPDEST PUSH1 0x0 PUSH2 0x133 CALLER PUSH2 0x288 JUMP JUMPDEST SWAP1 POP PUSH1 0x0 DUP2 GT PUSH2 0x178 JUMPI PUSH1 0x40 MLOAD PUSH32 0x8C379A000000000000000000000000000000000000000000000000000000000 DUP2 MSTORE PUSH1 0x4 ADD PUSH2 0x16F SWAP1 PUSH2 0xC99 JUMP JUMPDEST PUSH1 0x40 MLOAD DUP1 SWAP2 SUB SWAP1 REVERT JUMPDEST PUSH2 0x27B CALLER PUSH1 0x1 PUSH1 0x0 SWAP1 SLOAD SWAP1 PUSH2 0x100 EXP SWAP1 DIV PUSH20 0xFFFFFFFFFFFFFFFFFFFFFFFFFFFFFFFFFFFFFFFF AND PUSH20 0xFFFFFFFFFFFFFFFFFFFFFFFFFFFFFFFFFFFFFFFF AND PUSH4 0x313CE567 PUSH1 0x40 MLOAD DUP2 PUSH4 0xFFFFFFFF AND PUSH1 0xE0 SHL DUP2 MSTORE PUSH1 0x4 ADD PUSH1 0x20 PUSH1 0x40 MLOAD DUP1 DUP4 SUB DUP2 DUP7 DUP1 EXTCODESIZE ISZERO DUP1 ISZERO PUSH2 0x1E4 JUMPI PUSH1 0x0 DUP1 REVERT JUMPDEST POP GAS STATICCALL ISZERO DUP1 ISZERO PUSH2 0x1F8 JUMPI RETURNDATASIZE PUSH1 0x0 DUP1 RETURNDATACOPY RETURNDATASIZE PUSH1 0x0 REVERT JUMPDEST POP POP POP POP PUSH1 0x40 MLOAD RETURNDATASIZE PUSH1 0x1F NOT PUSH1 0x1F DUP3 ADD AND DUP3 ADD DUP1 PUSH1 0x40 MSTORE POP DUP2 ADD SWAP1 PUSH2 0x21C SWAP2 SWAP1 PUSH2 0xA79 JUMP JUMPDEST PUSH1 0xA PUSH2 0x228 SWAP2 SWAP1 PUSH2 0xDD9 JUMP JUMPDEST DUP4 PUSH2 0x233 SWAP2 SWAP1 PUSH2 0xEF7 JUMP JUMPDEST PUSH1 0x1 PUSH1 0x0 SWAP1 SLOAD SWAP1 PUSH2 0x100 EXP SWAP1 DIV PUSH20 0xFFFFFFFFFFFFFFFFFFFFFFFFFFFFFFFFFFFFFFFF AND PUSH20 0xFFFFFFFFFFFFFFFFFFFFFFFFFFFFFFFFFFFFFFFF AND PUSH2 0x5AD SWAP1 SWAP3 SWAP2 SWAP1 PUSH4 0xFFFFFFFF AND JUMP JUMPDEST POP JUMP JUMPDEST PUSH1 0x0 PUSH1 0x3 SLOAD SWAP1 POP SWAP1 JUMP JUMPDEST PUSH1 0x0 PUSH1 0x2 PUSH1 0x0 SWAP1 SLOAD SWAP1 PUSH2 0x100 EXP SWAP1 DIV PUSH20 0xFFFFFFFFFFFFFFFFFFFFFFFFFFFFFFFFFFFFFFFF AND PUSH20 0xFFFFFFFFFFFFFFFFFFFFFFFFFFFFFFFFFFFFFFFF AND PUSH4 0xBC173CD9 DUP4 PUSH1 0x40 MLOAD DUP3 PUSH4 0xFFFFFFFF AND PUSH1 0xE0 SHL DUP2 MSTORE PUSH1 0x4 ADD PUSH2 0x2E5 SWAP2 SWAP1 PUSH2 0xC13 JUMP JUMPDEST PUSH1 0x20 PUSH1 0x40 MLOAD DUP1 DUP4 SUB DUP2 DUP7 DUP1 EXTCODESIZE ISZERO DUP1 ISZERO PUSH2 0x2FD JUMPI PUSH1 0x0 DUP1 REVERT JUMPDEST POP GAS STATICCALL ISZERO DUP1 ISZERO PUSH2 0x311 JUMPI RETURNDATASIZE PUSH1 0x0 DUP1 RETURNDATACOPY RETURNDATASIZE PUSH1 0x0 REVERT JUMPDEST POP POP POP POP PUSH1 0x40 MLOAD RETURNDATASIZE PUSH1 0x1F NOT PUSH1 0x1F DUP3 ADD AND DUP3 ADD DUP1 PUSH1 0x40 MSTORE POP DUP2 ADD SWAP1 PUSH2 0x335 SWAP2 SWAP1 PUSH2 0xA50 JUMP JUMPDEST SWAP1 POP SWAP2 SWAP1 POP JUMP JUMPDEST PUSH2 0x344 PUSH2 0x633 JUMP JUMPDEST PUSH20 0xFFFFFFFFFFFFFFFFFFFFFFFFFFFFFFFFFFFFFFFF AND PUSH2 0x362 PUSH2 0x3C4 JUMP JUMPDEST PUSH20 0xFFFFFFFFFFFFFFFFFFFFFFFFFFFFFFFFFFFFFFFF AND EQ PUSH2 0x3B8 JUMPI PUSH1 0x40 MLOAD PUSH32 0x8C379A000000000000000000000000000000000000000000000000000000000 DUP2 MSTORE PUSH1 0x4 ADD PUSH2 0x3AF SWAP1 PUSH2 0xCD9 JUMP JUMPDEST PUSH1 0x40 MLOAD DUP1 SWAP2 SUB SWAP1 REVERT JUMPDEST PUSH2 0x3C2 PUSH1 0x0 PUSH2 0x63B JUMP JUMPDEST JUMP JUMPDEST PUSH1 0x0 DUP1 PUSH1 0x0 SWAP1 SLOAD SWAP1 PUSH2 0x100 EXP SWAP1 DIV PUSH20 0xFFFFFFFFFFFFFFFFFFFFFFFFFFFFFFFFFFFFFFFF AND SWAP1 POP SWAP1 JUMP JUMPDEST PUSH1 0x2 PUSH1 0x0 SWAP1 SLOAD SWAP1 PUSH2 0x100 EXP SWAP1 DIV PUSH20 0xFFFFFFFFFFFFFFFFFFFFFFFFFFFFFFFFFFFFFFFF AND PUSH20 0xFFFFFFFFFFFFFFFFFFFFFFFFFFFFFFFFFFFFFFFF AND PUSH4 0x3B6DDE13 CALLER PUSH1 0x40 MLOAD DUP3 PUSH4 0xFFFFFFFF AND PUSH1 0xE0 SHL DUP2 MSTORE PUSH1 0x4 ADD PUSH2 0x448 SWAP2 SWAP1 PUSH2 0xC13 JUMP JUMPDEST PUSH1 0x20 PUSH1 0x40 MLOAD DUP1 DUP4 SUB DUP2 PUSH1 0x0 DUP8 DUP1 EXTCODESIZE ISZERO DUP1 ISZERO PUSH2 0x462 JUMPI PUSH1 0x0 DUP1 REVERT JUMPDEST POP GAS CALL ISZERO DUP1 ISZERO PUSH2 0x476 JUMPI RETURNDATASIZE PUSH1 0x0 DUP1 RETURNDATACOPY RETURNDATASIZE PUSH1 0x0 REVERT JUMPDEST POP POP POP POP PUSH1 0x40 MLOAD RETURNDATASIZE PUSH1 0x1F NOT PUSH1 0x1F DUP3 ADD AND DUP3 ADD DUP1 PUSH1 0x40 MSTORE POP DUP2 ADD SWAP1 PUSH2 0x49A SWAP2 SWAP1 PUSH2 0xA27 JUMP JUMPDEST POP PUSH1 0x3 PUSH1 0x0 DUP2 SLOAD DUP1 SWAP3 SWAP2 SWAP1 PUSH2 0x4AE SWAP1 PUSH2 0xFE3 JUMP JUMPDEST SWAP2 SWAP1 POP SSTORE POP JUMP JUMPDEST PUSH2 0x4BD PUSH2 0x633 JUMP JUMPDEST PUSH20 0xFFFFFFFFFFFFFFFFFFFFFFFFFFFFFFFFFFFFFFFF AND PUSH2 0x4DB PUSH2 0x3C4 JUMP JUMPDEST PUSH20 0xFFFFFFFFFFFFFFFFFFFFFFFFFFFFFFFFFFFFFFFF AND EQ PUSH2 0x531 JUMPI PUSH1 0x40 MLOAD PUSH32 0x8C379A000000000000000000000000000000000000000000000000000000000 DUP2 MSTORE PUSH1 0x4 ADD PUSH2 0x528 SWAP1 PUSH2 0xCD9 JUMP JUMPDEST PUSH1 0x40 MLOAD DUP1 SWAP2 SUB SWAP1 REVERT JUMPDEST PUSH1 0x0 PUSH20 0xFFFFFFFFFFFFFFFFFFFFFFFFFFFFFFFFFFFFFFFF AND DUP2 PUSH20 0xFFFFFFFFFFFFFFFFFFFFFFFFFFFFFFFFFFFFFFFF AND EQ ISZERO PUSH2 0x5A1 JUMPI PUSH1 0x40 MLOAD PUSH32 0x8C379A000000000000000000000000000000000000000000000000000000000 DUP2 MSTORE PUSH1 0x4 ADD PUSH2 0x598 SWAP1 PUSH2 0xC79 JUMP JUMPDEST PUSH1 0x40 MLOAD DUP1 SWAP2 SUB SWAP1 REVERT JUMPDEST PUSH2 0x5AA DUP2 PUSH2 0x63B JUMP JUMPDEST POP JUMP JUMPDEST PUSH2 0x62E DUP4 PUSH4 0xA9059CBB PUSH1 0xE0 SHL DUP5 DUP5 PUSH1 0x40 MLOAD PUSH1 0x24 ADD PUSH2 0x5CC SWAP3 SWAP2 SWAP1 PUSH2 0xC2E JUMP JUMPDEST PUSH1 0x40 MLOAD PUSH1 0x20 DUP2 DUP4 SUB SUB DUP2 MSTORE SWAP1 PUSH1 0x40 MSTORE SWAP1 PUSH28 0xFFFFFFFFFFFFFFFFFFFFFFFFFFFFFFFFFFFFFFFFFFFFFFFFFFFFFFFF NOT AND PUSH1 0x20 DUP3 ADD DUP1 MLOAD PUSH28 0xFFFFFFFFFFFFFFFFFFFFFFFFFFFFFFFFFFFFFFFFFFFFFFFFFFFFFFFF DUP4 DUP2 DUP4 AND OR DUP4 MSTORE POP POP POP POP PUSH2 0x6FF JUMP JUMPDEST POP POP POP JUMP JUMPDEST PUSH1 0x0 CALLER SWAP1 POP SWAP1 JUMP JUMPDEST PUSH1 0x0 DUP1 PUSH1 0x0 SWAP1 SLOAD SWAP1 PUSH2 0x100 EXP SWAP1 DIV PUSH20 0xFFFFFFFFFFFFFFFFFFFFFFFFFFFFFFFFFFFFFFFF AND SWAP1 POP DUP2 PUSH1 0x0 DUP1 PUSH2 0x100 EXP DUP2 SLOAD DUP2 PUSH20 0xFFFFFFFFFFFFFFFFFFFFFFFFFFFFFFFFFFFFFFFF MUL NOT AND SWAP1 DUP4 PUSH20 0xFFFFFFFFFFFFFFFFFFFFFFFFFFFFFFFFFFFFFFFF AND MUL OR SWAP1 SSTORE POP DUP2 PUSH20 0xFFFFFFFFFFFFFFFFFFFFFFFFFFFFFFFFFFFFFFFF AND DUP2 PUSH20 0xFFFFFFFFFFFFFFFFFFFFFFFFFFFFFFFFFFFFFFFF AND PUSH32 0x8BE0079C531659141344CD1FD0A4F28419497F9722A3DAAFE3B4186F6B6457E0 PUSH1 0x40 MLOAD PUSH1 0x40 MLOAD DUP1 SWAP2 SUB SWAP1 LOG3 POP POP JUMP JUMPDEST PUSH1 0x0 PUSH2 0x761 DUP3 PUSH1 0x40 MLOAD DUP1 PUSH1 0x40 ADD PUSH1 0x40 MSTORE DUP1 PUSH1 0x20 DUP2 MSTORE PUSH1 0x20 ADD PUSH32 0x5361666545524332303A206C6F772D6C6576656C2063616C6C206661696C6564 DUP2 MSTORE POP DUP6 PUSH20 0xFFFFFFFFFFFFFFFFFFFFFFFFFFFFFFFFFFFFFFFF AND PUSH2 0x7C6 SWAP1 SWAP3 SWAP2 SWAP1 PUSH4 0xFFFFFFFF AND JUMP JUMPDEST SWAP1 POP PUSH1 0x0 DUP2 MLOAD GT ISZERO PUSH2 0x7C1 JUMPI DUP1 DUP1 PUSH1 0x20 ADD SWAP1 MLOAD DUP2 ADD SWAP1 PUSH2 0x781 SWAP2 SWAP1 PUSH2 0x9FE JUMP JUMPDEST PUSH2 0x7C0 JUMPI PUSH1 0x40 MLOAD PUSH32 0x8C379A000000000000000000000000000000000000000000000000000000000 DUP2 MSTORE PUSH1 0x4 ADD PUSH2 0x7B7 SWAP1 PUSH2 0xD19 JUMP JUMPDEST PUSH1 0x40 MLOAD DUP1 SWAP2 SUB SWAP1 REVERT JUMPDEST JUMPDEST POP POP POP JUMP JUMPDEST PUSH1 0x60 PUSH2 0x7D5 DUP5 DUP5 PUSH1 0x0 DUP6 PUSH2 0x7DE JUMP JUMPDEST SWAP1 POP SWAP4 SWAP3 POP POP POP JUMP JUMPDEST PUSH1 0x60 DUP3 SELFBALANCE LT ISZERO PUSH2 0x823 JUMPI PUSH1 0x40 MLOAD PUSH32 0x8C379A000000000000000000000000000000000000000000000000000000000 DUP2 MSTORE PUSH1 0x4 ADD PUSH2 0x81A SWAP1 PUSH2 0xCB9 JUMP JUMPDEST PUSH1 0x40 MLOAD DUP1 SWAP2 SUB SWAP1 REVERT JUMPDEST PUSH2 0x82C DUP6 PUSH2 0x8F2 JUMP JUMPDEST PUSH2 0x86B JUMPI PUSH1 0x40 MLOAD PUSH32 0x8C379A000000000000000000000000000000000000000000000000000000000 DUP2 MSTORE PUSH1 0x4 ADD PUSH2 0x862 SWAP1 PUSH2 0xCF9 JUMP JUMPDEST PUSH1 0x40 MLOAD DUP1 SWAP2 SUB SWAP1 REVERT JUMPDEST PUSH1 0x0 DUP1 DUP7 PUSH20 0xFFFFFFFFFFFFFFFFFFFFFFFFFFFFFFFFFFFFFFFF AND DUP6 DUP8 PUSH1 0x40 MLOAD PUSH2 0x894 SWAP2 SWAP1 PUSH2 0xBFC JUMP JUMPDEST PUSH1 0x0 PUSH1 0x40 MLOAD DUP1 DUP4 SUB DUP2 DUP6 DUP8 GAS CALL SWAP3 POP POP POP RETURNDATASIZE DUP1 PUSH1 0x0 DUP2 EQ PUSH2 0x8D1 JUMPI PUSH1 0x40 MLOAD SWAP2 POP PUSH1 0x1F NOT PUSH1 0x3F RETURNDATASIZE ADD AND DUP3 ADD PUSH1 0x40 MSTORE RETURNDATASIZE DUP3 MSTORE RETURNDATASIZE PUSH1 0x0 PUSH1 0x20 DUP5 ADD RETURNDATACOPY PUSH2 0x8D6 JUMP JUMPDEST PUSH1 0x60 SWAP2 POP JUMPDEST POP SWAP2 POP SWAP2 POP PUSH2 0x8E6 DUP3 DUP3 DUP7 PUSH2 0x905 JUMP JUMPDEST SWAP3 POP POP POP SWAP5 SWAP4 POP POP POP POP JUMP JUMPDEST PUSH1 0x0 DUP1 DUP3 EXTCODESIZE SWAP1 POP PUSH1 0x0 DUP2 GT SWAP2 POP POP SWAP2 SWAP1 POP JUMP JUMPDEST PUSH1 0x60 DUP4 ISZERO PUSH2 0x915 JUMPI DUP3 SWAP1 POP PUSH2 0x965 JUMP JUMPDEST PUSH1 0x0 DUP4 MLOAD GT ISZERO PUSH2 0x928 JUMPI DUP3 MLOAD DUP1 DUP5 PUSH1 0x20 ADD REVERT JUMPDEST DUP2 PUSH1 0x40 MLOAD PUSH32 0x8C379A000000000000000000000000000000000000000000000000000000000 DUP2 MSTORE PUSH1 0x4 ADD PUSH2 0x95C SWAP2 SWAP1 PUSH2 0xC57 JUMP JUMPDEST PUSH1 0x40 MLOAD DUP1 SWAP2 SUB SWAP1 REVERT JUMPDEST SWAP4 SWAP3 POP POP POP JUMP JUMPDEST PUSH1 0x0 DUP2 CALLDATALOAD SWAP1 POP PUSH2 0x97B DUP2 PUSH2 0x11E1 JUMP JUMPDEST SWAP3 SWAP2 POP POP JUMP JUMPDEST PUSH1 0x0 DUP2 MLOAD SWAP1 POP PUSH2 0x990 DUP2 PUSH2 0x11F8 JUMP JUMPDEST SWAP3 SWAP2 POP POP JUMP JUMPDEST PUSH1 0x0 DUP2 MLOAD SWAP1 POP PUSH2 0x9A5 DUP2 PUSH2 0x120F JUMP JUMPDEST SWAP3 SWAP2 POP POP JUMP JUMPDEST PUSH1 0x0 DUP2 MLOAD SWAP1 POP PUSH2 0x9BA DUP2 PUSH2 0x1226 JUMP JUMPDEST SWAP3 SWAP2 POP POP JUMP JUMPDEST PUSH1 0x0 DUP2 MLOAD SWAP1 POP PUSH2 0x9CF DUP2 PUSH2 0x123D JUMP JUMPDEST SWAP3 SWAP2 POP POP JUMP JUMPDEST PUSH1 0x0 PUSH1 0x20 DUP3 DUP5 SUB SLT ISZERO PUSH2 0x9E7 JUMPI PUSH1 0x0 DUP1 REVERT JUMPDEST PUSH1 0x0 PUSH2 0x9F5 DUP5 DUP3 DUP6 ADD PUSH2 0x96C JUMP JUMPDEST SWAP2 POP POP SWAP3 SWAP2 POP POP JUMP JUMPDEST PUSH1 0x0 PUSH1 0x20 DUP3 DUP5 SUB SLT ISZERO PUSH2 0xA10 JUMPI PUSH1 0x0 DUP1 REVERT JUMPDEST PUSH1 0x0 PUSH2 0xA1E DUP5 DUP3 DUP6 ADD PUSH2 0x981 JUMP JUMPDEST SWAP2 POP POP SWAP3 SWAP2 POP POP JUMP JUMPDEST PUSH1 0x0 PUSH1 0x20 DUP3 DUP5 SUB SLT ISZERO PUSH2 0xA39 JUMPI PUSH1 0x0 DUP1 REVERT JUMPDEST PUSH1 0x0 PUSH2 0xA47 DUP5 DUP3 DUP6 ADD PUSH2 0x996 JUMP JUMPDEST SWAP2 POP POP SWAP3 SWAP2 POP POP JUMP JUMPDEST PUSH1 0x0 PUSH1 0x20 DUP3 DUP5 SUB SLT ISZERO PUSH2 0xA62 JUMPI PUSH1 0x0 DUP1 REVERT JUMPDEST PUSH1 0x0 PUSH2 0xA70 DUP5 DUP3 DUP6 ADD PUSH2 0x9AB JUMP JUMPDEST SWAP2 POP POP SWAP3 SWAP2 POP POP JUMP JUMPDEST PUSH1 0x0 PUSH1 0x20 DUP3 DUP5 SUB SLT ISZERO PUSH2 0xA8B JUMPI PUSH1 0x0 DUP1 REVERT JUMPDEST PUSH1 0x0 PUSH2 0xA99 DUP5 DUP3 DUP6 ADD PUSH2 0x9C0 JUMP JUMPDEST SWAP2 POP POP SWAP3 SWAP2 POP POP JUMP JUMPDEST PUSH2 0xAAB DUP2 PUSH2 0xF51 JUMP JUMPDEST DUP3 MSTORE POP POP JUMP JUMPDEST PUSH1 0x0 PUSH2 0xABC DUP3 PUSH2 0xD54 JUMP JUMPDEST PUSH2 0xAC6 DUP2 DUP6 PUSH2 0xD6A JUMP JUMPDEST SWAP4 POP PUSH2 0xAD6 DUP2 DUP6 PUSH1 0x20 DUP7 ADD PUSH2 0xFB0 JUMP JUMPDEST DUP1 DUP5 ADD SWAP2 POP POP SWAP3 SWAP2 POP POP JUMP JUMPDEST PUSH1 0x0 PUSH2 0xAED DUP3 PUSH2 0xD5F JUMP JUMPDEST PUSH2 0xAF7 DUP2 DUP6 PUSH2 0xD75 JUMP JUMPDEST SWAP4 POP PUSH2 0xB07 DUP2 DUP6 PUSH1 0x20 DUP7 ADD PUSH2 0xFB0 JUMP JUMPDEST PUSH2 0xB10 DUP2 PUSH2 0x105B JUMP JUMPDEST DUP5 ADD SWAP2 POP POP SWAP3 SWAP2 POP POP JUMP JUMPDEST PUSH1 0x0 PUSH2 0xB28 PUSH1 0x26 DUP4 PUSH2 0xD75 JUMP JUMPDEST SWAP2 POP PUSH2 0xB33 DUP3 PUSH2 0x1079 JUMP JUMPDEST PUSH1 0x40 DUP3 ADD SWAP1 POP SWAP2 SWAP1 POP JUMP JUMPDEST PUSH1 0x0 PUSH2 0xB4B PUSH1 0x1E DUP4 PUSH2 0xD75 JUMP JUMPDEST SWAP2 POP PUSH2 0xB56 DUP3 PUSH2 0x10C8 JUMP JUMPDEST PUSH1 0x20 DUP3 ADD SWAP1 POP SWAP2 SWAP1 POP JUMP JUMPDEST PUSH1 0x0 PUSH2 0xB6E PUSH1 0x26 DUP4 PUSH2 0xD75 JUMP JUMPDEST SWAP2 POP PUSH2 0xB79 DUP3 PUSH2 0x10F1 JUMP JUMPDEST PUSH1 0x40 DUP3 ADD SWAP1 POP SWAP2 SWAP1 POP JUMP JUMPDEST PUSH1 0x0 PUSH2 0xB91 PUSH1 0x20 DUP4 PUSH2 0xD75 JUMP JUMPDEST SWAP2 POP PUSH2 0xB9C DUP3 PUSH2 0x1140 JUMP JUMPDEST PUSH1 0x20 DUP3 ADD SWAP1 POP SWAP2 SWAP1 POP JUMP JUMPDEST PUSH1 0x0 PUSH2 0xBB4 PUSH1 0x1D DUP4 PUSH2 0xD75 JUMP JUMPDEST SWAP2 POP PUSH2 0xBBF DUP3 PUSH2 0x1169 JUMP JUMPDEST PUSH1 0x20 DUP3 ADD SWAP1 POP SWAP2 SWAP1 POP JUMP JUMPDEST PUSH1 0x0 PUSH2 0xBD7 PUSH1 0x2A DUP4 PUSH2 0xD75 JUMP JUMPDEST SWAP2 POP PUSH2 0xBE2 DUP3 PUSH2 0x1192 JUMP JUMPDEST PUSH1 0x40 DUP3 ADD SWAP1 POP SWAP2 SWAP1 POP JUMP JUMPDEST PUSH2 0xBF6 DUP2 PUSH2 0xF99 JUMP JUMPDEST DUP3 MSTORE POP POP JUMP JUMPDEST PUSH1 0x0 PUSH2 0xC08 DUP3 DUP5 PUSH2 0xAB1 JUMP JUMPDEST SWAP2 POP DUP2 SWAP1 POP SWAP3 SWAP2 POP POP JUMP JUMPDEST PUSH1 0x0 PUSH1 0x20 DUP3 ADD SWAP1 POP PUSH2 0xC28 PUSH1 0x0 DUP4 ADD DUP5 PUSH2 0xAA2 JUMP JUMPDEST SWAP3 SWAP2 POP POP JUMP JUMPDEST PUSH1 0x0 PUSH1 0x40 DUP3 ADD SWAP1 POP PUSH2 0xC43 PUSH1 0x0 DUP4 ADD DUP6 PUSH2 0xAA2 JUMP JUMPDEST PUSH2 0xC50 PUSH1 0x20 DUP4 ADD DUP5 PUSH2 0xBED JUMP JUMPDEST SWAP4 SWAP3 POP POP POP JUMP JUMPDEST PUSH1 0x0 PUSH1 0x20 DUP3 ADD SWAP1 POP DUP2 DUP2 SUB PUSH1 0x0 DUP4 ADD MSTORE PUSH2 0xC71 DUP2 DUP5 PUSH2 0xAE2 JUMP JUMPDEST SWAP1 POP SWAP3 SWAP2 POP POP JUMP JUMPDEST PUSH1 0x0 PUSH1 0x20 DUP3 ADD SWAP1 POP DUP2 DUP2 SUB PUSH1 0x0 DUP4 ADD MSTORE PUSH2 0xC92 DUP2 PUSH2 0xB1B JUMP JUMPDEST SWAP1 POP SWAP2 SWAP1 POP JUMP JUMPDEST PUSH1 0x0 PUSH1 0x20 DUP3 ADD SWAP1 POP DUP2 DUP2 SUB PUSH1 0x0 DUP4 ADD MSTORE PUSH2 0xCB2 DUP2 PUSH2 0xB3E JUMP JUMPDEST SWAP1 POP SWAP2 SWAP1 POP JUMP JUMPDEST PUSH1 0x0 PUSH1 0x20 DUP3 ADD SWAP1 POP DUP2 DUP2 SUB PUSH1 0x0 DUP4 ADD MSTORE PUSH2 0xCD2 DUP2 PUSH2 0xB61 JUMP JUMPDEST SWAP1 POP SWAP2 SWAP1 POP JUMP JUMPDEST PUSH1 0x0 PUSH1 0x20 DUP3 ADD SWAP1 POP DUP2 DUP2 SUB PUSH1 0x0 DUP4 ADD MSTORE PUSH2 0xCF2 DUP2 PUSH2 0xB84 JUMP JUMPDEST SWAP1 POP SWAP2 SWAP1 POP JUMP JUMPDEST PUSH1 0x0 PUSH1 0x20 DUP3 ADD SWAP1 POP DUP2 DUP2 SUB PUSH1 0x0 DUP4 ADD MSTORE PUSH2 0xD12 DUP2 PUSH2 0xBA7 JUMP JUMPDEST SWAP1 POP SWAP2 SWAP1 POP JUMP JUMPDEST PUSH1 0x0 PUSH1 0x20 DUP3 ADD SWAP1 POP DUP2 DUP2 SUB PUSH1 0x0 DUP4 ADD MSTORE PUSH2 0xD32 DUP2 PUSH2 0xBCA JUMP JUMPDEST SWAP1 POP SWAP2 SWAP1 POP JUMP JUMPDEST PUSH1 0x0 PUSH1 0x20 DUP3 ADD SWAP1 POP PUSH2 0xD4E PUSH1 0x0 DUP4 ADD DUP5 PUSH2 0xBED JUMP JUMPDEST SWAP3 SWAP2 POP POP JUMP JUMPDEST PUSH1 0x0 DUP2 MLOAD SWAP1 POP SWAP2 SWAP1 POP JUMP JUMPDEST PUSH1 0x0 DUP2 MLOAD SWAP1 POP SWAP2 SWAP1 POP JUMP JUMPDEST PUSH1 0x0 DUP2 SWAP1 POP SWAP3 SWAP2 POP POP JUMP JUMPDEST PUSH1 0x0 DUP3 DUP3 MSTORE PUSH1 0x20 DUP3 ADD SWAP1 POP SWAP3 SWAP2 POP POP JUMP JUMPDEST PUSH1 0x0 DUP1 DUP3 SWAP2 POP DUP4 SWAP1 POP JUMPDEST PUSH1 0x1 DUP6 GT ISZERO PUSH2 0xDD0 JUMPI DUP1 DUP7 DIV DUP2 GT ISZERO PUSH2 0xDAC JUMPI PUSH2 0xDAB PUSH2 0x102C JUMP JUMPDEST JUMPDEST PUSH1 0x1 DUP6 AND ISZERO PUSH2 0xDBB JUMPI DUP1 DUP3 MUL SWAP2 POP JUMPDEST DUP1 DUP2 MUL SWAP1 POP PUSH2 0xDC9 DUP6 PUSH2 0x106C JUMP JUMPDEST SWAP5 POP PUSH2 0xD90 JUMP JUMPDEST SWAP5 POP SWAP5 SWAP3 POP POP POP JUMP JUMPDEST PUSH1 0x0 PUSH2 0xDE4 DUP3 PUSH2 0xF99 JUMP JUMPDEST SWAP2 POP PUSH2 0xDEF DUP4 PUSH2 0xFA3 JUMP JUMPDEST SWAP3 POP PUSH2 0xE1C PUSH32 0xFFFFFFFFFFFFFFFFFFFFFFFFFFFFFFFFFFFFFFFFFFFFFFFFFFFFFFFFFFFFFFFF DUP5 DUP5 PUSH2 0xE24 JUMP JUMPDEST SWAP1 POP SWAP3 SWAP2 POP POP JUMP JUMPDEST PUSH1 0x0 DUP3 PUSH2 0xE34 JUMPI PUSH1 0x1 SWAP1 POP PUSH2 0xEF0 JUMP JUMPDEST DUP2 PUSH2 0xE42 JUMPI PUSH1 0x0 SWAP1 POP PUSH2 0xEF0 JUMP JUMPDEST DUP2 PUSH1 0x1 DUP2 EQ PUSH2 0xE58 JUMPI PUSH1 0x2 DUP2 EQ PUSH2 0xE62 JUMPI PUSH2 0xE91 JUMP JUMPDEST PUSH1 0x1 SWAP2 POP POP PUSH2 0xEF0 JUMP JUMPDEST PUSH1 0xFF DUP5 GT ISZERO PUSH2 0xE74 JUMPI PUSH2 0xE73 PUSH2 0x102C JUMP JUMPDEST JUMPDEST DUP4 PUSH1 0x2 EXP SWAP2 POP DUP5 DUP3 GT ISZERO PUSH2 0xE8B JUMPI PUSH2 0xE8A PUSH2 0x102C JUMP JUMPDEST JUMPDEST POP PUSH2 0xEF0 JUMP JUMPDEST POP PUSH1 0x20 DUP4 LT PUSH2 0x133 DUP4 LT AND PUSH1 0x4E DUP5 LT PUSH1 0xB DUP5 LT AND OR ISZERO PUSH2 0xEC6 JUMPI DUP3 DUP3 EXP SWAP1 POP DUP4 DUP2 GT ISZERO PUSH2 0xEC1 JUMPI PUSH2 0xEC0 PUSH2 0x102C JUMP JUMPDEST JUMPDEST PUSH2 0xEF0 JUMP JUMPDEST PUSH2 0xED3 DUP5 DUP5 DUP5 PUSH1 0x1 PUSH2 0xD86 JUMP JUMPDEST SWAP3 POP SWAP1 POP DUP2 DUP5 DIV DUP2 GT ISZERO PUSH2 0xEEA JUMPI PUSH2 0xEE9 PUSH2 0x102C JUMP JUMPDEST JUMPDEST DUP2 DUP2 MUL SWAP1 POP JUMPDEST SWAP4 SWAP3 POP POP POP JUMP JUMPDEST PUSH1 0x0 PUSH2 0xF02 DUP3 PUSH2 0xF99 JUMP JUMPDEST SWAP2 POP PUSH2 0xF0D DUP4 PUSH2 0xF99 JUMP JUMPDEST SWAP3 POP DUP2 PUSH32 0xFFFFFFFFFFFFFFFFFFFFFFFFFFFFFFFFFFFFFFFFFFFFFFFFFFFFFFFFFFFFFFFF DIV DUP4 GT DUP3 ISZERO ISZERO AND ISZERO PUSH2 0xF46 JUMPI PUSH2 0xF45 PUSH2 0x102C JUMP JUMPDEST JUMPDEST DUP3 DUP3 MUL SWAP1 POP SWAP3 SWAP2 POP POP JUMP JUMPDEST PUSH1 0x0 PUSH2 0xF5C DUP3 PUSH2 0xF79 JUMP JUMPDEST SWAP1 POP SWAP2 SWAP1 POP JUMP JUMPDEST PUSH1 0x0 DUP2 ISZERO ISZERO SWAP1 POP SWAP2 SWAP1 POP JUMP JUMPDEST PUSH1 0x0 DUP2 SWAP1 POP SWAP2 SWAP1 POP JUMP JUMPDEST PUSH1 0x0 PUSH20 0xFFFFFFFFFFFFFFFFFFFFFFFFFFFFFFFFFFFFFFFF DUP3 AND SWAP1 POP SWAP2 SWAP1 POP JUMP JUMPDEST PUSH1 0x0 DUP2 SWAP1 POP SWAP2 SWAP1 POP JUMP JUMPDEST PUSH1 0x0 PUSH1 0xFF DUP3 AND SWAP1 POP SWAP2 SWAP1 POP JUMP JUMPDEST PUSH1 0x0 JUMPDEST DUP4 DUP2 LT ISZERO PUSH2 0xFCE JUMPI DUP1 DUP3 ADD MLOAD DUP2 DUP5 ADD MSTORE PUSH1 0x20 DUP2 ADD SWAP1 POP PUSH2 0xFB3 JUMP JUMPDEST DUP4 DUP2 GT ISZERO PUSH2 0xFDD JUMPI PUSH1 0x0 DUP5 DUP5 ADD MSTORE JUMPDEST POP POP POP POP JUMP JUMPDEST PUSH1 0x0 PUSH2 0xFEE DUP3 PUSH2 0xF99 JUMP JUMPDEST SWAP2 POP PUSH32 0xFFFFFFFFFFFFFFFFFFFFFFFFFFFFFFFFFFFFFFFFFFFFFFFFFFFFFFFFFFFFFFFF DUP3 EQ ISZERO PUSH2 0x1021 JUMPI PUSH2 0x1020 PUSH2 0x102C JUMP JUMPDEST JUMPDEST PUSH1 0x1 DUP3 ADD SWAP1 POP SWAP2 SWAP1 POP JUMP JUMPDEST PUSH32 0x4E487B7100000000000000000000000000000000000000000000000000000000 PUSH1 0x0 MSTORE PUSH1 0x11 PUSH1 0x4 MSTORE PUSH1 0x24 PUSH1 0x0 REVERT JUMPDEST PUSH1 0x0 PUSH1 0x1F NOT PUSH1 0x1F DUP4 ADD AND SWAP1 POP SWAP2 SWAP1 POP JUMP JUMPDEST PUSH1 0x0 DUP2 PUSH1 0x1 SHR SWAP1 POP SWAP2 SWAP1 POP JUMP JUMPDEST PUSH32 0x4F776E61626C653A206E6577206F776E657220697320746865207A65726F2061 PUSH1 0x0 DUP3 ADD MSTORE PUSH32 0x6464726573730000000000000000000000000000000000000000000000000000 PUSH1 0x20 DUP3 ADD MSTORE POP JUMP JUMPDEST PUSH32 0x5468657265206172652063757272656E746C79206E6F20726577617264730000 PUSH1 0x0 DUP3 ADD MSTORE POP JUMP JUMPDEST PUSH32 0x416464726573733A20696E73756666696369656E742062616C616E636520666F PUSH1 0x0 DUP3 ADD MSTORE PUSH32 0x722063616C6C0000000000000000000000000000000000000000000000000000 PUSH1 0x20 DUP3 ADD MSTORE POP JUMP JUMPDEST PUSH32 0x4F776E61626C653A2063616C6C6572206973206E6F7420746865206F776E6572 PUSH1 0x0 DUP3 ADD MSTORE POP JUMP JUMPDEST PUSH32 0x416464726573733A2063616C6C20746F206E6F6E2D636F6E7472616374000000 PUSH1 0x0 DUP3 ADD MSTORE POP JUMP JUMPDEST PUSH32 0x5361666545524332303A204552433230206F7065726174696F6E20646964206E PUSH1 0x0 DUP3 ADD MSTORE PUSH32 0x6F74207375636365656400000000000000000000000000000000000000000000 PUSH1 0x20 DUP3 ADD MSTORE POP JUMP JUMPDEST PUSH2 0x11EA DUP2 PUSH2 0xF51 JUMP JUMPDEST DUP2 EQ PUSH2 0x11F5 JUMPI PUSH1 0x0 DUP1 REVERT JUMPDEST POP JUMP JUMPDEST PUSH2 0x1201 DUP2 PUSH2 0xF63 JUMP JUMPDEST DUP2 EQ PUSH2 0x120C JUMPI PUSH1 0x0 DUP1 REVERT JUMPDEST POP JUMP JUMPDEST PUSH2 0x1218 DUP2 PUSH2 0xF6F JUMP JUMPDEST DUP2 EQ PUSH2 0x1223 JUMPI PUSH1 0x0 DUP1 REVERT JUMPDEST POP JUMP JUMPDEST PUSH2 0x122F DUP2 PUSH2 0xF99 JUMP JUMPDEST DUP2 EQ PUSH2 0x123A JUMPI PUSH1 0x0 DUP1 REVERT JUMPDEST POP JUMP JUMPDEST PUSH2 0x1246 DUP2 PUSH2 0xFA3 JUMP JUMPDEST DUP2 EQ PUSH2 0x1251 JUMPI PUSH1 0x0 DUP1 REVERT JUMPDEST POP JUMP INVALID LOG2 PUSH5 0x6970667358 0x22 SLT KECCAK256 JUMPI 0xE1 SWAP12 LOG4 JUMP SWAP4 0x21 0x24 0xEF 0xF6 RETURN PUSH25 0x9E8841B06076E6EC81556EC326611470C4B0669F64736F6C63 NUMBER STOP ADDMOD DIV STOP CALLER "
        },
        "methodIdentifiers": {
          "getReceivingUsers()": "53a59714",
          "getUser(address)": "6f77926b",
          "obtainBonus()": "4b6c62d9",
          "owner()": "8da5cb5b",
          "renounceOwnership()": "715018a6",
          "transferOwnership(address)": "f2fde38b",
          "userReceive()": "dd301b0b"
        }
      }
    }
  }
}