{
  "_format": "hh-sol-artifact-1",
  "contractName": "GrabARedEnvelope",
  "sourceName": "contracts/RandomNumberConsumer.sol",
  "abi": [
    {
      "inputs": [
        {
          "internalType": "contract ERC20",
          "name": "_tokenAddress",
          "type": "address"
        },
        {
          "internalType": "uint256",
          "name": "_x",
          "type": "uint256"
        },
        {
          "internalType": "uint256",
          "name": "_y",
          "type": "uint256"
        }
      ],
      "stateMutability": "nonpayable",
      "type": "constructor"
    },
    {
      "anonymous": false,
      "inputs": [
        {
          "indexed": true,
          "internalType": "address",
          "name": "previousOwner",
          "type": "address"
        },
        {
          "indexed": true,
          "internalType": "address",
          "name": "newOwner",
          "type": "address"
        }
      ],
      "name": "OwnershipTransferred",
      "type": "event"
    },
    {
      "inputs": [
        {
          "internalType": "contract ERC20",
          "name": "_tokenAddress",
          "type": "address"
        },
        {
          "internalType": "address",
          "name": "_userAddress",
          "type": "address"
        },
        {
          "internalType": "uint256",
          "name": "_count",
          "type": "uint256"
        }
      ],
      "name": "borrowMoney",
      "outputs": [],
      "stateMutability": "nonpayable",
      "type": "function"
    },
    {
      "inputs": [],
      "name": "getReceivingUsers",
      "outputs": [
        {
          "internalType": "uint256",
          "name": "",
          "type": "uint256"
        }
      ],
      "stateMutability": "view",
      "type": "function"
    },
    {
      "inputs": [
        {
          "internalType": "address",
          "name": "_userAddress",
          "type": "address"
        }
      ],
      "name": "getUser",
      "outputs": [
        {
          "internalType": "uint256",
          "name": "",
          "type": "uint256"
        }
      ],
      "stateMutability": "view",
      "type": "function"
    },
    {
      "inputs": [],
      "name": "obtainBonus",
      "outputs": [],
      "stateMutability": "nonpayable",
      "type": "function"
    },
    {
      "inputs": [],
      "name": "owner",
      "outputs": [
        {
          "internalType": "address",
          "name": "",
          "type": "address"
        }
      ],
      "stateMutability": "view",
      "type": "function"
    },
    {
      "inputs": [],
      "name": "renounceOwnership",
      "outputs": [],
      "stateMutability": "nonpayable",
      "type": "function"
    },
    {
      "inputs": [
        {
          "internalType": "contract RandomNumberConsumer",
          "name": "_randomNumberAddress",
          "type": "address"
        }
      ],
      "name": "setRandomNumberAddress",
      "outputs": [],
      "stateMutability": "nonpayable",
      "type": "function"
    },
    {
      "inputs": [
        {
          "internalType": "contract ERC20",
          "name": "_tokenAddress",
          "type": "address"
        }
      ],
      "name": "setTokenAddress",
      "outputs": [],
      "stateMutability": "nonpayable",
      "type": "function"
    },
    {
      "inputs": [
        {
          "internalType": "address",
          "name": "newOwner",
          "type": "address"
        }
      ],
      "name": "transferOwnership",
      "outputs": [],
      "stateMutability": "nonpayable",
      "type": "function"
    },
    {
      "inputs": [],
      "name": "userReceive",
      "outputs": [],
      "stateMutability": "nonpayable",
      "type": "function"
    }
  ],
  "bytecode": "0x60806040523480156200001157600080fd5b5060405162002a7e38038062002a7e833981810160405281019062000037919062000224565b620000576200004b6200011c60201b60201c565b6200012460201b60201c565b81816040516200006790620001e8565b620000749291906200028b565b604051809103906000f08015801562000091573d6000803e3d6000fd5b50600260006101000a81548173ffffffffffffffffffffffffffffffffffffffff021916908373ffffffffffffffffffffffffffffffffffffffff16021790555082600160006101000a81548173ffffffffffffffffffffffffffffffffffffffff021916908373ffffffffffffffffffffffffffffffffffffffff1602179055505050506200033e565b600033905090565b60008060009054906101000a900473ffffffffffffffffffffffffffffffffffffffff169050816000806101000a81548173ffffffffffffffffffffffffffffffffffffffff021916908373ffffffffffffffffffffffffffffffffffffffff1602179055508173ffffffffffffffffffffffffffffffffffffffff168173ffffffffffffffffffffffffffffffffffffffff167f8be0079c531659141344cd1fd0a4f28419497f9722a3daafe3b4186f6b6457e060405160405180910390a35050565b61101d8062001a6183390190565b60008151905062000207816200030a565b92915050565b6000815190506200021e8162000324565b92915050565b6000806000606084860312156200023a57600080fd5b60006200024a86828701620001f6565b93505060206200025d868287016200020d565b925050604062000270868287016200020d565b9150509250925092565b620002858162000300565b82525050565b6000604082019050620002a260008301856200027a565b620002b160208301846200027a565b9392505050565b6000620002c582620002e0565b9050919050565b6000620002d982620002b8565b9050919050565b600073ffffffffffffffffffffffffffffffffffffffff82169050919050565b6000819050919050565b6200031581620002cc565b81146200032157600080fd5b50565b6200032f8162000300565b81146200033b57600080fd5b50565b611713806200034e6000396000f3fe608060405234801561001057600080fd5b506004361061009e5760003560e01c8063715018a611610066578063715018a6146101335780638da5cb5b1461013d578063dd301b0b1461015b578063e9f5b9e214610165578063f2fde38b146101815761009e565b806326a4e8d2146100a357806341e2e111146100bf5780634b6c62d9146100db57806353a59714146100e55780636f77926b14610103575b600080fd5b6100bd60048036038101906100b89190610de6565b61019d565b005b6100d960048036038101906100d49190610e0f565b61025d565b005b6100e36103bf565b005b6100ed610515565b6040516100fa9190611170565b60405180910390f35b61011d60048036038101906101189190610d6b565b61051f565b60405161012a9190611170565b60405180910390f35b61013b6105d3565b005b61014561065b565b604051610152919061104a565b60405180910390f35b610163610684565b005b61017f600480360381019061017a9190610e5e565b61074c565b005b61019b60048036038101906101969190610d6b565b61080c565b005b6101a5610904565b73ffffffffffffffffffffffffffffffffffffffff166101c361065b565b73ffffffffffffffffffffffffffffffffffffffff1614610219576040517f08c379a000000000000000000000000000000000000000000000000000000000815260040161021090611110565b60405180910390fd5b80600160006101000a81548173ffffffffffffffffffffffffffffffffffffffff021916908373ffffffffffffffffffffffffffffffffffffffff16021790555050565b610265610904565b73ffffffffffffffffffffffffffffffffffffffff1661028361065b565b73ffffffffffffffffffffffffffffffffffffffff16146102d9576040517f08c379a00000000000000000000000000000000000000000000000000000000081526004016102d090611110565b60405180910390fd5b6103ba82600160009054906101000a900473ffffffffffffffffffffffffffffffffffffffff1673ffffffffffffffffffffffffffffffffffffffff1663313ce5676040518163ffffffff1660e01b815260040160206040518083038186803b15801561034557600080fd5b505afa158015610359573d6000803e3d6000fd5b505050506040513d601f19601f8201168201806040525081019061037d9190610eb0565b600a6103899190611210565b83610394919061132e565b8573ffffffffffffffffffffffffffffffffffffffff1661090c9092919063ffffffff16565b505050565b60006103ca3361051f565b90506000811161040f576040517f08c379a0000000000000000000000000000000000000000000000000000000008152600401610406906110d0565b60405180910390fd5b61051233600160009054906101000a900473ffffffffffffffffffffffffffffffffffffffff1673ffffffffffffffffffffffffffffffffffffffff1663313ce5676040518163ffffffff1660e01b815260040160206040518083038186803b15801561047b57600080fd5b505afa15801561048f573d6000803e3d6000fd5b505050506040513d601f19601f820116820180604052508101906104b39190610eb0565b600a6104bf9190611210565b836104ca919061132e565b600160009054906101000a900473ffffffffffffffffffffffffffffffffffffffff1673ffffffffffffffffffffffffffffffffffffffff1661090c9092919063ffffffff16565b50565b6000600354905090565b6000600260009054906101000a900473ffffffffffffffffffffffffffffffffffffffff1673ffffffffffffffffffffffffffffffffffffffff1663bc173cd9836040518263ffffffff1660e01b815260040161057c919061104a565b60206040518083038186803b15801561059457600080fd5b505afa1580156105a8573d6000803e3d6000fd5b505050506040513d601f19601f820116820180604052508101906105cc9190610e87565b9050919050565b6105db610904565b73ffffffffffffffffffffffffffffffffffffffff166105f961065b565b73ffffffffffffffffffffffffffffffffffffffff161461064f576040517f08c379a000000000000000000000000000000000000000000000000000000000815260040161064690611110565b60405180910390fd5b6106596000610992565b565b60008060009054906101000a900473ffffffffffffffffffffffffffffffffffffffff16905090565b600260009054906101000a900473ffffffffffffffffffffffffffffffffffffffff1673ffffffffffffffffffffffffffffffffffffffff16633b6dde13336040518263ffffffff1660e01b81526004016106df919061104a565b602060405180830381600087803b1580156106f957600080fd5b505af115801561070d573d6000803e3d6000fd5b505050506040513d601f19601f820116820180604052508101906107319190610dbd565b50600360008154809291906107459061143e565b9190505550565b610754610904565b73ffffffffffffffffffffffffffffffffffffffff1661077261065b565b73ffffffffffffffffffffffffffffffffffffffff16146107c8576040517f08c379a00000000000000000000000000000000000000000000000000000000081526004016107bf90611110565b60405180910390fd5b80600260006101000a81548173ffffffffffffffffffffffffffffffffffffffff021916908373ffffffffffffffffffffffffffffffffffffffff16021790555050565b610814610904565b73ffffffffffffffffffffffffffffffffffffffff1661083261065b565b73ffffffffffffffffffffffffffffffffffffffff1614610888576040517f08c379a000000000000000000000000000000000000000000000000000000000815260040161087f90611110565b60405180910390fd5b600073ffffffffffffffffffffffffffffffffffffffff168173ffffffffffffffffffffffffffffffffffffffff1614156108f8576040517f08c379a00000000000000000000000000000000000000000000000000000000081526004016108ef906110b0565b60405180910390fd5b61090181610992565b50565b600033905090565b61098d8363a9059cbb60e01b848460405160240161092b929190611065565b604051602081830303815290604052907bffffffffffffffffffffffffffffffffffffffffffffffffffffffff19166020820180517bffffffffffffffffffffffffffffffffffffffffffffffffffffffff8381831617835250505050610a56565b505050565b60008060009054906101000a900473ffffffffffffffffffffffffffffffffffffffff169050816000806101000a81548173ffffffffffffffffffffffffffffffffffffffff021916908373ffffffffffffffffffffffffffffffffffffffff1602179055508173ffffffffffffffffffffffffffffffffffffffff168173ffffffffffffffffffffffffffffffffffffffff167f8be0079c531659141344cd1fd0a4f28419497f9722a3daafe3b4186f6b6457e060405160405180910390a35050565b6000610ab8826040518060400160405280602081526020017f5361666545524332303a206c6f772d6c6576656c2063616c6c206661696c65648152508573ffffffffffffffffffffffffffffffffffffffff16610b1d9092919063ffffffff16565b9050600081511115610b185780806020019051810190610ad89190610d94565b610b17576040517f08c379a0000000000000000000000000000000000000000000000000000000008152600401610b0e90611150565b60405180910390fd5b5b505050565b6060610b2c8484600085610b35565b90509392505050565b606082471015610b7a576040517f08c379a0000000000000000000000000000000000000000000000000000000008152600401610b71906110f0565b60405180910390fd5b610b8385610c49565b610bc2576040517f08c379a0000000000000000000000000000000000000000000000000000000008152600401610bb990611130565b60405180910390fd5b6000808673ffffffffffffffffffffffffffffffffffffffff168587604051610beb9190611033565b60006040518083038185875af1925050503d8060008114610c28576040519150601f19603f3d011682016040523d82523d6000602084013e610c2d565b606091505b5091509150610c3d828286610c5c565b92505050949350505050565b600080823b905060008111915050919050565b60608315610c6c57829050610cbc565b600083511115610c7f5782518084602001fd5b816040517f08c379a0000000000000000000000000000000000000000000000000000000008152600401610cb3919061108e565b60405180910390fd5b9392505050565b600081359050610cd28161163c565b92915050565b600081519050610ce781611653565b92915050565b600081519050610cfc8161166a565b92915050565b600081359050610d1181611681565b92915050565b600081359050610d2681611698565b92915050565b600081359050610d3b816116af565b92915050565b600081519050610d50816116af565b92915050565b600081519050610d65816116c6565b92915050565b600060208284031215610d7d57600080fd5b6000610d8b84828501610cc3565b91505092915050565b600060208284031215610da657600080fd5b6000610db484828501610cd8565b91505092915050565b600060208284031215610dcf57600080fd5b6000610ddd84828501610ced565b91505092915050565b600060208284031215610df857600080fd5b6000610e0684828501610d02565b91505092915050565b600080600060608486031215610e2457600080fd5b6000610e3286828701610d02565b9350506020610e4386828701610cc3565b9250506040610e5486828701610d2c565b9150509250925092565b600060208284031215610e7057600080fd5b6000610e7e84828501610d17565b91505092915050565b600060208284031215610e9957600080fd5b6000610ea784828501610d41565b91505092915050565b600060208284031215610ec257600080fd5b6000610ed084828501610d56565b91505092915050565b610ee281611388565b82525050565b6000610ef38261118b565b610efd81856111a1565b9350610f0d81856020860161140b565b80840191505092915050565b6000610f2482611196565b610f2e81856111ac565b9350610f3e81856020860161140b565b610f47816114b6565b840191505092915050565b6000610f5f6026836111ac565b9150610f6a826114d4565b604082019050919050565b6000610f82601e836111ac565b9150610f8d82611523565b602082019050919050565b6000610fa56026836111ac565b9150610fb08261154c565b604082019050919050565b6000610fc86020836111ac565b9150610fd38261159b565b602082019050919050565b6000610feb601d836111ac565b9150610ff6826115c4565b602082019050919050565b600061100e602a836111ac565b9150611019826115ed565b604082019050919050565b61102d816113f4565b82525050565b600061103f8284610ee8565b915081905092915050565b600060208201905061105f6000830184610ed9565b92915050565b600060408201905061107a6000830185610ed9565b6110876020830184611024565b9392505050565b600060208201905081810360008301526110a88184610f19565b905092915050565b600060208201905081810360008301526110c981610f52565b9050919050565b600060208201905081810360008301526110e981610f75565b9050919050565b6000602082019050818103600083015261110981610f98565b9050919050565b6000602082019050818103600083015261112981610fbb565b9050919050565b6000602082019050818103600083015261114981610fde565b9050919050565b6000602082019050818103600083015261116981611001565b9050919050565b60006020820190506111856000830184611024565b92915050565b600081519050919050565b600081519050919050565b600081905092915050565b600082825260208201905092915050565b6000808291508390505b6001851115611207578086048111156111e3576111e2611487565b5b60018516156111f25780820291505b8081029050611200856114c7565b94506111c7565b94509492505050565b600061121b826113f4565b9150611226836113fe565b92506112537fffffffffffffffffffffffffffffffffffffffffffffffffffffffffffffffff848461125b565b905092915050565b60008261126b5760019050611327565b816112795760009050611327565b816001811461128f5760028114611299576112c8565b6001915050611327565b60ff8411156112ab576112aa611487565b5b8360020a9150848211156112c2576112c1611487565b5b50611327565b5060208310610133831016604e8410600b84101617156112fd5782820a9050838111156112f8576112f7611487565b5b611327565b61130a84848460016111bd565b9250905081840481111561132157611320611487565b5b81810290505b9392505050565b6000611339826113f4565b9150611344836113f4565b9250817fffffffffffffffffffffffffffffffffffffffffffffffffffffffffffffffff048311821515161561137d5761137c611487565b5b828202905092915050565b6000611393826113d4565b9050919050565b60008115159050919050565b6000819050919050565b60006113bb82611388565b9050919050565b60006113cd82611388565b9050919050565b600073ffffffffffffffffffffffffffffffffffffffff82169050919050565b6000819050919050565b600060ff82169050919050565b60005b8381101561142957808201518184015260208101905061140e565b83811115611438576000848401525b50505050565b6000611449826113f4565b91507fffffffffffffffffffffffffffffffffffffffffffffffffffffffffffffffff82141561147c5761147b611487565b5b600182019050919050565b7f4e487b7100000000000000000000000000000000000000000000000000000000600052601160045260246000fd5b6000601f19601f8301169050919050565b60008160011c9050919050565b7f4f776e61626c653a206e6577206f776e657220697320746865207a65726f206160008201527f6464726573730000000000000000000000000000000000000000000000000000602082015250565b7f5468657265206172652063757272656e746c79206e6f20726577617264730000600082015250565b7f416464726573733a20696e73756666696369656e742062616c616e636520666f60008201527f722063616c6c0000000000000000000000000000000000000000000000000000602082015250565b7f4f776e61626c653a2063616c6c6572206973206e6f7420746865206f776e6572600082015250565b7f416464726573733a2063616c6c20746f206e6f6e2d636f6e7472616374000000600082015250565b7f5361666545524332303a204552433230206f7065726174696f6e20646964206e60008201527f6f74207375636365656400000000000000000000000000000000000000000000602082015250565b61164581611388565b811461165057600080fd5b50565b61165c8161139a565b811461166757600080fd5b50565b611673816113a6565b811461167e57600080fd5b50565b61168a816113b0565b811461169557600080fd5b50565b6116a1816113c2565b81146116ac57600080fd5b50565b6116b8816113f4565b81146116c357600080fd5b50565b6116cf816113fe565b81146116da57600080fd5b5056fea26469706673582212203e65e2b87d27ee6be5f57d515ce90de09862453f7fc364bf372fca969564930f64736f6c6343000804003360c060405234801561001057600080fd5b5060405161101d38038061101d8339818101604052810190610032919061012f565b73dd3782915140c8f3b190b5d67eac6dc5760c46e973a36085f69e2889c224210f603d836748e7dc00888173ffffffffffffffffffffffffffffffffffffffff1660a08173ffffffffffffffffffffffffffffffffffffffff1660601b815250508073ffffffffffffffffffffffffffffffffffffffff1660808173ffffffffffffffffffffffffffffffffffffffff1660601b81525050505081600681905550806007819055507f6c3699283bda56ad74f6b855546325b68d482e983852a7a82979cc4807b641f460001b60018190555067016345785d8a0000600281905550505061018c565b60008151905061012981610175565b92915050565b6000806040838503121561014257600080fd5b60006101508582860161011a565b92505060206101618582860161011a565b9150509250929050565b6000819050919050565b61017e8161016b565b811461018957600080fd5b50565b60805160601c60a05160601c610e586101c560003960008181610377015261049a015260008181610104015261045e0152610e586000f3fe608060405234801561001057600080fd5b506004361061004c5760003560e01c80633b6dde1314610051578063682904a51461008157806394985ddd146100b1578063bc173cd9146100cd575b600080fd5b61006b60048036038101906100669190610743565b6100fd565b6040516100789190610a29565b60405180910390f35b61009b600480360381019061009691906107d1565b610253565b6040516100a89190610a07565b60405180910390f35b6100cb60048036038101906100c69190610795565b610375565b005b6100e760048036038101906100e29190610743565b610411565b6040516100f49190610af2565b60405180910390f35b60006002547f000000000000000000000000000000000000000000000000000000000000000073ffffffffffffffffffffffffffffffffffffffff166370a08231306040518263ffffffff1660e01b815260040161015b91906109ae565b60206040518083038186803b15801561017357600080fd5b505afa158015610187573d6000803e3d6000fd5b505050506040513d601f19601f820116820180604052508101906101ab91906107fa565b10156101ec576040517f08c379a00000000000000000000000000000000000000000000000000000000081526004016101e390610ab2565b60405180910390fd5b6101fa60015460025461045a565b9050816005600083815260200190815260200160002060006101000a81548173ffffffffffffffffffffffffffffffffffffffff021916908373ffffffffffffffffffffffffffffffffffffffff160217905550919050565b60608167ffffffffffffffff811115610295577f4e487b7100000000000000000000000000000000000000000000000000000000600052604160045260246000fd5b6040519080825280602002602001820160405280156102c35781602001602082028036833780820191505090505b50905060005b8281101561036f5760016032600354836040516020016102ea929190610b0d565b6040516020818303038152906040528051906020012060001c61030d9190610cd4565b6103179190610b9c565b828281518110610350577f4e487b7100000000000000000000000000000000000000000000000000000000600052603260045260246000fd5b602002602001018181525050808061036790610c77565b9150506102c9565b50919050565b7f000000000000000000000000000000000000000000000000000000000000000073ffffffffffffffffffffffffffffffffffffffff163373ffffffffffffffffffffffffffffffffffffffff1614610403576040517f08c379a00000000000000000000000000000000000000000000000000000000081526004016103fa90610ad2565b60405180910390fd5b61040d82826105b9565b5050565b6000600460008373ffffffffffffffffffffffffffffffffffffffff1673ffffffffffffffffffffffffffffffffffffffff168152602001908152602001600020549050919050565b60007f000000000000000000000000000000000000000000000000000000000000000073ffffffffffffffffffffffffffffffffffffffff16634000aea07f0000000000000000000000000000000000000000000000000000000000000000848660006040516020016104ce929190610a44565b6040516020818303038152906040526040518463ffffffff1660e01b81526004016104fb939291906109c9565b602060405180830381600087803b15801561051557600080fd5b505af1158015610529573d6000803e3d6000fd5b505050506040513d601f19601f8201168201806040525081019061054d919061076c565b50600061056f8460003060008089815260200190815260200160002054610661565b90506001600080868152602001908152602001600020546105909190610b9c565b600080868152602001908152602001600020819055506105b0848261069d565b91505092915050565b60006105c36106d0565b9050600181836105d39190610cd4565b6105dd9190610b9c565b600381905550600354600460006005600087815260200190815260200160002060009054906101000a900473ffffffffffffffffffffffffffffffffffffffff1673ffffffffffffffffffffffffffffffffffffffff1673ffffffffffffffffffffffffffffffffffffffff16815260200190815260200160002081905550505050565b60008484848460405160200161067a9493929190610a6d565b6040516020818303038152906040528051906020012060001c9050949350505050565b600082826040516020016106b2929190610982565b60405160208183030381529060405280519060200120905092915050565b6000600654905090565b6000813590506106e981610dc6565b92915050565b6000815190506106fe81610ddd565b92915050565b60008135905061071381610df4565b92915050565b60008135905061072881610e0b565b92915050565b60008151905061073d81610e0b565b92915050565b60006020828403121561075557600080fd5b6000610763848285016106da565b91505092915050565b60006020828403121561077e57600080fd5b600061078c848285016106ef565b91505092915050565b600080604083850312156107a857600080fd5b60006107b685828601610704565b92505060206107c785828601610719565b9150509250929050565b6000602082840312156107e357600080fd5b60006107f184828501610719565b91505092915050565b60006020828403121561080c57600080fd5b600061081a8482850161072e565b91505092915050565b600061082f838361094d565b60208301905092915050565b61084481610bf2565b82525050565b600061085582610b46565b61085f8185610b69565b935061086a83610b36565b8060005b8381101561089b5781516108828882610823565b975061088d83610b5c565b92505060018101905061086e565b5085935050505092915050565b6108b181610c10565b82525050565b6108c86108c382610c10565b610cc0565b82525050565b60006108d982610b51565b6108e38185610b7a565b93506108f3818560208601610c44565b6108fc81610d63565b840191505092915050565b6000610914600f83610b8b565b915061091f82610d74565b602082019050919050565b6000610937601f83610b8b565b915061094282610d9d565b602082019050919050565b61095681610c3a565b82525050565b61096581610c3a565b82525050565b61097c61097782610c3a565b610cca565b82525050565b600061098e82856108b7565b60208201915061099e828461096b565b6020820191508190509392505050565b60006020820190506109c3600083018461083b565b92915050565b60006060820190506109de600083018661083b565b6109eb602083018561095c565b81810360408301526109fd81846108ce565b9050949350505050565b60006020820190508181036000830152610a21818461084a565b905092915050565b6000602082019050610a3e60008301846108a8565b92915050565b6000604082019050610a5960008301856108a8565b610a66602083018461095c565b9392505050565b6000608082019050610a8260008301876108a8565b610a8f602083018661095c565b610a9c604083018561083b565b610aa9606083018461095c565b95945050505050565b60006020820190508181036000830152610acb81610907565b9050919050565b60006020820190508181036000830152610aeb8161092a565b9050919050565b6000602082019050610b07600083018461095c565b92915050565b6000604082019050610b22600083018561095c565b610b2f602083018461095c565b9392505050565b6000819050602082019050919050565b600081519050919050565b600081519050919050565b6000602082019050919050565b600082825260208201905092915050565b600082825260208201905092915050565b600082825260208201905092915050565b6000610ba782610c3a565b9150610bb283610c3a565b9250827fffffffffffffffffffffffffffffffffffffffffffffffffffffffffffffffff03821115610be757610be6610d05565b5b828201905092915050565b6000610bfd82610c1a565b9050919050565b60008115159050919050565b6000819050919050565b600073ffffffffffffffffffffffffffffffffffffffff82169050919050565b6000819050919050565b60005b83811015610c62578082015181840152602081019050610c47565b83811115610c71576000848401525b50505050565b6000610c8282610c3a565b91507fffffffffffffffffffffffffffffffffffffffffffffffffffffffffffffffff821415610cb557610cb4610d05565b5b600182019050919050565b6000819050919050565b6000819050919050565b6000610cdf82610c3a565b9150610cea83610c3a565b925082610cfa57610cf9610d34565b5b828206905092915050565b7f4e487b7100000000000000000000000000000000000000000000000000000000600052601160045260246000fd5b7f4e487b7100000000000000000000000000000000000000000000000000000000600052601260045260246000fd5b6000601f19601f8301169050919050565b7f4e6f7420656e6f756768204c494e4b0000000000000000000000000000000000600082015250565b7f4f6e6c7920565246436f6f7264696e61746f722063616e2066756c66696c6c00600082015250565b610dcf81610bf2565b8114610dda57600080fd5b50565b610de681610c04565b8114610df157600080fd5b50565b610dfd81610c10565b8114610e0857600080fd5b50565b610e1481610c3a565b8114610e1f57600080fd5b5056fea264697066735822122055d7214af81e1fb1c3cbaa60b763830782e678486aa71a86dba5fa212092be9f64736f6c63430008040033",
  "linkReferences": {},
  "deployedLinkReferences": {}
}