{
  "_format": "hh-sol-artifact-1",
  "contractName": "GrabARedEnvelope",
  "sourceName": "contracts/RandomNumberConsumer.sol",
  "abi": [
    {
      "inputs": [
        {
          "internalType": "contract ERC20",
          "name": "_tokenAddress",
          "type": "address"
        }
      ],
      "stateMutability": "nonpayable",
      "type": "constructor"
    },
    {
      "anonymous": false,
      "inputs": [
        {
          "indexed": true,
          "internalType": "address",
          "name": "previousOwner",
          "type": "address"
        },
        {
          "indexed": true,
          "internalType": "address",
          "name": "newOwner",
          "type": "address"
        }
      ],
      "name": "OwnershipTransferred",
      "type": "event"
    },
    {
      "inputs": [
        {
          "internalType": "address",
          "name": "_userAddress",
          "type": "address"
        },
        {
          "internalType": "uint256",
          "name": "_count",
          "type": "uint256"
        }
      ],
      "name": "borrowMoney",
      "outputs": [],
      "stateMutability": "nonpayable",
      "type": "function"
    },
    {
      "inputs": [],
      "name": "getReceivingUsers",
      "outputs": [
        {
          "internalType": "uint256",
          "name": "",
          "type": "uint256"
        }
      ],
      "stateMutability": "view",
      "type": "function"
    },
    {
      "inputs": [
        {
          "internalType": "address",
          "name": "_userAddress",
          "type": "address"
        }
      ],
      "name": "getUser",
      "outputs": [
        {
          "internalType": "uint256",
          "name": "",
          "type": "uint256"
        }
      ],
      "stateMutability": "view",
      "type": "function"
    },
    {
      "inputs": [],
      "name": "obtainBonus",
      "outputs": [],
      "stateMutability": "nonpayable",
      "type": "function"
    },
    {
      "inputs": [],
      "name": "owner",
      "outputs": [
        {
          "internalType": "address",
          "name": "",
          "type": "address"
        }
      ],
      "stateMutability": "view",
      "type": "function"
    },
    {
      "inputs": [],
      "name": "renounceOwnership",
      "outputs": [],
      "stateMutability": "nonpayable",
      "type": "function"
    },
    {
      "inputs": [
        {
          "internalType": "contract RandomNumberConsumer",
          "name": "_randomNumberAddress",
          "type": "address"
        }
      ],
      "name": "setRandomNumberAddress",
      "outputs": [],
      "stateMutability": "nonpayable",
      "type": "function"
    },
    {
      "inputs": [
        {
          "internalType": "address",
          "name": "newOwner",
          "type": "address"
        }
      ],
      "name": "transferOwnership",
      "outputs": [],
      "stateMutability": "nonpayable",
      "type": "function"
    },
    {
      "inputs": [],
      "name": "userReceive",
      "outputs": [],
      "stateMutability": "nonpayable",
      "type": "function"
    }
  ],
  "bytecode": "0x60806040523480156200001157600080fd5b50604051620027cc380380620027cc8339818101604052810190620000379190620001fc565b620000576200004b6200010b60201b60201c565b6200011360201b60201c565b6040516200006590620001d7565b604051809103906000f08015801562000082573d6000803e3d6000fd5b50600260006101000a81548173ffffffffffffffffffffffffffffffffffffffff021916908373ffffffffffffffffffffffffffffffffffffffff16021790555080600160006101000a81548173ffffffffffffffffffffffffffffffffffffffff021916908373ffffffffffffffffffffffffffffffffffffffff160217905550506200028a565b600033905090565b60008060009054906101000a900473ffffffffffffffffffffffffffffffffffffffff169050816000806101000a81548173ffffffffffffffffffffffffffffffffffffffff021916908373ffffffffffffffffffffffffffffffffffffffff1602179055508173ffffffffffffffffffffffffffffffffffffffff168173ffffffffffffffffffffffffffffffffffffffff167f8be0079c531659141344cd1fd0a4f28419497f9722a3daafe3b4186f6b6457e060405160405180910390a35050565b610f5f806200186d83390190565b600081519050620001f68162000270565b92915050565b6000602082840312156200020f57600080fd5b60006200021f84828501620001e5565b91505092915050565b6000620002358262000250565b9050919050565b6000620002498262000228565b9050919050565b600073ffffffffffffffffffffffffffffffffffffffff82169050919050565b6200027b816200023c565b81146200028757600080fd5b50565b6115d3806200029a6000396000f3fe608060405234801561001057600080fd5b50600436106100935760003560e01c80638da5cb5b116100665780638da5cb5b146100fa578063c984fc5914610118578063dd301b0b14610134578063e9f5b9e21461013e578063f2fde38b1461015a57610093565b80634b6c62d91461009857806353a59714146100a25780636f77926b146100c0578063715018a6146100f0575b600080fd5b6100a0610176565b005b6100aa6102cc565b6040516100b79190611059565b60405180910390f35b6100da60048036038101906100d59190610c90565b6102d6565b6040516100e79190611059565b60405180910390f35b6100f861038a565b005b610102610412565b60405161010f9190610f33565b60405180910390f35b610132600480360381019061012d9190610cb9565b61043b565b005b61013c6105be565b005b61015860048036038101906101539190610d47565b610686565b005b610174600480360381019061016f9190610c90565b610746565b005b6000610181336102d6565b9050600081116101c6576040517f08c379a00000000000000000000000000000000000000000000000000000000081526004016101bd90610fb9565b60405180910390fd5b6102c933600160009054906101000a900473ffffffffffffffffffffffffffffffffffffffff1673ffffffffffffffffffffffffffffffffffffffff1663313ce5676040518163ffffffff1660e01b815260040160206040518083038186803b15801561023257600080fd5b505afa158015610246573d6000803e3d6000fd5b505050506040513d601f19601f8201168201806040525081019061026a9190610d99565b600a61027691906110f9565b836102819190611217565b600160009054906101000a900473ffffffffffffffffffffffffffffffffffffffff1673ffffffffffffffffffffffffffffffffffffffff1661083e9092919063ffffffff16565b50565b6000600354905090565b6000600260009054906101000a900473ffffffffffffffffffffffffffffffffffffffff1673ffffffffffffffffffffffffffffffffffffffff1663bc173cd9836040518263ffffffff1660e01b81526004016103339190610f33565b60206040518083038186803b15801561034b57600080fd5b505afa15801561035f573d6000803e3d6000fd5b505050506040513d601f19601f820116820180604052508101906103839190610d70565b9050919050565b6103926108c4565b73ffffffffffffffffffffffffffffffffffffffff166103b0610412565b73ffffffffffffffffffffffffffffffffffffffff1614610406576040517f08c379a00000000000000000000000000000000000000000000000000000000081526004016103fd90610ff9565b60405180910390fd5b61041060006108cc565b565b60008060009054906101000a900473ffffffffffffffffffffffffffffffffffffffff16905090565b6104436108c4565b73ffffffffffffffffffffffffffffffffffffffff16610461610412565b73ffffffffffffffffffffffffffffffffffffffff16146104b7576040517f08c379a00000000000000000000000000000000000000000000000000000000081526004016104ae90610ff9565b60405180910390fd5b6105ba82600160009054906101000a900473ffffffffffffffffffffffffffffffffffffffff1673ffffffffffffffffffffffffffffffffffffffff1663313ce5676040518163ffffffff1660e01b815260040160206040518083038186803b15801561052357600080fd5b505afa158015610537573d6000803e3d6000fd5b505050506040513d601f19601f8201168201806040525081019061055b9190610d99565b600a61056791906110f9565b836105729190611217565b600160009054906101000a900473ffffffffffffffffffffffffffffffffffffffff1673ffffffffffffffffffffffffffffffffffffffff1661083e9092919063ffffffff16565b5050565b600260009054906101000a900473ffffffffffffffffffffffffffffffffffffffff1673ffffffffffffffffffffffffffffffffffffffff16633b6dde13336040518263ffffffff1660e01b81526004016106199190610f33565b602060405180830381600087803b15801561063357600080fd5b505af1158015610647573d6000803e3d6000fd5b505050506040513d601f19601f8201168201806040525081019061066b9190610d1e565b506003600081548092919061067f90611315565b9190505550565b61068e6108c4565b73ffffffffffffffffffffffffffffffffffffffff166106ac610412565b73ffffffffffffffffffffffffffffffffffffffff1614610702576040517f08c379a00000000000000000000000000000000000000000000000000000000081526004016106f990610ff9565b60405180910390fd5b80600260006101000a81548173ffffffffffffffffffffffffffffffffffffffff021916908373ffffffffffffffffffffffffffffffffffffffff16021790555050565b61074e6108c4565b73ffffffffffffffffffffffffffffffffffffffff1661076c610412565b73ffffffffffffffffffffffffffffffffffffffff16146107c2576040517f08c379a00000000000000000000000000000000000000000000000000000000081526004016107b990610ff9565b60405180910390fd5b600073ffffffffffffffffffffffffffffffffffffffff168173ffffffffffffffffffffffffffffffffffffffff161415610832576040517f08c379a000000000000000000000000000000000000000000000000000000000815260040161082990610f99565b60405180910390fd5b61083b816108cc565b50565b6108bf8363a9059cbb60e01b848460405160240161085d929190610f4e565b604051602081830303815290604052907bffffffffffffffffffffffffffffffffffffffffffffffffffffffff19166020820180517bffffffffffffffffffffffffffffffffffffffffffffffffffffffff8381831617835250505050610990565b505050565b600033905090565b60008060009054906101000a900473ffffffffffffffffffffffffffffffffffffffff169050816000806101000a81548173ffffffffffffffffffffffffffffffffffffffff021916908373ffffffffffffffffffffffffffffffffffffffff1602179055508173ffffffffffffffffffffffffffffffffffffffff168173ffffffffffffffffffffffffffffffffffffffff167f8be0079c531659141344cd1fd0a4f28419497f9722a3daafe3b4186f6b6457e060405160405180910390a35050565b60006109f2826040518060400160405280602081526020017f5361666545524332303a206c6f772d6c6576656c2063616c6c206661696c65648152508573ffffffffffffffffffffffffffffffffffffffff16610a579092919063ffffffff16565b9050600081511115610a525780806020019051810190610a129190610cf5565b610a51576040517f08c379a0000000000000000000000000000000000000000000000000000000008152600401610a4890611039565b60405180910390fd5b5b505050565b6060610a668484600085610a6f565b90509392505050565b606082471015610ab4576040517f08c379a0000000000000000000000000000000000000000000000000000000008152600401610aab90610fd9565b60405180910390fd5b610abd85610b83565b610afc576040517f08c379a0000000000000000000000000000000000000000000000000000000008152600401610af390611019565b60405180910390fd5b6000808673ffffffffffffffffffffffffffffffffffffffff168587604051610b259190610f1c565b60006040518083038185875af1925050503d8060008114610b62576040519150601f19603f3d011682016040523d82523d6000602084013e610b67565b606091505b5091509150610b77828286610b96565b92505050949350505050565b600080823b905060008111915050919050565b60608315610ba657829050610bf6565b600083511115610bb95782518084602001fd5b816040517f08c379a0000000000000000000000000000000000000000000000000000000008152600401610bed9190610f77565b60405180910390fd5b9392505050565b600081359050610c0c81611513565b92915050565b600081519050610c218161152a565b92915050565b600081519050610c3681611541565b92915050565b600081359050610c4b81611558565b92915050565b600081359050610c608161156f565b92915050565b600081519050610c758161156f565b92915050565b600081519050610c8a81611586565b92915050565b600060208284031215610ca257600080fd5b6000610cb084828501610bfd565b91505092915050565b60008060408385031215610ccc57600080fd5b6000610cda85828601610bfd565b9250506020610ceb85828601610c51565b9150509250929050565b600060208284031215610d0757600080fd5b6000610d1584828501610c12565b91505092915050565b600060208284031215610d3057600080fd5b6000610d3e84828501610c27565b91505092915050565b600060208284031215610d5957600080fd5b6000610d6784828501610c3c565b91505092915050565b600060208284031215610d8257600080fd5b6000610d9084828501610c66565b91505092915050565b600060208284031215610dab57600080fd5b6000610db984828501610c7b565b91505092915050565b610dcb81611271565b82525050565b6000610ddc82611074565b610de6818561108a565b9350610df68185602086016112e2565b80840191505092915050565b6000610e0d8261107f565b610e178185611095565b9350610e278185602086016112e2565b610e308161138d565b840191505092915050565b6000610e48602683611095565b9150610e53826113ab565b604082019050919050565b6000610e6b601e83611095565b9150610e76826113fa565b602082019050919050565b6000610e8e602683611095565b9150610e9982611423565b604082019050919050565b6000610eb1602083611095565b9150610ebc82611472565b602082019050919050565b6000610ed4601d83611095565b9150610edf8261149b565b602082019050919050565b6000610ef7602a83611095565b9150610f02826114c4565b604082019050919050565b610f16816112cb565b82525050565b6000610f288284610dd1565b915081905092915050565b6000602082019050610f486000830184610dc2565b92915050565b6000604082019050610f636000830185610dc2565b610f706020830184610f0d565b9392505050565b60006020820190508181036000830152610f918184610e02565b905092915050565b60006020820190508181036000830152610fb281610e3b565b9050919050565b60006020820190508181036000830152610fd281610e5e565b9050919050565b60006020820190508181036000830152610ff281610e81565b9050919050565b6000602082019050818103600083015261101281610ea4565b9050919050565b6000602082019050818103600083015261103281610ec7565b9050919050565b6000602082019050818103600083015261105281610eea565b9050919050565b600060208201905061106e6000830184610f0d565b92915050565b600081519050919050565b600081519050919050565b600081905092915050565b600082825260208201905092915050565b6000808291508390505b60018511156110f0578086048111156110cc576110cb61135e565b5b60018516156110db5780820291505b80810290506110e98561139e565b94506110b0565b94509492505050565b6000611104826112cb565b915061110f836112d5565b925061113c7fffffffffffffffffffffffffffffffffffffffffffffffffffffffffffffffff8484611144565b905092915050565b6000826111545760019050611210565b816111625760009050611210565b81600181146111785760028114611182576111b1565b6001915050611210565b60ff8411156111945761119361135e565b5b8360020a9150848211156111ab576111aa61135e565b5b50611210565b5060208310610133831016604e8410600b84101617156111e65782820a9050838111156111e1576111e061135e565b5b611210565b6111f384848460016110a6565b9250905081840481111561120a5761120961135e565b5b81810290505b9392505050565b6000611222826112cb565b915061122d836112cb565b9250817fffffffffffffffffffffffffffffffffffffffffffffffffffffffffffffffff04831182151516156112665761126561135e565b5b828202905092915050565b600061127c826112ab565b9050919050565b60008115159050919050565b6000819050919050565b60006112a482611271565b9050919050565b600073ffffffffffffffffffffffffffffffffffffffff82169050919050565b6000819050919050565b600060ff82169050919050565b60005b838110156113005780820151818401526020810190506112e5565b8381111561130f576000848401525b50505050565b6000611320826112cb565b91507fffffffffffffffffffffffffffffffffffffffffffffffffffffffffffffffff8214156113535761135261135e565b5b600182019050919050565b7f4e487b7100000000000000000000000000000000000000000000000000000000600052601160045260246000fd5b6000601f19601f8301169050919050565b60008160011c9050919050565b7f4f776e61626c653a206e6577206f776e657220697320746865207a65726f206160008201527f6464726573730000000000000000000000000000000000000000000000000000602082015250565b7f5468657265206172652063757272656e746c79206e6f20726577617264730000600082015250565b7f416464726573733a20696e73756666696369656e742062616c616e636520666f60008201527f722063616c6c0000000000000000000000000000000000000000000000000000602082015250565b7f4f776e61626c653a2063616c6c6572206973206e6f7420746865206f776e6572600082015250565b7f416464726573733a2063616c6c20746f206e6f6e2d636f6e7472616374000000600082015250565b7f5361666545524332303a204552433230206f7065726174696f6e20646964206e60008201527f6f74207375636365656400000000000000000000000000000000000000000000602082015250565b61151c81611271565b811461152757600080fd5b50565b61153381611283565b811461153e57600080fd5b50565b61154a8161128f565b811461155557600080fd5b50565b61156181611299565b811461156c57600080fd5b50565b611578816112cb565b811461158357600080fd5b50565b61158f816112d5565b811461159a57600080fd5b5056fea2646970667358221220f94ff60841bf17020c73181a30487341b64ebe78c53b027ddf1591988645a8eb64736f6c6343000804003360c060405234801561001057600080fd5b5073dd3782915140c8f3b190b5d67eac6dc5760c46e973a36085f69e2889c224210f603d836748e7dc00888173ffffffffffffffffffffffffffffffffffffffff1660a08173ffffffffffffffffffffffffffffffffffffffff1660601b815250508073ffffffffffffffffffffffffffffffffffffffff1660808173ffffffffffffffffffffffffffffffffffffffff1660601b8152505050507f6c3699283bda56ad74f6b855546325b68d482e983852a7a82979cc4807b641f460001b60018190555067016345785d8a000060028190555060805160601c60a05160601c610e4261011d60003960008181610377015261049a015260008181610104015261045e0152610e426000f3fe608060405234801561001057600080fd5b506004361061004c5760003560e01c80633b6dde1314610051578063682904a51461008157806394985ddd146100b1578063bc173cd9146100cd575b600080fd5b61006b6004803603810190610066919061072d565b6100fd565b6040516100789190610a13565b60405180910390f35b61009b600480360381019061009691906107bb565b610253565b6040516100a891906109f1565b60405180910390f35b6100cb60048036038101906100c6919061077f565b610375565b005b6100e760048036038101906100e2919061072d565b610411565b6040516100f49190610adc565b60405180910390f35b60006002547f000000000000000000000000000000000000000000000000000000000000000073ffffffffffffffffffffffffffffffffffffffff166370a08231306040518263ffffffff1660e01b815260040161015b9190610998565b60206040518083038186803b15801561017357600080fd5b505afa158015610187573d6000803e3d6000fd5b505050506040513d601f19601f820116820180604052508101906101ab91906107e4565b10156101ec576040517f08c379a00000000000000000000000000000000000000000000000000000000081526004016101e390610a9c565b60405180910390fd5b6101fa60015460025461045a565b9050816005600083815260200190815260200160002060006101000a81548173ffffffffffffffffffffffffffffffffffffffff021916908373ffffffffffffffffffffffffffffffffffffffff160217905550919050565b60608167ffffffffffffffff811115610295577f4e487b7100000000000000000000000000000000000000000000000000000000600052604160045260246000fd5b6040519080825280602002602001820160405280156102c35781602001602082028036833780820191505090505b50905060005b8281101561036f5760016032600354836040516020016102ea929190610af7565b6040516020818303038152906040528051906020012060001c61030d9190610cbe565b6103179190610b86565b828281518110610350577f4e487b7100000000000000000000000000000000000000000000000000000000600052603260045260246000fd5b602002602001018181525050808061036790610c61565b9150506102c9565b50919050565b7f000000000000000000000000000000000000000000000000000000000000000073ffffffffffffffffffffffffffffffffffffffff163373ffffffffffffffffffffffffffffffffffffffff1614610403576040517f08c379a00000000000000000000000000000000000000000000000000000000081526004016103fa90610abc565b60405180910390fd5b61040d82826105b9565b5050565b6000600460008373ffffffffffffffffffffffffffffffffffffffff1673ffffffffffffffffffffffffffffffffffffffff168152602001908152602001600020549050919050565b60007f000000000000000000000000000000000000000000000000000000000000000073ffffffffffffffffffffffffffffffffffffffff16634000aea07f0000000000000000000000000000000000000000000000000000000000000000848660006040516020016104ce929190610a2e565b6040516020818303038152906040526040518463ffffffff1660e01b81526004016104fb939291906109b3565b602060405180830381600087803b15801561051557600080fd5b505af1158015610529573d6000803e3d6000fd5b505050506040513d601f19601f8201168201806040525081019061054d9190610756565b50600061056f8460003060008089815260200190815260200160002054610655565b90506001600080868152602001908152602001600020546105909190610b86565b600080868152602001908152602001600020819055506105b08482610691565b91505092915050565b60016032826105c89190610cbe565b6105d29190610b86565b600381905550600354600460006005600086815260200190815260200160002060009054906101000a900473ffffffffffffffffffffffffffffffffffffffff1673ffffffffffffffffffffffffffffffffffffffff1673ffffffffffffffffffffffffffffffffffffffff168152602001908152602001600020819055505050565b60008484848460405160200161066e9493929190610a57565b6040516020818303038152906040528051906020012060001c9050949350505050565b600082826040516020016106a692919061096c565b60405160208183030381529060405280519060200120905092915050565b6000813590506106d381610db0565b92915050565b6000815190506106e881610dc7565b92915050565b6000813590506106fd81610dde565b92915050565b60008135905061071281610df5565b92915050565b60008151905061072781610df5565b92915050565b60006020828403121561073f57600080fd5b600061074d848285016106c4565b91505092915050565b60006020828403121561076857600080fd5b6000610776848285016106d9565b91505092915050565b6000806040838503121561079257600080fd5b60006107a0858286016106ee565b92505060206107b185828601610703565b9150509250929050565b6000602082840312156107cd57600080fd5b60006107db84828501610703565b91505092915050565b6000602082840312156107f657600080fd5b600061080484828501610718565b91505092915050565b60006108198383610937565b60208301905092915050565b61082e81610bdc565b82525050565b600061083f82610b30565b6108498185610b53565b935061085483610b20565b8060005b8381101561088557815161086c888261080d565b975061087783610b46565b925050600181019050610858565b5085935050505092915050565b61089b81610bfa565b82525050565b6108b26108ad82610bfa565b610caa565b82525050565b60006108c382610b3b565b6108cd8185610b64565b93506108dd818560208601610c2e565b6108e681610d4d565b840191505092915050565b60006108fe600f83610b75565b915061090982610d5e565b602082019050919050565b6000610921601f83610b75565b915061092c82610d87565b602082019050919050565b61094081610c24565b82525050565b61094f81610c24565b82525050565b61096661096182610c24565b610cb4565b82525050565b600061097882856108a1565b6020820191506109888284610955565b6020820191508190509392505050565b60006020820190506109ad6000830184610825565b92915050565b60006060820190506109c86000830186610825565b6109d56020830185610946565b81810360408301526109e781846108b8565b9050949350505050565b60006020820190508181036000830152610a0b8184610834565b905092915050565b6000602082019050610a286000830184610892565b92915050565b6000604082019050610a436000830185610892565b610a506020830184610946565b9392505050565b6000608082019050610a6c6000830187610892565b610a796020830186610946565b610a866040830185610825565b610a936060830184610946565b95945050505050565b60006020820190508181036000830152610ab5816108f1565b9050919050565b60006020820190508181036000830152610ad581610914565b9050919050565b6000602082019050610af16000830184610946565b92915050565b6000604082019050610b0c6000830185610946565b610b196020830184610946565b9392505050565b6000819050602082019050919050565b600081519050919050565b600081519050919050565b6000602082019050919050565b600082825260208201905092915050565b600082825260208201905092915050565b600082825260208201905092915050565b6000610b9182610c24565b9150610b9c83610c24565b9250827fffffffffffffffffffffffffffffffffffffffffffffffffffffffffffffffff03821115610bd157610bd0610cef565b5b828201905092915050565b6000610be782610c04565b9050919050565b60008115159050919050565b6000819050919050565b600073ffffffffffffffffffffffffffffffffffffffff82169050919050565b6000819050919050565b60005b83811015610c4c578082015181840152602081019050610c31565b83811115610c5b576000848401525b50505050565b6000610c6c82610c24565b91507fffffffffffffffffffffffffffffffffffffffffffffffffffffffffffffffff821415610c9f57610c9e610cef565b5b600182019050919050565b6000819050919050565b6000819050919050565b6000610cc982610c24565b9150610cd483610c24565b925082610ce457610ce3610d1e565b5b828206905092915050565b7f4e487b7100000000000000000000000000000000000000000000000000000000600052601160045260246000fd5b7f4e487b7100000000000000000000000000000000000000000000000000000000600052601260045260246000fd5b6000601f19601f8301169050919050565b7f4e6f7420656e6f756768204c494e4b0000000000000000000000000000000000600082015250565b7f4f6e6c7920565246436f6f7264696e61746f722063616e2066756c66696c6c00600082015250565b610db981610bdc565b8114610dc457600080fd5b50565b610dd081610bee565b8114610ddb57600080fd5b50565b610de781610bfa565b8114610df257600080fd5b50565b610dfe81610c24565b8114610e0957600080fd5b5056fea26469706673582212207303ee085c6b9565da7cbe571baf0668f49c191a82d6c0b8af5c153c5f33588e64736f6c63430008040033",
  "linkReferences": {},
  "deployedLinkReferences": {}
}