{
  "_format": "hh-sol-artifact-1",
  "contractName": "GrabARedEnvelope",
  "sourceName": "contracts/RandomNumberConsumer.sol",
  "abi": [
    {
      "inputs": [
        {
          "internalType": "contract ERC20",
          "name": "_tokenAddress",
          "type": "address"
        },
        {
          "internalType": "uint256",
          "name": "_x",
          "type": "uint256"
        },
        {
          "internalType": "uint256",
          "name": "_y",
          "type": "uint256"
        }
      ],
      "stateMutability": "nonpayable",
      "type": "constructor"
    },
    {
      "anonymous": false,
      "inputs": [
        {
          "indexed": true,
          "internalType": "address",
          "name": "previousOwner",
          "type": "address"
        },
        {
          "indexed": true,
          "internalType": "address",
          "name": "newOwner",
          "type": "address"
        }
      ],
      "name": "OwnershipTransferred",
      "type": "event"
    },
    {
      "inputs": [
        {
          "internalType": "contract ERC20",
          "name": "_tokenAddress",
          "type": "address"
        },
        {
          "internalType": "address",
          "name": "_userAddress",
          "type": "address"
        },
        {
          "internalType": "uint256",
          "name": "_count",
          "type": "uint256"
        }
      ],
      "name": "borrowMoney",
      "outputs": [],
      "stateMutability": "nonpayable",
      "type": "function"
    },
    {
      "inputs": [],
      "name": "getReceivingUsers",
      "outputs": [
        {
          "internalType": "uint256",
          "name": "",
          "type": "uint256"
        }
      ],
      "stateMutability": "view",
      "type": "function"
    },
    {
      "inputs": [
        {
          "internalType": "address",
          "name": "_userAddress",
          "type": "address"
        }
      ],
      "name": "getUser",
      "outputs": [
        {
          "internalType": "uint256",
          "name": "",
          "type": "uint256"
        }
      ],
      "stateMutability": "view",
      "type": "function"
    },
    {
      "inputs": [],
      "name": "obtainBonus",
      "outputs": [],
      "stateMutability": "nonpayable",
      "type": "function"
    },
    {
      "inputs": [],
      "name": "owner",
      "outputs": [
        {
          "internalType": "address",
          "name": "",
          "type": "address"
        }
      ],
      "stateMutability": "view",
      "type": "function"
    },
    {
      "inputs": [],
      "name": "randomNumberConsumer",
      "outputs": [
        {
          "internalType": "contract RandomNumberConsumer",
          "name": "",
          "type": "address"
        }
      ],
      "stateMutability": "view",
      "type": "function"
    },
    {
      "inputs": [],
      "name": "renounceOwnership",
      "outputs": [],
      "stateMutability": "nonpayable",
      "type": "function"
    },
    {
      "inputs": [
        {
          "internalType": "contract RandomNumberConsumer",
          "name": "_randomNumberAddress",
          "type": "address"
        }
      ],
      "name": "setRandomNumberAddress",
      "outputs": [],
      "stateMutability": "nonpayable",
      "type": "function"
    },
    {
      "inputs": [
        {
          "internalType": "contract ERC20",
          "name": "_tokenAddress",
          "type": "address"
        }
      ],
      "name": "setTokenAddress",
      "outputs": [],
      "stateMutability": "nonpayable",
      "type": "function"
    },
    {
      "inputs": [],
      "name": "tokenAddress",
      "outputs": [
        {
          "internalType": "contract ERC20",
          "name": "",
          "type": "address"
        }
      ],
      "stateMutability": "view",
      "type": "function"
    },
    {
      "inputs": [
        {
          "internalType": "address",
          "name": "newOwner",
          "type": "address"
        }
      ],
      "name": "transferOwnership",
      "outputs": [],
      "stateMutability": "nonpayable",
      "type": "function"
    },
    {
      "inputs": [],
      "name": "userReceive",
      "outputs": [],
      "stateMutability": "nonpayable",
      "type": "function"
    }
  ],
  "bytecode": "0x60806040523480156200001157600080fd5b506040516200340a3803806200340a833981810160405281019062000037919062000224565b620000576200004b6200011c60201b60201c565b6200012460201b60201c565b81816040516200006790620001e8565b620000749291906200028b565b604051809103906000f08015801562000091573d6000803e3d6000fd5b50600260006101000a81548173ffffffffffffffffffffffffffffffffffffffff021916908373ffffffffffffffffffffffffffffffffffffffff16021790555082600160006101000a81548173ffffffffffffffffffffffffffffffffffffffff021916908373ffffffffffffffffffffffffffffffffffffffff1602179055505050506200033e565b600033905090565b60008060009054906101000a900473ffffffffffffffffffffffffffffffffffffffff169050816000806101000a81548173ffffffffffffffffffffffffffffffffffffffff021916908373ffffffffffffffffffffffffffffffffffffffff1602179055508173ffffffffffffffffffffffffffffffffffffffff168173ffffffffffffffffffffffffffffffffffffffff167f8be0079c531659141344cd1fd0a4f28419497f9722a3daafe3b4186f6b6457e060405160405180910390a35050565b6117e28062001c2883390190565b60008151905062000207816200030a565b92915050565b6000815190506200021e8162000324565b92915050565b6000806000606084860312156200023a57600080fd5b60006200024a86828701620001f6565b93505060206200025d868287016200020d565b925050604062000270868287016200020d565b9150509250925092565b620002858162000300565b82525050565b6000604082019050620002a260008301856200027a565b620002b160208301846200027a565b9392505050565b6000620002c582620002e0565b9050919050565b6000620002d982620002b8565b9050919050565b600073ffffffffffffffffffffffffffffffffffffffff82169050919050565b6000819050919050565b6200031581620002cc565b81146200032157600080fd5b50565b6200032f8162000300565b81146200033b57600080fd5b50565b6118da806200034e6000396000f3fe608060405234801561001057600080fd5b50600436106100b45760003560e01c8063715018a611610071578063715018a6146101675780638da5cb5b146101715780639d76ea581461018f578063dd301b0b146101ad578063e9f5b9e2146101b7578063f2fde38b146101d3576100b4565b806326a4e8d2146100b957806341e2e111146100d557806346df22da146100f15780634b6c62d91461010f57806353a59714146101195780636f77926b14610137575b600080fd5b6100d360048036038101906100ce9190610f11565b6101ef565b005b6100ef60048036038101906100ea9190610f3a565b6102af565b005b6100f9610411565b60405161010691906111f2565b60405180910390f35b610117610437565b005b61012161061a565b60405161012e91906112ef565b60405180910390f35b610151600480360381019061014c9190610e96565b610624565b60405161015e91906112ef565b60405180910390f35b61016f6106d8565b005b610179610760565b6040516101869190611193565b60405180910390f35b610197610789565b6040516101a491906111d7565b60405180910390f35b6101b56107af565b005b6101d160048036038101906101cc9190610f89565b610877565b005b6101ed60048036038101906101e89190610e96565b610937565b005b6101f7610a2f565b73ffffffffffffffffffffffffffffffffffffffff16610215610760565b73ffffffffffffffffffffffffffffffffffffffff161461026b576040517f08c379a00000000000000000000000000000000000000000000000000000000081526004016102629061128f565b60405180910390fd5b80600160006101000a81548173ffffffffffffffffffffffffffffffffffffffff021916908373ffffffffffffffffffffffffffffffffffffffff16021790555050565b6102b7610a2f565b73ffffffffffffffffffffffffffffffffffffffff166102d5610760565b73ffffffffffffffffffffffffffffffffffffffff161461032b576040517f08c379a00000000000000000000000000000000000000000000000000000000081526004016103229061128f565b60405180910390fd5b61040c82600160009054906101000a900473ffffffffffffffffffffffffffffffffffffffff1673ffffffffffffffffffffffffffffffffffffffff1663313ce5676040518163ffffffff1660e01b815260040160206040518083038186803b15801561039757600080fd5b505afa1580156103ab573d6000803e3d6000fd5b505050506040513d601f19601f820116820180604052508101906103cf9190610fdb565b600a6103db919061138f565b836103e691906114ad565b8573ffffffffffffffffffffffffffffffffffffffff16610a379092919063ffffffff16565b505050565b600260009054906101000a900473ffffffffffffffffffffffffffffffffffffffff1681565b600061044233610624565b905060008111610487576040517f08c379a000000000000000000000000000000000000000000000000000000000815260040161047e9061124f565b60405180910390fd5b61058a33600160009054906101000a900473ffffffffffffffffffffffffffffffffffffffff1673ffffffffffffffffffffffffffffffffffffffff1663313ce5676040518163ffffffff1660e01b815260040160206040518083038186803b1580156104f357600080fd5b505afa158015610507573d6000803e3d6000fd5b505050506040513d601f19601f8201168201806040525081019061052b9190610fdb565b600a610537919061138f565b8361054291906114ad565b600160009054906101000a900473ffffffffffffffffffffffffffffffffffffffff1673ffffffffffffffffffffffffffffffffffffffff16610a379092919063ffffffff16565b600260009054906101000a900473ffffffffffffffffffffffffffffffffffffffff1673ffffffffffffffffffffffffffffffffffffffff166346903137336040518263ffffffff1660e01b81526004016105e59190611193565b600060405180830381600087803b1580156105ff57600080fd5b505af1158015610613573d6000803e3d6000fd5b5050505050565b6000600354905090565b6000600260009054906101000a900473ffffffffffffffffffffffffffffffffffffffff1673ffffffffffffffffffffffffffffffffffffffff1663bc173cd9836040518263ffffffff1660e01b81526004016106819190611193565b60206040518083038186803b15801561069957600080fd5b505afa1580156106ad573d6000803e3d6000fd5b505050506040513d601f19601f820116820180604052508101906106d19190610fb2565b9050919050565b6106e0610a2f565b73ffffffffffffffffffffffffffffffffffffffff166106fe610760565b73ffffffffffffffffffffffffffffffffffffffff1614610754576040517f08c379a000000000000000000000000000000000000000000000000000000000815260040161074b9061128f565b60405180910390fd5b61075e6000610abd565b565b60008060009054906101000a900473ffffffffffffffffffffffffffffffffffffffff16905090565b600160009054906101000a900473ffffffffffffffffffffffffffffffffffffffff1681565b600260009054906101000a900473ffffffffffffffffffffffffffffffffffffffff1673ffffffffffffffffffffffffffffffffffffffff16633b6dde13336040518263ffffffff1660e01b815260040161080a9190611193565b602060405180830381600087803b15801561082457600080fd5b505af1158015610838573d6000803e3d6000fd5b505050506040513d601f19601f8201168201806040525081019061085c9190610ee8565b506003600081548092919061087090611605565b9190505550565b61087f610a2f565b73ffffffffffffffffffffffffffffffffffffffff1661089d610760565b73ffffffffffffffffffffffffffffffffffffffff16146108f3576040517f08c379a00000000000000000000000000000000000000000000000000000000081526004016108ea9061128f565b60405180910390fd5b80600260006101000a81548173ffffffffffffffffffffffffffffffffffffffff021916908373ffffffffffffffffffffffffffffffffffffffff16021790555050565b61093f610a2f565b73ffffffffffffffffffffffffffffffffffffffff1661095d610760565b73ffffffffffffffffffffffffffffffffffffffff16146109b3576040517f08c379a00000000000000000000000000000000000000000000000000000000081526004016109aa9061128f565b60405180910390fd5b600073ffffffffffffffffffffffffffffffffffffffff168173ffffffffffffffffffffffffffffffffffffffff161415610a23576040517f08c379a0000000000000000000000000000000000000000000000000000000008152600401610a1a9061122f565b60405180910390fd5b610a2c81610abd565b50565b600033905090565b610ab88363a9059cbb60e01b8484604051602401610a569291906111ae565b604051602081830303815290604052907bffffffffffffffffffffffffffffffffffffffffffffffffffffffff19166020820180517bffffffffffffffffffffffffffffffffffffffffffffffffffffffff8381831617835250505050610b81565b505050565b60008060009054906101000a900473ffffffffffffffffffffffffffffffffffffffff169050816000806101000a81548173ffffffffffffffffffffffffffffffffffffffff021916908373ffffffffffffffffffffffffffffffffffffffff1602179055508173ffffffffffffffffffffffffffffffffffffffff168173ffffffffffffffffffffffffffffffffffffffff167f8be0079c531659141344cd1fd0a4f28419497f9722a3daafe3b4186f6b6457e060405160405180910390a35050565b6000610be3826040518060400160405280602081526020017f5361666545524332303a206c6f772d6c6576656c2063616c6c206661696c65648152508573ffffffffffffffffffffffffffffffffffffffff16610c489092919063ffffffff16565b9050600081511115610c435780806020019051810190610c039190610ebf565b610c42576040517f08c379a0000000000000000000000000000000000000000000000000000000008152600401610c39906112cf565b60405180910390fd5b5b505050565b6060610c578484600085610c60565b90509392505050565b606082471015610ca5576040517f08c379a0000000000000000000000000000000000000000000000000000000008152600401610c9c9061126f565b60405180910390fd5b610cae85610d74565b610ced576040517f08c379a0000000000000000000000000000000000000000000000000000000008152600401610ce4906112af565b60405180910390fd5b6000808673ffffffffffffffffffffffffffffffffffffffff168587604051610d16919061117c565b60006040518083038185875af1925050503d8060008114610d53576040519150601f19603f3d011682016040523d82523d6000602084013e610d58565b606091505b5091509150610d68828286610d87565b92505050949350505050565b600080823b905060008111915050919050565b60608315610d9757829050610de7565b600083511115610daa5782518084602001fd5b816040517f08c379a0000000000000000000000000000000000000000000000000000000008152600401610dde919061120d565b60405180910390fd5b9392505050565b600081359050610dfd81611803565b92915050565b600081519050610e128161181a565b92915050565b600081519050610e2781611831565b92915050565b600081359050610e3c81611848565b92915050565b600081359050610e518161185f565b92915050565b600081359050610e6681611876565b92915050565b600081519050610e7b81611876565b92915050565b600081519050610e908161188d565b92915050565b600060208284031215610ea857600080fd5b6000610eb684828501610dee565b91505092915050565b600060208284031215610ed157600080fd5b6000610edf84828501610e03565b91505092915050565b600060208284031215610efa57600080fd5b6000610f0884828501610e18565b91505092915050565b600060208284031215610f2357600080fd5b6000610f3184828501610e2d565b91505092915050565b600080600060608486031215610f4f57600080fd5b6000610f5d86828701610e2d565b9350506020610f6e86828701610dee565b9250506040610f7f86828701610e57565b9150509250925092565b600060208284031215610f9b57600080fd5b6000610fa984828501610e42565b91505092915050565b600060208284031215610fc457600080fd5b6000610fd284828501610e6c565b91505092915050565b600060208284031215610fed57600080fd5b6000610ffb84828501610e81565b91505092915050565b61100d81611507565b82525050565b600061101e8261130a565b6110288185611320565b93506110388185602086016115d2565b80840191505092915050565b61104d8161158a565b82525050565b61105c816115ae565b82525050565b600061106d82611315565b611077818561132b565b93506110878185602086016115d2565b6110908161167d565b840191505092915050565b60006110a860268361132b565b91506110b38261169b565b604082019050919050565b60006110cb601e8361132b565b91506110d6826116ea565b602082019050919050565b60006110ee60268361132b565b91506110f982611713565b604082019050919050565b600061111160208361132b565b915061111c82611762565b602082019050919050565b6000611134601d8361132b565b915061113f8261178b565b602082019050919050565b6000611157602a8361132b565b9150611162826117b4565b604082019050919050565b61117681611573565b82525050565b60006111888284611013565b915081905092915050565b60006020820190506111a86000830184611004565b92915050565b60006040820190506111c36000830185611004565b6111d0602083018461116d565b9392505050565b60006020820190506111ec6000830184611044565b92915050565b60006020820190506112076000830184611053565b92915050565b600060208201905081810360008301526112278184611062565b905092915050565b600060208201905081810360008301526112488161109b565b9050919050565b60006020820190508181036000830152611268816110be565b9050919050565b60006020820190508181036000830152611288816110e1565b9050919050565b600060208201905081810360008301526112a881611104565b9050919050565b600060208201905081810360008301526112c881611127565b9050919050565b600060208201905081810360008301526112e88161114a565b9050919050565b6000602082019050611304600083018461116d565b92915050565b600081519050919050565b600081519050919050565b600081905092915050565b600082825260208201905092915050565b6000808291508390505b6001851115611386578086048111156113625761136161164e565b5b60018516156113715780820291505b808102905061137f8561168e565b9450611346565b94509492505050565b600061139a82611573565b91506113a58361157d565b92506113d27fffffffffffffffffffffffffffffffffffffffffffffffffffffffffffffffff84846113da565b905092915050565b6000826113ea57600190506114a6565b816113f857600090506114a6565b816001811461140e576002811461141857611447565b60019150506114a6565b60ff84111561142a5761142961164e565b5b8360020a9150848211156114415761144061164e565b5b506114a6565b5060208310610133831016604e8410600b841016171561147c5782820a9050838111156114775761147661164e565b5b6114a6565b611489848484600161133c565b925090508184048111156114a05761149f61164e565b5b81810290505b9392505050565b60006114b882611573565b91506114c383611573565b9250817fffffffffffffffffffffffffffffffffffffffffffffffffffffffffffffffff04831182151516156114fc576114fb61164e565b5b828202905092915050565b600061151282611553565b9050919050565b60008115159050919050565b6000819050919050565b600061153a82611507565b9050919050565b600061154c82611507565b9050919050565b600073ffffffffffffffffffffffffffffffffffffffff82169050919050565b6000819050919050565b600060ff82169050919050565b60006115958261159c565b9050919050565b60006115a782611553565b9050919050565b60006115b9826115c0565b9050919050565b60006115cb82611553565b9050919050565b60005b838110156115f05780820151818401526020810190506115d5565b838111156115ff576000848401525b50505050565b600061161082611573565b91507fffffffffffffffffffffffffffffffffffffffffffffffffffffffffffffffff8214156116435761164261164e565b5b600182019050919050565b7f4e487b7100000000000000000000000000000000000000000000000000000000600052601160045260246000fd5b6000601f19601f8301169050919050565b60008160011c9050919050565b7f4f776e61626c653a206e6577206f776e657220697320746865207a65726f206160008201527f6464726573730000000000000000000000000000000000000000000000000000602082015250565b7f5468657265206172652063757272656e746c79206e6f20726577617264730000600082015250565b7f416464726573733a20696e73756666696369656e742062616c616e636520666f60008201527f722063616c6c0000000000000000000000000000000000000000000000000000602082015250565b7f4f776e61626c653a2063616c6c6572206973206e6f7420746865206f776e6572600082015250565b7f416464726573733a2063616c6c20746f206e6f6e2d636f6e7472616374000000600082015250565b7f5361666545524332303a204552433230206f7065726174696f6e20646964206e60008201527f6f74207375636365656400000000000000000000000000000000000000000000602082015250565b61180c81611507565b811461181757600080fd5b50565b61182381611519565b811461182e57600080fd5b50565b61183a81611525565b811461184557600080fd5b50565b6118518161152f565b811461185c57600080fd5b50565b61186881611541565b811461187357600080fd5b50565b61187f81611573565b811461188a57600080fd5b50565b6118968161157d565b81146118a157600080fd5b5056fea2646970667358221220372b18b3185ff2fac873d12ecd2eb6424ddba65e246b863d4efd15a884c9da6364736f6c6343000804003360c06040523480156200001157600080fd5b50604051620017e2380380620017e2833981810160405281019062000037919062000225565b73dd3782915140c8f3b190b5d67eac6dc5760c46e973a36085f69e2889c224210f603d836748e7dc00888173ffffffffffffffffffffffffffffffffffffffff1660a08173ffffffffffffffffffffffffffffffffffffffff1660601b815250508073ffffffffffffffffffffffffffffffffffffffff1660808173ffffffffffffffffffffffffffffffffffffffff1660601b815250505050620000f1620000e56200014060201b60201c565b6200014860201b60201c565b81600781905550806008819055507f6c3699283bda56ad74f6b855546325b68d482e983852a7a82979cc4807b641f460001b60028190555067016345785d8a000060038190555050506200028a565b600033905090565b6000600160009054906101000a900473ffffffffffffffffffffffffffffffffffffffff16905081600160006101000a81548173ffffffffffffffffffffffffffffffffffffffff021916908373ffffffffffffffffffffffffffffffffffffffff1602179055508173ffffffffffffffffffffffffffffffffffffffff168173ffffffffffffffffffffffffffffffffffffffff167f8be0079c531659141344cd1fd0a4f28419497f9722a3daafe3b4186f6b6457e060405160405180910390a35050565b6000815190506200021f8162000270565b92915050565b600080604083850312156200023957600080fd5b600062000249858286016200020e565b92505060206200025c858286016200020e565b9150509250929050565b6000819050919050565b6200027b8162000266565b81146200028757600080fd5b50565b60805160601c60a05160601c61151e620002c460003960008181610681015261092001526000818161021c01526108e4015261151e6000f3fe608060405234801561001057600080fd5b50600436106100885760003560e01c80638da5cb5b1161005b5780638da5cb5b1461011357806394985ddd14610131578063bc173cd91461014d578063f2fde38b1461017d57610088565b80633b6dde131461008d57806346903137146100bd578063682904a5146100d9578063715018a614610109575b600080fd5b6100a760048036038101906100a29190610d0b565b610199565b6040516100b49190611037565b60405180910390f35b6100d760048036038101906100d29190610d0b565b61036b565b005b6100f360048036038101906100ee9190610d99565b61042f565b6040516101009190611015565b60405180910390f35b6101116105cd565b005b61011b610655565b6040516101289190610fbc565b60405180910390f35b61014b60048036038101906101469190610d5d565b61067f565b005b61016760048036038101906101629190610d0b565b61071b565b6040516101749190611140565b60405180910390f35b61019760048036038101906101929190610d0b565b6107e0565b005b60006101a36108d8565b73ffffffffffffffffffffffffffffffffffffffff166101c1610655565b73ffffffffffffffffffffffffffffffffffffffff1614610217576040517f08c379a000000000000000000000000000000000000000000000000000000000815260040161020e90611100565b60405180910390fd5b6003547f000000000000000000000000000000000000000000000000000000000000000073ffffffffffffffffffffffffffffffffffffffff166370a08231306040518263ffffffff1660e01b81526004016102739190610fbc565b60206040518083038186803b15801561028b57600080fd5b505afa15801561029f573d6000803e3d6000fd5b505050506040513d601f19601f820116820180604052508101906102c39190610dc2565b1015610304576040517f08c379a00000000000000000000000000000000000000000000000000000000081526004016102fb906110e0565b60405180910390fd5b6103126002546003546108e0565b9050816006600083815260200190815260200160002060006101000a81548173ffffffffffffffffffffffffffffffffffffffff021916908373ffffffffffffffffffffffffffffffffffffffff160217905550919050565b6103736108d8565b73ffffffffffffffffffffffffffffffffffffffff16610391610655565b73ffffffffffffffffffffffffffffffffffffffff16146103e7576040517f08c379a00000000000000000000000000000000000000000000000000000000081526004016103de90611100565b60405180910390fd5b6000600560008373ffffffffffffffffffffffffffffffffffffffff1673ffffffffffffffffffffffffffffffffffffffff1681526020019081526020016000208190555050565b60606104396108d8565b73ffffffffffffffffffffffffffffffffffffffff16610457610655565b73ffffffffffffffffffffffffffffffffffffffff16146104ad576040517f08c379a00000000000000000000000000000000000000000000000000000000081526004016104a490611100565b60405180910390fd5b8167ffffffffffffffff8111156104ed577f4e487b7100000000000000000000000000000000000000000000000000000000600052604160045260246000fd5b60405190808252806020026020018201604052801561051b5781602001602082028036833780820191505090505b50905060005b828110156105c757600160326004548360405160200161054292919061115b565b6040516020818303038152906040528051906020012060001c6105659190611322565b61056f91906111ea565b8282815181106105a8577f4e487b7100000000000000000000000000000000000000000000000000000000600052603260045260246000fd5b60200260200101818152505080806105bf906112c5565b915050610521565b50919050565b6105d56108d8565b73ffffffffffffffffffffffffffffffffffffffff166105f3610655565b73ffffffffffffffffffffffffffffffffffffffff1614610649576040517f08c379a000000000000000000000000000000000000000000000000000000000815260040161064090611100565b60405180910390fd5b6106536000610a3f565b565b6000600160009054906101000a900473ffffffffffffffffffffffffffffffffffffffff16905090565b7f000000000000000000000000000000000000000000000000000000000000000073ffffffffffffffffffffffffffffffffffffffff163373ffffffffffffffffffffffffffffffffffffffff161461070d576040517f08c379a000000000000000000000000000000000000000000000000000000000815260040161070490611120565b60405180910390fd5b6107178282610b05565b5050565b60006107256108d8565b73ffffffffffffffffffffffffffffffffffffffff16610743610655565b73ffffffffffffffffffffffffffffffffffffffff1614610799576040517f08c379a000000000000000000000000000000000000000000000000000000000815260040161079090611100565b60405180910390fd5b600560008373ffffffffffffffffffffffffffffffffffffffff1673ffffffffffffffffffffffffffffffffffffffff168152602001908152602001600020549050919050565b6107e86108d8565b73ffffffffffffffffffffffffffffffffffffffff16610806610655565b73ffffffffffffffffffffffffffffffffffffffff161461085c576040517f08c379a000000000000000000000000000000000000000000000000000000000815260040161085390611100565b60405180910390fd5b600073ffffffffffffffffffffffffffffffffffffffff168173ffffffffffffffffffffffffffffffffffffffff1614156108cc576040517f08c379a00000000000000000000000000000000000000000000000000000000081526004016108c3906110c0565b60405180910390fd5b6108d581610a3f565b50565b600033905090565b60007f000000000000000000000000000000000000000000000000000000000000000073ffffffffffffffffffffffffffffffffffffffff16634000aea07f000000000000000000000000000000000000000000000000000000000000000084866000604051602001610954929190611052565b6040516020818303038152906040526040518463ffffffff1660e01b815260040161098193929190610fd7565b602060405180830381600087803b15801561099b57600080fd5b505af11580156109af573d6000803e3d6000fd5b505050506040513d601f19601f820116820180604052508101906109d39190610d34565b5060006109f58460003060008089815260200190815260200160002054610bad565b9050600160008086815260200190815260200160002054610a1691906111ea565b60008086815260200190815260200160002081905550610a368482610be9565b91505092915050565b6000600160009054906101000a900473ffffffffffffffffffffffffffffffffffffffff16905081600160006101000a81548173ffffffffffffffffffffffffffffffffffffffff021916908373ffffffffffffffffffffffffffffffffffffffff1602179055508173ffffffffffffffffffffffffffffffffffffffff168173ffffffffffffffffffffffffffffffffffffffff167f8be0079c531659141344cd1fd0a4f28419497f9722a3daafe3b4186f6b6457e060405160405180910390a35050565b6000610b0f610c1c565b905060018183610b1f9190611322565b610b2991906111ea565b600481905550600454600560006006600087815260200190815260200160002060009054906101000a900473ffffffffffffffffffffffffffffffffffffffff1673ffffffffffffffffffffffffffffffffffffffff1673ffffffffffffffffffffffffffffffffffffffff16815260200190815260200160002081905550505050565b600084848484604051602001610bc6949392919061107b565b6040516020818303038152906040528051906020012060001c9050949350505050565b60008282604051602001610bfe929190610f90565b60405160208183030381529060405280519060200120905092915050565b6000610c266108d8565b73ffffffffffffffffffffffffffffffffffffffff16610c44610655565b73ffffffffffffffffffffffffffffffffffffffff1614610c9a576040517f08c379a0000000000000000000000000000000000000000000000000000000008152600401610c9190611100565b60405180910390fd5b600754905090565b600081359050610cb18161148c565b92915050565b600081519050610cc6816114a3565b92915050565b600081359050610cdb816114ba565b92915050565b600081359050610cf0816114d1565b92915050565b600081519050610d05816114d1565b92915050565b600060208284031215610d1d57600080fd5b6000610d2b84828501610ca2565b91505092915050565b600060208284031215610d4657600080fd5b6000610d5484828501610cb7565b91505092915050565b60008060408385031215610d7057600080fd5b6000610d7e85828601610ccc565b9250506020610d8f85828601610ce1565b9150509250929050565b600060208284031215610dab57600080fd5b6000610db984828501610ce1565b91505092915050565b600060208284031215610dd457600080fd5b6000610de284828501610cf6565b91505092915050565b6000610df78383610f5b565b60208301905092915050565b610e0c81611240565b82525050565b6000610e1d82611194565b610e2781856111b7565b9350610e3283611184565b8060005b83811015610e63578151610e4a8882610deb565b9750610e55836111aa565b925050600181019050610e36565b5085935050505092915050565b610e798161125e565b82525050565b610e90610e8b8261125e565b61130e565b82525050565b6000610ea18261119f565b610eab81856111c8565b9350610ebb818560208601611292565b610ec4816113b1565b840191505092915050565b6000610edc6026836111d9565b9150610ee7826113c2565b604082019050919050565b6000610eff600f836111d9565b9150610f0a82611411565b602082019050919050565b6000610f226020836111d9565b9150610f2d8261143a565b602082019050919050565b6000610f45601f836111d9565b9150610f5082611463565b602082019050919050565b610f6481611288565b82525050565b610f7381611288565b82525050565b610f8a610f8582611288565b611318565b82525050565b6000610f9c8285610e7f565b602082019150610fac8284610f79565b6020820191508190509392505050565b6000602082019050610fd16000830184610e03565b92915050565b6000606082019050610fec6000830186610e03565b610ff96020830185610f6a565b818103604083015261100b8184610e96565b9050949350505050565b6000602082019050818103600083015261102f8184610e12565b905092915050565b600060208201905061104c6000830184610e70565b92915050565b60006040820190506110676000830185610e70565b6110746020830184610f6a565b9392505050565b60006080820190506110906000830187610e70565b61109d6020830186610f6a565b6110aa6040830185610e03565b6110b76060830184610f6a565b95945050505050565b600060208201905081810360008301526110d981610ecf565b9050919050565b600060208201905081810360008301526110f981610ef2565b9050919050565b6000602082019050818103600083015261111981610f15565b9050919050565b6000602082019050818103600083015261113981610f38565b9050919050565b60006020820190506111556000830184610f6a565b92915050565b60006040820190506111706000830185610f6a565b61117d6020830184610f6a565b9392505050565b6000819050602082019050919050565b600081519050919050565b600081519050919050565b6000602082019050919050565b600082825260208201905092915050565b600082825260208201905092915050565b600082825260208201905092915050565b60006111f582611288565b915061120083611288565b9250827fffffffffffffffffffffffffffffffffffffffffffffffffffffffffffffffff0382111561123557611234611353565b5b828201905092915050565b600061124b82611268565b9050919050565b60008115159050919050565b6000819050919050565b600073ffffffffffffffffffffffffffffffffffffffff82169050919050565b6000819050919050565b60005b838110156112b0578082015181840152602081019050611295565b838111156112bf576000848401525b50505050565b60006112d082611288565b91507fffffffffffffffffffffffffffffffffffffffffffffffffffffffffffffffff82141561130357611302611353565b5b600182019050919050565b6000819050919050565b6000819050919050565b600061132d82611288565b915061133883611288565b92508261134857611347611382565b5b828206905092915050565b7f4e487b7100000000000000000000000000000000000000000000000000000000600052601160045260246000fd5b7f4e487b7100000000000000000000000000000000000000000000000000000000600052601260045260246000fd5b6000601f19601f8301169050919050565b7f4f776e61626c653a206e6577206f776e657220697320746865207a65726f206160008201527f6464726573730000000000000000000000000000000000000000000000000000602082015250565b7f4e6f7420656e6f756768204c494e4b0000000000000000000000000000000000600082015250565b7f4f776e61626c653a2063616c6c6572206973206e6f7420746865206f776e6572600082015250565b7f4f6e6c7920565246436f6f7264696e61746f722063616e2066756c66696c6c00600082015250565b61149581611240565b81146114a057600080fd5b50565b6114ac81611252565b81146114b757600080fd5b50565b6114c38161125e565b81146114ce57600080fd5b50565b6114da81611288565b81146114e557600080fd5b5056fea264697066735822122054c8e4dc119d47273e1a3da8696bd2946384f506ffc743e66f2483c5873cf0ff64736f6c63430008040033",
  "linkReferences": {},
  "deployedLinkReferences": {}
}