{
  "_format": "hh-sol-artifact-1",
  "contractName": "GrabARedEnvelope",
  "sourceName": "contracts/RandomNumberConsumer.sol",
  "abi": [
    {
      "inputs": [
        {
          "internalType": "contract RandomNumberConsumer",
          "name": "_randomNumberConsumer",
          "type": "address"
        },
        {
          "internalType": "contract ERC20",
          "name": "_tokenAddress",
          "type": "address"
        }
      ],
      "stateMutability": "nonpayable",
      "type": "constructor"
    },
    {
      "anonymous": false,
      "inputs": [
        {
          "indexed": true,
          "internalType": "address",
          "name": "previousOwner",
          "type": "address"
        },
        {
          "indexed": true,
          "internalType": "address",
          "name": "newOwner",
          "type": "address"
        }
      ],
      "name": "OwnershipTransferred",
      "type": "event"
    },
    {
      "inputs": [],
      "name": "getReceivingUsers",
      "outputs": [
        {
          "internalType": "uint256",
          "name": "",
          "type": "uint256"
        }
      ],
      "stateMutability": "view",
      "type": "function"
    },
    {
      "inputs": [
        {
          "internalType": "address",
          "name": "_userAddress",
          "type": "address"
        }
      ],
      "name": "getUser",
      "outputs": [
        {
          "internalType": "uint256",
          "name": "",
          "type": "uint256"
        }
      ],
      "stateMutability": "view",
      "type": "function"
    },
    {
      "inputs": [],
      "name": "obtainBonus",
      "outputs": [],
      "stateMutability": "nonpayable",
      "type": "function"
    },
    {
      "inputs": [],
      "name": "owner",
      "outputs": [
        {
          "internalType": "address",
          "name": "",
          "type": "address"
        }
      ],
      "stateMutability": "view",
      "type": "function"
    },
    {
      "inputs": [],
      "name": "renounceOwnership",
      "outputs": [],
      "stateMutability": "nonpayable",
      "type": "function"
    },
    {
      "inputs": [
        {
          "internalType": "address",
          "name": "newOwner",
          "type": "address"
        }
      ],
      "name": "transferOwnership",
      "outputs": [],
      "stateMutability": "nonpayable",
      "type": "function"
    },
    {
      "inputs": [],
      "name": "userReceive",
      "outputs": [],
      "stateMutability": "nonpayable",
      "type": "function"
    }
  ],
  "bytecode": "0x60806040523480156200001157600080fd5b5060405162001546380380620015468339818101604052810190620000379190620001db565b620000576200004b620000e160201b60201c565b620000e960201b60201c565b81600260006101000a81548173ffffffffffffffffffffffffffffffffffffffff021916908373ffffffffffffffffffffffffffffffffffffffff16021790555080600160006101000a81548173ffffffffffffffffffffffffffffffffffffffff021916908373ffffffffffffffffffffffffffffffffffffffff1602179055505050620002ac565b600033905090565b60008060009054906101000a900473ffffffffffffffffffffffffffffffffffffffff169050816000806101000a81548173ffffffffffffffffffffffffffffffffffffffff021916908373ffffffffffffffffffffffffffffffffffffffff1602179055508173ffffffffffffffffffffffffffffffffffffffff168173ffffffffffffffffffffffffffffffffffffffff167f8be0079c531659141344cd1fd0a4f28419497f9722a3daafe3b4186f6b6457e060405160405180910390a35050565b600081519050620001be8162000278565b92915050565b600081519050620001d58162000292565b92915050565b60008060408385031215620001ef57600080fd5b6000620001ff85828601620001c4565b92505060206200021285828601620001ad565b9150509250929050565b6000620002298262000258565b9050919050565b60006200023d826200021c565b9050919050565b600062000251826200021c565b9050919050565b600073ffffffffffffffffffffffffffffffffffffffff82169050919050565b620002838162000230565b81146200028f57600080fd5b50565b6200029d8162000244565b8114620002a957600080fd5b50565b61128a80620002bc6000396000f3fe608060405234801561001057600080fd5b506004361061007d5760003560e01c8063715018a61161005b578063715018a6146100da5780638da5cb5b146100e4578063dd301b0b14610102578063f2fde38b1461010c5761007d565b80634b6c62d91461008257806353a597141461008c5780636f77926b146100aa575b600080fd5b61008a610128565b005b61009461027e565b6040516100a19190610d39565b60405180910390f35b6100c460048036038101906100bf91906109d5565b610288565b6040516100d19190610d39565b60405180910390f35b6100e261033c565b005b6100ec6103c4565b6040516100f99190610c13565b60405180910390f35b61010a6103ed565b005b610126600480360381019061012191906109d5565b6104b5565b005b600061013333610288565b905060008111610178576040517f08c379a000000000000000000000000000000000000000000000000000000000815260040161016f90610c99565b60405180910390fd5b61027b33600160009054906101000a900473ffffffffffffffffffffffffffffffffffffffff1673ffffffffffffffffffffffffffffffffffffffff1663313ce5676040518163ffffffff1660e01b815260040160206040518083038186803b1580156101e457600080fd5b505afa1580156101f8573d6000803e3d6000fd5b505050506040513d601f19601f8201168201806040525081019061021c9190610a79565b600a6102289190610dd9565b836102339190610ef7565b600160009054906101000a900473ffffffffffffffffffffffffffffffffffffffff1673ffffffffffffffffffffffffffffffffffffffff166105ad9092919063ffffffff16565b50565b6000600354905090565b6000600260009054906101000a900473ffffffffffffffffffffffffffffffffffffffff1673ffffffffffffffffffffffffffffffffffffffff1663bc173cd9836040518263ffffffff1660e01b81526004016102e59190610c13565b60206040518083038186803b1580156102fd57600080fd5b505afa158015610311573d6000803e3d6000fd5b505050506040513d601f19601f820116820180604052508101906103359190610a50565b9050919050565b610344610633565b73ffffffffffffffffffffffffffffffffffffffff166103626103c4565b73ffffffffffffffffffffffffffffffffffffffff16146103b8576040517f08c379a00000000000000000000000000000000000000000000000000000000081526004016103af90610cd9565b60405180910390fd5b6103c2600061063b565b565b60008060009054906101000a900473ffffffffffffffffffffffffffffffffffffffff16905090565b600260009054906101000a900473ffffffffffffffffffffffffffffffffffffffff1673ffffffffffffffffffffffffffffffffffffffff16633b6dde13336040518263ffffffff1660e01b81526004016104489190610c13565b602060405180830381600087803b15801561046257600080fd5b505af1158015610476573d6000803e3d6000fd5b505050506040513d601f19601f8201168201806040525081019061049a9190610a27565b50600360008154809291906104ae90610fe3565b9190505550565b6104bd610633565b73ffffffffffffffffffffffffffffffffffffffff166104db6103c4565b73ffffffffffffffffffffffffffffffffffffffff1614610531576040517f08c379a000000000000000000000000000000000000000000000000000000000815260040161052890610cd9565b60405180910390fd5b600073ffffffffffffffffffffffffffffffffffffffff168173ffffffffffffffffffffffffffffffffffffffff1614156105a1576040517f08c379a000000000000000000000000000000000000000000000000000000000815260040161059890610c79565b60405180910390fd5b6105aa8161063b565b50565b61062e8363a9059cbb60e01b84846040516024016105cc929190610c2e565b604051602081830303815290604052907bffffffffffffffffffffffffffffffffffffffffffffffffffffffff19166020820180517bffffffffffffffffffffffffffffffffffffffffffffffffffffffff83818316178352505050506106ff565b505050565b600033905090565b60008060009054906101000a900473ffffffffffffffffffffffffffffffffffffffff169050816000806101000a81548173ffffffffffffffffffffffffffffffffffffffff021916908373ffffffffffffffffffffffffffffffffffffffff1602179055508173ffffffffffffffffffffffffffffffffffffffff168173ffffffffffffffffffffffffffffffffffffffff167f8be0079c531659141344cd1fd0a4f28419497f9722a3daafe3b4186f6b6457e060405160405180910390a35050565b6000610761826040518060400160405280602081526020017f5361666545524332303a206c6f772d6c6576656c2063616c6c206661696c65648152508573ffffffffffffffffffffffffffffffffffffffff166107c69092919063ffffffff16565b90506000815111156107c1578080602001905181019061078191906109fe565b6107c0576040517f08c379a00000000000000000000000000000000000000000000000000000000081526004016107b790610d19565b60405180910390fd5b5b505050565b60606107d584846000856107de565b90509392505050565b606082471015610823576040517f08c379a000000000000000000000000000000000000000000000000000000000815260040161081a90610cb9565b60405180910390fd5b61082c856108f2565b61086b576040517f08c379a000000000000000000000000000000000000000000000000000000000815260040161086290610cf9565b60405180910390fd5b6000808673ffffffffffffffffffffffffffffffffffffffff1685876040516108949190610bfc565b60006040518083038185875af1925050503d80600081146108d1576040519150601f19603f3d011682016040523d82523d6000602084013e6108d6565b606091505b50915091506108e6828286610905565b92505050949350505050565b600080823b905060008111915050919050565b6060831561091557829050610965565b6000835111156109285782518084602001fd5b816040517f08c379a000000000000000000000000000000000000000000000000000000000815260040161095c9190610c57565b60405180910390fd5b9392505050565b60008135905061097b816111e1565b92915050565b600081519050610990816111f8565b92915050565b6000815190506109a58161120f565b92915050565b6000815190506109ba81611226565b92915050565b6000815190506109cf8161123d565b92915050565b6000602082840312156109e757600080fd5b60006109f58482850161096c565b91505092915050565b600060208284031215610a1057600080fd5b6000610a1e84828501610981565b91505092915050565b600060208284031215610a3957600080fd5b6000610a4784828501610996565b91505092915050565b600060208284031215610a6257600080fd5b6000610a70848285016109ab565b91505092915050565b600060208284031215610a8b57600080fd5b6000610a99848285016109c0565b91505092915050565b610aab81610f51565b82525050565b6000610abc82610d54565b610ac68185610d6a565b9350610ad6818560208601610fb0565b80840191505092915050565b6000610aed82610d5f565b610af78185610d75565b9350610b07818560208601610fb0565b610b108161105b565b840191505092915050565b6000610b28602683610d75565b9150610b3382611079565b604082019050919050565b6000610b4b601e83610d75565b9150610b56826110c8565b602082019050919050565b6000610b6e602683610d75565b9150610b79826110f1565b604082019050919050565b6000610b91602083610d75565b9150610b9c82611140565b602082019050919050565b6000610bb4601d83610d75565b9150610bbf82611169565b602082019050919050565b6000610bd7602a83610d75565b9150610be282611192565b604082019050919050565b610bf681610f99565b82525050565b6000610c088284610ab1565b915081905092915050565b6000602082019050610c286000830184610aa2565b92915050565b6000604082019050610c436000830185610aa2565b610c506020830184610bed565b9392505050565b60006020820190508181036000830152610c718184610ae2565b905092915050565b60006020820190508181036000830152610c9281610b1b565b9050919050565b60006020820190508181036000830152610cb281610b3e565b9050919050565b60006020820190508181036000830152610cd281610b61565b9050919050565b60006020820190508181036000830152610cf281610b84565b9050919050565b60006020820190508181036000830152610d1281610ba7565b9050919050565b60006020820190508181036000830152610d3281610bca565b9050919050565b6000602082019050610d4e6000830184610bed565b92915050565b600081519050919050565b600081519050919050565b600081905092915050565b600082825260208201905092915050565b6000808291508390505b6001851115610dd057808604811115610dac57610dab61102c565b5b6001851615610dbb5780820291505b8081029050610dc98561106c565b9450610d90565b94509492505050565b6000610de482610f99565b9150610def83610fa3565b9250610e1c7fffffffffffffffffffffffffffffffffffffffffffffffffffffffffffffffff8484610e24565b905092915050565b600082610e345760019050610ef0565b81610e425760009050610ef0565b8160018114610e585760028114610e6257610e91565b6001915050610ef0565b60ff841115610e7457610e7361102c565b5b8360020a915084821115610e8b57610e8a61102c565b5b50610ef0565b5060208310610133831016604e8410600b8410161715610ec65782820a905083811115610ec157610ec061102c565b5b610ef0565b610ed38484846001610d86565b92509050818404811115610eea57610ee961102c565b5b81810290505b9392505050565b6000610f0282610f99565b9150610f0d83610f99565b9250817fffffffffffffffffffffffffffffffffffffffffffffffffffffffffffffffff0483118215151615610f4657610f4561102c565b5b828202905092915050565b6000610f5c82610f79565b9050919050565b60008115159050919050565b6000819050919050565b600073ffffffffffffffffffffffffffffffffffffffff82169050919050565b6000819050919050565b600060ff82169050919050565b60005b83811015610fce578082015181840152602081019050610fb3565b83811115610fdd576000848401525b50505050565b6000610fee82610f99565b91507fffffffffffffffffffffffffffffffffffffffffffffffffffffffffffffffff8214156110215761102061102c565b5b600182019050919050565b7f4e487b7100000000000000000000000000000000000000000000000000000000600052601160045260246000fd5b6000601f19601f8301169050919050565b60008160011c9050919050565b7f4f776e61626c653a206e6577206f776e657220697320746865207a65726f206160008201527f6464726573730000000000000000000000000000000000000000000000000000602082015250565b7f5468657265206172652063757272656e746c79206e6f20726577617264730000600082015250565b7f416464726573733a20696e73756666696369656e742062616c616e636520666f60008201527f722063616c6c0000000000000000000000000000000000000000000000000000602082015250565b7f4f776e61626c653a2063616c6c6572206973206e6f7420746865206f776e6572600082015250565b7f416464726573733a2063616c6c20746f206e6f6e2d636f6e7472616374000000600082015250565b7f5361666545524332303a204552433230206f7065726174696f6e20646964206e60008201527f6f74207375636365656400000000000000000000000000000000000000000000602082015250565b6111ea81610f51565b81146111f557600080fd5b50565b61120181610f63565b811461120c57600080fd5b50565b61121881610f6f565b811461122357600080fd5b50565b61122f81610f99565b811461123a57600080fd5b50565b61124681610fa3565b811461125157600080fd5b5056fea264697066735822122057e19ba456932124eff6f3789e8841b06076e6ec81556ec326611470c4b0669f64736f6c63430008040033",
  "linkReferences": {},
  "deployedLinkReferences": {}
}