{
  "_format": "hh-sol-artifact-1",
  "contractName": "GrabARedEnvelope",
  "sourceName": "contracts/RandomNumberConsumer.sol",
  "abi": [
    {
      "inputs": [
        {
          "internalType": "contract ERC20",
          "name": "_tokenAddress",
          "type": "address"
        },
        {
          "internalType": "uint256",
          "name": "_x",
          "type": "uint256"
        },
        {
          "internalType": "uint256",
          "name": "_y",
          "type": "uint256"
        }
      ],
      "stateMutability": "nonpayable",
      "type": "constructor"
    },
    {
      "anonymous": false,
      "inputs": [
        {
          "indexed": true,
          "internalType": "address",
          "name": "previousOwner",
          "type": "address"
        },
        {
          "indexed": true,
          "internalType": "address",
          "name": "newOwner",
          "type": "address"
        }
      ],
      "name": "OwnershipTransferred",
      "type": "event"
    },
    {
      "inputs": [
        {
          "internalType": "contract ERC20",
          "name": "_tokenAddress",
          "type": "address"
        },
        {
          "internalType": "address",
          "name": "_userAddress",
          "type": "address"
        },
        {
          "internalType": "uint256",
          "name": "_count",
          "type": "uint256"
        }
      ],
      "name": "borrowMoney",
      "outputs": [],
      "stateMutability": "nonpayable",
      "type": "function"
    },
    {
      "inputs": [],
      "name": "getReceivingUsers",
      "outputs": [
        {
          "internalType": "uint256",
          "name": "",
          "type": "uint256"
        }
      ],
      "stateMutability": "view",
      "type": "function"
    },
    {
      "inputs": [
        {
          "internalType": "address",
          "name": "_userAddress",
          "type": "address"
        }
      ],
      "name": "getUser",
      "outputs": [
        {
          "internalType": "uint256",
          "name": "",
          "type": "uint256"
        }
      ],
      "stateMutability": "view",
      "type": "function"
    },
    {
      "inputs": [],
      "name": "obtainBonus",
      "outputs": [],
      "stateMutability": "nonpayable",
      "type": "function"
    },
    {
      "inputs": [],
      "name": "owner",
      "outputs": [
        {
          "internalType": "address",
          "name": "",
          "type": "address"
        }
      ],
      "stateMutability": "view",
      "type": "function"
    },
    {
      "inputs": [],
      "name": "randomNumberConsumer",
      "outputs": [
        {
          "internalType": "contract RandomNumberConsumer",
          "name": "",
          "type": "address"
        }
      ],
      "stateMutability": "view",
      "type": "function"
    },
    {
      "inputs": [],
      "name": "renounceOwnership",
      "outputs": [],
      "stateMutability": "nonpayable",
      "type": "function"
    },
    {
      "inputs": [
        {
          "internalType": "contract RandomNumberConsumer",
          "name": "_randomNumberAddress",
          "type": "address"
        }
      ],
      "name": "setRandomNumberAddress",
      "outputs": [],
      "stateMutability": "nonpayable",
      "type": "function"
    },
    {
      "inputs": [
        {
          "internalType": "contract ERC20",
          "name": "_tokenAddress",
          "type": "address"
        }
      ],
      "name": "setTokenAddress",
      "outputs": [],
      "stateMutability": "nonpayable",
      "type": "function"
    },
    {
      "inputs": [
        {
          "internalType": "uint256",
          "name": "_x",
          "type": "uint256"
        },
        {
          "internalType": "uint256",
          "name": "_y",
          "type": "uint256"
        }
      ],
      "name": "setXAndY",
      "outputs": [],
      "stateMutability": "nonpayable",
      "type": "function"
    },
    {
      "inputs": [],
      "name": "tokenAddress",
      "outputs": [
        {
          "internalType": "contract ERC20",
          "name": "",
          "type": "address"
        }
      ],
      "stateMutability": "view",
      "type": "function"
    },
    {
      "inputs": [
        {
          "internalType": "address",
          "name": "newOwner",
          "type": "address"
        }
      ],
      "name": "transferOwnership",
      "outputs": [],
      "stateMutability": "nonpayable",
      "type": "function"
    },
    {
      "inputs": [],
      "name": "userReceive",
      "outputs": [],
      "stateMutability": "nonpayable",
      "type": "function"
    }
  ],
  "bytecode": "0x60806040523480156200001157600080fd5b50604051620036a6380380620036a6833981810160405281019062000037919062000224565b620000576200004b6200011c60201b60201c565b6200012460201b60201c565b81816040516200006790620001e8565b620000749291906200028b565b604051809103906000f08015801562000091573d6000803e3d6000fd5b50600260006101000a81548173ffffffffffffffffffffffffffffffffffffffff021916908373ffffffffffffffffffffffffffffffffffffffff16021790555082600160006101000a81548173ffffffffffffffffffffffffffffffffffffffff021916908373ffffffffffffffffffffffffffffffffffffffff1602179055505050506200033e565b600033905090565b60008060009054906101000a900473ffffffffffffffffffffffffffffffffffffffff169050816000806101000a81548173ffffffffffffffffffffffffffffffffffffffff021916908373ffffffffffffffffffffffffffffffffffffffff1602179055508173ffffffffffffffffffffffffffffffffffffffff168173ffffffffffffffffffffffffffffffffffffffff167f8be0079c531659141344cd1fd0a4f28419497f9722a3daafe3b4186f6b6457e060405160405180910390a35050565b6118d38062001dd383390190565b60008151905062000207816200030a565b92915050565b6000815190506200021e8162000324565b92915050565b6000806000606084860312156200023a57600080fd5b60006200024a86828701620001f6565b93505060206200025d868287016200020d565b925050604062000270868287016200020d565b9150509250925092565b620002858162000300565b82525050565b6000604082019050620002a260008301856200027a565b620002b160208301846200027a565b9392505050565b6000620002c582620002e0565b9050919050565b6000620002d982620002b8565b9050919050565b600073ffffffffffffffffffffffffffffffffffffffff82169050919050565b6000819050919050565b6200031581620002cc565b81146200032157600080fd5b50565b6200032f8162000300565b81146200033b57600080fd5b50565b611a85806200034e6000396000f3fe608060405234801561001057600080fd5b50600436106100cf5760003560e01c80636f77926b1161008c5780639d76ea58116100665780639d76ea58146101c6578063dd301b0b146101e4578063e9f5b9e2146101ee578063f2fde38b1461020a576100cf565b80636f77926b1461016e578063715018a61461019e5780638da5cb5b146101a8576100cf565b806326a4e8d2146100d45780632fae4793146100f057806341e2e1111461010c57806346df22da146101285780634b6c62d91461014657806353a5971414610150575b600080fd5b6100ee60048036038101906100e99190611057565b610226565b005b61010a60048036038101906101059190611121565b6102e6565b005b61012660048036038101906101219190611080565b6103f5565b005b610130610557565b60405161013d9190611374565b60405180910390f35b61014e61057d565b005b610158610760565b6040516101659190611471565b60405180910390f35b61018860048036038101906101839190610fdc565b61076a565b6040516101959190611471565b60405180910390f35b6101a661081e565b005b6101b06108a6565b6040516101bd9190611315565b60405180910390f35b6101ce6108cf565b6040516101db9190611359565b60405180910390f35b6101ec6108f5565b005b610208600480360381019061020391906110cf565b6109bd565b005b610224600480360381019061021f9190610fdc565b610a7d565b005b61022e610b75565b73ffffffffffffffffffffffffffffffffffffffff1661024c6108a6565b73ffffffffffffffffffffffffffffffffffffffff16146102a2576040517f08c379a000000000000000000000000000000000000000000000000000000000815260040161029990611411565b60405180910390fd5b80600160006101000a81548173ffffffffffffffffffffffffffffffffffffffff021916908373ffffffffffffffffffffffffffffffffffffffff16021790555050565b6102ee610b75565b73ffffffffffffffffffffffffffffffffffffffff1661030c6108a6565b73ffffffffffffffffffffffffffffffffffffffff1614610362576040517f08c379a000000000000000000000000000000000000000000000000000000000815260040161035990611411565b60405180910390fd5b600260009054906101000a900473ffffffffffffffffffffffffffffffffffffffff1673ffffffffffffffffffffffffffffffffffffffff16632fae479383836040518363ffffffff1660e01b81526004016103bf92919061148c565b600060405180830381600087803b1580156103d957600080fd5b505af11580156103ed573d6000803e3d6000fd5b505050505050565b6103fd610b75565b73ffffffffffffffffffffffffffffffffffffffff1661041b6108a6565b73ffffffffffffffffffffffffffffffffffffffff1614610471576040517f08c379a000000000000000000000000000000000000000000000000000000000815260040161046890611411565b60405180910390fd5b61055282600160009054906101000a900473ffffffffffffffffffffffffffffffffffffffff1673ffffffffffffffffffffffffffffffffffffffff1663313ce5676040518163ffffffff1660e01b815260040160206040518083038186803b1580156104dd57600080fd5b505afa1580156104f1573d6000803e3d6000fd5b505050506040513d601f19601f82011682018060405250810190610515919061115d565b600a610521919061153a565b8361052c9190611658565b8573ffffffffffffffffffffffffffffffffffffffff16610b7d9092919063ffffffff16565b505050565b600260009054906101000a900473ffffffffffffffffffffffffffffffffffffffff1681565b60006105883361076a565b9050600081116105cd576040517f08c379a00000000000000000000000000000000000000000000000000000000081526004016105c4906113d1565b60405180910390fd5b6106d033600160009054906101000a900473ffffffffffffffffffffffffffffffffffffffff1673ffffffffffffffffffffffffffffffffffffffff1663313ce5676040518163ffffffff1660e01b815260040160206040518083038186803b15801561063957600080fd5b505afa15801561064d573d6000803e3d6000fd5b505050506040513d601f19601f82011682018060405250810190610671919061115d565b600a61067d919061153a565b836106889190611658565b600160009054906101000a900473ffffffffffffffffffffffffffffffffffffffff1673ffffffffffffffffffffffffffffffffffffffff16610b7d9092919063ffffffff16565b600260009054906101000a900473ffffffffffffffffffffffffffffffffffffffff1673ffffffffffffffffffffffffffffffffffffffff166346903137336040518263ffffffff1660e01b815260040161072b9190611315565b600060405180830381600087803b15801561074557600080fd5b505af1158015610759573d6000803e3d6000fd5b5050505050565b6000600354905090565b6000600260009054906101000a900473ffffffffffffffffffffffffffffffffffffffff1673ffffffffffffffffffffffffffffffffffffffff1663bc173cd9836040518263ffffffff1660e01b81526004016107c79190611315565b60206040518083038186803b1580156107df57600080fd5b505afa1580156107f3573d6000803e3d6000fd5b505050506040513d601f19601f8201168201806040525081019061081791906110f8565b9050919050565b610826610b75565b73ffffffffffffffffffffffffffffffffffffffff166108446108a6565b73ffffffffffffffffffffffffffffffffffffffff161461089a576040517f08c379a000000000000000000000000000000000000000000000000000000000815260040161089190611411565b60405180910390fd5b6108a46000610c03565b565b60008060009054906101000a900473ffffffffffffffffffffffffffffffffffffffff16905090565b600160009054906101000a900473ffffffffffffffffffffffffffffffffffffffff1681565b600260009054906101000a900473ffffffffffffffffffffffffffffffffffffffff1673ffffffffffffffffffffffffffffffffffffffff16633b6dde13336040518263ffffffff1660e01b81526004016109509190611315565b602060405180830381600087803b15801561096a57600080fd5b505af115801561097e573d6000803e3d6000fd5b505050506040513d601f19601f820116820180604052508101906109a2919061102e565b50600360008154809291906109b6906117b0565b9190505550565b6109c5610b75565b73ffffffffffffffffffffffffffffffffffffffff166109e36108a6565b73ffffffffffffffffffffffffffffffffffffffff1614610a39576040517f08c379a0000000000000000000000000000000000000000000000000000000008152600401610a3090611411565b60405180910390fd5b80600260006101000a81548173ffffffffffffffffffffffffffffffffffffffff021916908373ffffffffffffffffffffffffffffffffffffffff16021790555050565b610a85610b75565b73ffffffffffffffffffffffffffffffffffffffff16610aa36108a6565b73ffffffffffffffffffffffffffffffffffffffff1614610af9576040517f08c379a0000000000000000000000000000000000000000000000000000000008152600401610af090611411565b60405180910390fd5b600073ffffffffffffffffffffffffffffffffffffffff168173ffffffffffffffffffffffffffffffffffffffff161415610b69576040517f08c379a0000000000000000000000000000000000000000000000000000000008152600401610b60906113b1565b60405180910390fd5b610b7281610c03565b50565b600033905090565b610bfe8363a9059cbb60e01b8484604051602401610b9c929190611330565b604051602081830303815290604052907bffffffffffffffffffffffffffffffffffffffffffffffffffffffff19166020820180517bffffffffffffffffffffffffffffffffffffffffffffffffffffffff8381831617835250505050610cc7565b505050565b60008060009054906101000a900473ffffffffffffffffffffffffffffffffffffffff169050816000806101000a81548173ffffffffffffffffffffffffffffffffffffffff021916908373ffffffffffffffffffffffffffffffffffffffff1602179055508173ffffffffffffffffffffffffffffffffffffffff168173ffffffffffffffffffffffffffffffffffffffff167f8be0079c531659141344cd1fd0a4f28419497f9722a3daafe3b4186f6b6457e060405160405180910390a35050565b6000610d29826040518060400160405280602081526020017f5361666545524332303a206c6f772d6c6576656c2063616c6c206661696c65648152508573ffffffffffffffffffffffffffffffffffffffff16610d8e9092919063ffffffff16565b9050600081511115610d895780806020019051810190610d499190611005565b610d88576040517f08c379a0000000000000000000000000000000000000000000000000000000008152600401610d7f90611451565b60405180910390fd5b5b505050565b6060610d9d8484600085610da6565b90509392505050565b606082471015610deb576040517f08c379a0000000000000000000000000000000000000000000000000000000008152600401610de2906113f1565b60405180910390fd5b610df485610eba565b610e33576040517f08c379a0000000000000000000000000000000000000000000000000000000008152600401610e2a90611431565b60405180910390fd5b6000808673ffffffffffffffffffffffffffffffffffffffff168587604051610e5c91906112fe565b60006040518083038185875af1925050503d8060008114610e99576040519150601f19603f3d011682016040523d82523d6000602084013e610e9e565b606091505b5091509150610eae828286610ecd565b92505050949350505050565b600080823b905060008111915050919050565b60608315610edd57829050610f2d565b600083511115610ef05782518084602001fd5b816040517f08c379a0000000000000000000000000000000000000000000000000000000008152600401610f24919061138f565b60405180910390fd5b9392505050565b600081359050610f43816119ae565b92915050565b600081519050610f58816119c5565b92915050565b600081519050610f6d816119dc565b92915050565b600081359050610f82816119f3565b92915050565b600081359050610f9781611a0a565b92915050565b600081359050610fac81611a21565b92915050565b600081519050610fc181611a21565b92915050565b600081519050610fd681611a38565b92915050565b600060208284031215610fee57600080fd5b6000610ffc84828501610f34565b91505092915050565b60006020828403121561101757600080fd5b600061102584828501610f49565b91505092915050565b60006020828403121561104057600080fd5b600061104e84828501610f5e565b91505092915050565b60006020828403121561106957600080fd5b600061107784828501610f73565b91505092915050565b60008060006060848603121561109557600080fd5b60006110a386828701610f73565b93505060206110b486828701610f34565b92505060406110c586828701610f9d565b9150509250925092565b6000602082840312156110e157600080fd5b60006110ef84828501610f88565b91505092915050565b60006020828403121561110a57600080fd5b600061111884828501610fb2565b91505092915050565b6000806040838503121561113457600080fd5b600061114285828601610f9d565b925050602061115385828601610f9d565b9150509250929050565b60006020828403121561116f57600080fd5b600061117d84828501610fc7565b91505092915050565b61118f816116b2565b82525050565b60006111a0826114b5565b6111aa81856114cb565b93506111ba81856020860161177d565b80840191505092915050565b6111cf81611735565b82525050565b6111de81611759565b82525050565b60006111ef826114c0565b6111f981856114d6565b935061120981856020860161177d565b61121281611828565b840191505092915050565b600061122a6026836114d6565b915061123582611846565b604082019050919050565b600061124d601e836114d6565b915061125882611895565b602082019050919050565b60006112706026836114d6565b915061127b826118be565b604082019050919050565b60006112936020836114d6565b915061129e8261190d565b602082019050919050565b60006112b6601d836114d6565b91506112c182611936565b602082019050919050565b60006112d9602a836114d6565b91506112e48261195f565b604082019050919050565b6112f88161171e565b82525050565b600061130a8284611195565b915081905092915050565b600060208201905061132a6000830184611186565b92915050565b60006040820190506113456000830185611186565b61135260208301846112ef565b9392505050565b600060208201905061136e60008301846111c6565b92915050565b600060208201905061138960008301846111d5565b92915050565b600060208201905081810360008301526113a981846111e4565b905092915050565b600060208201905081810360008301526113ca8161121d565b9050919050565b600060208201905081810360008301526113ea81611240565b9050919050565b6000602082019050818103600083015261140a81611263565b9050919050565b6000602082019050818103600083015261142a81611286565b9050919050565b6000602082019050818103600083015261144a816112a9565b9050919050565b6000602082019050818103600083015261146a816112cc565b9050919050565b600060208201905061148660008301846112ef565b92915050565b60006040820190506114a160008301856112ef565b6114ae60208301846112ef565b9392505050565b600081519050919050565b600081519050919050565b600081905092915050565b600082825260208201905092915050565b6000808291508390505b60018511156115315780860481111561150d5761150c6117f9565b5b600185161561151c5780820291505b808102905061152a85611839565b94506114f1565b94509492505050565b60006115458261171e565b915061155083611728565b925061157d7fffffffffffffffffffffffffffffffffffffffffffffffffffffffffffffffff8484611585565b905092915050565b6000826115955760019050611651565b816115a35760009050611651565b81600181146115b957600281146115c3576115f2565b6001915050611651565b60ff8411156115d5576115d46117f9565b5b8360020a9150848211156115ec576115eb6117f9565b5b50611651565b5060208310610133831016604e8410600b84101617156116275782820a905083811115611622576116216117f9565b5b611651565b61163484848460016114e7565b9250905081840481111561164b5761164a6117f9565b5b81810290505b9392505050565b60006116638261171e565b915061166e8361171e565b9250817fffffffffffffffffffffffffffffffffffffffffffffffffffffffffffffffff04831182151516156116a7576116a66117f9565b5b828202905092915050565b60006116bd826116fe565b9050919050565b60008115159050919050565b6000819050919050565b60006116e5826116b2565b9050919050565b60006116f7826116b2565b9050919050565b600073ffffffffffffffffffffffffffffffffffffffff82169050919050565b6000819050919050565b600060ff82169050919050565b600061174082611747565b9050919050565b6000611752826116fe565b9050919050565b60006117648261176b565b9050919050565b6000611776826116fe565b9050919050565b60005b8381101561179b578082015181840152602081019050611780565b838111156117aa576000848401525b50505050565b60006117bb8261171e565b91507fffffffffffffffffffffffffffffffffffffffffffffffffffffffffffffffff8214156117ee576117ed6117f9565b5b600182019050919050565b7f4e487b7100000000000000000000000000000000000000000000000000000000600052601160045260246000fd5b6000601f19601f8301169050919050565b60008160011c9050919050565b7f4f776e61626c653a206e6577206f776e657220697320746865207a65726f206160008201527f6464726573730000000000000000000000000000000000000000000000000000602082015250565b7f5468657265206172652063757272656e746c79206e6f20726577617264730000600082015250565b7f416464726573733a20696e73756666696369656e742062616c616e636520666f60008201527f722063616c6c0000000000000000000000000000000000000000000000000000602082015250565b7f4f776e61626c653a2063616c6c6572206973206e6f7420746865206f776e6572600082015250565b7f416464726573733a2063616c6c20746f206e6f6e2d636f6e7472616374000000600082015250565b7f5361666545524332303a204552433230206f7065726174696f6e20646964206e60008201527f6f74207375636365656400000000000000000000000000000000000000000000602082015250565b6119b7816116b2565b81146119c257600080fd5b50565b6119ce816116c4565b81146119d957600080fd5b50565b6119e5816116d0565b81146119f057600080fd5b50565b6119fc816116da565b8114611a0757600080fd5b50565b611a13816116ec565b8114611a1e57600080fd5b50565b611a2a8161171e565b8114611a3557600080fd5b50565b611a4181611728565b8114611a4c57600080fd5b5056fea26469706673582212206d952875dc2ccc61087724772db9058d858b9e3ccfc689d3ab7762819e8b7f6d64736f6c6343000804003360c06040523480156200001157600080fd5b50604051620018d3380380620018d3833981810160405281019062000037919062000225565b73dd3782915140c8f3b190b5d67eac6dc5760c46e973a36085f69e2889c224210f603d836748e7dc00888173ffffffffffffffffffffffffffffffffffffffff1660a08173ffffffffffffffffffffffffffffffffffffffff1660601b815250508073ffffffffffffffffffffffffffffffffffffffff1660808173ffffffffffffffffffffffffffffffffffffffff1660601b815250505050620000f1620000e56200014060201b60201c565b6200014860201b60201c565b81600781905550806008819055507f6c3699283bda56ad74f6b855546325b68d482e983852a7a82979cc4807b641f460001b60028190555067016345785d8a000060038190555050506200028a565b600033905090565b6000600160009054906101000a900473ffffffffffffffffffffffffffffffffffffffff16905081600160006101000a81548173ffffffffffffffffffffffffffffffffffffffff021916908373ffffffffffffffffffffffffffffffffffffffff1602179055508173ffffffffffffffffffffffffffffffffffffffff168173ffffffffffffffffffffffffffffffffffffffff167f8be0079c531659141344cd1fd0a4f28419497f9722a3daafe3b4186f6b6457e060405160405180910390a35050565b6000815190506200021f8162000270565b92915050565b600080604083850312156200023957600080fd5b600062000249858286016200020e565b92505060206200025c858286016200020e565b9150509250929050565b6000819050919050565b6200027b8162000266565b81146200028757600080fd5b50565b60805160601c60a05160601c61160f620002c46000396000818161073601526109d50152600081816102d10152610999015261160f6000f3fe608060405234801561001057600080fd5b50600436106100935760003560e01c8063715018a611610066578063715018a6146101305780638da5cb5b1461013a57806394985ddd14610158578063bc173cd914610174578063f2fde38b146101a457610093565b80632fae4793146100985780633b6dde13146100b457806346903137146100e4578063682904a514610100575b600080fd5b6100b260048036038101906100ad9190610ea0565b6101c0565b005b6100ce60048036038101906100c99190610dc0565b61024e565b6040516100db9190611128565b60405180910390f35b6100fe60048036038101906100f99190610dc0565b610420565b005b61011a60048036038101906101159190610e4e565b6104e4565b6040516101279190611106565b60405180910390f35b610138610682565b005b61014261070a565b60405161014f91906110ad565b60405180910390f35b610172600480360381019061016d9190610e12565b610734565b005b61018e60048036038101906101899190610dc0565b6107d0565b60405161019b9190611231565b60405180910390f35b6101be60048036038101906101b99190610dc0565b610895565b005b6101c861098d565b73ffffffffffffffffffffffffffffffffffffffff166101e661070a565b73ffffffffffffffffffffffffffffffffffffffff161461023c576040517f08c379a0000000000000000000000000000000000000000000000000000000008152600401610233906111f1565b60405180910390fd5b81600781905550806008819055505050565b600061025861098d565b73ffffffffffffffffffffffffffffffffffffffff1661027661070a565b73ffffffffffffffffffffffffffffffffffffffff16146102cc576040517f08c379a00000000000000000000000000000000000000000000000000000000081526004016102c3906111f1565b60405180910390fd5b6003547f000000000000000000000000000000000000000000000000000000000000000073ffffffffffffffffffffffffffffffffffffffff166370a08231306040518263ffffffff1660e01b815260040161032891906110ad565b60206040518083038186803b15801561034057600080fd5b505afa158015610354573d6000803e3d6000fd5b505050506040513d601f19601f820116820180604052508101906103789190610e77565b10156103b9576040517f08c379a00000000000000000000000000000000000000000000000000000000081526004016103b0906111d1565b60405180910390fd5b6103c7600254600354610995565b9050816006600083815260200190815260200160002060006101000a81548173ffffffffffffffffffffffffffffffffffffffff021916908373ffffffffffffffffffffffffffffffffffffffff160217905550919050565b61042861098d565b73ffffffffffffffffffffffffffffffffffffffff1661044661070a565b73ffffffffffffffffffffffffffffffffffffffff161461049c576040517f08c379a0000000000000000000000000000000000000000000000000000000008152600401610493906111f1565b60405180910390fd5b6000600560008373ffffffffffffffffffffffffffffffffffffffff1673ffffffffffffffffffffffffffffffffffffffff1681526020019081526020016000208190555050565b60606104ee61098d565b73ffffffffffffffffffffffffffffffffffffffff1661050c61070a565b73ffffffffffffffffffffffffffffffffffffffff1614610562576040517f08c379a0000000000000000000000000000000000000000000000000000000008152600401610559906111f1565b60405180910390fd5b8167ffffffffffffffff8111156105a2577f4e487b7100000000000000000000000000000000000000000000000000000000600052604160045260246000fd5b6040519080825280602002602001820160405280156105d05781602001602082028036833780820191505090505b50905060005b8281101561067c5760016032600454836040516020016105f792919061124c565b6040516020818303038152906040528051906020012060001c61061a9190611413565b61062491906112db565b82828151811061065d577f4e487b7100000000000000000000000000000000000000000000000000000000600052603260045260246000fd5b6020026020010181815250508080610674906113b6565b9150506105d6565b50919050565b61068a61098d565b73ffffffffffffffffffffffffffffffffffffffff166106a861070a565b73ffffffffffffffffffffffffffffffffffffffff16146106fe576040517f08c379a00000000000000000000000000000000000000000000000000000000081526004016106f5906111f1565b60405180910390fd5b6107086000610af4565b565b6000600160009054906101000a900473ffffffffffffffffffffffffffffffffffffffff16905090565b7f000000000000000000000000000000000000000000000000000000000000000073ffffffffffffffffffffffffffffffffffffffff163373ffffffffffffffffffffffffffffffffffffffff16146107c2576040517f08c379a00000000000000000000000000000000000000000000000000000000081526004016107b990611211565b60405180910390fd5b6107cc8282610bba565b5050565b60006107da61098d565b73ffffffffffffffffffffffffffffffffffffffff166107f861070a565b73ffffffffffffffffffffffffffffffffffffffff161461084e576040517f08c379a0000000000000000000000000000000000000000000000000000000008152600401610845906111f1565b60405180910390fd5b600560008373ffffffffffffffffffffffffffffffffffffffff1673ffffffffffffffffffffffffffffffffffffffff168152602001908152602001600020549050919050565b61089d61098d565b73ffffffffffffffffffffffffffffffffffffffff166108bb61070a565b73ffffffffffffffffffffffffffffffffffffffff1614610911576040517f08c379a0000000000000000000000000000000000000000000000000000000008152600401610908906111f1565b60405180910390fd5b600073ffffffffffffffffffffffffffffffffffffffff168173ffffffffffffffffffffffffffffffffffffffff161415610981576040517f08c379a0000000000000000000000000000000000000000000000000000000008152600401610978906111b1565b60405180910390fd5b61098a81610af4565b50565b600033905090565b60007f000000000000000000000000000000000000000000000000000000000000000073ffffffffffffffffffffffffffffffffffffffff16634000aea07f000000000000000000000000000000000000000000000000000000000000000084866000604051602001610a09929190611143565b6040516020818303038152906040526040518463ffffffff1660e01b8152600401610a36939291906110c8565b602060405180830381600087803b158015610a5057600080fd5b505af1158015610a64573d6000803e3d6000fd5b505050506040513d601f19601f82011682018060405250810190610a889190610de9565b506000610aaa8460003060008089815260200190815260200160002054610c62565b9050600160008086815260200190815260200160002054610acb91906112db565b60008086815260200190815260200160002081905550610aeb8482610c9e565b91505092915050565b6000600160009054906101000a900473ffffffffffffffffffffffffffffffffffffffff16905081600160006101000a81548173ffffffffffffffffffffffffffffffffffffffff021916908373ffffffffffffffffffffffffffffffffffffffff1602179055508173ffffffffffffffffffffffffffffffffffffffff168173ffffffffffffffffffffffffffffffffffffffff167f8be0079c531659141344cd1fd0a4f28419497f9722a3daafe3b4186f6b6457e060405160405180910390a35050565b6000610bc4610cd1565b905060018183610bd49190611413565b610bde91906112db565b600481905550600454600560006006600087815260200190815260200160002060009054906101000a900473ffffffffffffffffffffffffffffffffffffffff1673ffffffffffffffffffffffffffffffffffffffff1673ffffffffffffffffffffffffffffffffffffffff16815260200190815260200160002081905550505050565b600084848484604051602001610c7b949392919061116c565b6040516020818303038152906040528051906020012060001c9050949350505050565b60008282604051602001610cb3929190611081565b60405160208183030381529060405280519060200120905092915050565b6000610cdb61098d565b73ffffffffffffffffffffffffffffffffffffffff16610cf961070a565b73ffffffffffffffffffffffffffffffffffffffff1614610d4f576040517f08c379a0000000000000000000000000000000000000000000000000000000008152600401610d46906111f1565b60405180910390fd5b600754905090565b600081359050610d668161157d565b92915050565b600081519050610d7b81611594565b92915050565b600081359050610d90816115ab565b92915050565b600081359050610da5816115c2565b92915050565b600081519050610dba816115c2565b92915050565b600060208284031215610dd257600080fd5b6000610de084828501610d57565b91505092915050565b600060208284031215610dfb57600080fd5b6000610e0984828501610d6c565b91505092915050565b60008060408385031215610e2557600080fd5b6000610e3385828601610d81565b9250506020610e4485828601610d96565b9150509250929050565b600060208284031215610e6057600080fd5b6000610e6e84828501610d96565b91505092915050565b600060208284031215610e8957600080fd5b6000610e9784828501610dab565b91505092915050565b60008060408385031215610eb357600080fd5b6000610ec185828601610d96565b9250506020610ed285828601610d96565b9150509250929050565b6000610ee8838361104c565b60208301905092915050565b610efd81611331565b82525050565b6000610f0e82611285565b610f1881856112a8565b9350610f2383611275565b8060005b83811015610f54578151610f3b8882610edc565b9750610f468361129b565b925050600181019050610f27565b5085935050505092915050565b610f6a8161134f565b82525050565b610f81610f7c8261134f565b6113ff565b82525050565b6000610f9282611290565b610f9c81856112b9565b9350610fac818560208601611383565b610fb5816114a2565b840191505092915050565b6000610fcd6026836112ca565b9150610fd8826114b3565b604082019050919050565b6000610ff0600f836112ca565b9150610ffb82611502565b602082019050919050565b60006110136020836112ca565b915061101e8261152b565b602082019050919050565b6000611036601f836112ca565b915061104182611554565b602082019050919050565b61105581611379565b82525050565b61106481611379565b82525050565b61107b61107682611379565b611409565b82525050565b600061108d8285610f70565b60208201915061109d828461106a565b6020820191508190509392505050565b60006020820190506110c26000830184610ef4565b92915050565b60006060820190506110dd6000830186610ef4565b6110ea602083018561105b565b81810360408301526110fc8184610f87565b9050949350505050565b600060208201905081810360008301526111208184610f03565b905092915050565b600060208201905061113d6000830184610f61565b92915050565b60006040820190506111586000830185610f61565b611165602083018461105b565b9392505050565b60006080820190506111816000830187610f61565b61118e602083018661105b565b61119b6040830185610ef4565b6111a8606083018461105b565b95945050505050565b600060208201905081810360008301526111ca81610fc0565b9050919050565b600060208201905081810360008301526111ea81610fe3565b9050919050565b6000602082019050818103600083015261120a81611006565b9050919050565b6000602082019050818103600083015261122a81611029565b9050919050565b6000602082019050611246600083018461105b565b92915050565b6000604082019050611261600083018561105b565b61126e602083018461105b565b9392505050565b6000819050602082019050919050565b600081519050919050565b600081519050919050565b6000602082019050919050565b600082825260208201905092915050565b600082825260208201905092915050565b600082825260208201905092915050565b60006112e682611379565b91506112f183611379565b9250827fffffffffffffffffffffffffffffffffffffffffffffffffffffffffffffffff0382111561132657611325611444565b5b828201905092915050565b600061133c82611359565b9050919050565b60008115159050919050565b6000819050919050565b600073ffffffffffffffffffffffffffffffffffffffff82169050919050565b6000819050919050565b60005b838110156113a1578082015181840152602081019050611386565b838111156113b0576000848401525b50505050565b60006113c182611379565b91507fffffffffffffffffffffffffffffffffffffffffffffffffffffffffffffffff8214156113f4576113f3611444565b5b600182019050919050565b6000819050919050565b6000819050919050565b600061141e82611379565b915061142983611379565b92508261143957611438611473565b5b828206905092915050565b7f4e487b7100000000000000000000000000000000000000000000000000000000600052601160045260246000fd5b7f4e487b7100000000000000000000000000000000000000000000000000000000600052601260045260246000fd5b6000601f19601f8301169050919050565b7f4f776e61626c653a206e6577206f776e657220697320746865207a65726f206160008201527f6464726573730000000000000000000000000000000000000000000000000000602082015250565b7f4e6f7420656e6f756768204c494e4b0000000000000000000000000000000000600082015250565b7f4f776e61626c653a2063616c6c6572206973206e6f7420746865206f776e6572600082015250565b7f4f6e6c7920565246436f6f7264696e61746f722063616e2066756c66696c6c00600082015250565b61158681611331565b811461159157600080fd5b50565b61159d81611343565b81146115a857600080fd5b50565b6115b48161134f565b81146115bf57600080fd5b50565b6115cb81611379565b81146115d657600080fd5b5056fea264697066735822122061e3566f61c52b6cddad741e47f71ad428d37c82281d4ad3cd6d9bc8b481f9e164736f6c63430008040033",
  "linkReferences": {},
  "deployedLinkReferences": {}
}