{
  "_format": "hh-sol-artifact-1",
  "contractName": "RandomNumberConsumer",
  "sourceName": "contracts/RandomNumberConsumer.sol",
  "abi": [
    {
      "inputs": [],
      "stateMutability": "nonpayable",
      "type": "constructor"
    },
    {
      "inputs": [
        {
          "internalType": "uint256",
          "name": "n",
          "type": "uint256"
        }
      ],
      "name": "expand",
      "outputs": [
        {
          "internalType": "uint256[]",
          "name": "expandedValues",
          "type": "uint256[]"
        }
      ],
      "stateMutability": "view",
      "type": "function"
    },
    {
      "inputs": [
        {
          "internalType": "address",
          "name": "userAddress",
          "type": "address"
        }
      ],
      "name": "getRandomNumber",
      "outputs": [
        {
          "internalType": "bytes32",
          "name": "requestId",
          "type": "bytes32"
        }
      ],
      "stateMutability": "nonpayable",
      "type": "function"
    },
    {
      "inputs": [
        {
          "internalType": "address",
          "name": "userAddress",
          "type": "address"
        }
      ],
      "name": "getUserRandom",
      "outputs": [
        {
          "internalType": "uint256",
          "name": "random",
          "type": "uint256"
        }
      ],
      "stateMutability": "view",
      "type": "function"
    },
    {
      "inputs": [
        {
          "internalType": "bytes32",
          "name": "requestId",
          "type": "bytes32"
        },
        {
          "internalType": "uint256",
          "name": "randomness",
          "type": "uint256"
        }
      ],
      "name": "rawFulfillRandomness",
      "outputs": [],
      "stateMutability": "nonpayable",
      "type": "function"
    }
  ],
  "bytecode": "0x60c060405234801561001057600080fd5b5073dd3782915140c8f3b190b5d67eac6dc5760c46e973a36085f69e2889c224210f603d836748e7dc00888173ffffffffffffffffffffffffffffffffffffffff1660a08173ffffffffffffffffffffffffffffffffffffffff1660601b815250508073ffffffffffffffffffffffffffffffffffffffff1660808173ffffffffffffffffffffffffffffffffffffffff1660601b8152505050507f6c3699283bda56ad74f6b855546325b68d482e983852a7a82979cc4807b641f460001b60018190555067016345785d8a000060028190555060805160601c60a05160601c610e4261011d60003960008181610377015261049a015260008181610104015261045e0152610e426000f3fe608060405234801561001057600080fd5b506004361061004c5760003560e01c80633b6dde1314610051578063682904a51461008157806394985ddd146100b1578063bc173cd9146100cd575b600080fd5b61006b6004803603810190610066919061072d565b6100fd565b6040516100789190610a13565b60405180910390f35b61009b600480360381019061009691906107bb565b610253565b6040516100a891906109f1565b60405180910390f35b6100cb60048036038101906100c6919061077f565b610375565b005b6100e760048036038101906100e2919061072d565b610411565b6040516100f49190610adc565b60405180910390f35b60006002547f000000000000000000000000000000000000000000000000000000000000000073ffffffffffffffffffffffffffffffffffffffff166370a08231306040518263ffffffff1660e01b815260040161015b9190610998565b60206040518083038186803b15801561017357600080fd5b505afa158015610187573d6000803e3d6000fd5b505050506040513d601f19601f820116820180604052508101906101ab91906107e4565b10156101ec576040517f08c379a00000000000000000000000000000000000000000000000000000000081526004016101e390610a9c565b60405180910390fd5b6101fa60015460025461045a565b9050816005600083815260200190815260200160002060006101000a81548173ffffffffffffffffffffffffffffffffffffffff021916908373ffffffffffffffffffffffffffffffffffffffff160217905550919050565b60608167ffffffffffffffff811115610295577f4e487b7100000000000000000000000000000000000000000000000000000000600052604160045260246000fd5b6040519080825280602002602001820160405280156102c35781602001602082028036833780820191505090505b50905060005b8281101561036f5760016032600354836040516020016102ea929190610af7565b6040516020818303038152906040528051906020012060001c61030d9190610cbe565b6103179190610b86565b828281518110610350577f4e487b7100000000000000000000000000000000000000000000000000000000600052603260045260246000fd5b602002602001018181525050808061036790610c61565b9150506102c9565b50919050565b7f000000000000000000000000000000000000000000000000000000000000000073ffffffffffffffffffffffffffffffffffffffff163373ffffffffffffffffffffffffffffffffffffffff1614610403576040517f08c379a00000000000000000000000000000000000000000000000000000000081526004016103fa90610abc565b60405180910390fd5b61040d82826105b9565b5050565b6000600460008373ffffffffffffffffffffffffffffffffffffffff1673ffffffffffffffffffffffffffffffffffffffff168152602001908152602001600020549050919050565b60007f000000000000000000000000000000000000000000000000000000000000000073ffffffffffffffffffffffffffffffffffffffff16634000aea07f0000000000000000000000000000000000000000000000000000000000000000848660006040516020016104ce929190610a2e565b6040516020818303038152906040526040518463ffffffff1660e01b81526004016104fb939291906109b3565b602060405180830381600087803b15801561051557600080fd5b505af1158015610529573d6000803e3d6000fd5b505050506040513d601f19601f8201168201806040525081019061054d9190610756565b50600061056f8460003060008089815260200190815260200160002054610655565b90506001600080868152602001908152602001600020546105909190610b86565b600080868152602001908152602001600020819055506105b08482610691565b91505092915050565b60016032826105c89190610cbe565b6105d29190610b86565b600381905550600354600460006005600086815260200190815260200160002060009054906101000a900473ffffffffffffffffffffffffffffffffffffffff1673ffffffffffffffffffffffffffffffffffffffff1673ffffffffffffffffffffffffffffffffffffffff168152602001908152602001600020819055505050565b60008484848460405160200161066e9493929190610a57565b6040516020818303038152906040528051906020012060001c9050949350505050565b600082826040516020016106a692919061096c565b60405160208183030381529060405280519060200120905092915050565b6000813590506106d381610db0565b92915050565b6000815190506106e881610dc7565b92915050565b6000813590506106fd81610dde565b92915050565b60008135905061071281610df5565b92915050565b60008151905061072781610df5565b92915050565b60006020828403121561073f57600080fd5b600061074d848285016106c4565b91505092915050565b60006020828403121561076857600080fd5b6000610776848285016106d9565b91505092915050565b6000806040838503121561079257600080fd5b60006107a0858286016106ee565b92505060206107b185828601610703565b9150509250929050565b6000602082840312156107cd57600080fd5b60006107db84828501610703565b91505092915050565b6000602082840312156107f657600080fd5b600061080484828501610718565b91505092915050565b60006108198383610937565b60208301905092915050565b61082e81610bdc565b82525050565b600061083f82610b30565b6108498185610b53565b935061085483610b20565b8060005b8381101561088557815161086c888261080d565b975061087783610b46565b925050600181019050610858565b5085935050505092915050565b61089b81610bfa565b82525050565b6108b26108ad82610bfa565b610caa565b82525050565b60006108c382610b3b565b6108cd8185610b64565b93506108dd818560208601610c2e565b6108e681610d4d565b840191505092915050565b60006108fe600f83610b75565b915061090982610d5e565b602082019050919050565b6000610921601f83610b75565b915061092c82610d87565b602082019050919050565b61094081610c24565b82525050565b61094f81610c24565b82525050565b61096661096182610c24565b610cb4565b82525050565b600061097882856108a1565b6020820191506109888284610955565b6020820191508190509392505050565b60006020820190506109ad6000830184610825565b92915050565b60006060820190506109c86000830186610825565b6109d56020830185610946565b81810360408301526109e781846108b8565b9050949350505050565b60006020820190508181036000830152610a0b8184610834565b905092915050565b6000602082019050610a286000830184610892565b92915050565b6000604082019050610a436000830185610892565b610a506020830184610946565b9392505050565b6000608082019050610a6c6000830187610892565b610a796020830186610946565b610a866040830185610825565b610a936060830184610946565b95945050505050565b60006020820190508181036000830152610ab5816108f1565b9050919050565b60006020820190508181036000830152610ad581610914565b9050919050565b6000602082019050610af16000830184610946565b92915050565b6000604082019050610b0c6000830185610946565b610b196020830184610946565b9392505050565b6000819050602082019050919050565b600081519050919050565b600081519050919050565b6000602082019050919050565b600082825260208201905092915050565b600082825260208201905092915050565b600082825260208201905092915050565b6000610b9182610c24565b9150610b9c83610c24565b9250827fffffffffffffffffffffffffffffffffffffffffffffffffffffffffffffffff03821115610bd157610bd0610cef565b5b828201905092915050565b6000610be782610c04565b9050919050565b60008115159050919050565b6000819050919050565b600073ffffffffffffffffffffffffffffffffffffffff82169050919050565b6000819050919050565b60005b83811015610c4c578082015181840152602081019050610c31565b83811115610c5b576000848401525b50505050565b6000610c6c82610c24565b91507fffffffffffffffffffffffffffffffffffffffffffffffffffffffffffffffff821415610c9f57610c9e610cef565b5b600182019050919050565b6000819050919050565b6000819050919050565b6000610cc982610c24565b9150610cd483610c24565b925082610ce457610ce3610d1e565b5b828206905092915050565b7f4e487b7100000000000000000000000000000000000000000000000000000000600052601160045260246000fd5b7f4e487b7100000000000000000000000000000000000000000000000000000000600052601260045260246000fd5b6000601f19601f8301169050919050565b7f4e6f7420656e6f756768204c494e4b0000000000000000000000000000000000600082015250565b7f4f6e6c7920565246436f6f7264696e61746f722063616e2066756c66696c6c00600082015250565b610db981610bdc565b8114610dc457600080fd5b50565b610dd081610bee565b8114610ddb57600080fd5b50565b610de781610bfa565b8114610df257600080fd5b50565b610dfe81610c24565b8114610e0957600080fd5b5056fea264697066735822122093cc28dc0a97e3c8aec0ca62a76d768b252b807a01aa3760be3278892cca562164736f6c63430008040033",
  "linkReferences": {},
  "deployedLinkReferences": {}
}