{
  "_format": "hh-sol-artifact-1",
  "contractName": "RandomNumberConsumer",
  "sourceName": "contracts/RandomNumberConsumer.sol",
  "abi": [
    {
      "inputs": [
        {
          "internalType": "uint256",
          "name": "_x",
          "type": "uint256"
        },
        {
          "internalType": "uint256",
          "name": "_y",
          "type": "uint256"
        }
      ],
      "stateMutability": "nonpayable",
      "type": "constructor"
    },
    {
      "anonymous": false,
      "inputs": [
        {
          "indexed": true,
          "internalType": "address",
          "name": "previousOwner",
          "type": "address"
        },
        {
          "indexed": true,
          "internalType": "address",
          "name": "newOwner",
          "type": "address"
        }
      ],
      "name": "OwnershipTransferred",
      "type": "event"
    },
    {
      "inputs": [
        {
          "internalType": "uint256",
          "name": "n",
          "type": "uint256"
        }
      ],
      "name": "expand",
      "outputs": [
        {
          "internalType": "uint256[]",
          "name": "expandedValues",
          "type": "uint256[]"
        }
      ],
      "stateMutability": "view",
      "type": "function"
    },
    {
      "inputs": [
        {
          "internalType": "address",
          "name": "userAddress",
          "type": "address"
        }
      ],
      "name": "getRandomNumber",
      "outputs": [
        {
          "internalType": "bytes32",
          "name": "requestId",
          "type": "bytes32"
        }
      ],
      "stateMutability": "nonpayable",
      "type": "function"
    },
    {
      "inputs": [
        {
          "internalType": "address",
          "name": "userAddress",
          "type": "address"
        }
      ],
      "name": "getUserRandom",
      "outputs": [
        {
          "internalType": "uint256",
          "name": "random",
          "type": "uint256"
        }
      ],
      "stateMutability": "view",
      "type": "function"
    },
    {
      "inputs": [],
      "name": "owner",
      "outputs": [
        {
          "internalType": "address",
          "name": "",
          "type": "address"
        }
      ],
      "stateMutability": "view",
      "type": "function"
    },
    {
      "inputs": [
        {
          "internalType": "bytes32",
          "name": "requestId",
          "type": "bytes32"
        },
        {
          "internalType": "uint256",
          "name": "randomness",
          "type": "uint256"
        }
      ],
      "name": "rawFulfillRandomness",
      "outputs": [],
      "stateMutability": "nonpayable",
      "type": "function"
    },
    {
      "inputs": [],
      "name": "renounceOwnership",
      "outputs": [],
      "stateMutability": "nonpayable",
      "type": "function"
    },
    {
      "inputs": [
        {
          "internalType": "address",
          "name": "_userAddress",
          "type": "address"
        }
      ],
      "name": "setUserRandom",
      "outputs": [],
      "stateMutability": "nonpayable",
      "type": "function"
    },
    {
      "inputs": [
        {
          "internalType": "uint256",
          "name": "_x",
          "type": "uint256"
        },
        {
          "internalType": "uint256",
          "name": "_y",
          "type": "uint256"
        }
      ],
      "name": "setXAndY",
      "outputs": [],
      "stateMutability": "nonpayable",
      "type": "function"
    },
    {
      "inputs": [
        {
          "internalType": "address",
          "name": "newOwner",
          "type": "address"
        }
      ],
      "name": "transferOwnership",
      "outputs": [],
      "stateMutability": "nonpayable",
      "type": "function"
    }
  ],
  "bytecode": "0x60c06040523480156200001157600080fd5b50604051620018d3380380620018d3833981810160405281019062000037919062000225565b73dd3782915140c8f3b190b5d67eac6dc5760c46e973a36085f69e2889c224210f603d836748e7dc00888173ffffffffffffffffffffffffffffffffffffffff1660a08173ffffffffffffffffffffffffffffffffffffffff1660601b815250508073ffffffffffffffffffffffffffffffffffffffff1660808173ffffffffffffffffffffffffffffffffffffffff1660601b815250505050620000f1620000e56200014060201b60201c565b6200014860201b60201c565b81600781905550806008819055507f6c3699283bda56ad74f6b855546325b68d482e983852a7a82979cc4807b641f460001b60028190555067016345785d8a000060038190555050506200028a565b600033905090565b6000600160009054906101000a900473ffffffffffffffffffffffffffffffffffffffff16905081600160006101000a81548173ffffffffffffffffffffffffffffffffffffffff021916908373ffffffffffffffffffffffffffffffffffffffff1602179055508173ffffffffffffffffffffffffffffffffffffffff168173ffffffffffffffffffffffffffffffffffffffff167f8be0079c531659141344cd1fd0a4f28419497f9722a3daafe3b4186f6b6457e060405160405180910390a35050565b6000815190506200021f8162000270565b92915050565b600080604083850312156200023957600080fd5b600062000249858286016200020e565b92505060206200025c858286016200020e565b9150509250929050565b6000819050919050565b6200027b8162000266565b81146200028757600080fd5b50565b60805160601c60a05160601c61160f620002c46000396000818161073601526109d50152600081816102d10152610999015261160f6000f3fe608060405234801561001057600080fd5b50600436106100935760003560e01c8063715018a611610066578063715018a6146101305780638da5cb5b1461013a57806394985ddd14610158578063bc173cd914610174578063f2fde38b146101a457610093565b80632fae4793146100985780633b6dde13146100b457806346903137146100e4578063682904a514610100575b600080fd5b6100b260048036038101906100ad9190610ea0565b6101c0565b005b6100ce60048036038101906100c99190610dc0565b61024e565b6040516100db9190611128565b60405180910390f35b6100fe60048036038101906100f99190610dc0565b610420565b005b61011a60048036038101906101159190610e4e565b6104e4565b6040516101279190611106565b60405180910390f35b610138610682565b005b61014261070a565b60405161014f91906110ad565b60405180910390f35b610172600480360381019061016d9190610e12565b610734565b005b61018e60048036038101906101899190610dc0565b6107d0565b60405161019b9190611231565b60405180910390f35b6101be60048036038101906101b99190610dc0565b610895565b005b6101c861098d565b73ffffffffffffffffffffffffffffffffffffffff166101e661070a565b73ffffffffffffffffffffffffffffffffffffffff161461023c576040517f08c379a0000000000000000000000000000000000000000000000000000000008152600401610233906111f1565b60405180910390fd5b81600781905550806008819055505050565b600061025861098d565b73ffffffffffffffffffffffffffffffffffffffff1661027661070a565b73ffffffffffffffffffffffffffffffffffffffff16146102cc576040517f08c379a00000000000000000000000000000000000000000000000000000000081526004016102c3906111f1565b60405180910390fd5b6003547f000000000000000000000000000000000000000000000000000000000000000073ffffffffffffffffffffffffffffffffffffffff166370a08231306040518263ffffffff1660e01b815260040161032891906110ad565b60206040518083038186803b15801561034057600080fd5b505afa158015610354573d6000803e3d6000fd5b505050506040513d601f19601f820116820180604052508101906103789190610e77565b10156103b9576040517f08c379a00000000000000000000000000000000000000000000000000000000081526004016103b0906111d1565b60405180910390fd5b6103c7600254600354610995565b9050816006600083815260200190815260200160002060006101000a81548173ffffffffffffffffffffffffffffffffffffffff021916908373ffffffffffffffffffffffffffffffffffffffff160217905550919050565b61042861098d565b73ffffffffffffffffffffffffffffffffffffffff1661044661070a565b73ffffffffffffffffffffffffffffffffffffffff161461049c576040517f08c379a0000000000000000000000000000000000000000000000000000000008152600401610493906111f1565b60405180910390fd5b6000600560008373ffffffffffffffffffffffffffffffffffffffff1673ffffffffffffffffffffffffffffffffffffffff1681526020019081526020016000208190555050565b60606104ee61098d565b73ffffffffffffffffffffffffffffffffffffffff1661050c61070a565b73ffffffffffffffffffffffffffffffffffffffff1614610562576040517f08c379a0000000000000000000000000000000000000000000000000000000008152600401610559906111f1565b60405180910390fd5b8167ffffffffffffffff8111156105a2577f4e487b7100000000000000000000000000000000000000000000000000000000600052604160045260246000fd5b6040519080825280602002602001820160405280156105d05781602001602082028036833780820191505090505b50905060005b8281101561067c5760016032600454836040516020016105f792919061124c565b6040516020818303038152906040528051906020012060001c61061a9190611413565b61062491906112db565b82828151811061065d577f4e487b7100000000000000000000000000000000000000000000000000000000600052603260045260246000fd5b6020026020010181815250508080610674906113b6565b9150506105d6565b50919050565b61068a61098d565b73ffffffffffffffffffffffffffffffffffffffff166106a861070a565b73ffffffffffffffffffffffffffffffffffffffff16146106fe576040517f08c379a00000000000000000000000000000000000000000000000000000000081526004016106f5906111f1565b60405180910390fd5b6107086000610af4565b565b6000600160009054906101000a900473ffffffffffffffffffffffffffffffffffffffff16905090565b7f000000000000000000000000000000000000000000000000000000000000000073ffffffffffffffffffffffffffffffffffffffff163373ffffffffffffffffffffffffffffffffffffffff16146107c2576040517f08c379a00000000000000000000000000000000000000000000000000000000081526004016107b990611211565b60405180910390fd5b6107cc8282610bba565b5050565b60006107da61098d565b73ffffffffffffffffffffffffffffffffffffffff166107f861070a565b73ffffffffffffffffffffffffffffffffffffffff161461084e576040517f08c379a0000000000000000000000000000000000000000000000000000000008152600401610845906111f1565b60405180910390fd5b600560008373ffffffffffffffffffffffffffffffffffffffff1673ffffffffffffffffffffffffffffffffffffffff168152602001908152602001600020549050919050565b61089d61098d565b73ffffffffffffffffffffffffffffffffffffffff166108bb61070a565b73ffffffffffffffffffffffffffffffffffffffff1614610911576040517f08c379a0000000000000000000000000000000000000000000000000000000008152600401610908906111f1565b60405180910390fd5b600073ffffffffffffffffffffffffffffffffffffffff168173ffffffffffffffffffffffffffffffffffffffff161415610981576040517f08c379a0000000000000000000000000000000000000000000000000000000008152600401610978906111b1565b60405180910390fd5b61098a81610af4565b50565b600033905090565b60007f000000000000000000000000000000000000000000000000000000000000000073ffffffffffffffffffffffffffffffffffffffff16634000aea07f000000000000000000000000000000000000000000000000000000000000000084866000604051602001610a09929190611143565b6040516020818303038152906040526040518463ffffffff1660e01b8152600401610a36939291906110c8565b602060405180830381600087803b158015610a5057600080fd5b505af1158015610a64573d6000803e3d6000fd5b505050506040513d601f19601f82011682018060405250810190610a889190610de9565b506000610aaa8460003060008089815260200190815260200160002054610c62565b9050600160008086815260200190815260200160002054610acb91906112db565b60008086815260200190815260200160002081905550610aeb8482610c9e565b91505092915050565b6000600160009054906101000a900473ffffffffffffffffffffffffffffffffffffffff16905081600160006101000a81548173ffffffffffffffffffffffffffffffffffffffff021916908373ffffffffffffffffffffffffffffffffffffffff1602179055508173ffffffffffffffffffffffffffffffffffffffff168173ffffffffffffffffffffffffffffffffffffffff167f8be0079c531659141344cd1fd0a4f28419497f9722a3daafe3b4186f6b6457e060405160405180910390a35050565b6000610bc4610cd1565b905060018183610bd49190611413565b610bde91906112db565b600481905550600454600560006006600087815260200190815260200160002060009054906101000a900473ffffffffffffffffffffffffffffffffffffffff1673ffffffffffffffffffffffffffffffffffffffff1673ffffffffffffffffffffffffffffffffffffffff16815260200190815260200160002081905550505050565b600084848484604051602001610c7b949392919061116c565b6040516020818303038152906040528051906020012060001c9050949350505050565b60008282604051602001610cb3929190611081565b60405160208183030381529060405280519060200120905092915050565b6000610cdb61098d565b73ffffffffffffffffffffffffffffffffffffffff16610cf961070a565b73ffffffffffffffffffffffffffffffffffffffff1614610d4f576040517f08c379a0000000000000000000000000000000000000000000000000000000008152600401610d46906111f1565b60405180910390fd5b600754905090565b600081359050610d668161157d565b92915050565b600081519050610d7b81611594565b92915050565b600081359050610d90816115ab565b92915050565b600081359050610da5816115c2565b92915050565b600081519050610dba816115c2565b92915050565b600060208284031215610dd257600080fd5b6000610de084828501610d57565b91505092915050565b600060208284031215610dfb57600080fd5b6000610e0984828501610d6c565b91505092915050565b60008060408385031215610e2557600080fd5b6000610e3385828601610d81565b9250506020610e4485828601610d96565b9150509250929050565b600060208284031215610e6057600080fd5b6000610e6e84828501610d96565b91505092915050565b600060208284031215610e8957600080fd5b6000610e9784828501610dab565b91505092915050565b60008060408385031215610eb357600080fd5b6000610ec185828601610d96565b9250506020610ed285828601610d96565b9150509250929050565b6000610ee8838361104c565b60208301905092915050565b610efd81611331565b82525050565b6000610f0e82611285565b610f1881856112a8565b9350610f2383611275565b8060005b83811015610f54578151610f3b8882610edc565b9750610f468361129b565b925050600181019050610f27565b5085935050505092915050565b610f6a8161134f565b82525050565b610f81610f7c8261134f565b6113ff565b82525050565b6000610f9282611290565b610f9c81856112b9565b9350610fac818560208601611383565b610fb5816114a2565b840191505092915050565b6000610fcd6026836112ca565b9150610fd8826114b3565b604082019050919050565b6000610ff0600f836112ca565b9150610ffb82611502565b602082019050919050565b60006110136020836112ca565b915061101e8261152b565b602082019050919050565b6000611036601f836112ca565b915061104182611554565b602082019050919050565b61105581611379565b82525050565b61106481611379565b82525050565b61107b61107682611379565b611409565b82525050565b600061108d8285610f70565b60208201915061109d828461106a565b6020820191508190509392505050565b60006020820190506110c26000830184610ef4565b92915050565b60006060820190506110dd6000830186610ef4565b6110ea602083018561105b565b81810360408301526110fc8184610f87565b9050949350505050565b600060208201905081810360008301526111208184610f03565b905092915050565b600060208201905061113d6000830184610f61565b92915050565b60006040820190506111586000830185610f61565b611165602083018461105b565b9392505050565b60006080820190506111816000830187610f61565b61118e602083018661105b565b61119b6040830185610ef4565b6111a8606083018461105b565b95945050505050565b600060208201905081810360008301526111ca81610fc0565b9050919050565b600060208201905081810360008301526111ea81610fe3565b9050919050565b6000602082019050818103600083015261120a81611006565b9050919050565b6000602082019050818103600083015261122a81611029565b9050919050565b6000602082019050611246600083018461105b565b92915050565b6000604082019050611261600083018561105b565b61126e602083018461105b565b9392505050565b6000819050602082019050919050565b600081519050919050565b600081519050919050565b6000602082019050919050565b600082825260208201905092915050565b600082825260208201905092915050565b600082825260208201905092915050565b60006112e682611379565b91506112f183611379565b9250827fffffffffffffffffffffffffffffffffffffffffffffffffffffffffffffffff0382111561132657611325611444565b5b828201905092915050565b600061133c82611359565b9050919050565b60008115159050919050565b6000819050919050565b600073ffffffffffffffffffffffffffffffffffffffff82169050919050565b6000819050919050565b60005b838110156113a1578082015181840152602081019050611386565b838111156113b0576000848401525b50505050565b60006113c182611379565b91507fffffffffffffffffffffffffffffffffffffffffffffffffffffffffffffffff8214156113f4576113f3611444565b5b600182019050919050565b6000819050919050565b6000819050919050565b600061141e82611379565b915061142983611379565b92508261143957611438611473565b5b828206905092915050565b7f4e487b7100000000000000000000000000000000000000000000000000000000600052601160045260246000fd5b7f4e487b7100000000000000000000000000000000000000000000000000000000600052601260045260246000fd5b6000601f19601f8301169050919050565b7f4f776e61626c653a206e6577206f776e657220697320746865207a65726f206160008201527f6464726573730000000000000000000000000000000000000000000000000000602082015250565b7f4e6f7420656e6f756768204c494e4b0000000000000000000000000000000000600082015250565b7f4f776e61626c653a2063616c6c6572206973206e6f7420746865206f776e6572600082015250565b7f4f6e6c7920565246436f6f7264696e61746f722063616e2066756c66696c6c00600082015250565b61158681611331565b811461159157600080fd5b50565b61159d81611343565b81146115a857600080fd5b50565b6115b48161134f565b81146115bf57600080fd5b50565b6115cb81611379565b81146115d657600080fd5b5056fea264697066735822122061e3566f61c52b6cddad741e47f71ad428d37c82281d4ad3cd6d9bc8b481f9e164736f6c63430008040033",
  "linkReferences": {},
  "deployedLinkReferences": {}
}