{
  "_format": "hh-sol-artifact-1",
  "contractName": "RandomNumberConsumer",
  "sourceName": "contracts/RandomNumberConsumer.sol",
  "abi": [
    {
      "inputs": [],
      "stateMutability": "nonpayable",
      "type": "constructor"
    },
    {
      "inputs": [
        {
          "internalType": "uint256",
          "name": "n",
          "type": "uint256"
        }
      ],
      "name": "expand",
      "outputs": [
        {
          "internalType": "uint256[]",
          "name": "expandedValues",
          "type": "uint256[]"
        }
      ],
      "stateMutability": "view",
      "type": "function"
    },
    {
      "inputs": [],
      "name": "getRandomNumber",
      "outputs": [
        {
          "internalType": "bytes32",
          "name": "requestId",
          "type": "bytes32"
        }
      ],
      "stateMutability": "nonpayable",
      "type": "function"
    },
    {
      "inputs": [
        {
          "internalType": "address",
          "name": "userAddress",
          "type": "address"
        }
      ],
      "name": "getUserRandom",
      "outputs": [
        {
          "internalType": "uint256",
          "name": "random",
          "type": "uint256"
        }
      ],
      "stateMutability": "view",
      "type": "function"
    },
    {
      "inputs": [
        {
          "internalType": "bytes32",
          "name": "requestId",
          "type": "bytes32"
        },
        {
          "internalType": "uint256",
          "name": "randomness",
          "type": "uint256"
        }
      ],
      "name": "rawFulfillRandomness",
      "outputs": [],
      "stateMutability": "nonpayable",
      "type": "function"
    }
  ],
  "bytecode": "0x60c060405234801561001057600080fd5b5073dd3782915140c8f3b190b5d67eac6dc5760c46e973a36085f69e2889c224210f603d836748e7dc00888173ffffffffffffffffffffffffffffffffffffffff1660a08173ffffffffffffffffffffffffffffffffffffffff1660601b815250508073ffffffffffffffffffffffffffffffffffffffff1660808173ffffffffffffffffffffffffffffffffffffffff1660601b8152505050507f6c3699283bda56ad74f6b855546325b68d482e983852a7a82979cc4807b641f460001b60018190555067016345785d8a000060028190555060805160601c60a05160601c610e2e61011d6000396000818161020f01526105220152600081816102f901526104e60152610e2e6000f3fe608060405234801561001057600080fd5b506004361061004c5760003560e01c8063682904a51461005157806394985ddd14610081578063bc173cd91461009d578063dbdff2c1146100cd575b600080fd5b61006b600480360381019061006691906107a7565b6100eb565b60405161007891906109dd565b60405180910390f35b61009b6004803603810190610096919061076b565b61020d565b005b6100b760048036038101906100b29190610719565b6102a9565b6040516100c49190610ac8565b60405180910390f35b6100d56102f2565b6040516100e291906109ff565b60405180910390f35b60608167ffffffffffffffff81111561012d577f4e487b7100000000000000000000000000000000000000000000000000000000600052604160045260246000fd5b60405190808252806020026020018201604052801561015b5781602001602082028036833780820191505090505b50905060005b82811015610207576001603260035483604051602001610182929190610ae3565b6040516020818303038152906040528051906020012060001c6101a59190610caa565b6101af9190610b72565b8282815181106101e8577f4e487b7100000000000000000000000000000000000000000000000000000000600052603260045260246000fd5b60200260200101818152505080806101ff90610c4d565b915050610161565b50919050565b7f000000000000000000000000000000000000000000000000000000000000000073ffffffffffffffffffffffffffffffffffffffff163373ffffffffffffffffffffffffffffffffffffffff161461029b576040517f08c379a000000000000000000000000000000000000000000000000000000000815260040161029290610aa8565b60405180910390fd5b6102a58282610446565b5050565b6000600460008373ffffffffffffffffffffffffffffffffffffffff1673ffffffffffffffffffffffffffffffffffffffff168152602001908152602001600020549050919050565b60006002547f000000000000000000000000000000000000000000000000000000000000000073ffffffffffffffffffffffffffffffffffffffff166370a08231306040518263ffffffff1660e01b81526004016103509190610984565b60206040518083038186803b15801561036857600080fd5b505afa15801561037c573d6000803e3d6000fd5b505050506040513d601f19601f820116820180604052508101906103a091906107d0565b10156103e1576040517f08c379a00000000000000000000000000000000000000000000000000000000081526004016103d890610a88565b60405180910390fd5b6103ef6001546002546104e2565b9050336005600083815260200190815260200160002060006101000a81548173ffffffffffffffffffffffffffffffffffffffff021916908373ffffffffffffffffffffffffffffffffffffffff16021790555090565b60016032826104559190610caa565b61045f9190610b72565b600381905550600354600460006005600086815260200190815260200160002060009054906101000a900473ffffffffffffffffffffffffffffffffffffffff1673ffffffffffffffffffffffffffffffffffffffff1673ffffffffffffffffffffffffffffffffffffffff168152602001908152602001600020819055505050565b60007f000000000000000000000000000000000000000000000000000000000000000073ffffffffffffffffffffffffffffffffffffffff16634000aea07f000000000000000000000000000000000000000000000000000000000000000084866000604051602001610556929190610a1a565b6040516020818303038152906040526040518463ffffffff1660e01b81526004016105839392919061099f565b602060405180830381600087803b15801561059d57600080fd5b505af11580156105b1573d6000803e3d6000fd5b505050506040513d601f19601f820116820180604052508101906105d59190610742565b5060006105f78460003060008089815260200190815260200160002054610641565b90506001600080868152602001908152602001600020546106189190610b72565b60008086815260200190815260200160002081905550610638848261067d565b91505092915050565b60008484848460405160200161065a9493929190610a43565b6040516020818303038152906040528051906020012060001c9050949350505050565b60008282604051602001610692929190610958565b60405160208183030381529060405280519060200120905092915050565b6000813590506106bf81610d9c565b92915050565b6000815190506106d481610db3565b92915050565b6000813590506106e981610dca565b92915050565b6000813590506106fe81610de1565b92915050565b60008151905061071381610de1565b92915050565b60006020828403121561072b57600080fd5b6000610739848285016106b0565b91505092915050565b60006020828403121561075457600080fd5b6000610762848285016106c5565b91505092915050565b6000806040838503121561077e57600080fd5b600061078c858286016106da565b925050602061079d858286016106ef565b9150509250929050565b6000602082840312156107b957600080fd5b60006107c7848285016106ef565b91505092915050565b6000602082840312156107e257600080fd5b60006107f084828501610704565b91505092915050565b60006108058383610923565b60208301905092915050565b61081a81610bc8565b82525050565b600061082b82610b1c565b6108358185610b3f565b935061084083610b0c565b8060005b8381101561087157815161085888826107f9565b975061086383610b32565b925050600181019050610844565b5085935050505092915050565b61088781610be6565b82525050565b61089e61089982610be6565b610c96565b82525050565b60006108af82610b27565b6108b98185610b50565b93506108c9818560208601610c1a565b6108d281610d39565b840191505092915050565b60006108ea600f83610b61565b91506108f582610d4a565b602082019050919050565b600061090d601f83610b61565b915061091882610d73565b602082019050919050565b61092c81610c10565b82525050565b61093b81610c10565b82525050565b61095261094d82610c10565b610ca0565b82525050565b6000610964828561088d565b6020820191506109748284610941565b6020820191508190509392505050565b60006020820190506109996000830184610811565b92915050565b60006060820190506109b46000830186610811565b6109c16020830185610932565b81810360408301526109d381846108a4565b9050949350505050565b600060208201905081810360008301526109f78184610820565b905092915050565b6000602082019050610a14600083018461087e565b92915050565b6000604082019050610a2f600083018561087e565b610a3c6020830184610932565b9392505050565b6000608082019050610a58600083018761087e565b610a656020830186610932565b610a726040830185610811565b610a7f6060830184610932565b95945050505050565b60006020820190508181036000830152610aa1816108dd565b9050919050565b60006020820190508181036000830152610ac181610900565b9050919050565b6000602082019050610add6000830184610932565b92915050565b6000604082019050610af86000830185610932565b610b056020830184610932565b9392505050565b6000819050602082019050919050565b600081519050919050565b600081519050919050565b6000602082019050919050565b600082825260208201905092915050565b600082825260208201905092915050565b600082825260208201905092915050565b6000610b7d82610c10565b9150610b8883610c10565b9250827fffffffffffffffffffffffffffffffffffffffffffffffffffffffffffffffff03821115610bbd57610bbc610cdb565b5b828201905092915050565b6000610bd382610bf0565b9050919050565b60008115159050919050565b6000819050919050565b600073ffffffffffffffffffffffffffffffffffffffff82169050919050565b6000819050919050565b60005b83811015610c38578082015181840152602081019050610c1d565b83811115610c47576000848401525b50505050565b6000610c5882610c10565b91507fffffffffffffffffffffffffffffffffffffffffffffffffffffffffffffffff821415610c8b57610c8a610cdb565b5b600182019050919050565b6000819050919050565b6000819050919050565b6000610cb582610c10565b9150610cc083610c10565b925082610cd057610ccf610d0a565b5b828206905092915050565b7f4e487b7100000000000000000000000000000000000000000000000000000000600052601160045260246000fd5b7f4e487b7100000000000000000000000000000000000000000000000000000000600052601260045260246000fd5b6000601f19601f8301169050919050565b7f4e6f7420656e6f756768204c494e4b0000000000000000000000000000000000600082015250565b7f4f6e6c7920565246436f6f7264696e61746f722063616e2066756c66696c6c00600082015250565b610da581610bc8565b8114610db057600080fd5b50565b610dbc81610bda565b8114610dc757600080fd5b50565b610dd381610be6565b8114610dde57600080fd5b50565b610dea81610c10565b8114610df557600080fd5b5056fea2646970667358221220fac4825bee909e41e0c621281b97580fef4db9e5f6325fb09b35ab68008f607764736f6c63430008040033",
  "linkReferences": {},
  "deployedLinkReferences": {}
}