{
  "_format": "hh-sol-artifact-1",
  "contractName": "RandomNumberConsumer",
  "sourceName": "contracts/RandomNumberConsumer.sol",
  "abi": [
    {
      "inputs": [
        {
          "internalType": "uint256",
          "name": "_x",
          "type": "uint256"
        },
        {
          "internalType": "uint256",
          "name": "_y",
          "type": "uint256"
        }
      ],
      "stateMutability": "nonpayable",
      "type": "constructor"
    },
    {
      "inputs": [
        {
          "internalType": "uint256",
          "name": "n",
          "type": "uint256"
        }
      ],
      "name": "expand",
      "outputs": [
        {
          "internalType": "uint256[]",
          "name": "expandedValues",
          "type": "uint256[]"
        }
      ],
      "stateMutability": "view",
      "type": "function"
    },
    {
      "inputs": [
        {
          "internalType": "address",
          "name": "userAddress",
          "type": "address"
        }
      ],
      "name": "getRandomNumber",
      "outputs": [
        {
          "internalType": "bytes32",
          "name": "requestId",
          "type": "bytes32"
        }
      ],
      "stateMutability": "nonpayable",
      "type": "function"
    },
    {
      "inputs": [
        {
          "internalType": "address",
          "name": "userAddress",
          "type": "address"
        }
      ],
      "name": "getUserRandom",
      "outputs": [
        {
          "internalType": "uint256",
          "name": "random",
          "type": "uint256"
        }
      ],
      "stateMutability": "view",
      "type": "function"
    },
    {
      "inputs": [
        {
          "internalType": "bytes32",
          "name": "requestId",
          "type": "bytes32"
        },
        {
          "internalType": "uint256",
          "name": "randomness",
          "type": "uint256"
        }
      ],
      "name": "rawFulfillRandomness",
      "outputs": [],
      "stateMutability": "nonpayable",
      "type": "function"
    }
  ],
  "bytecode": "0x60c060405234801561001057600080fd5b5060405161101d38038061101d8339818101604052810190610032919061012f565b73dd3782915140c8f3b190b5d67eac6dc5760c46e973a36085f69e2889c224210f603d836748e7dc00888173ffffffffffffffffffffffffffffffffffffffff1660a08173ffffffffffffffffffffffffffffffffffffffff1660601b815250508073ffffffffffffffffffffffffffffffffffffffff1660808173ffffffffffffffffffffffffffffffffffffffff1660601b81525050505081600681905550806007819055507f6c3699283bda56ad74f6b855546325b68d482e983852a7a82979cc4807b641f460001b60018190555067016345785d8a0000600281905550505061018c565b60008151905061012981610175565b92915050565b6000806040838503121561014257600080fd5b60006101508582860161011a565b92505060206101618582860161011a565b9150509250929050565b6000819050919050565b61017e8161016b565b811461018957600080fd5b50565b60805160601c60a05160601c610e586101c560003960008181610377015261049a015260008181610104015261045e0152610e586000f3fe608060405234801561001057600080fd5b506004361061004c5760003560e01c80633b6dde1314610051578063682904a51461008157806394985ddd146100b1578063bc173cd9146100cd575b600080fd5b61006b60048036038101906100669190610743565b6100fd565b6040516100789190610a29565b60405180910390f35b61009b600480360381019061009691906107d1565b610253565b6040516100a89190610a07565b60405180910390f35b6100cb60048036038101906100c69190610795565b610375565b005b6100e760048036038101906100e29190610743565b610411565b6040516100f49190610af2565b60405180910390f35b60006002547f000000000000000000000000000000000000000000000000000000000000000073ffffffffffffffffffffffffffffffffffffffff166370a08231306040518263ffffffff1660e01b815260040161015b91906109ae565b60206040518083038186803b15801561017357600080fd5b505afa158015610187573d6000803e3d6000fd5b505050506040513d601f19601f820116820180604052508101906101ab91906107fa565b10156101ec576040517f08c379a00000000000000000000000000000000000000000000000000000000081526004016101e390610ab2565b60405180910390fd5b6101fa60015460025461045a565b9050816005600083815260200190815260200160002060006101000a81548173ffffffffffffffffffffffffffffffffffffffff021916908373ffffffffffffffffffffffffffffffffffffffff160217905550919050565b60608167ffffffffffffffff811115610295577f4e487b7100000000000000000000000000000000000000000000000000000000600052604160045260246000fd5b6040519080825280602002602001820160405280156102c35781602001602082028036833780820191505090505b50905060005b8281101561036f5760016032600354836040516020016102ea929190610b0d565b6040516020818303038152906040528051906020012060001c61030d9190610cd4565b6103179190610b9c565b828281518110610350577f4e487b7100000000000000000000000000000000000000000000000000000000600052603260045260246000fd5b602002602001018181525050808061036790610c77565b9150506102c9565b50919050565b7f000000000000000000000000000000000000000000000000000000000000000073ffffffffffffffffffffffffffffffffffffffff163373ffffffffffffffffffffffffffffffffffffffff1614610403576040517f08c379a00000000000000000000000000000000000000000000000000000000081526004016103fa90610ad2565b60405180910390fd5b61040d82826105b9565b5050565b6000600460008373ffffffffffffffffffffffffffffffffffffffff1673ffffffffffffffffffffffffffffffffffffffff168152602001908152602001600020549050919050565b60007f000000000000000000000000000000000000000000000000000000000000000073ffffffffffffffffffffffffffffffffffffffff16634000aea07f0000000000000000000000000000000000000000000000000000000000000000848660006040516020016104ce929190610a44565b6040516020818303038152906040526040518463ffffffff1660e01b81526004016104fb939291906109c9565b602060405180830381600087803b15801561051557600080fd5b505af1158015610529573d6000803e3d6000fd5b505050506040513d601f19601f8201168201806040525081019061054d919061076c565b50600061056f8460003060008089815260200190815260200160002054610661565b90506001600080868152602001908152602001600020546105909190610b9c565b600080868152602001908152602001600020819055506105b0848261069d565b91505092915050565b60006105c36106d0565b9050600181836105d39190610cd4565b6105dd9190610b9c565b600381905550600354600460006005600087815260200190815260200160002060009054906101000a900473ffffffffffffffffffffffffffffffffffffffff1673ffffffffffffffffffffffffffffffffffffffff1673ffffffffffffffffffffffffffffffffffffffff16815260200190815260200160002081905550505050565b60008484848460405160200161067a9493929190610a6d565b6040516020818303038152906040528051906020012060001c9050949350505050565b600082826040516020016106b2929190610982565b60405160208183030381529060405280519060200120905092915050565b6000600654905090565b6000813590506106e981610dc6565b92915050565b6000815190506106fe81610ddd565b92915050565b60008135905061071381610df4565b92915050565b60008135905061072881610e0b565b92915050565b60008151905061073d81610e0b565b92915050565b60006020828403121561075557600080fd5b6000610763848285016106da565b91505092915050565b60006020828403121561077e57600080fd5b600061078c848285016106ef565b91505092915050565b600080604083850312156107a857600080fd5b60006107b685828601610704565b92505060206107c785828601610719565b9150509250929050565b6000602082840312156107e357600080fd5b60006107f184828501610719565b91505092915050565b60006020828403121561080c57600080fd5b600061081a8482850161072e565b91505092915050565b600061082f838361094d565b60208301905092915050565b61084481610bf2565b82525050565b600061085582610b46565b61085f8185610b69565b935061086a83610b36565b8060005b8381101561089b5781516108828882610823565b975061088d83610b5c565b92505060018101905061086e565b5085935050505092915050565b6108b181610c10565b82525050565b6108c86108c382610c10565b610cc0565b82525050565b60006108d982610b51565b6108e38185610b7a565b93506108f3818560208601610c44565b6108fc81610d63565b840191505092915050565b6000610914600f83610b8b565b915061091f82610d74565b602082019050919050565b6000610937601f83610b8b565b915061094282610d9d565b602082019050919050565b61095681610c3a565b82525050565b61096581610c3a565b82525050565b61097c61097782610c3a565b610cca565b82525050565b600061098e82856108b7565b60208201915061099e828461096b565b6020820191508190509392505050565b60006020820190506109c3600083018461083b565b92915050565b60006060820190506109de600083018661083b565b6109eb602083018561095c565b81810360408301526109fd81846108ce565b9050949350505050565b60006020820190508181036000830152610a21818461084a565b905092915050565b6000602082019050610a3e60008301846108a8565b92915050565b6000604082019050610a5960008301856108a8565b610a66602083018461095c565b9392505050565b6000608082019050610a8260008301876108a8565b610a8f602083018661095c565b610a9c604083018561083b565b610aa9606083018461095c565b95945050505050565b60006020820190508181036000830152610acb81610907565b9050919050565b60006020820190508181036000830152610aeb8161092a565b9050919050565b6000602082019050610b07600083018461095c565b92915050565b6000604082019050610b22600083018561095c565b610b2f602083018461095c565b9392505050565b6000819050602082019050919050565b600081519050919050565b600081519050919050565b6000602082019050919050565b600082825260208201905092915050565b600082825260208201905092915050565b600082825260208201905092915050565b6000610ba782610c3a565b9150610bb283610c3a565b9250827fffffffffffffffffffffffffffffffffffffffffffffffffffffffffffffffff03821115610be757610be6610d05565b5b828201905092915050565b6000610bfd82610c1a565b9050919050565b60008115159050919050565b6000819050919050565b600073ffffffffffffffffffffffffffffffffffffffff82169050919050565b6000819050919050565b60005b83811015610c62578082015181840152602081019050610c47565b83811115610c71576000848401525b50505050565b6000610c8282610c3a565b91507fffffffffffffffffffffffffffffffffffffffffffffffffffffffffffffffff821415610cb557610cb4610d05565b5b600182019050919050565b6000819050919050565b6000819050919050565b6000610cdf82610c3a565b9150610cea83610c3a565b925082610cfa57610cf9610d34565b5b828206905092915050565b7f4e487b7100000000000000000000000000000000000000000000000000000000600052601160045260246000fd5b7f4e487b7100000000000000000000000000000000000000000000000000000000600052601260045260246000fd5b6000601f19601f8301169050919050565b7f4e6f7420656e6f756768204c494e4b0000000000000000000000000000000000600082015250565b7f4f6e6c7920565246436f6f7264696e61746f722063616e2066756c66696c6c00600082015250565b610dcf81610bf2565b8114610dda57600080fd5b50565b610de681610c04565b8114610df157600080fd5b50565b610dfd81610c10565b8114610e0857600080fd5b50565b610e1481610c3a565b8114610e1f57600080fd5b5056fea264697066735822122055d7214af81e1fb1c3cbaa60b763830782e678486aa71a86dba5fa212092be9f64736f6c63430008040033",
  "linkReferences": {},
  "deployedLinkReferences": {}
}