{
  "_format": "hh-sol-artifact-1",
  "contractName": "RandomNumberConsumer",
  "sourceName": "contracts/RandomNumberConsumer.sol",
  "abi": [
    {
      "inputs": [
        {
          "internalType": "uint256",
          "name": "_x",
          "type": "uint256"
        },
        {
          "internalType": "uint256",
          "name": "_y",
          "type": "uint256"
        }
      ],
      "stateMutability": "nonpayable",
      "type": "constructor"
    },
    {
      "anonymous": false,
      "inputs": [
        {
          "indexed": true,
          "internalType": "address",
          "name": "previousOwner",
          "type": "address"
        },
        {
          "indexed": true,
          "internalType": "address",
          "name": "newOwner",
          "type": "address"
        }
      ],
      "name": "OwnershipTransferred",
      "type": "event"
    },
    {
      "inputs": [
        {
          "internalType": "uint256",
          "name": "n",
          "type": "uint256"
        }
      ],
      "name": "expand",
      "outputs": [
        {
          "internalType": "uint256[]",
          "name": "expandedValues",
          "type": "uint256[]"
        }
      ],
      "stateMutability": "view",
      "type": "function"
    },
    {
      "inputs": [
        {
          "internalType": "address",
          "name": "userAddress",
          "type": "address"
        }
      ],
      "name": "getRandomNumber",
      "outputs": [
        {
          "internalType": "bytes32",
          "name": "requestId",
          "type": "bytes32"
        }
      ],
      "stateMutability": "nonpayable",
      "type": "function"
    },
    {
      "inputs": [
        {
          "internalType": "address",
          "name": "userAddress",
          "type": "address"
        }
      ],
      "name": "getUserRandom",
      "outputs": [
        {
          "internalType": "uint256",
          "name": "random",
          "type": "uint256"
        }
      ],
      "stateMutability": "view",
      "type": "function"
    },
    {
      "inputs": [],
      "name": "owner",
      "outputs": [
        {
          "internalType": "address",
          "name": "",
          "type": "address"
        }
      ],
      "stateMutability": "view",
      "type": "function"
    },
    {
      "inputs": [
        {
          "internalType": "bytes32",
          "name": "requestId",
          "type": "bytes32"
        },
        {
          "internalType": "uint256",
          "name": "randomness",
          "type": "uint256"
        }
      ],
      "name": "rawFulfillRandomness",
      "outputs": [],
      "stateMutability": "nonpayable",
      "type": "function"
    },
    {
      "inputs": [],
      "name": "renounceOwnership",
      "outputs": [],
      "stateMutability": "nonpayable",
      "type": "function"
    },
    {
      "inputs": [
        {
          "internalType": "address",
          "name": "_userAddress",
          "type": "address"
        }
      ],
      "name": "setUserRandom",
      "outputs": [],
      "stateMutability": "nonpayable",
      "type": "function"
    },
    {
      "inputs": [
        {
          "internalType": "address",
          "name": "newOwner",
          "type": "address"
        }
      ],
      "name": "transferOwnership",
      "outputs": [],
      "stateMutability": "nonpayable",
      "type": "function"
    }
  ],
  "bytecode": "0x60c06040523480156200001157600080fd5b50604051620017e2380380620017e2833981810160405281019062000037919062000225565b73dd3782915140c8f3b190b5d67eac6dc5760c46e973a36085f69e2889c224210f603d836748e7dc00888173ffffffffffffffffffffffffffffffffffffffff1660a08173ffffffffffffffffffffffffffffffffffffffff1660601b815250508073ffffffffffffffffffffffffffffffffffffffff1660808173ffffffffffffffffffffffffffffffffffffffff1660601b815250505050620000f1620000e56200014060201b60201c565b6200014860201b60201c565b81600781905550806008819055507f6c3699283bda56ad74f6b855546325b68d482e983852a7a82979cc4807b641f460001b60028190555067016345785d8a000060038190555050506200028a565b600033905090565b6000600160009054906101000a900473ffffffffffffffffffffffffffffffffffffffff16905081600160006101000a81548173ffffffffffffffffffffffffffffffffffffffff021916908373ffffffffffffffffffffffffffffffffffffffff1602179055508173ffffffffffffffffffffffffffffffffffffffff168173ffffffffffffffffffffffffffffffffffffffff167f8be0079c531659141344cd1fd0a4f28419497f9722a3daafe3b4186f6b6457e060405160405180910390a35050565b6000815190506200021f8162000270565b92915050565b600080604083850312156200023957600080fd5b600062000249858286016200020e565b92505060206200025c858286016200020e565b9150509250929050565b6000819050919050565b6200027b8162000266565b81146200028757600080fd5b50565b60805160601c60a05160601c61151e620002c460003960008181610681015261092001526000818161021c01526108e4015261151e6000f3fe608060405234801561001057600080fd5b50600436106100885760003560e01c80638da5cb5b1161005b5780638da5cb5b1461011357806394985ddd14610131578063bc173cd91461014d578063f2fde38b1461017d57610088565b80633b6dde131461008d57806346903137146100bd578063682904a5146100d9578063715018a614610109575b600080fd5b6100a760048036038101906100a29190610d0b565b610199565b6040516100b49190611037565b60405180910390f35b6100d760048036038101906100d29190610d0b565b61036b565b005b6100f360048036038101906100ee9190610d99565b61042f565b6040516101009190611015565b60405180910390f35b6101116105cd565b005b61011b610655565b6040516101289190610fbc565b60405180910390f35b61014b60048036038101906101469190610d5d565b61067f565b005b61016760048036038101906101629190610d0b565b61071b565b6040516101749190611140565b60405180910390f35b61019760048036038101906101929190610d0b565b6107e0565b005b60006101a36108d8565b73ffffffffffffffffffffffffffffffffffffffff166101c1610655565b73ffffffffffffffffffffffffffffffffffffffff1614610217576040517f08c379a000000000000000000000000000000000000000000000000000000000815260040161020e90611100565b60405180910390fd5b6003547f000000000000000000000000000000000000000000000000000000000000000073ffffffffffffffffffffffffffffffffffffffff166370a08231306040518263ffffffff1660e01b81526004016102739190610fbc565b60206040518083038186803b15801561028b57600080fd5b505afa15801561029f573d6000803e3d6000fd5b505050506040513d601f19601f820116820180604052508101906102c39190610dc2565b1015610304576040517f08c379a00000000000000000000000000000000000000000000000000000000081526004016102fb906110e0565b60405180910390fd5b6103126002546003546108e0565b9050816006600083815260200190815260200160002060006101000a81548173ffffffffffffffffffffffffffffffffffffffff021916908373ffffffffffffffffffffffffffffffffffffffff160217905550919050565b6103736108d8565b73ffffffffffffffffffffffffffffffffffffffff16610391610655565b73ffffffffffffffffffffffffffffffffffffffff16146103e7576040517f08c379a00000000000000000000000000000000000000000000000000000000081526004016103de90611100565b60405180910390fd5b6000600560008373ffffffffffffffffffffffffffffffffffffffff1673ffffffffffffffffffffffffffffffffffffffff1681526020019081526020016000208190555050565b60606104396108d8565b73ffffffffffffffffffffffffffffffffffffffff16610457610655565b73ffffffffffffffffffffffffffffffffffffffff16146104ad576040517f08c379a00000000000000000000000000000000000000000000000000000000081526004016104a490611100565b60405180910390fd5b8167ffffffffffffffff8111156104ed577f4e487b7100000000000000000000000000000000000000000000000000000000600052604160045260246000fd5b60405190808252806020026020018201604052801561051b5781602001602082028036833780820191505090505b50905060005b828110156105c757600160326004548360405160200161054292919061115b565b6040516020818303038152906040528051906020012060001c6105659190611322565b61056f91906111ea565b8282815181106105a8577f4e487b7100000000000000000000000000000000000000000000000000000000600052603260045260246000fd5b60200260200101818152505080806105bf906112c5565b915050610521565b50919050565b6105d56108d8565b73ffffffffffffffffffffffffffffffffffffffff166105f3610655565b73ffffffffffffffffffffffffffffffffffffffff1614610649576040517f08c379a000000000000000000000000000000000000000000000000000000000815260040161064090611100565b60405180910390fd5b6106536000610a3f565b565b6000600160009054906101000a900473ffffffffffffffffffffffffffffffffffffffff16905090565b7f000000000000000000000000000000000000000000000000000000000000000073ffffffffffffffffffffffffffffffffffffffff163373ffffffffffffffffffffffffffffffffffffffff161461070d576040517f08c379a000000000000000000000000000000000000000000000000000000000815260040161070490611120565b60405180910390fd5b6107178282610b05565b5050565b60006107256108d8565b73ffffffffffffffffffffffffffffffffffffffff16610743610655565b73ffffffffffffffffffffffffffffffffffffffff1614610799576040517f08c379a000000000000000000000000000000000000000000000000000000000815260040161079090611100565b60405180910390fd5b600560008373ffffffffffffffffffffffffffffffffffffffff1673ffffffffffffffffffffffffffffffffffffffff168152602001908152602001600020549050919050565b6107e86108d8565b73ffffffffffffffffffffffffffffffffffffffff16610806610655565b73ffffffffffffffffffffffffffffffffffffffff161461085c576040517f08c379a000000000000000000000000000000000000000000000000000000000815260040161085390611100565b60405180910390fd5b600073ffffffffffffffffffffffffffffffffffffffff168173ffffffffffffffffffffffffffffffffffffffff1614156108cc576040517f08c379a00000000000000000000000000000000000000000000000000000000081526004016108c3906110c0565b60405180910390fd5b6108d581610a3f565b50565b600033905090565b60007f000000000000000000000000000000000000000000000000000000000000000073ffffffffffffffffffffffffffffffffffffffff16634000aea07f000000000000000000000000000000000000000000000000000000000000000084866000604051602001610954929190611052565b6040516020818303038152906040526040518463ffffffff1660e01b815260040161098193929190610fd7565b602060405180830381600087803b15801561099b57600080fd5b505af11580156109af573d6000803e3d6000fd5b505050506040513d601f19601f820116820180604052508101906109d39190610d34565b5060006109f58460003060008089815260200190815260200160002054610bad565b9050600160008086815260200190815260200160002054610a1691906111ea565b60008086815260200190815260200160002081905550610a368482610be9565b91505092915050565b6000600160009054906101000a900473ffffffffffffffffffffffffffffffffffffffff16905081600160006101000a81548173ffffffffffffffffffffffffffffffffffffffff021916908373ffffffffffffffffffffffffffffffffffffffff1602179055508173ffffffffffffffffffffffffffffffffffffffff168173ffffffffffffffffffffffffffffffffffffffff167f8be0079c531659141344cd1fd0a4f28419497f9722a3daafe3b4186f6b6457e060405160405180910390a35050565b6000610b0f610c1c565b905060018183610b1f9190611322565b610b2991906111ea565b600481905550600454600560006006600087815260200190815260200160002060009054906101000a900473ffffffffffffffffffffffffffffffffffffffff1673ffffffffffffffffffffffffffffffffffffffff1673ffffffffffffffffffffffffffffffffffffffff16815260200190815260200160002081905550505050565b600084848484604051602001610bc6949392919061107b565b6040516020818303038152906040528051906020012060001c9050949350505050565b60008282604051602001610bfe929190610f90565b60405160208183030381529060405280519060200120905092915050565b6000610c266108d8565b73ffffffffffffffffffffffffffffffffffffffff16610c44610655565b73ffffffffffffffffffffffffffffffffffffffff1614610c9a576040517f08c379a0000000000000000000000000000000000000000000000000000000008152600401610c9190611100565b60405180910390fd5b600754905090565b600081359050610cb18161148c565b92915050565b600081519050610cc6816114a3565b92915050565b600081359050610cdb816114ba565b92915050565b600081359050610cf0816114d1565b92915050565b600081519050610d05816114d1565b92915050565b600060208284031215610d1d57600080fd5b6000610d2b84828501610ca2565b91505092915050565b600060208284031215610d4657600080fd5b6000610d5484828501610cb7565b91505092915050565b60008060408385031215610d7057600080fd5b6000610d7e85828601610ccc565b9250506020610d8f85828601610ce1565b9150509250929050565b600060208284031215610dab57600080fd5b6000610db984828501610ce1565b91505092915050565b600060208284031215610dd457600080fd5b6000610de284828501610cf6565b91505092915050565b6000610df78383610f5b565b60208301905092915050565b610e0c81611240565b82525050565b6000610e1d82611194565b610e2781856111b7565b9350610e3283611184565b8060005b83811015610e63578151610e4a8882610deb565b9750610e55836111aa565b925050600181019050610e36565b5085935050505092915050565b610e798161125e565b82525050565b610e90610e8b8261125e565b61130e565b82525050565b6000610ea18261119f565b610eab81856111c8565b9350610ebb818560208601611292565b610ec4816113b1565b840191505092915050565b6000610edc6026836111d9565b9150610ee7826113c2565b604082019050919050565b6000610eff600f836111d9565b9150610f0a82611411565b602082019050919050565b6000610f226020836111d9565b9150610f2d8261143a565b602082019050919050565b6000610f45601f836111d9565b9150610f5082611463565b602082019050919050565b610f6481611288565b82525050565b610f7381611288565b82525050565b610f8a610f8582611288565b611318565b82525050565b6000610f9c8285610e7f565b602082019150610fac8284610f79565b6020820191508190509392505050565b6000602082019050610fd16000830184610e03565b92915050565b6000606082019050610fec6000830186610e03565b610ff96020830185610f6a565b818103604083015261100b8184610e96565b9050949350505050565b6000602082019050818103600083015261102f8184610e12565b905092915050565b600060208201905061104c6000830184610e70565b92915050565b60006040820190506110676000830185610e70565b6110746020830184610f6a565b9392505050565b60006080820190506110906000830187610e70565b61109d6020830186610f6a565b6110aa6040830185610e03565b6110b76060830184610f6a565b95945050505050565b600060208201905081810360008301526110d981610ecf565b9050919050565b600060208201905081810360008301526110f981610ef2565b9050919050565b6000602082019050818103600083015261111981610f15565b9050919050565b6000602082019050818103600083015261113981610f38565b9050919050565b60006020820190506111556000830184610f6a565b92915050565b60006040820190506111706000830185610f6a565b61117d6020830184610f6a565b9392505050565b6000819050602082019050919050565b600081519050919050565b600081519050919050565b6000602082019050919050565b600082825260208201905092915050565b600082825260208201905092915050565b600082825260208201905092915050565b60006111f582611288565b915061120083611288565b9250827fffffffffffffffffffffffffffffffffffffffffffffffffffffffffffffffff0382111561123557611234611353565b5b828201905092915050565b600061124b82611268565b9050919050565b60008115159050919050565b6000819050919050565b600073ffffffffffffffffffffffffffffffffffffffff82169050919050565b6000819050919050565b60005b838110156112b0578082015181840152602081019050611295565b838111156112bf576000848401525b50505050565b60006112d082611288565b91507fffffffffffffffffffffffffffffffffffffffffffffffffffffffffffffffff82141561130357611302611353565b5b600182019050919050565b6000819050919050565b6000819050919050565b600061132d82611288565b915061133883611288565b92508261134857611347611382565b5b828206905092915050565b7f4e487b7100000000000000000000000000000000000000000000000000000000600052601160045260246000fd5b7f4e487b7100000000000000000000000000000000000000000000000000000000600052601260045260246000fd5b6000601f19601f8301169050919050565b7f4f776e61626c653a206e6577206f776e657220697320746865207a65726f206160008201527f6464726573730000000000000000000000000000000000000000000000000000602082015250565b7f4e6f7420656e6f756768204c494e4b0000000000000000000000000000000000600082015250565b7f4f776e61626c653a2063616c6c6572206973206e6f7420746865206f776e6572600082015250565b7f4f6e6c7920565246436f6f7264696e61746f722063616e2066756c66696c6c00600082015250565b61149581611240565b81146114a057600080fd5b50565b6114ac81611252565b81146114b757600080fd5b50565b6114c38161125e565b81146114ce57600080fd5b50565b6114da81611288565b81146114e557600080fd5b5056fea264697066735822122054c8e4dc119d47273e1a3da8696bd2946384f506ffc743e66f2483c5873cf0ff64736f6c63430008040033",
  "linkReferences": {},
  "deployedLinkReferences": {}
}