{
  "_format": "hh-sol-artifact-1",
  "contractName": "RandomNumberConsumer",
  "sourceName": "contracts/RandomNumberConsumer.sol",
  "abi": [
    {
      "inputs": [],
      "stateMutability": "nonpayable",
      "type": "constructor"
    },
    {
      "inputs": [
        {
          "internalType": "uint256",
          "name": "n",
          "type": "uint256"
        }
      ],
      "name": "expand",
      "outputs": [
        {
          "internalType": "uint256[]",
          "name": "expandedValues",
          "type": "uint256[]"
        }
      ],
      "stateMutability": "view",
      "type": "function"
    },
    {
      "inputs": [],
      "name": "getRandomNumber",
      "outputs": [
        {
          "internalType": "bytes32",
          "name": "requestId",
          "type": "bytes32"
        }
      ],
      "stateMutability": "nonpayable",
      "type": "function"
    },
    {
      "inputs": [
        {
          "internalType": "bytes32",
          "name": "requestId",
          "type": "bytes32"
        },
        {
          "internalType": "uint256",
          "name": "randomness",
          "type": "uint256"
        }
      ],
      "name": "rawFulfillRandomness",
      "outputs": [],
      "stateMutability": "nonpayable",
      "type": "function"
    },
    {
      "inputs": [
        {
          "internalType": "address",
          "name": "",
          "type": "address"
        }
      ],
      "name": "userRandom",
      "outputs": [
        {
          "internalType": "uint256",
          "name": "",
          "type": "uint256"
        }
      ],
      "stateMutability": "view",
      "type": "function"
    }
  ],
  "bytecode": "0x60c060405234801561001057600080fd5b5073dd3782915140c8f3b190b5d67eac6dc5760c46e973a36085f69e2889c224210f603d836748e7dc00888173ffffffffffffffffffffffffffffffffffffffff1660a08173ffffffffffffffffffffffffffffffffffffffff1660601b815250508073ffffffffffffffffffffffffffffffffffffffff1660808173ffffffffffffffffffffffffffffffffffffffff1660601b8152505050507f6c3699283bda56ad74f6b855546325b68d482e983852a7a82979cc4807b641f460001b60018190555067016345785d8a000060028190555060805160601c60a05160601c610dfd61011d6000396000818161022701526104f10152600081816102c801526104b50152610dfd6000f3fe608060405234801561001057600080fd5b506004361061004c5760003560e01c80632bc8432a14610051578063682904a51461008157806394985ddd146100b1578063dbdff2c1146100cd575b600080fd5b61006b600480360381019061006691906106e8565b6100eb565b6040516100789190610a97565b60405180910390f35b61009b60048036038101906100969190610776565b610103565b6040516100a891906109ac565b60405180910390f35b6100cb60048036038101906100c6919061073a565b610225565b005b6100d56102c1565b6040516100e291906109ce565b60405180910390f35b60056020528060005260406000206000915090505481565b60608167ffffffffffffffff811115610145577f4e487b7100000000000000000000000000000000000000000000000000000000600052604160045260246000fd5b6040519080825280602002602001820160405280156101735781602001602082028036833780820191505090505b50905060005b8281101561021f57600160326004548360405160200161019a929190610ab2565b6040516020818303038152906040528051906020012060001c6101bd9190610c79565b6101c79190610b41565b828281518110610200577f4e487b7100000000000000000000000000000000000000000000000000000000600052603260045260246000fd5b602002602001018181525050808061021790610c1c565b915050610179565b50919050565b7f000000000000000000000000000000000000000000000000000000000000000073ffffffffffffffffffffffffffffffffffffffff163373ffffffffffffffffffffffffffffffffffffffff16146102b3576040517f08c379a00000000000000000000000000000000000000000000000000000000081526004016102aa90610a77565b60405180910390fd5b6102bd8282610415565b5050565b60006002547f000000000000000000000000000000000000000000000000000000000000000073ffffffffffffffffffffffffffffffffffffffff166370a08231306040518263ffffffff1660e01b815260040161031f9190610953565b60206040518083038186803b15801561033757600080fd5b505afa15801561034b573d6000803e3d6000fd5b505050506040513d601f19601f8201168201806040525081019061036f919061079f565b10156103b0576040517f08c379a00000000000000000000000000000000000000000000000000000000081526004016103a790610a57565b60405180910390fd5b6103be6001546002546104b1565b9050336006600083815260200190815260200160002060006101000a81548173ffffffffffffffffffffffffffffffffffffffff021916908373ffffffffffffffffffffffffffffffffffffffff16021790555090565b60016032826104249190610c79565b61042e9190610b41565b600481905550600454600560006006600086815260200190815260200160002060009054906101000a900473ffffffffffffffffffffffffffffffffffffffff1673ffffffffffffffffffffffffffffffffffffffff1673ffffffffffffffffffffffffffffffffffffffff168152602001908152602001600020819055505050565b60007f000000000000000000000000000000000000000000000000000000000000000073ffffffffffffffffffffffffffffffffffffffff16634000aea07f0000000000000000000000000000000000000000000000000000000000000000848660006040516020016105259291906109e9565b6040516020818303038152906040526040518463ffffffff1660e01b81526004016105529392919061096e565b602060405180830381600087803b15801561056c57600080fd5b505af1158015610580573d6000803e3d6000fd5b505050506040513d601f19601f820116820180604052508101906105a49190610711565b5060006105c68460003060008089815260200190815260200160002054610610565b90506001600080868152602001908152602001600020546105e79190610b41565b60008086815260200190815260200160002081905550610607848261064c565b91505092915050565b6000848484846040516020016106299493929190610a12565b6040516020818303038152906040528051906020012060001c9050949350505050565b60008282604051602001610661929190610927565b60405160208183030381529060405280519060200120905092915050565b60008135905061068e81610d6b565b92915050565b6000815190506106a381610d82565b92915050565b6000813590506106b881610d99565b92915050565b6000813590506106cd81610db0565b92915050565b6000815190506106e281610db0565b92915050565b6000602082840312156106fa57600080fd5b60006107088482850161067f565b91505092915050565b60006020828403121561072357600080fd5b600061073184828501610694565b91505092915050565b6000806040838503121561074d57600080fd5b600061075b858286016106a9565b925050602061076c858286016106be565b9150509250929050565b60006020828403121561078857600080fd5b6000610796848285016106be565b91505092915050565b6000602082840312156107b157600080fd5b60006107bf848285016106d3565b91505092915050565b60006107d483836108f2565b60208301905092915050565b6107e981610b97565b82525050565b60006107fa82610aeb565b6108048185610b0e565b935061080f83610adb565b8060005b8381101561084057815161082788826107c8565b975061083283610b01565b925050600181019050610813565b5085935050505092915050565b61085681610bb5565b82525050565b61086d61086882610bb5565b610c65565b82525050565b600061087e82610af6565b6108888185610b1f565b9350610898818560208601610be9565b6108a181610d08565b840191505092915050565b60006108b9600f83610b30565b91506108c482610d19565b602082019050919050565b60006108dc601f83610b30565b91506108e782610d42565b602082019050919050565b6108fb81610bdf565b82525050565b61090a81610bdf565b82525050565b61092161091c82610bdf565b610c6f565b82525050565b6000610933828561085c565b6020820191506109438284610910565b6020820191508190509392505050565b600060208201905061096860008301846107e0565b92915050565b600060608201905061098360008301866107e0565b6109906020830185610901565b81810360408301526109a28184610873565b9050949350505050565b600060208201905081810360008301526109c681846107ef565b905092915050565b60006020820190506109e3600083018461084d565b92915050565b60006040820190506109fe600083018561084d565b610a0b6020830184610901565b9392505050565b6000608082019050610a27600083018761084d565b610a346020830186610901565b610a4160408301856107e0565b610a4e6060830184610901565b95945050505050565b60006020820190508181036000830152610a70816108ac565b9050919050565b60006020820190508181036000830152610a90816108cf565b9050919050565b6000602082019050610aac6000830184610901565b92915050565b6000604082019050610ac76000830185610901565b610ad46020830184610901565b9392505050565b6000819050602082019050919050565b600081519050919050565b600081519050919050565b6000602082019050919050565b600082825260208201905092915050565b600082825260208201905092915050565b600082825260208201905092915050565b6000610b4c82610bdf565b9150610b5783610bdf565b9250827fffffffffffffffffffffffffffffffffffffffffffffffffffffffffffffffff03821115610b8c57610b8b610caa565b5b828201905092915050565b6000610ba282610bbf565b9050919050565b60008115159050919050565b6000819050919050565b600073ffffffffffffffffffffffffffffffffffffffff82169050919050565b6000819050919050565b60005b83811015610c07578082015181840152602081019050610bec565b83811115610c16576000848401525b50505050565b6000610c2782610bdf565b91507fffffffffffffffffffffffffffffffffffffffffffffffffffffffffffffffff821415610c5a57610c59610caa565b5b600182019050919050565b6000819050919050565b6000819050919050565b6000610c8482610bdf565b9150610c8f83610bdf565b925082610c9f57610c9e610cd9565b5b828206905092915050565b7f4e487b7100000000000000000000000000000000000000000000000000000000600052601160045260246000fd5b7f4e487b7100000000000000000000000000000000000000000000000000000000600052601260045260246000fd5b6000601f19601f8301169050919050565b7f4e6f7420656e6f756768204c494e4b0000000000000000000000000000000000600082015250565b7f4f6e6c7920565246436f6f7264696e61746f722063616e2066756c66696c6c00600082015250565b610d7481610b97565b8114610d7f57600080fd5b50565b610d8b81610ba9565b8114610d9657600080fd5b50565b610da281610bb5565b8114610dad57600080fd5b50565b610db981610bdf565b8114610dc457600080fd5b5056fea2646970667358221220ec6c80fb8648a284c56c6f8c632699bb6684e8131f5187b29ed4fb03ec0eafe764736f6c63430008040033",
  "linkReferences": {},
  "deployedLinkReferences": {}
}