{
  "_format": "hh-sol-artifact-1",
  "contractName": "userReceive",
  "sourceName": "contracts/RandomNumberConsumer.sol",
  "abi": [
    {
      "inputs": [
        {
          "internalType": "contract RandomNumberConsumer",
          "name": "_randomNumberConsumer",
          "type": "address"
        },
        {
          "internalType": "contract IERC20",
          "name": "_tokenAddress",
          "type": "address"
        }
      ],
      "stateMutability": "nonpayable",
      "type": "constructor"
    },
    {
      "anonymous": false,
      "inputs": [
        {
          "indexed": true,
          "internalType": "address",
          "name": "previousOwner",
          "type": "address"
        },
        {
          "indexed": true,
          "internalType": "address",
          "name": "newOwner",
          "type": "address"
        }
      ],
      "name": "OwnershipTransferred",
      "type": "event"
    },
    {
      "inputs": [
        {
          "internalType": "address",
          "name": "userAddress",
          "type": "address"
        }
      ],
      "name": "getUser",
      "outputs": [
        {
          "internalType": "uint256",
          "name": "userCount",
          "type": "uint256"
        }
      ],
      "stateMutability": "view",
      "type": "function"
    },
    {
      "inputs": [],
      "name": "owner",
      "outputs": [
        {
          "internalType": "address",
          "name": "",
          "type": "address"
        }
      ],
      "stateMutability": "view",
      "type": "function"
    },
    {
      "inputs": [],
      "name": "receives",
      "outputs": [],
      "stateMutability": "nonpayable",
      "type": "function"
    },
    {
      "inputs": [],
      "name": "renounceOwnership",
      "outputs": [],
      "stateMutability": "nonpayable",
      "type": "function"
    },
    {
      "inputs": [
        {
          "internalType": "address",
          "name": "newOwner",
          "type": "address"
        }
      ],
      "name": "transferOwnership",
      "outputs": [],
      "stateMutability": "nonpayable",
      "type": "function"
    },
    {
      "inputs": [],
      "name": "userUse",
      "outputs": [],
      "stateMutability": "nonpayable",
      "type": "function"
    }
  ],
  "bytecode": "0x60806040523480156200001157600080fd5b50604051620014613803806200146183398181016040528101906200003791906200019a565b620000576200004b620000a060201b60201c565b620000a860201b60201c565b81600260006101000a81548173ffffffffffffffffffffffffffffffffffffffff021916908373ffffffffffffffffffffffffffffffffffffffff16021790555050506200026b565b600033905090565b60008060009054906101000a900473ffffffffffffffffffffffffffffffffffffffff169050816000806101000a81548173ffffffffffffffffffffffffffffffffffffffff021916908373ffffffffffffffffffffffffffffffffffffffff1602179055508173ffffffffffffffffffffffffffffffffffffffff168173ffffffffffffffffffffffffffffffffffffffff167f8be0079c531659141344cd1fd0a4f28419497f9722a3daafe3b4186f6b6457e060405160405180910390a35050565b6000815190506200017d8162000237565b92915050565b600081519050620001948162000251565b92915050565b60008060408385031215620001ae57600080fd5b6000620001be8582860162000183565b9250506020620001d1858286016200016c565b9150509250929050565b6000620001e88262000217565b9050919050565b6000620001fc82620001db565b9050919050565b60006200021082620001db565b9050919050565b600073ffffffffffffffffffffffffffffffffffffffff82169050919050565b6200024281620001ef565b81146200024e57600080fd5b50565b6200025c8162000203565b81146200026857600080fd5b50565b6111e6806200027b6000396000f3fe608060405234801561001057600080fd5b50600436106100625760003560e01c80636f77926b14610067578063715018a6146100975780638da5cb5b146100a1578063978deb1d146100bf578063f2fde38b146100c9578063f45fb145146100e5575b600080fd5b610081600480360381019061007c919061097a565b6100ef565b60405161008e9190610cde565b60405180910390f35b61009f6101a3565b005b6100a961022b565b6040516100b69190610bb8565b60405180910390f35b6100c7610254565b005b6100e360048036038101906100de919061097a565b610304565b005b6100ed6103fc565b005b6000600260009054906101000a900473ffffffffffffffffffffffffffffffffffffffff1673ffffffffffffffffffffffffffffffffffffffff1663bc173cd9836040518263ffffffff1660e01b815260040161014c9190610bb8565b60206040518083038186803b15801561016457600080fd5b505afa158015610178573d6000803e3d6000fd5b505050506040513d601f19601f8201168201806040525081019061019c91906109f5565b9050919050565b6101ab610552565b73ffffffffffffffffffffffffffffffffffffffff166101c961022b565b73ffffffffffffffffffffffffffffffffffffffff161461021f576040517f08c379a000000000000000000000000000000000000000000000000000000000815260040161021690610c7e565b60405180910390fd5b610229600061055a565b565b60008060009054906101000a900473ffffffffffffffffffffffffffffffffffffffff16905090565b600260009054906101000a900473ffffffffffffffffffffffffffffffffffffffff1673ffffffffffffffffffffffffffffffffffffffff16633b6dde13336040518263ffffffff1660e01b81526004016102af9190610bb8565b602060405180830381600087803b1580156102c957600080fd5b505af11580156102dd573d6000803e3d6000fd5b505050506040513d601f19601f8201168201806040525081019061030191906109cc565b50565b61030c610552565b73ffffffffffffffffffffffffffffffffffffffff1661032a61022b565b73ffffffffffffffffffffffffffffffffffffffff1614610380576040517f08c379a000000000000000000000000000000000000000000000000000000000815260040161037790610c7e565b60405180910390fd5b600073ffffffffffffffffffffffffffffffffffffffff168173ffffffffffffffffffffffffffffffffffffffff1614156103f0576040517f08c379a00000000000000000000000000000000000000000000000000000000081526004016103e790610c1e565b60405180910390fd5b6103f98161055a565b50565b6000610407336100ef565b90506000811161044c576040517f08c379a000000000000000000000000000000000000000000000000000000000815260040161044390610c3e565b60405180910390fd5b61054f33600160009054906101000a900473ffffffffffffffffffffffffffffffffffffffff1673ffffffffffffffffffffffffffffffffffffffff1663313ce5676040518163ffffffff1660e01b815260040160206040518083038186803b1580156104b857600080fd5b505afa1580156104cc573d6000803e3d6000fd5b505050506040513d601f19601f820116820180604052508101906104f09190610a1e565b600a6104fc9190610d7e565b836105079190610e9c565b600160009054906101000a900473ffffffffffffffffffffffffffffffffffffffff1673ffffffffffffffffffffffffffffffffffffffff1661061e9092919063ffffffff16565b50565b600033905090565b60008060009054906101000a900473ffffffffffffffffffffffffffffffffffffffff169050816000806101000a81548173ffffffffffffffffffffffffffffffffffffffff021916908373ffffffffffffffffffffffffffffffffffffffff1602179055508173ffffffffffffffffffffffffffffffffffffffff168173ffffffffffffffffffffffffffffffffffffffff167f8be0079c531659141344cd1fd0a4f28419497f9722a3daafe3b4186f6b6457e060405160405180910390a35050565b61069f8363a9059cbb60e01b848460405160240161063d929190610bd3565b604051602081830303815290604052907bffffffffffffffffffffffffffffffffffffffffffffffffffffffff19166020820180517bffffffffffffffffffffffffffffffffffffffffffffffffffffffff83818316178352505050506106a4565b505050565b6000610706826040518060400160405280602081526020017f5361666545524332303a206c6f772d6c6576656c2063616c6c206661696c65648152508573ffffffffffffffffffffffffffffffffffffffff1661076b9092919063ffffffff16565b9050600081511115610766578080602001905181019061072691906109a3565b610765576040517f08c379a000000000000000000000000000000000000000000000000000000000815260040161075c90610cbe565b60405180910390fd5b5b505050565b606061077a8484600085610783565b90509392505050565b6060824710156107c8576040517f08c379a00000000000000000000000000000000000000000000000000000000081526004016107bf90610c5e565b60405180910390fd5b6107d185610897565b610810576040517f08c379a000000000000000000000000000000000000000000000000000000000815260040161080790610c9e565b60405180910390fd5b6000808673ffffffffffffffffffffffffffffffffffffffff1685876040516108399190610ba1565b60006040518083038185875af1925050503d8060008114610876576040519150601f19603f3d011682016040523d82523d6000602084013e61087b565b606091505b509150915061088b8282866108aa565b92505050949350505050565b600080823b905060008111915050919050565b606083156108ba5782905061090a565b6000835111156108cd5782518084602001fd5b816040517f08c379a00000000000000000000000000000000000000000000000000000000081526004016109019190610bfc565b60405180910390fd5b9392505050565b6000813590506109208161113d565b92915050565b60008151905061093581611154565b92915050565b60008151905061094a8161116b565b92915050565b60008151905061095f81611182565b92915050565b60008151905061097481611199565b92915050565b60006020828403121561098c57600080fd5b600061099a84828501610911565b91505092915050565b6000602082840312156109b557600080fd5b60006109c384828501610926565b91505092915050565b6000602082840312156109de57600080fd5b60006109ec8482850161093b565b91505092915050565b600060208284031215610a0757600080fd5b6000610a1584828501610950565b91505092915050565b600060208284031215610a3057600080fd5b6000610a3e84828501610965565b91505092915050565b610a5081610ef6565b82525050565b6000610a6182610cf9565b610a6b8185610d0f565b9350610a7b818560208601610f55565b80840191505092915050565b6000610a9282610d04565b610a9c8185610d1a565b9350610aac818560208601610f55565b610ab581610fb7565b840191505092915050565b6000610acd602683610d1a565b9150610ad882610fd5565b604082019050919050565b6000610af0601e83610d1a565b9150610afb82611024565b602082019050919050565b6000610b13602683610d1a565b9150610b1e8261104d565b604082019050919050565b6000610b36602083610d1a565b9150610b418261109c565b602082019050919050565b6000610b59601d83610d1a565b9150610b64826110c5565b602082019050919050565b6000610b7c602a83610d1a565b9150610b87826110ee565b604082019050919050565b610b9b81610f3e565b82525050565b6000610bad8284610a56565b915081905092915050565b6000602082019050610bcd6000830184610a47565b92915050565b6000604082019050610be86000830185610a47565b610bf56020830184610b92565b9392505050565b60006020820190508181036000830152610c168184610a87565b905092915050565b60006020820190508181036000830152610c3781610ac0565b9050919050565b60006020820190508181036000830152610c5781610ae3565b9050919050565b60006020820190508181036000830152610c7781610b06565b9050919050565b60006020820190508181036000830152610c9781610b29565b9050919050565b60006020820190508181036000830152610cb781610b4c565b9050919050565b60006020820190508181036000830152610cd781610b6f565b9050919050565b6000602082019050610cf36000830184610b92565b92915050565b600081519050919050565b600081519050919050565b600081905092915050565b600082825260208201905092915050565b6000808291508390505b6001851115610d7557808604811115610d5157610d50610f88565b5b6001851615610d605780820291505b8081029050610d6e85610fc8565b9450610d35565b94509492505050565b6000610d8982610f3e565b9150610d9483610f48565b9250610dc17fffffffffffffffffffffffffffffffffffffffffffffffffffffffffffffffff8484610dc9565b905092915050565b600082610dd95760019050610e95565b81610de75760009050610e95565b8160018114610dfd5760028114610e0757610e36565b6001915050610e95565b60ff841115610e1957610e18610f88565b5b8360020a915084821115610e3057610e2f610f88565b5b50610e95565b5060208310610133831016604e8410600b8410161715610e6b5782820a905083811115610e6657610e65610f88565b5b610e95565b610e788484846001610d2b565b92509050818404811115610e8f57610e8e610f88565b5b81810290505b9392505050565b6000610ea782610f3e565b9150610eb283610f3e565b9250817fffffffffffffffffffffffffffffffffffffffffffffffffffffffffffffffff0483118215151615610eeb57610eea610f88565b5b828202905092915050565b6000610f0182610f1e565b9050919050565b60008115159050919050565b6000819050919050565b600073ffffffffffffffffffffffffffffffffffffffff82169050919050565b6000819050919050565b600060ff82169050919050565b60005b83811015610f73578082015181840152602081019050610f58565b83811115610f82576000848401525b50505050565b7f4e487b7100000000000000000000000000000000000000000000000000000000600052601160045260246000fd5b6000601f19601f8301169050919050565b60008160011c9050919050565b7f4f776e61626c653a206e6577206f776e657220697320746865207a65726f206160008201527f6464726573730000000000000000000000000000000000000000000000000000602082015250565b7f5468657265206172652063757272656e746c79206e6f20726577617264730000600082015250565b7f416464726573733a20696e73756666696369656e742062616c616e636520666f60008201527f722063616c6c0000000000000000000000000000000000000000000000000000602082015250565b7f4f776e61626c653a2063616c6c6572206973206e6f7420746865206f776e6572600082015250565b7f416464726573733a2063616c6c20746f206e6f6e2d636f6e7472616374000000600082015250565b7f5361666545524332303a204552433230206f7065726174696f6e20646964206e60008201527f6f74207375636365656400000000000000000000000000000000000000000000602082015250565b61114681610ef6565b811461115157600080fd5b50565b61115d81610f08565b811461116857600080fd5b50565b61117481610f14565b811461117f57600080fd5b50565b61118b81610f3e565b811461119657600080fd5b50565b6111a281610f48565b81146111ad57600080fd5b5056fea26469706673582212209bc599546c17acbbd52759ebf7d0fd6d6d18dcca499adaf88d4795dccafe037a64736f6c63430008040033",
  "linkReferences": {},
  "deployedLinkReferences": {}
}